{
  "_format": "hh-sol-artifact-1",
  "contractName": "newone",
  "sourceName": "contracts/SBT_token.sol",
  "abi": [
    {
      "inputs": [
        {
          "internalType": "address",
          "name": "initialOwner",
          "type": "address"
        }
      ],
      "stateMutability": "nonpayable",
      "type": "constructor"
    },
    {
      "inputs": [
        {
          "internalType": "address",
          "name": "sender",
          "type": "address"
        },
        {
          "internalType": "uint256",
          "name": "tokenId",
          "type": "uint256"
        },
        {
          "internalType": "address",
          "name": "owner",
          "type": "address"
        }
      ],
      "name": "ERC721IncorrectOwner",
      "type": "error"
    },
    {
      "inputs": [
        {
          "internalType": "address",
          "name": "operator",
          "type": "address"
        },
        {
          "internalType": "uint256",
          "name": "tokenId",
          "type": "uint256"
        }
      ],
      "name": "ERC721InsufficientApproval",
      "type": "error"
    },
    {
      "inputs": [
        {
          "internalType": "address",
          "name": "approver",
          "type": "address"
        }
      ],
      "name": "ERC721InvalidApprover",
      "type": "error"
    },
    {
      "inputs": [
        {
          "internalType": "address",
          "name": "operator",
          "type": "address"
        }
      ],
      "name": "ERC721InvalidOperator",
      "type": "error"
    },
    {
      "inputs": [
        {
          "internalType": "address",
          "name": "owner",
          "type": "address"
        }
      ],
      "name": "ERC721InvalidOwner",
      "type": "error"
    },
    {
      "inputs": [
        {
          "internalType": "address",
          "name": "receiver",
          "type": "address"
        }
      ],
      "name": "ERC721InvalidReceiver",
      "type": "error"
    },
    {
      "inputs": [
        {
          "internalType": "address",
          "name": "sender",
          "type": "address"
        }
      ],
      "name": "ERC721InvalidSender",
      "type": "error"
    },
    {
      "inputs": [
        {
          "internalType": "uint256",
          "name": "tokenId",
          "type": "uint256"
        }
      ],
      "name": "ERC721NonexistentToken",
      "type": "error"
    },
    {
      "inputs": [
        {
          "internalType": "address",
          "name": "owner",
          "type": "address"
        }
      ],
      "name": "OwnableInvalidOwner",
      "type": "error"
    },
    {
      "inputs": [
        {
          "internalType": "address",
          "name": "account",
          "type": "address"
        }
      ],
      "name": "OwnableUnauthorizedAccount",
      "type": "error"
    },
    {
      "anonymous": false,
      "inputs": [
        {
          "indexed": true,
          "internalType": "address",
          "name": "owner",
          "type": "address"
        },
        {
          "indexed": true,
          "internalType": "address",
          "name": "approved",
          "type": "address"
        },
        {
          "indexed": true,
          "internalType": "uint256",
          "name": "tokenId",
          "type": "uint256"
        }
      ],
      "name": "Approval",
      "type": "event"
    },
    {
      "anonymous": false,
      "inputs": [
        {
          "indexed": true,
          "internalType": "address",
          "name": "owner",
          "type": "address"
        },
        {
          "indexed": true,
          "internalType": "address",
          "name": "operator",
          "type": "address"
        },
        {
          "indexed": false,
          "internalType": "bool",
          "name": "approved",
          "type": "bool"
        }
      ],
      "name": "ApprovalForAll",
      "type": "event"
    },
    {
      "anonymous": false,
      "inputs": [
        {
          "indexed": true,
          "internalType": "address",
          "name": "previousOwner",
          "type": "address"
        },
        {
          "indexed": true,
          "internalType": "address",
          "name": "newOwner",
          "type": "address"
        }
      ],
      "name": "OwnershipTransferred",
      "type": "event"
    },
    {
      "anonymous": false,
      "inputs": [
        {
          "indexed": true,
          "internalType": "address",
          "name": "from",
          "type": "address"
        },
        {
          "indexed": true,
          "internalType": "address",
          "name": "to",
          "type": "address"
        },
        {
          "indexed": true,
          "internalType": "uint256",
          "name": "tokenId",
          "type": "uint256"
        }
      ],
      "name": "Transfer",
      "type": "event"
    },
    {
      "inputs": [
        {
          "internalType": "address",
          "name": "to",
          "type": "address"
        },
        {
          "internalType": "uint256",
          "name": "tokenId",
          "type": "uint256"
        }
      ],
      "name": "approve",
      "outputs": [],
      "stateMutability": "nonpayable",
      "type": "function"
    },
    {
      "inputs": [
        {
          "internalType": "address",
          "name": "owner",
          "type": "address"
        }
      ],
      "name": "balanceOf",
      "outputs": [
        {
          "internalType": "uint256",
          "name": "",
          "type": "uint256"
        }
      ],
      "stateMutability": "view",
      "type": "function"
    },
    {
      "inputs": [
        {
          "internalType": "uint256",
          "name": "tokenId",
          "type": "uint256"
        }
      ],
      "name": "burn",
      "outputs": [],
      "stateMutability": "nonpayable",
      "type": "function"
    },
    {
      "inputs": [
        {
          "internalType": "uint256",
          "name": "tokenId",
          "type": "uint256"
        }
      ],
      "name": "getApproved",
      "outputs": [
        {
          "internalType": "address",
          "name": "",
          "type": "address"
        }
      ],
      "stateMutability": "view",
      "type": "function"
    },
    {
      "inputs": [
        {
          "internalType": "address",
          "name": "wallet",
          "type": "address"
        }
      ],
      "name": "getGitHubUsername",
      "outputs": [
        {
          "internalType": "string",
          "name": "",
          "type": "string"
        }
      ],
      "stateMutability": "view",
      "type": "function"
    },
    {
      "inputs": [
        {
          "internalType": "uint256",
          "name": "tokenId",
          "type": "uint256"
        }
      ],
      "name": "getRole",
      "outputs": [
        {
          "internalType": "enum newone.Role",
          "name": "",
          "type": "uint8"
        }
      ],
      "stateMutability": "view",
      "type": "function"
    },
    {
      "inputs": [
        {
          "internalType": "address",
          "name": "owner",
          "type": "address"
        },
        {
          "internalType": "address",
          "name": "operator",
          "type": "address"
        }
      ],
      "name": "isApprovedForAll",
      "outputs": [
        {
          "internalType": "bool",
          "name": "",
          "type": "bool"
        }
      ],
      "stateMutability": "view",
      "type": "function"
    },
    {
      "inputs": [],
      "name": "name",
      "outputs": [
        {
          "internalType": "string",
          "name": "",
          "type": "string"
        }
      ],
      "stateMutability": "view",
      "type": "function"
    },
    {
      "inputs": [],
      "name": "owner",
      "outputs": [
        {
          "internalType": "address",
          "name": "",
          "type": "address"
        }
      ],
      "stateMutability": "view",
      "type": "function"
    },
    {
      "inputs": [
        {
          "internalType": "uint256",
          "name": "tokenId",
          "type": "uint256"
        }
      ],
      "name": "ownerOf",
      "outputs": [
        {
          "internalType": "address",
          "name": "",
          "type": "address"
        }
      ],
      "stateMutability": "view",
      "type": "function"
    },
    {
      "inputs": [],
      "name": "renounceOwnership",
      "outputs": [],
      "stateMutability": "nonpayable",
      "type": "function"
    },
    {
      "inputs": [
        {
          "internalType": "address",
          "name": "to",
          "type": "address"
        },
        {
          "internalType": "enum newone.Role",
          "name": "role",
          "type": "uint8"
        },
        {
          "internalType": "string",
          "name": "githubUsername",
          "type": "string"
        }
      ],
      "name": "safeMint",
      "outputs": [],
      "stateMutability": "nonpayable",
      "type": "function"
    },
    {
      "inputs": [
        {
          "internalType": "address",
          "name": "from",
          "type": "address"
        },
        {
          "internalType": "address",
          "name": "to",
          "type": "address"
        },
        {
          "internalType": "uint256",
          "name": "tokenId",
          "type": "uint256"
        }
      ],
      "name": "safeTransferFrom",
      "outputs": [],
      "stateMutability": "nonpayable",
      "type": "function"
    },
    {
      "inputs": [
        {
          "internalType": "address",
          "name": "from",
          "type": "address"
        },
        {
          "internalType": "address",
          "name": "to",
          "type": "address"
        },
        {
          "internalType": "uint256",
          "name": "tokenId",
          "type": "uint256"
        },
        {
          "internalType": "bytes",
          "name": "data",
          "type": "bytes"
        }
      ],
      "name": "safeTransferFrom",
      "outputs": [],
      "stateMutability": "nonpayable",
      "type": "function"
    },
    {
      "inputs": [
        {
          "internalType": "address",
          "name": "operator",
          "type": "address"
        },
        {
          "internalType": "bool",
          "name": "approved",
          "type": "bool"
        }
      ],
      "name": "setApprovalForAll",
      "outputs": [],
      "stateMutability": "nonpayable",
      "type": "function"
    },
    {
      "inputs": [
        {
          "internalType": "bytes4",
          "name": "interfaceId",
          "type": "bytes4"
        }
      ],
      "name": "supportsInterface",
      "outputs": [
        {
          "internalType": "bool",
          "name": "",
          "type": "bool"
        }
      ],
      "stateMutability": "view",
      "type": "function"
    },
    {
      "inputs": [],
      "name": "symbol",
      "outputs": [
        {
          "internalType": "string",
          "name": "",
          "type": "string"
        }
      ],
      "stateMutability": "view",
      "type": "function"
    },
    {
      "inputs": [
        {
          "internalType": "uint256",
          "name": "tokenId",
          "type": "uint256"
        }
      ],
      "name": "tokenURI",
      "outputs": [
        {
          "internalType": "string",
          "name": "",
          "type": "string"
        }
      ],
      "stateMutability": "view",
      "type": "function"
    },
    {
      "inputs": [
        {
          "internalType": "address",
          "name": "from",
          "type": "address"
        },
        {
          "internalType": "address",
          "name": "to",
          "type": "address"
        },
        {
          "internalType": "uint256",
          "name": "tokenId",
          "type": "uint256"
        }
      ],
      "name": "transferFrom",
      "outputs": [],
      "stateMutability": "nonpayable",
      "type": "function"
    },
    {
      "inputs": [
        {
          "internalType": "address",
          "name": "newOwner",
          "type": "address"
        }
      ],
      "name": "transferOwnership",
      "outputs": [],
      "stateMutability": "nonpayable",
      "type": "function"
    }
  ],
  "bytecode": "0x60806040523480156200001157600080fd5b50604051620033ce380380620033ce833981810160405281019062000037919062000288565b806040518060400160405280600e81526020017f536f756c426f756e64546f6b656e0000000000000000000000000000000000008152506040518060400160405280600381526020017f53425400000000000000000000000000000000000000000000000000000000008152508160009081620000b5919062000534565b508060019081620000c7919062000534565b505050600073ffffffffffffffffffffffffffffffffffffffff168173ffffffffffffffffffffffffffffffffffffffff16036200013f5760006040517f1e4fbdf70000000000000000000000000000000000000000000000000000000081526004016200013691906200062c565b60405180910390fd5b62000150816200015860201b60201c565b505062000649565b6000600660009054906101000a900473ffffffffffffffffffffffffffffffffffffffff16905081600660006101000a81548173ffffffffffffffffffffffffffffffffffffffff021916908373ffffffffffffffffffffffffffffffffffffffff1602179055508173ffffffffffffffffffffffffffffffffffffffff168173ffffffffffffffffffffffffffffffffffffffff167f8be0079c531659141344cd1fd0a4f28419497f9722a3daafe3b4186f6b6457e060405160405180910390a35050565b600080fd5b600073ffffffffffffffffffffffffffffffffffffffff82169050919050565b6000620002508262000223565b9050919050565b620002628162000243565b81146200026e57600080fd5b50565b600081519050620002828162000257565b92915050565b600060208284031215620002a157620002a06200021e565b5b6000620002b18482850162000271565b91505092915050565b600081519050919050565b7f4e487b7100000000000000000000000000000000000000000000000000000000600052604160045260246000fd5b7f4e487b7100000000000000000000000000000000000000000000000000000000600052602260045260246000fd5b600060028204905060018216806200033c57607f821691505b602082108103620003525762000351620002f4565b5b50919050565b60008190508160005260206000209050919050565b60006020601f8301049050919050565b600082821b905092915050565b600060088302620003bc7fffffffffffffffffffffffffffffffffffffffffffffffffffffffffffffffff826200037d565b620003c886836200037d565b95508019841693508086168417925050509392505050565b6000819050919050565b6000819050919050565b6000620004156200040f6200040984620003e0565b620003ea565b620003e0565b9050919050565b6000819050919050565b6200043183620003f4565b6200044962000440826200041c565b8484546200038a565b825550505050565b600090565b6200046062000451565b6200046d81848462000426565b505050565b5b8181101562000495576200048960008262000456565b60018101905062000473565b5050565b601f821115620004e457620004ae8162000358565b620004b9846200036d565b81016020851015620004c9578190505b620004e1620004d8856200036d565b83018262000472565b50505b505050565b600082821c905092915050565b60006200050960001984600802620004e9565b1980831691505092915050565b6000620005248383620004f6565b9150826002028217905092915050565b6200053f82620002ba565b67ffffffffffffffff8111156200055b576200055a620002c5565b5b62000567825462000323565b6200057482828562000499565b600060209050601f831160018114620005ac576000841562000597578287015190505b620005a3858262000516565b86555062000613565b601f198416620005bc8662000358565b60005b82811015620005e657848901518255600182019150602085019450602081019050620005bf565b8683101562000606578489015162000602601f891682620004f6565b8355505b6001600288020188555050505b505050505050565b620006268162000243565b82525050565b60006020820190506200064360008301846200061b565b92915050565b612d7580620006596000396000f3fe608060405234801561001057600080fd5b506004361061012c5760003560e01c806370a08231116100ad578063a22cb46511610071578063a22cb46514610341578063b88d4fde1461035d578063c87b56dd14610379578063e985e9c5146103a9578063f2fde38b146103d95761012c565b806370a082311461029b578063715018a6146102cb5780637bcc46d4146102d55780638da5cb5b1461030557806395d89b41146103235761012c565b806323b872dd116100f457806323b872dd146101e757806342842e0e1461020357806342966c681461021f5780635312fdc21461023b5780636352211e1461026b5761012c565b806301ffc9a71461013157806302e8a3371461016157806306fdde031461017d578063081812fc1461019b578063095ea7b3146101cb575b600080fd5b61014b60048036038101906101469190611f04565b6103f5565b6040516101589190611f4c565b60405180910390f35b61017b60048036038101906101769190612130565b6104d7565b005b610185610764565b604051610192919061221e565b60405180910390f35b6101b560048036038101906101b09190612276565b6107f6565b6040516101c291906122b2565b60405180910390f35b6101e560048036038101906101e091906122cd565b610812565b005b61020160048036038101906101fc919061230d565b610828565b005b61021d6004803603810190610218919061230d565b61092a565b005b61023960048036038101906102349190612276565b61094a565b005b61025560048036038101906102509190612276565b610aa0565b60405161026291906123d7565b60405180910390f35b61028560048036038101906102809190612276565b610aca565b60405161029291906122b2565b60405180910390f35b6102b560048036038101906102b091906123f2565b610adc565b6040516102c2919061242e565b60405180910390f35b6102d3610b96565b005b6102ef60048036038101906102ea91906123f2565b610baa565b6040516102fc919061221e565b60405180910390f35b61030d610c7b565b60405161031a91906122b2565b60405180910390f35b61032b610ca5565b604051610338919061221e565b60405180910390f35b61035b60048036038101906103569190612475565b610d37565b005b61037760048036038101906103729190612556565b610d4d565b005b610393600480360381019061038e9190612276565b610d6a565b6040516103a0919061221e565b60405180910390f35b6103c360048036038101906103be91906125d9565b610dd3565b6040516103d09190611f4c565b60405180910390f35b6103f360048036038101906103ee91906123f2565b610e67565b005b60007f80ac58cd000000000000000000000000000000000000000000000000000000007bffffffffffffffffffffffffffffffffffffffffffffffffffffffff1916827bffffffffffffffffffffffffffffffffffffffffffffffffffffffff191614806104c057507f5b5e139f000000000000000000000000000000000000000000000000000000007bffffffffffffffffffffffffffffffffffffffffffffffffffffffff1916827bffffffffffffffffffffffffffffffffffffffffffffffffffffffff1916145b806104d057506104cf82610eed565b5b9050919050565b6104df610f57565b6000815111610523576040517f08c379a000000000000000000000000000000000000000000000000000000000815260040161051a90612665565b60405180910390fd5b600a60008473ffffffffffffffffffffffffffffffffffffffff1673ffffffffffffffffffffffffffffffffffffffff16815260200190815260200160002060009054906101000a900460ff16156105b0576040517f08c379a00000000000000000000000000000000000000000000000000000000081526004016105a7906126f7565b60405180910390fd5b6009816040516105c09190612753565b908152602001604051809103902060009054906101000a900460ff161561061c576040517f08c379a0000000000000000000000000000000000000000000000000000000008152600401610613906127b6565b60405180910390fd5b6000600754905061062d8482610fde565b6001600760008282546106409190612805565b9250508190555082600b600083815260200190815260200160002060006101000a81548160ff0219169083600381111561067d5761067c612360565b5b021790555081600860008673ffffffffffffffffffffffffffffffffffffffff1673ffffffffffffffffffffffffffffffffffffffff16815260200190815260200160002090816106ce9190612a45565b506001600a60008673ffffffffffffffffffffffffffffffffffffffff1673ffffffffffffffffffffffffffffffffffffffff16815260200190815260200160002060006101000a81548160ff02191690831515021790555060016009836040516107399190612753565b908152602001604051809103902060006101000a81548160ff02191690831515021790555050505050565b60606000805461077390612868565b80601f016020809104026020016040519081016040528092919081815260200182805461079f90612868565b80156107ec5780601f106107c1576101008083540402835291602001916107ec565b820191906000526020600020905b8154815290600101906020018083116107cf57829003601f168201915b5050505050905090565b600061080182610ffc565b5061080b82611084565b9050919050565b610824828261081f6110c1565b6110c9565b5050565b600073ffffffffffffffffffffffffffffffffffffffff168273ffffffffffffffffffffffffffffffffffffffff160361089a5760006040517f64a0ae9200000000000000000000000000000000000000000000000000000000815260040161089191906122b2565b60405180910390fd5b60006108ae83836108a96110c1565b6110db565b90508373ffffffffffffffffffffffffffffffffffffffff168173ffffffffffffffffffffffffffffffffffffffff1614610924578382826040517f64283d7b00000000000000000000000000000000000000000000000000000000815260040161091b93929190612b17565b60405180910390fd5b50505050565b61094583838360405180602001604052806000815250610d4d565b505050565b610952610f57565b600061095d82610aca565b90503373ffffffffffffffffffffffffffffffffffffffff168173ffffffffffffffffffffffffffffffffffffffff16146109cd576040517f08c379a00000000000000000000000000000000000000000000000000000000081526004016109c490612bc0565b60405180910390fd5b6109d6826112f5565b600b600083815260200190815260200160002060006101000a81549060ff0219169055600860008273ffffffffffffffffffffffffffffffffffffffff1673ffffffffffffffffffffffffffffffffffffffff1681526020019081526020016000206000610a449190611e3b565b6000600a60008373ffffffffffffffffffffffffffffffffffffffff1673ffffffffffffffffffffffffffffffffffffffff16815260200190815260200160002060006101000a81548160ff0219169083151502179055505050565b6000600b600083815260200190815260200160002060009054906101000a900460ff169050919050565b6000610ad582610ffc565b9050919050565b60008073ffffffffffffffffffffffffffffffffffffffff168273ffffffffffffffffffffffffffffffffffffffff1603610b4f5760006040517f89c62b64000000000000000000000000000000000000000000000000000000008152600401610b4691906122b2565b60405180910390fd5b600360008373ffffffffffffffffffffffffffffffffffffffff1673ffffffffffffffffffffffffffffffffffffffff168152602001908152602001600020549050919050565b610b9e610f57565b610ba8600061137b565b565b6060600860008373ffffffffffffffffffffffffffffffffffffffff1673ffffffffffffffffffffffffffffffffffffffff1681526020019081526020016000208054610bf690612868565b80601f0160208091040260200160405190810160405280929190818152602001828054610c2290612868565b8015610c6f5780601f10610c4457610100808354040283529160200191610c6f565b820191906000526020600020905b815481529060010190602001808311610c5257829003601f168201915b50505050509050919050565b6000600660009054906101000a900473ffffffffffffffffffffffffffffffffffffffff16905090565b606060018054610cb490612868565b80601f0160208091040260200160405190810160405280929190818152602001828054610ce090612868565b8015610d2d5780601f10610d0257610100808354040283529160200191610d2d565b820191906000526020600020905b815481529060010190602001808311610d1057829003601f168201915b5050505050905090565b610d49610d426110c1565b8383611441565b5050565b610d58848484610828565b610d64848484846115b0565b50505050565b6060610d7582610ffc565b506000610d80611767565b90506000815111610da05760405180602001604052806000815250610dcb565b80610daa8461177e565b604051602001610dbb929190612be0565b6040516020818303038152906040525b915050919050565b6000600560008473ffffffffffffffffffffffffffffffffffffffff1673ffffffffffffffffffffffffffffffffffffffff16815260200190815260200160002060008373ffffffffffffffffffffffffffffffffffffffff1673ffffffffffffffffffffffffffffffffffffffff16815260200190815260200160002060009054906101000a900460ff16905092915050565b610e6f610f57565b600073ffffffffffffffffffffffffffffffffffffffff168173ffffffffffffffffffffffffffffffffffffffff1603610ee15760006040517f1e4fbdf7000000000000000000000000000000000000000000000000000000008152600401610ed891906122b2565b60405180910390fd5b610eea8161137b565b50565b60007f01ffc9a7000000000000000000000000000000000000000000000000000000007bffffffffffffffffffffffffffffffffffffffffffffffffffffffff1916827bffffffffffffffffffffffffffffffffffffffffffffffffffffffff1916149050919050565b610f5f6110c1565b73ffffffffffffffffffffffffffffffffffffffff16610f7d610c7b565b73ffffffffffffffffffffffffffffffffffffffff1614610fdc57610fa06110c1565b6040517f118cdaa7000000000000000000000000000000000000000000000000000000008152600401610fd391906122b2565b60405180910390fd5b565b610ff882826040518060200160405280600081525061184c565b5050565b60008061100883611868565b9050600073ffffffffffffffffffffffffffffffffffffffff168173ffffffffffffffffffffffffffffffffffffffff160361107b57826040517f7e273289000000000000000000000000000000000000000000000000000000008152600401611072919061242e565b60405180910390fd5b80915050919050565b60006004600083815260200190815260200160002060009054906101000a900473ffffffffffffffffffffffffffffffffffffffff169050919050565b600033905090565b6110d683838360016118a5565b505050565b6000806110e784611868565b9050600073ffffffffffffffffffffffffffffffffffffffff168373ffffffffffffffffffffffffffffffffffffffff161461112957611128818486611a6a565b5b600073ffffffffffffffffffffffffffffffffffffffff168173ffffffffffffffffffffffffffffffffffffffff16146111ba5761116b6000856000806118a5565b6001600360008373ffffffffffffffffffffffffffffffffffffffff1673ffffffffffffffffffffffffffffffffffffffff168152602001908152602001600020600082825403925050819055505b600073ffffffffffffffffffffffffffffffffffffffff168573ffffffffffffffffffffffffffffffffffffffff161461123d576001600360008773ffffffffffffffffffffffffffffffffffffffff1673ffffffffffffffffffffffffffffffffffffffff168152602001908152602001600020600082825401925050819055505b846002600086815260200190815260200160002060006101000a81548173ffffffffffffffffffffffffffffffffffffffff021916908373ffffffffffffffffffffffffffffffffffffffff160217905550838573ffffffffffffffffffffffffffffffffffffffff168273ffffffffffffffffffffffffffffffffffffffff167fddf252ad1be2c89b69c2b068fc378daa952ba7f163c4a11628f55a4df523b3ef60405160405180910390a4809150509392505050565b600061130460008360006110db565b9050600073ffffffffffffffffffffffffffffffffffffffff168173ffffffffffffffffffffffffffffffffffffffff160361137757816040517f7e27328900000000000000000000000000000000000000000000000000000000815260040161136e919061242e565b60405180910390fd5b5050565b6000600660009054906101000a900473ffffffffffffffffffffffffffffffffffffffff16905081600660006101000a81548173ffffffffffffffffffffffffffffffffffffffff021916908373ffffffffffffffffffffffffffffffffffffffff1602179055508173ffffffffffffffffffffffffffffffffffffffff168173ffffffffffffffffffffffffffffffffffffffff167f8be0079c531659141344cd1fd0a4f28419497f9722a3daafe3b4186f6b6457e060405160405180910390a35050565b600073ffffffffffffffffffffffffffffffffffffffff168273ffffffffffffffffffffffffffffffffffffffff16036114b257816040517f5b08ba180000000000000000000000000000000000000000000000000000000081526004016114a991906122b2565b60405180910390fd5b80600560008573ffffffffffffffffffffffffffffffffffffffff1673ffffffffffffffffffffffffffffffffffffffff16815260200190815260200160002060008473ffffffffffffffffffffffffffffffffffffffff1673ffffffffffffffffffffffffffffffffffffffff16815260200190815260200160002060006101000a81548160ff0219169083151502179055508173ffffffffffffffffffffffffffffffffffffffff168373ffffffffffffffffffffffffffffffffffffffff167f17307eab39ab6107e8899845ad3d59bd9653f200f220920489ca2b5937696c31836040516115a39190611f4c565b60405180910390a3505050565b60008373ffffffffffffffffffffffffffffffffffffffff163b1115611761578273ffffffffffffffffffffffffffffffffffffffff1663150b7a026115f46110c1565b8685856040518563ffffffff1660e01b81526004016116169493929190612c59565b6020604051808303816000875af192505050801561165257506040513d601f19601f8201168201806040525081019061164f9190612cba565b60015b6116d6573d8060008114611682576040519150601f19603f3d011682016040523d82523d6000602084013e611687565b606091505b5060008151036116ce57836040517f64a0ae920000000000000000000000000000000000000000000000000000000081526004016116c591906122b2565b60405180910390fd5b805181602001fd5b63150b7a0260e01b7bffffffffffffffffffffffffffffffffffffffffffffffffffffffff1916817bffffffffffffffffffffffffffffffffffffffffffffffffffffffff19161461175f57836040517f64a0ae9200000000000000000000000000000000000000000000000000000000815260040161175691906122b2565b60405180910390fd5b505b50505050565b606060405180602001604052806000815250905090565b60606000600161178d84611b2e565b01905060008167ffffffffffffffff8111156117ac576117ab612005565b5b6040519080825280601f01601f1916602001820160405280156117de5781602001600182028036833780820191505090505b509050600082602001820190505b600115611841578080600190039150507f3031323334353637383961626364656600000000000000000000000000000000600a86061a8153600a858161183557611834612ce7565b5b049450600085036117ec575b819350505050919050565b6118568383611c81565b61186360008484846115b0565b505050565b60006002600083815260200190815260200160002060009054906101000a900473ffffffffffffffffffffffffffffffffffffffff169050919050565b80806118de5750600073ffffffffffffffffffffffffffffffffffffffff168273ffffffffffffffffffffffffffffffffffffffff1614155b15611a125760006118ee84610ffc565b9050600073ffffffffffffffffffffffffffffffffffffffff168373ffffffffffffffffffffffffffffffffffffffff161415801561195957508273ffffffffffffffffffffffffffffffffffffffff168173ffffffffffffffffffffffffffffffffffffffff1614155b801561196c575061196a8184610dd3565b155b156119ae57826040517fa9fbf51f0000000000000000000000000000000000000000000000000000000081526004016119a591906122b2565b60405180910390fd5b8115611a1057838573ffffffffffffffffffffffffffffffffffffffff168273ffffffffffffffffffffffffffffffffffffffff167f8c5be1e5ebec7d5bd14f71427d1e84f3dd0314c0f7b2291e5b200ac8c7c3b92560405160405180910390a45b505b836004600085815260200190815260200160002060006101000a81548173ffffffffffffffffffffffffffffffffffffffff021916908373ffffffffffffffffffffffffffffffffffffffff16021790555050505050565b611a75838383611d7a565b611b2957600073ffffffffffffffffffffffffffffffffffffffff168373ffffffffffffffffffffffffffffffffffffffff1603611aea57806040517f7e273289000000000000000000000000000000000000000000000000000000008152600401611ae1919061242e565b60405180910390fd5b81816040517f177e802f000000000000000000000000000000000000000000000000000000008152600401611b20929190612d16565b60405180910390fd5b505050565b600080600090507a184f03e93ff9f4daa797ed6e38ed64bf6a1f0100000000000000008310611b8c577a184f03e93ff9f4daa797ed6e38ed64bf6a1f0100000000000000008381611b8257611b81612ce7565b5b0492506040810190505b6d04ee2d6d415b85acef81000000008310611bc9576d04ee2d6d415b85acef81000000008381611bbf57611bbe612ce7565b5b0492506020810190505b662386f26fc100008310611bf857662386f26fc100008381611bee57611bed612ce7565b5b0492506010810190505b6305f5e1008310611c21576305f5e1008381611c1757611c16612ce7565b5b0492506008810190505b6127108310611c46576127108381611c3c57611c3b612ce7565b5b0492506004810190505b60648310611c695760648381611c5f57611c5e612ce7565b5b0492506002810190505b600a8310611c78576001810190505b80915050919050565b600073ffffffffffffffffffffffffffffffffffffffff168273ffffffffffffffffffffffffffffffffffffffff1603611cf35760006040517f64a0ae92000000000000000000000000000000000000000000000000000000008152600401611cea91906122b2565b60405180910390fd5b6000611d01838360006110db565b9050600073ffffffffffffffffffffffffffffffffffffffff168173ffffffffffffffffffffffffffffffffffffffff1614611d755760006040517f73c6ac6e000000000000000000000000000000000000000000000000000000008152600401611d6c91906122b2565b60405180910390fd5b505050565b60008073ffffffffffffffffffffffffffffffffffffffff168373ffffffffffffffffffffffffffffffffffffffff1614158015611e3257508273ffffffffffffffffffffffffffffffffffffffff168473ffffffffffffffffffffffffffffffffffffffff161480611df35750611df28484610dd3565b5b80611e3157508273ffffffffffffffffffffffffffffffffffffffff16611e1983611084565b73ffffffffffffffffffffffffffffffffffffffff16145b5b90509392505050565b508054611e4790612868565b6000825580601f10611e595750611e78565b601f016020900490600052602060002090810190611e779190611e7b565b5b50565b5b80821115611e94576000816000905550600101611e7c565b5090565b6000604051905090565b600080fd5b600080fd5b60007fffffffff0000000000000000000000000000000000000000000000000000000082169050919050565b611ee181611eac565b8114611eec57600080fd5b50565b600081359050611efe81611ed8565b92915050565b600060208284031215611f1a57611f19611ea2565b5b6000611f2884828501611eef565b91505092915050565b60008115159050919050565b611f4681611f31565b82525050565b6000602082019050611f616000830184611f3d565b92915050565b600073ffffffffffffffffffffffffffffffffffffffff82169050919050565b6000611f9282611f67565b9050919050565b611fa281611f87565b8114611fad57600080fd5b50565b600081359050611fbf81611f99565b92915050565b60048110611fd257600080fd5b50565b600081359050611fe481611fc5565b92915050565b600080fd5b600080fd5b6000601f19601f8301169050919050565b7f4e487b7100000000000000000000000000000000000000000000000000000000600052604160045260246000fd5b61203d82611ff4565b810181811067ffffffffffffffff8211171561205c5761205b612005565b5b80604052505050565b600061206f611e98565b905061207b8282612034565b919050565b600067ffffffffffffffff82111561209b5761209a612005565b5b6120a482611ff4565b9050602081019050919050565b82818337600083830152505050565b60006120d36120ce84612080565b612065565b9050828152602081018484840111156120ef576120ee611fef565b5b6120fa8482856120b1565b509392505050565b600082601f83011261211757612116611fea565b5b81356121278482602086016120c0565b91505092915050565b60008060006060848603121561214957612148611ea2565b5b600061215786828701611fb0565b935050602061216886828701611fd5565b925050604084013567ffffffffffffffff81111561218957612188611ea7565b5b61219586828701612102565b9150509250925092565b600081519050919050565b600082825260208201905092915050565b60005b838110156121d95780820151818401526020810190506121be565b60008484015250505050565b60006121f08261219f565b6121fa81856121aa565b935061220a8185602086016121bb565b61221381611ff4565b840191505092915050565b6000602082019050818103600083015261223881846121e5565b905092915050565b6000819050919050565b61225381612240565b811461225e57600080fd5b50565b6000813590506122708161224a565b92915050565b60006020828403121561228c5761228b611ea2565b5b600061229a84828501612261565b91505092915050565b6122ac81611f87565b82525050565b60006020820190506122c760008301846122a3565b92915050565b600080604083850312156122e4576122e3611ea2565b5b60006122f285828601611fb0565b925050602061230385828601612261565b9150509250929050565b60008060006060848603121561232657612325611ea2565b5b600061233486828701611fb0565b935050602061234586828701611fb0565b925050604061235686828701612261565b9150509250925092565b7f4e487b7100000000000000000000000000000000000000000000000000000000600052602160045260246000fd5b600481106123a05761239f612360565b5b50565b60008190506123b18261238f565b919050565b60006123c1826123a3565b9050919050565b6123d1816123b6565b82525050565b60006020820190506123ec60008301846123c8565b92915050565b60006020828403121561240857612407611ea2565b5b600061241684828501611fb0565b91505092915050565b61242881612240565b82525050565b6000602082019050612443600083018461241f565b92915050565b61245281611f31565b811461245d57600080fd5b50565b60008135905061246f81612449565b92915050565b6000806040838503121561248c5761248b611ea2565b5b600061249a85828601611fb0565b92505060206124ab85828601612460565b9150509250929050565b600067ffffffffffffffff8211156124d0576124cf612005565b5b6124d982611ff4565b9050602081019050919050565b60006124f96124f4846124b5565b612065565b90508281526020810184848401111561251557612514611fef565b5b6125208482856120b1565b509392505050565b600082601f83011261253d5761253c611fea565b5b813561254d8482602086016124e6565b91505092915050565b600080600080608085870312156125705761256f611ea2565b5b600061257e87828801611fb0565b945050602061258f87828801611fb0565b93505060406125a087828801612261565b925050606085013567ffffffffffffffff8111156125c1576125c0611ea7565b5b6125cd87828801612528565b91505092959194509250565b600080604083850312156125f0576125ef611ea2565b5b60006125fe85828601611fb0565b925050602061260f85828601611fb0565b9150509250929050565b7f47697448756220757365726e616d652063616e6e6f7420626520656d70747900600082015250565b600061264f601f836121aa565b915061265a82612619565b602082019050919050565b6000602082019050818103600083015261267e81612642565b9050919050565b7f57616c6c6574206164647265737320616c726561647920686173206120746f6b60008201527f656e000000000000000000000000000000000000000000000000000000000000602082015250565b60006126e16022836121aa565b91506126ec82612685565b604082019050919050565b60006020820190508181036000830152612710816126d4565b9050919050565b600081905092915050565b600061272d8261219f565b6127378185612717565b93506127478185602086016121bb565b80840191505092915050565b600061275f8284612722565b915081905092915050565b7f47697448756220757365726e616d6520616c72656164792074616b656e000000600082015250565b60006127a0601d836121aa565b91506127ab8261276a565b602082019050919050565b600060208201905081810360008301526127cf81612793565b9050919050565b7f4e487b7100000000000000000000000000000000000000000000000000000000600052601160045260246000fd5b600061281082612240565b915061281b83612240565b9250828201905080821115612833576128326127d6565b5b92915050565b7f4e487b7100000000000000000000000000000000000000000000000000000000600052602260045260246000fd5b6000600282049050600182168061288057607f821691505b60208210810361289357612892612839565b5b50919050565b60008190508160005260206000209050919050565b60006020601f8301049050919050565b600082821b905092915050565b6000600883026128fb7fffffffffffffffffffffffffffffffffffffffffffffffffffffffffffffffff826128be565b61290586836128be565b95508019841693508086168417925050509392505050565b6000819050919050565b600061294261293d61293884612240565b61291d565b612240565b9050919050565b6000819050919050565b61295c83612927565b61297061296882612949565b8484546128cb565b825550505050565b600090565b612985612978565b612990818484612953565b505050565b5b818110156129b4576129a960008261297d565b600181019050612996565b5050565b601f8211156129f9576129ca81612899565b6129d3846128ae565b810160208510156129e2578190505b6129f66129ee856128ae565b830182612995565b50505b505050565b600082821c905092915050565b6000612a1c600019846008026129fe565b1980831691505092915050565b6000612a358383612a0b565b9150826002028217905092915050565b612a4e8261219f565b67ffffffffffffffff811115612a6757612a66612005565b5b612a718254612868565b612a7c8282856129b8565b600060209050601f831160018114612aaf5760008415612a9d578287015190505b612aa78582612a29565b865550612b0f565b601f198416612abd86612899565b60005b82811015612ae557848901518255600182019150602085019450602081019050612ac0565b86831015612b025784890151612afe601f891682612a0b565b8355505b6001600288020188555050505b505050505050565b6000606082019050612b2c60008301866122a3565b612b39602083018561241f565b612b4660408301846122a3565b949350505050565b7f4f6e6c7920746865206f776e6572206f662074686520746f6b656e2063616e2060008201527f6275726e2069742e000000000000000000000000000000000000000000000000602082015250565b6000612baa6028836121aa565b9150612bb582612b4e565b604082019050919050565b60006020820190508181036000830152612bd981612b9d565b9050919050565b6000612bec8285612722565b9150612bf88284612722565b91508190509392505050565b600081519050919050565b600082825260208201905092915050565b6000612c2b82612c04565b612c358185612c0f565b9350612c458185602086016121bb565b612c4e81611ff4565b840191505092915050565b6000608082019050612c6e60008301876122a3565b612c7b60208301866122a3565b612c88604083018561241f565b8181036060830152612c9a8184612c20565b905095945050505050565b600081519050612cb481611ed8565b92915050565b600060208284031215612cd057612ccf611ea2565b5b6000612cde84828501612ca5565b91505092915050565b7f4e487b7100000000000000000000000000000000000000000000000000000000600052601260045260246000fd5b6000604082019050612d2b60008301856122a3565b612d38602083018461241f565b939250505056fea2646970667358221220105a4396cfe5d3920c778e2daa8aadb791d45c10ee5dc1be32c5b92361f5216a64736f6c63430008140033",
  "linkReferences": {},
  "deployedLinkReferences": {}
}