{
  "_format": "hh-sol-artifact-1",
  "contractName": "DAO",
  "sourceName": "contracts/DAO.sol",
  "abi": [
    {
      "inputs": [
        {
          "internalType": "address",
          "name": "initialOwner",
          "type": "address"
        }
      ],
      "stateMutability": "nonpayable",
      "type": "constructor"
    },
    {
      "inputs": [],
      "name": "ECDSAInvalidSignature",
      "type": "error"
    },
    {
      "inputs": [
        {
          "internalType": "uint256",
          "name": "length",
          "type": "uint256"
        }
      ],
      "name": "ECDSAInvalidSignatureLength",
      "type": "error"
    },
    {
      "inputs": [
        {
          "internalType": "bytes32",
          "name": "s",
          "type": "bytes32"
        }
      ],
      "name": "ECDSAInvalidSignatureS",
      "type": "error"
    },
    {
      "inputs": [
        {
          "internalType": "address",
          "name": "spender",
          "type": "address"
        },
        {
          "internalType": "uint256",
          "name": "allowance",
          "type": "uint256"
        },
        {
          "internalType": "uint256",
          "name": "needed",
          "type": "uint256"
        }
      ],
      "name": "ERC20InsufficientAllowance",
      "type": "error"
    },
    {
      "inputs": [
        {
          "internalType": "address",
          "name": "sender",
          "type": "address"
        },
        {
          "internalType": "uint256",
          "name": "balance",
          "type": "uint256"
        },
        {
          "internalType": "uint256",
          "name": "needed",
          "type": "uint256"
        }
      ],
      "name": "ERC20InsufficientBalance",
      "type": "error"
    },
    {
      "inputs": [
        {
          "internalType": "address",
          "name": "approver",
          "type": "address"
        }
      ],
      "name": "ERC20InvalidApprover",
      "type": "error"
    },
    {
      "inputs": [
        {
          "internalType": "address",
          "name": "receiver",
          "type": "address"
        }
      ],
      "name": "ERC20InvalidReceiver",
      "type": "error"
    },
    {
      "inputs": [
        {
          "internalType": "address",
          "name": "sender",
          "type": "address"
        }
      ],
      "name": "ERC20InvalidSender",
      "type": "error"
    },
    {
      "inputs": [
        {
          "internalType": "address",
          "name": "spender",
          "type": "address"
        }
      ],
      "name": "ERC20InvalidSpender",
      "type": "error"
    },
    {
      "inputs": [
        {
          "internalType": "uint256",
          "name": "deadline",
          "type": "uint256"
        }
      ],
      "name": "ERC2612ExpiredSignature",
      "type": "error"
    },
    {
      "inputs": [
        {
          "internalType": "address",
          "name": "signer",
          "type": "address"
        },
        {
          "internalType": "address",
          "name": "owner",
          "type": "address"
        }
      ],
      "name": "ERC2612InvalidSigner",
      "type": "error"
    },
    {
      "inputs": [
        {
          "internalType": "address",
          "name": "account",
          "type": "address"
        },
        {
          "internalType": "uint256",
          "name": "currentNonce",
          "type": "uint256"
        }
      ],
      "name": "InvalidAccountNonce",
      "type": "error"
    },
    {
      "inputs": [],
      "name": "InvalidShortString",
      "type": "error"
    },
    {
      "inputs": [
        {
          "internalType": "address",
          "name": "owner",
          "type": "address"
        }
      ],
      "name": "OwnableInvalidOwner",
      "type": "error"
    },
    {
      "inputs": [
        {
          "internalType": "address",
          "name": "account",
          "type": "address"
        }
      ],
      "name": "OwnableUnauthorizedAccount",
      "type": "error"
    },
    {
      "inputs": [
        {
          "internalType": "string",
          "name": "str",
          "type": "string"
        }
      ],
      "name": "StringTooLong",
      "type": "error"
    },
    {
      "anonymous": false,
      "inputs": [
        {
          "indexed": true,
          "internalType": "address",
          "name": "owner",
          "type": "address"
        },
        {
          "indexed": true,
          "internalType": "address",
          "name": "spender",
          "type": "address"
        },
        {
          "indexed": false,
          "internalType": "uint256",
          "name": "value",
          "type": "uint256"
        }
      ],
      "name": "Approval",
      "type": "event"
    },
    {
      "anonymous": false,
      "inputs": [],
      "name": "EIP712DomainChanged",
      "type": "event"
    },
    {
      "anonymous": false,
      "inputs": [
        {
          "indexed": true,
          "internalType": "address",
          "name": "previousOwner",
          "type": "address"
        },
        {
          "indexed": true,
          "internalType": "address",
          "name": "newOwner",
          "type": "address"
        }
      ],
      "name": "OwnershipTransferred",
      "type": "event"
    },
    {
      "anonymous": false,
      "inputs": [
        {
          "indexed": true,
          "internalType": "address",
          "name": "from",
          "type": "address"
        },
        {
          "indexed": true,
          "internalType": "address",
          "name": "to",
          "type": "address"
        },
        {
          "indexed": false,
          "internalType": "uint256",
          "name": "value",
          "type": "uint256"
        }
      ],
      "name": "Transfer",
      "type": "event"
    },
    {
      "inputs": [],
      "name": "DOMAIN_SEPARATOR",
      "outputs": [
        {
          "internalType": "bytes32",
          "name": "",
          "type": "bytes32"
        }
      ],
      "stateMutability": "view",
      "type": "function"
    },
    {
      "inputs": [],
      "name": "INITIAL_DAO_TOKEN_ALLOCATION",
      "outputs": [
        {
          "internalType": "uint256",
          "name": "",
          "type": "uint256"
        }
      ],
      "stateMutability": "view",
      "type": "function"
    },
    {
      "inputs": [],
      "name": "MAINTAINER_TOKEN_ALLOCATION",
      "outputs": [
        {
          "internalType": "uint256",
          "name": "",
          "type": "uint256"
        }
      ],
      "stateMutability": "view",
      "type": "function"
    },
    {
      "inputs": [],
      "name": "TOTAL_SUPPLY",
      "outputs": [
        {
          "internalType": "uint256",
          "name": "",
          "type": "uint256"
        }
      ],
      "stateMutability": "view",
      "type": "function"
    },
    {
      "inputs": [
        {
          "internalType": "uint256",
          "name": "issueID",
          "type": "uint256"
        },
        {
          "internalType": "string",
          "name": "comment",
          "type": "string"
        },
        {
          "internalType": "string",
          "name": "details",
          "type": "string"
        }
      ],
      "name": "addCommentToIssue",
      "outputs": [
        {
          "internalType": "uint256",
          "name": "",
          "type": "uint256"
        }
      ],
      "stateMutability": "nonpayable",
      "type": "function"
    },
    {
      "inputs": [
        {
          "internalType": "address",
          "name": "owner",
          "type": "address"
        },
        {
          "internalType": "address",
          "name": "spender",
          "type": "address"
        }
      ],
      "name": "allowance",
      "outputs": [
        {
          "internalType": "uint256",
          "name": "",
          "type": "uint256"
        }
      ],
      "stateMutability": "view",
      "type": "function"
    },
    {
      "inputs": [
        {
          "internalType": "address",
          "name": "spender",
          "type": "address"
        },
        {
          "internalType": "uint256",
          "name": "value",
          "type": "uint256"
        }
      ],
      "name": "approve",
      "outputs": [
        {
          "internalType": "bool",
          "name": "",
          "type": "bool"
        }
      ],
      "stateMutability": "nonpayable",
      "type": "function"
    },
    {
      "inputs": [
        {
          "internalType": "uint256",
          "name": "issueID",
          "type": "uint256"
        }
      ],
      "name": "assignIssue",
      "outputs": [],
      "stateMutability": "nonpayable",
      "type": "function"
    },
    {
      "inputs": [
        {
          "internalType": "address",
          "name": "account",
          "type": "address"
        }
      ],
      "name": "balanceOf",
      "outputs": [
        {
          "internalType": "uint256",
          "name": "",
          "type": "uint256"
        }
      ],
      "stateMutability": "view",
      "type": "function"
    },
    {
      "inputs": [
        {
          "internalType": "uint256",
          "name": "value",
          "type": "uint256"
        }
      ],
      "name": "burn",
      "outputs": [],
      "stateMutability": "nonpayable",
      "type": "function"
    },
    {
      "inputs": [
        {
          "internalType": "address",
          "name": "account",
          "type": "address"
        },
        {
          "internalType": "uint256",
          "name": "value",
          "type": "uint256"
        }
      ],
      "name": "burnFrom",
      "outputs": [],
      "stateMutability": "nonpayable",
      "type": "function"
    },
    {
      "inputs": [
        {
          "internalType": "uint256",
          "name": "",
          "type": "uint256"
        }
      ],
      "name": "comments",
      "outputs": [
        {
          "internalType": "uint256",
          "name": "id",
          "type": "uint256"
        },
        {
          "internalType": "uint256",
          "name": "issueID",
          "type": "uint256"
        },
        {
          "internalType": "address",
          "name": "maintainer",
          "type": "address"
        },
        {
          "internalType": "string",
          "name": "comment",
          "type": "string"
        },
        {
          "internalType": "string",
          "name": "details",
          "type": "string"
        }
      ],
      "stateMutability": "view",
      "type": "function"
    },
    {
      "inputs": [
        {
          "internalType": "string",
          "name": "githubUserName",
          "type": "string"
        }
      ],
      "name": "createDAO",
      "outputs": [
        {
          "internalType": "uint256",
          "name": "",
          "type": "uint256"
        }
      ],
      "stateMutability": "nonpayable",
      "type": "function"
    },
    {
      "inputs": [
        {
          "internalType": "uint256",
          "name": "daoID",
          "type": "uint256"
        },
        {
          "internalType": "string",
          "name": "uri",
          "type": "string"
        }
      ],
      "name": "createIssue",
      "outputs": [
        {
          "internalType": "uint256",
          "name": "",
          "type": "uint256"
        }
      ],
      "stateMutability": "nonpayable",
      "type": "function"
    },
    {
      "inputs": [
        {
          "internalType": "uint256",
          "name": "",
          "type": "uint256"
        }
      ],
      "name": "daos",
      "outputs": [
        {
          "internalType": "uint256",
          "name": "id",
          "type": "uint256"
        },
        {
          "internalType": "address",
          "name": "Organizer",
          "type": "address"
        },
        {
          "internalType": "string",
          "name": "uri",
          "type": "string"
        },
        {
          "internalType": "bool",
          "name": "closed",
          "type": "bool"
        }
      ],
      "stateMutability": "view",
      "type": "function"
    },
    {
      "inputs": [],
      "name": "decimals",
      "outputs": [
        {
          "internalType": "uint8",
          "name": "",
          "type": "uint8"
        }
      ],
      "stateMutability": "view",
      "type": "function"
    },
    {
      "inputs": [],
      "name": "eip712Domain",
      "outputs": [
        {
          "internalType": "bytes1",
          "name": "fields",
          "type": "bytes1"
        },
        {
          "internalType": "string",
          "name": "name",
          "type": "string"
        },
        {
          "internalType": "string",
          "name": "version",
          "type": "string"
        },
        {
          "internalType": "uint256",
          "name": "chainId",
          "type": "uint256"
        },
        {
          "internalType": "address",
          "name": "verifyingContract",
          "type": "address"
        },
        {
          "internalType": "bytes32",
          "name": "salt",
          "type": "bytes32"
        },
        {
          "internalType": "uint256[]",
          "name": "extensions",
          "type": "uint256[]"
        }
      ],
      "stateMutability": "view",
      "type": "function"
    },
    {
      "inputs": [
        {
          "internalType": "uint256",
          "name": "issueID",
          "type": "uint256"
        }
      ],
      "name": "getCommentsByIssue",
      "outputs": [
        {
          "components": [
            {
              "internalType": "uint256",
              "name": "id",
              "type": "uint256"
            },
            {
              "internalType": "uint256",
              "name": "issueID",
              "type": "uint256"
            },
            {
              "internalType": "address",
              "name": "maintainer",
              "type": "address"
            },
            {
              "internalType": "string",
              "name": "comment",
              "type": "string"
            },
            {
              "internalType": "string",
              "name": "details",
              "type": "string"
            }
          ],
          "internalType": "struct DAO.commentStruct[]",
          "name": "",
          "type": "tuple[]"
        }
      ],
      "stateMutability": "view",
      "type": "function"
    },
    {
      "inputs": [],
      "name": "getDAO",
      "outputs": [
        {
          "components": [
            {
              "internalType": "uint256",
              "name": "id",
              "type": "uint256"
            },
            {
              "internalType": "address",
              "name": "Organizer",
              "type": "address"
            },
            {
              "internalType": "string",
              "name": "uri",
              "type": "string"
            },
            {
              "internalType": "bool",
              "name": "closed",
              "type": "bool"
            }
          ],
          "internalType": "struct DAO.daoStruct[]",
          "name": "",
          "type": "tuple[]"
        }
      ],
      "stateMutability": "view",
      "type": "function"
    },
    {
      "inputs": [],
      "name": "getIssue",
      "outputs": [
        {
          "components": [
            {
              "internalType": "uint256",
              "name": "id",
              "type": "uint256"
            },
            {
              "internalType": "uint256",
              "name": "daoID",
              "type": "uint256"
            },
            {
              "internalType": "string",
              "name": "uri",
              "type": "string"
            },
            {
              "internalType": "uint256",
              "name": "votes",
              "type": "uint256"
            },
            {
              "internalType": "uint256",
              "name": "status",
              "type": "uint256"
            },
            {
              "internalType": "address",
              "name": "contributor",
              "type": "address"
            }
          ],
          "internalType": "struct DAO.issueStruct[]",
          "name": "",
          "type": "tuple[]"
        }
      ],
      "stateMutability": "view",
      "type": "function"
    },
    {
      "inputs": [
        {
          "internalType": "uint256",
          "name": "daoID",
          "type": "uint256"
        }
      ],
      "name": "getIssueByDAO",
      "outputs": [
        {
          "components": [
            {
              "internalType": "uint256",
              "name": "id",
              "type": "uint256"
            },
            {
              "internalType": "uint256",
              "name": "daoID",
              "type": "uint256"
            },
            {
              "internalType": "string",
              "name": "uri",
              "type": "string"
            },
            {
              "internalType": "uint256",
              "name": "votes",
              "type": "uint256"
            },
            {
              "internalType": "uint256",
              "name": "status",
              "type": "uint256"
            },
            {
              "internalType": "address",
              "name": "contributor",
              "type": "address"
            }
          ],
          "internalType": "struct DAO.issueStruct[]",
          "name": "",
          "type": "tuple[]"
        }
      ],
      "stateMutability": "view",
      "type": "function"
    },
    {
      "inputs": [
        {
          "internalType": "uint256",
          "name": "daoID",
          "type": "uint256"
        }
      ],
      "name": "getMaintainersByDAO",
      "outputs": [
        {
          "components": [
            {
              "internalType": "uint256",
              "name": "daoID",
              "type": "uint256"
            },
            {
              "internalType": "address",
              "name": "maintainer",
              "type": "address"
            }
          ],
          "internalType": "struct DAO.maintainerStruct[]",
          "name": "",
          "type": "tuple[]"
        }
      ],
      "stateMutability": "view",
      "type": "function"
    },
    {
      "inputs": [
        {
          "internalType": "uint256",
          "name": "daoID",
          "type": "uint256"
        },
        {
          "internalType": "uint256",
          "name": "issueID",
          "type": "uint256"
        },
        {
          "internalType": "address",
          "name": "maintainer",
          "type": "address"
        }
      ],
      "name": "hasVoted",
      "outputs": [
        {
          "internalType": "bool",
          "name": "",
          "type": "bool"
        }
      ],
      "stateMutability": "view",
      "type": "function"
    },
    {
      "inputs": [
        {
          "internalType": "uint256",
          "name": "daoID",
          "type": "uint256"
        },
        {
          "internalType": "address",
          "name": "maintainer",
          "type": "address"
        }
      ],
      "name": "isMaintainer",
      "outputs": [
        {
          "internalType": "bool",
          "name": "",
          "type": "bool"
        }
      ],
      "stateMutability": "view",
      "type": "function"
    },
    {
      "inputs": [
        {
          "internalType": "uint256",
          "name": "",
          "type": "uint256"
        }
      ],
      "name": "issues",
      "outputs": [
        {
          "internalType": "uint256",
          "name": "id",
          "type": "uint256"
        },
        {
          "internalType": "uint256",
          "name": "daoID",
          "type": "uint256"
        },
        {
          "internalType": "string",
          "name": "uri",
          "type": "string"
        },
        {
          "internalType": "uint256",
          "name": "votes",
          "type": "uint256"
        },
        {
          "internalType": "uint256",
          "name": "status",
          "type": "uint256"
        },
        {
          "internalType": "address",
          "name": "contributor",
          "type": "address"
        }
      ],
      "stateMutability": "view",
      "type": "function"
    },
    {
      "inputs": [
        {
          "internalType": "uint256",
          "name": "daoID",
          "type": "uint256"
        },
        {
          "internalType": "address",
          "name": "maintainer",
          "type": "address"
        }
      ],
      "name": "joinDAO",
      "outputs": [],
      "stateMutability": "nonpayable",
      "type": "function"
    },
    {
      "inputs": [
        {
          "internalType": "uint256",
          "name": "",
          "type": "uint256"
        }
      ],
      "name": "maintainers",
      "outputs": [
        {
          "internalType": "uint256",
          "name": "daoID",
          "type": "uint256"
        },
        {
          "internalType": "address",
          "name": "maintainer",
          "type": "address"
        }
      ],
      "stateMutability": "view",
      "type": "function"
    },
    {
      "inputs": [
        {
          "internalType": "address",
          "name": "to",
          "type": "address"
        },
        {
          "internalType": "uint256",
          "name": "amount",
          "type": "uint256"
        }
      ],
      "name": "mint",
      "outputs": [],
      "stateMutability": "nonpayable",
      "type": "function"
    },
    {
      "inputs": [],
      "name": "name",
      "outputs": [
        {
          "internalType": "string",
          "name": "",
          "type": "string"
        }
      ],
      "stateMutability": "view",
      "type": "function"
    },
    {
      "inputs": [
        {
          "internalType": "uint256",
          "name": "issueID",
          "type": "uint256"
        },
        {
          "internalType": "address",
          "name": "nominee",
          "type": "address"
        },
        {
          "internalType": "string",
          "name": "solution",
          "type": "string"
        }
      ],
      "name": "nominateContributor",
      "outputs": [],
      "stateMutability": "nonpayable",
      "type": "function"
    },
    {
      "inputs": [
        {
          "internalType": "uint256",
          "name": "",
          "type": "uint256"
        },
        {
          "internalType": "uint256",
          "name": "",
          "type": "uint256"
        }
      ],
      "name": "nominations",
      "outputs": [
        {
          "internalType": "uint256",
          "name": "issueID",
          "type": "uint256"
        },
        {
          "internalType": "address",
          "name": "nominee",
          "type": "address"
        },
        {
          "internalType": "string",
          "name": "solution",
          "type": "string"
        },
        {
          "internalType": "uint256",
          "name": "votes",
          "type": "uint256"
        }
      ],
      "stateMutability": "view",
      "type": "function"
    },
    {
      "inputs": [
        {
          "internalType": "address",
          "name": "owner",
          "type": "address"
        }
      ],
      "name": "nonces",
      "outputs": [
        {
          "internalType": "uint256",
          "name": "",
          "type": "uint256"
        }
      ],
      "stateMutability": "view",
      "type": "function"
    },
    {
      "inputs": [],
      "name": "owner",
      "outputs": [
        {
          "internalType": "address",
          "name": "",
          "type": "address"
        }
      ],
      "stateMutability": "view",
      "type": "function"
    },
    {
      "inputs": [
        {
          "internalType": "address",
          "name": "owner",
          "type": "address"
        },
        {
          "internalType": "address",
          "name": "spender",
          "type": "address"
        },
        {
          "internalType": "uint256",
          "name": "value",
          "type": "uint256"
        },
        {
          "internalType": "uint256",
          "name": "deadline",
          "type": "uint256"
        },
        {
          "internalType": "uint8",
          "name": "v",
          "type": "uint8"
        },
        {
          "internalType": "bytes32",
          "name": "r",
          "type": "bytes32"
        },
        {
          "internalType": "bytes32",
          "name": "s",
          "type": "bytes32"
        }
      ],
      "name": "permit",
      "outputs": [],
      "stateMutability": "nonpayable",
      "type": "function"
    },
    {
      "inputs": [],
      "name": "renounceOwnership",
      "outputs": [],
      "stateMutability": "nonpayable",
      "type": "function"
    },
    {
      "inputs": [],
      "name": "symbol",
      "outputs": [
        {
          "internalType": "string",
          "name": "",
          "type": "string"
        }
      ],
      "stateMutability": "view",
      "type": "function"
    },
    {
      "inputs": [
        {
          "internalType": "address",
          "name": "",
          "type": "address"
        }
      ],
      "name": "tokensAssignedToDAO",
      "outputs": [
        {
          "internalType": "uint256",
          "name": "",
          "type": "uint256"
        }
      ],
      "stateMutability": "view",
      "type": "function"
    },
    {
      "inputs": [
        {
          "internalType": "address",
          "name": "",
          "type": "address"
        }
      ],
      "name": "tokensAssignedToMaintainer",
      "outputs": [
        {
          "internalType": "uint256",
          "name": "",
          "type": "uint256"
        }
      ],
      "stateMutability": "view",
      "type": "function"
    },
    {
      "inputs": [],
      "name": "totalSupply",
      "outputs": [
        {
          "internalType": "uint256",
          "name": "",
          "type": "uint256"
        }
      ],
      "stateMutability": "view",
      "type": "function"
    },
    {
      "inputs": [
        {
          "internalType": "address",
          "name": "to",
          "type": "address"
        },
        {
          "internalType": "uint256",
          "name": "value",
          "type": "uint256"
        }
      ],
      "name": "transfer",
      "outputs": [
        {
          "internalType": "bool",
          "name": "",
          "type": "bool"
        }
      ],
      "stateMutability": "nonpayable",
      "type": "function"
    },
    {
      "inputs": [
        {
          "internalType": "address",
          "name": "from",
          "type": "address"
        },
        {
          "internalType": "address",
          "name": "to",
          "type": "address"
        },
        {
          "internalType": "uint256",
          "name": "value",
          "type": "uint256"
        }
      ],
      "name": "transferFrom",
      "outputs": [
        {
          "internalType": "bool",
          "name": "",
          "type": "bool"
        }
      ],
      "stateMutability": "nonpayable",
      "type": "function"
    },
    {
      "inputs": [
        {
          "internalType": "address",
          "name": "newOwner",
          "type": "address"
        }
      ],
      "name": "transferOwnership",
      "outputs": [],
      "stateMutability": "nonpayable",
      "type": "function"
    },
    {
      "inputs": [
        {
          "internalType": "uint256",
          "name": "issueID",
          "type": "uint256"
        },
        {
          "internalType": "uint256",
          "name": "newStatus",
          "type": "uint256"
        }
      ],
      "name": "updateIssueStatus",
      "outputs": [],
      "stateMutability": "nonpayable",
      "type": "function"
    },
    {
      "inputs": [
        {
          "internalType": "uint256",
          "name": "issueID",
          "type": "uint256"
        },
        {
          "internalType": "address",
          "name": "nominee",
          "type": "address"
        }
      ],
      "name": "voteOnNomination",
      "outputs": [],
      "stateMutability": "nonpayable",
      "type": "function"
    },
    {
      "inputs": [
        {
          "internalType": "address",
          "name": "",
          "type": "address"
        }
      ],
      "name": "voteToken",
      "outputs": [
        {
          "internalType": "uint256",
          "name": "",
          "type": "uint256"
        }
      ],
      "stateMutability": "view",
      "type": "function"
    },
    {
      "inputs": [
        {
          "internalType": "uint256",
          "name": "",
          "type": "uint256"
        }
      ],
      "name": "votes",
      "outputs": [
        {
          "internalType": "uint256",
          "name": "daoID",
          "type": "uint256"
        },
        {
          "internalType": "uint256",
          "name": "issueID",
          "type": "uint256"
        },
        {
          "internalType": "address",
          "name": "maintainer",
          "type": "address"
        }
      ],
      "stateMutability": "view",
      "type": "function"
    }
  ],
  "bytecode": "0x6101c06040523480156200001257600080fd5b50604051620069d9380380620069d98339818101604052810190620000389190620007c3565b6040518060400160405280600781526020017f4b726973686e6100000000000000000000000000000000000000000000000000815250806040518060400160405280600181526020017f3100000000000000000000000000000000000000000000000000000000000000815250836040518060400160405280600781526020017f4b726973686e61000000000000000000000000000000000000000000000000008152506040518060400160405280600381526020017f4a534b0000000000000000000000000000000000000000000000000000000000815250816003908162000123919062000a6f565b50806004908162000135919062000a6f565b505050600073ffffffffffffffffffffffffffffffffffffffff168173ffffffffffffffffffffffffffffffffffffffff1603620001ad5760006040517f1e4fbdf7000000000000000000000000000000000000000000000000000000008152600401620001a4919062000b67565b60405180910390fd5b620001be81620002aa60201b60201c565b50620001d56006836200037060201b90919060201c565b6101208181525050620001f36007826200037060201b90919060201c565b6101408181525050818051906020012060e08181525050808051906020012061010081815250504660a0818152505062000232620003c860201b60201c565b608081815250503073ffffffffffffffffffffffffffffffffffffffff1660c08173ffffffffffffffffffffffffffffffffffffffff1681525050505050606461016081815250506032610180818152505060056101a08181525050620002a333610160516200042560201b60201c565b5062000e26565b6000600560009054906101000a900473ffffffffffffffffffffffffffffffffffffffff16905081600560006101000a81548173ffffffffffffffffffffffffffffffffffffffff021916908373ffffffffffffffffffffffffffffffffffffffff1602179055508173ffffffffffffffffffffffffffffffffffffffff168173ffffffffffffffffffffffffffffffffffffffff167f8be0079c531659141344cd1fd0a4f28419497f9722a3daafe3b4186f6b6457e060405160405180910390a35050565b600060208351101562000396576200038e83620004b260201b60201c565b9050620003c2565b82620003a8836200051f60201b60201c565b6000019081620003b9919062000a6f565b5060ff60001b90505b92915050565b60007f8b73c3c69bb8fe3d512ecc4cf759cc79239f7b179b0ffacaa9a75d522b39400f60e0516101005146306040516020016200040a95949392919062000bb0565b60405160208183030381529060405280519060200120905090565b600073ffffffffffffffffffffffffffffffffffffffff168273ffffffffffffffffffffffffffffffffffffffff16036200049a5760006040517fec442f0500000000000000000000000000000000000000000000000000000000815260040162000491919062000b67565b60405180910390fd5b620004ae600083836200052960201b60201c565b5050565b600080829050601f815111156200050257826040517f305a27a9000000000000000000000000000000000000000000000000000000008152600401620004f9919062000c9c565b60405180910390fd5b805181620005109062000cf2565b60001c1760001b915050919050565b6000819050919050565b600073ffffffffffffffffffffffffffffffffffffffff168373ffffffffffffffffffffffffffffffffffffffff16036200057f57806002600082825462000572919062000d91565b9250508190555062000655565b60008060008573ffffffffffffffffffffffffffffffffffffffff1673ffffffffffffffffffffffffffffffffffffffff168152602001908152602001600020549050818110156200060e578381836040517fe450d38c000000000000000000000000000000000000000000000000000000008152600401620006059392919062000dcc565b60405180910390fd5b8181036000808673ffffffffffffffffffffffffffffffffffffffff1673ffffffffffffffffffffffffffffffffffffffff16815260200190815260200160002081905550505b600073ffffffffffffffffffffffffffffffffffffffff168273ffffffffffffffffffffffffffffffffffffffff1603620006a05780600260008282540392505081905550620006ed565b806000808473ffffffffffffffffffffffffffffffffffffffff1673ffffffffffffffffffffffffffffffffffffffff168152602001908152602001600020600082825401925050819055505b8173ffffffffffffffffffffffffffffffffffffffff168373ffffffffffffffffffffffffffffffffffffffff167fddf252ad1be2c89b69c2b068fc378daa952ba7f163c4a11628f55a4df523b3ef836040516200074c919062000e09565b60405180910390a3505050565b600080fd5b600073ffffffffffffffffffffffffffffffffffffffff82169050919050565b60006200078b826200075e565b9050919050565b6200079d816200077e565b8114620007a957600080fd5b50565b600081519050620007bd8162000792565b92915050565b600060208284031215620007dc57620007db62000759565b5b6000620007ec84828501620007ac565b91505092915050565b600081519050919050565b7f4e487b7100000000000000000000000000000000000000000000000000000000600052604160045260246000fd5b7f4e487b7100000000000000000000000000000000000000000000000000000000600052602260045260246000fd5b600060028204905060018216806200087757607f821691505b6020821081036200088d576200088c6200082f565b5b50919050565b60008190508160005260206000209050919050565b60006020601f8301049050919050565b600082821b905092915050565b600060088302620008f77fffffffffffffffffffffffffffffffffffffffffffffffffffffffffffffffff82620008b8565b620009038683620008b8565b95508019841693508086168417925050509392505050565b6000819050919050565b6000819050919050565b6000620009506200094a62000944846200091b565b62000925565b6200091b565b9050919050565b6000819050919050565b6200096c836200092f565b620009846200097b8262000957565b848454620008c5565b825550505050565b600090565b6200099b6200098c565b620009a881848462000961565b505050565b5b81811015620009d057620009c460008262000991565b600181019050620009ae565b5050565b601f82111562000a1f57620009e98162000893565b620009f484620008a8565b8101602085101562000a04578190505b62000a1c62000a1385620008a8565b830182620009ad565b50505b505050565b600082821c905092915050565b600062000a446000198460080262000a24565b1980831691505092915050565b600062000a5f838362000a31565b9150826002028217905092915050565b62000a7a82620007f5565b67ffffffffffffffff81111562000a965762000a9562000800565b5b62000aa282546200085e565b62000aaf828285620009d4565b600060209050601f83116001811462000ae7576000841562000ad2578287015190505b62000ade858262000a51565b86555062000b4e565b601f19841662000af78662000893565b60005b8281101562000b215784890151825560018201915060208501945060208101905062000afa565b8683101562000b41578489015162000b3d601f89168262000a31565b8355505b6001600288020188555050505b505050505050565b62000b61816200077e565b82525050565b600060208201905062000b7e600083018462000b56565b92915050565b6000819050919050565b62000b998162000b84565b82525050565b62000baa816200091b565b82525050565b600060a08201905062000bc7600083018862000b8e565b62000bd6602083018762000b8e565b62000be5604083018662000b8e565b62000bf4606083018562000b9f565b62000c03608083018462000b56565b9695505050505050565b600082825260208201905092915050565b60005b8381101562000c3e57808201518184015260208101905062000c21565b60008484015250505050565b6000601f19601f8301169050919050565b600062000c6882620007f5565b62000c74818562000c0d565b935062000c8681856020860162000c1e565b62000c918162000c4a565b840191505092915050565b6000602082019050818103600083015262000cb8818462000c5b565b905092915050565b600081519050919050565b6000819050602082019050919050565b600062000ce9825162000b84565b80915050919050565b600062000cff8262000cc0565b8262000d0b8462000ccb565b905062000d188162000cdb565b9250602082101562000d5b5762000d567fffffffffffffffffffffffffffffffffffffffffffffffffffffffffffffffff83602003600802620008b8565b831692505b5050919050565b7f4e487b7100000000000000000000000000000000000000000000000000000000600052601160045260246000fd5b600062000d9e826200091b565b915062000dab836200091b565b925082820190508082111562000dc65762000dc562000d62565b5b92915050565b600060608201905062000de3600083018662000b56565b62000df2602083018562000b9f565b62000e01604083018462000b9f565b949350505050565b600060208201905062000e20600083018462000b9f565b92915050565b60805160a05160c05160e05161010051610120516101405161016051610180516101a051615b1462000ec560003960008181611d9701528181611dbd01528181611e330152611ebf015260008181611a6e01528181611a940152611b5e01526000612209015260006134dd015260006134a2015260006139f2015260006139d10152600061314c015260006131a2015260006131cb0152615b146000f3fe608060405234801561001057600080fd5b506004361061028a5760003560e01c80637e6f0a121161015c5780639e3adcd4116100ce578063c406318411610087578063c406318414610883578063cac5dfd8146108b3578063ccbbd260146108e6578063d505accf14610919578063dd62ed3e14610935578063f2fde38b146109655761028a565b80639e3adcd414610777578063a9059cbb146107a7578063b11b34e0146107d7578063b26af8d4146107f3578063c06a2c7d14610823578063c403eb08146108535761028a565b80638da5cb5b116101205780638da5cb5b146106af5780638ebb4c15146106cd578063902d55a51461070157806395d89b411461071f578063985da7261461073d5780639c414da01461075b5761028a565b80637e6f0a12146106055780637ecebe00146106215780638477eb211461065157806384b0196e1461066f5780638b2353ed146106935761028a565b806328ddef50116102005780635df81330116101b95780635df813301461052e578063676f6c6a1461056057806370a082311461057e578063715018a6146105ae57806372d66e30146105b857806379cc6790146105e95761028a565b806328ddef501461046c578063313ce5671461048a5780633644e515146104a857806340c10f19146104c657806342966c68146104e25780634830ebcf146104fe5761028a565b80630d39a1d3116102525780630d39a1d31461037257806318160ddd146103a25780631c23b653146103c057806321bda321146103dc57806323b872dd1461040c5780632759aa481461043c5761028a565b8063011800871461028f57806304e15de5146102bf57806306fdde03146102f4578063095ea7b3146103125780630d35bbf214610342575b600080fd5b6102a960048036038101906102a49190613fc2565b610981565b6040516102b69190614008565b60405180910390f35b6102d960048036038101906102d4919061404f565b610999565b6040516102eb9695949392919061411b565b60405180910390f35b6102fc610a7d565b6040516103099190614183565b60405180910390f35b61032c600480360381019061032791906141a5565b610b0f565b6040516103399190614200565b60405180910390f35b61035c6004803603810190610357919061404f565b610b32565b60405161036991906143ce565b60405180910390f35b61038c600480360381019061038791906143f0565b610d33565b6040516103999190614200565b60405180910390f35b6103aa610e1b565b6040516103b79190614008565b60405180910390f35b6103da60048036038101906103d59190614443565b610e25565b005b6103f660048036038101906103f191906145b8565b6112ef565b6040516104039190614008565b60405180910390f35b61042660048036038101906104219190614643565b611452565b6040516104339190614200565b60405180910390f35b6104566004803603810190610451919061404f565b611481565b60405161046391906147d5565b60405180910390f35b610474611752565b60405161048191906143ce565b60405180910390f35b610492611931565b60405161049f9190614813565b60405180910390f35b6104b061193a565b6040516104bd9190614847565b60405180910390f35b6104e060048036038101906104db91906141a5565b611949565b005b6104fc60048036038101906104f7919061404f565b61195f565b005b61051860048036038101906105139190614862565b611973565b6040516105259190614008565b60405180910390f35b6105486004803603810190610543919061404f565b611b12565b604051610557939291906148ab565b60405180910390f35b610568611b5c565b6040516105759190614008565b60405180910390f35b61059860048036038101906105939190613fc2565b611b80565b6040516105a59190614008565b60405180910390f35b6105b6611bc8565b005b6105d260048036038101906105cd919061404f565b611bdc565b6040516105e09291906148e2565b60405180910390f35b61060360048036038101906105fe91906141a5565b611c20565b005b61061f600480360381019061061a9190614443565b611c40565b005b61063b60048036038101906106369190613fc2565b611eab565b6040516106489190614008565b60405180910390f35b610659611ebd565b6040516106669190614008565b60405180910390f35b610677611ee1565b60405161068a97969594939291906149f5565b60405180910390f35b6106ad60048036038101906106a89190614a79565b611f8b565b005b6106b7612077565b6040516106c49190614ae8565b60405180910390f35b6106e760048036038101906106e2919061404f565b6120a1565b6040516106f8959493929190614b03565b60405180910390f35b610709612207565b6040516107169190614008565b60405180910390f35b61072761222b565b6040516107349190614183565b60405180910390f35b6107456122bd565b6040516107529190614c98565b60405180910390f35b61077560048036038101906107709190614cba565b612499565b005b610791600480360381019061078c9190614cfa565b612509565b60405161079e9190614008565b60405180910390f35b6107c160048036038101906107bc91906141a5565b61265c565b6040516107ce9190614200565b60405180910390f35b6107f160048036038101906107ec919061404f565b61267f565b005b61080d6004803603810190610808919061404f565b6128e1565b60405161081a9190614e34565b60405180910390f35b61083d60048036038101906108389190613fc2565b612a82565b60405161084a9190614008565b60405180910390f35b61086d60048036038101906108689190613fc2565b612a9a565b60405161087a9190614008565b60405180910390f35b61089d60048036038101906108989190614443565b612ab2565b6040516108aa9190614200565b60405180910390f35b6108cd60048036038101906108c89190614cba565b612b77565b6040516108dd9493929190614e56565b60405180910390f35b61090060048036038101906108fb919061404f565b612c6c565b6040516109109493929190614ea2565b60405180910390f35b610933600480360381019061092e9190614f46565b612d51565b005b61094f600480360381019061094a9190614fe8565b612e99565b60405161095c9190614008565b60405180910390f35b61097f600480360381019061097a9190613fc2565b612f20565b005b60156020528060005260406000206000915090505481565b60106020528060005260406000206000915090508060000154908060010154908060020180546109c890615057565b80601f01602080910402602001604051908101604052809291908181526020018280546109f490615057565b8015610a415780601f10610a1657610100808354040283529160200191610a41565b820191906000526020600020905b815481529060010190602001808311610a2457829003601f168201915b5050505050908060030154908060040154908060050160009054906101000a900473ffffffffffffffffffffffffffffffffffffffff16905086565b606060038054610a8c90615057565b80601f0160208091040260200160405190810160405280929190818152602001828054610ab890615057565b8015610b055780601f10610ada57610100808354040283529160200191610b05565b820191906000526020600020905b815481529060010190602001808311610ae857829003601f168201915b5050505050905090565b600080610b1a612fa6565b9050610b27818585612fae565b600191505092915050565b60606000600a5467ffffffffffffffff811115610b5257610b5161448d565b5b604051908082528060200260200182016040528015610b8b57816020015b610b78613e4f565b815260200190600190039081610b705790505b509050600080600190505b6009548111610d285784601060008381526020019081526020016000206001015403610d1557601060008281526020019081526020016000206040518060c00160405290816000820154815260200160018201548152602001600282018054610bfe90615057565b80601f0160208091040260200160405190810160405280929190818152602001828054610c2a90615057565b8015610c775780601f10610c4c57610100808354040283529160200191610c77565b820191906000526020600020905b815481529060010190602001808311610c5a57829003601f168201915b5050505050815260200160038201548152602001600482015481526020016005820160009054906101000a900473ffffffffffffffffffffffffffffffffffffffff1673ffffffffffffffffffffffffffffffffffffffff1673ffffffffffffffffffffffffffffffffffffffff1681525050838380610cf6906150b7565b945081518110610d0957610d086150ff565b5b60200260200101819052505b8080610d20906150b7565b915050610b96565b508192505050919050565b600080600090505b600b54811015610e0e57846012600083815260200190815260200160002060000154148015610d7f5750836012600083815260200190815260200160002060010154145b8015610dec57508273ffffffffffffffffffffffffffffffffffffffff166012600083815260200190815260200160002060020160009054906101000a900473ffffffffffffffffffffffffffffffffffffffff1673ffffffffffffffffffffffffffffffffffffffff16145b15610dfb576001915050610e14565b8080610e06906150b7565b915050610d3b565b50600090505b9392505050565b6000600254905090565b600060106000848152602001908152602001600020600101549050610e4a8133612ab2565b610e89576040517f08c379a0000000000000000000000000000000000000000000000000000000008152600401610e80906151a0565b60405180910390fd5b610e94818433610d33565b15610ed4576040517f08c379a0000000000000000000000000000000000000000000000000000000008152600401610ecb90615232565b60405180910390fd5b6000610edf33611b80565b905060008111610f24576040517f08c379a0000000000000000000000000000000000000000000000000000000008152600401610f1b906152c4565b60405180910390fd5b6000805b60146000878152602001908152602001600020805490508110156111eb578473ffffffffffffffffffffffffffffffffffffffff16601460008881526020019081526020016000208281548110610f8257610f816150ff565b5b906000526020600020906004020160010160009054906101000a900473ffffffffffffffffffffffffffffffffffffffff1673ffffffffffffffffffffffffffffffffffffffff16036111d8576000601460008881526020019081526020016000208281548110610ff657610ff56150ff565b5b9060005260206000209060040201604051806080016040529081600082015481526020016001820160009054906101000a900473ffffffffffffffffffffffffffffffffffffffff1673ffffffffffffffffffffffffffffffffffffffff1673ffffffffffffffffffffffffffffffffffffffff16815260200160028201805461107f90615057565b80601f01602080910402602001604051908101604052809291908181526020018280546110ab90615057565b80156110f85780601f106110cd576101008083540402835291602001916110f8565b820191906000526020600020905b8154815290600101906020018083116110db57829003601f168201915b505050505081526020016003820154815250509050838160600181815161111f91906152e4565b915081815250508060146000898152602001908152602001600020838154811061114c5761114b6150ff565b5b90600052602060002090600402016000820151816000015560208201518160010160006101000a81548173ffffffffffffffffffffffffffffffffffffffff021916908373ffffffffffffffffffffffffffffffffffffffff16021790555060408201518160020190816111c091906154c4565b506060820151816003015590505060019250506111eb565b80806111e3906150b7565b915050610f28565b508061122c576040517f08c379a0000000000000000000000000000000000000000000000000000000008152600401611223906155e2565b60405180910390fd5b600b600081548092919061123f906150b7565b919050555060405180606001604052808481526020018681526020013373ffffffffffffffffffffffffffffffffffffffff1681525060126000600b548152602001908152602001600020600082015181600001556020820151816001015560408201518160020160006101000a81548173ffffffffffffffffffffffffffffffffffffffff021916908373ffffffffffffffffffffffffffffffffffffffff1602179055509050505050505050565b6000611311601060008681526020019081526020016000206001015433612ab2565b611350576040517f08c379a000000000000000000000000000000000000000000000000000000000815260040161134790615674565b60405180910390fd5b600d6000815480929190611363906150b7565b91905055506040518060a00160405280600d5481526020018581526020013373ffffffffffffffffffffffffffffffffffffffff1681526020018481526020018381525060136000600d548152602001908152602001600020600082015181600001556020820151816001015560408201518160020160006101000a81548173ffffffffffffffffffffffffffffffffffffffff021916908373ffffffffffffffffffffffffffffffffffffffff160217905550606082015181600301908161142c91906154c4565b50608082015181600401908161144291906154c4565b50905050600d5490509392505050565b60008061145d612fa6565b905061146a858285612fc0565b611475858585613054565b60019150509392505050565b6060600080600190505b600d5481116114d357836013600083815260200190815260200160002060010154036114c05781806114bc906150b7565b9250505b80806114cb906150b7565b91505061148b565b5060008167ffffffffffffffff8111156114f0576114ef61448d565b5b60405190808252806020026020018201604052801561152957816020015b611516613e9b565b81526020019060019003908161150e5790505b509050600080600190505b600d548111611746578560136000838152602001908152602001600020600101540361173357601360008281526020019081526020016000206040518060a001604052908160008201548152602001600182015481526020016002820160009054906101000a900473ffffffffffffffffffffffffffffffffffffffff1673ffffffffffffffffffffffffffffffffffffffff1673ffffffffffffffffffffffffffffffffffffffff1681526020016003820180546115f290615057565b80601f016020809104026020016040519081016040528092919081815260200182805461161e90615057565b801561166b5780601f106116405761010080835404028352916020019161166b565b820191906000526020600020905b81548152906001019060200180831161164e57829003601f168201915b5050505050815260200160048201805461168490615057565b80601f01602080910402602001604051908101604052809291908181526020018280546116b090615057565b80156116fd5780601f106116d2576101008083540402835291602001916116fd565b820191906000526020600020905b8154815290600101906020018083116116e057829003601f168201915b505050505081525050838381518110611719576117186150ff565b5b6020026020010181905250818061172f906150b7565b9250505b808061173e906150b7565b915050611534565b50819350505050919050565b60606000600a5467ffffffffffffffff8111156117725761177161448d565b5b6040519080825280602002602001820160405280156117ab57816020015b611798613e4f565b8152602001906001900390816117905790505b5090506000600190505b600954811161192957601060008281526020019081526020016000206040518060c0016040529081600082015481526020016001820154815260200160028201805461180090615057565b80601f016020809104026020016040519081016040528092919081815260200182805461182c90615057565b80156118795780601f1061184e57610100808354040283529160200191611879565b820191906000526020600020905b81548152906001019060200180831161185c57829003601f168201915b5050505050815260200160038201548152602001600482015481526020016005820160009054906101000a900473ffffffffffffffffffffffffffffffffffffffff1673ffffffffffffffffffffffffffffffffffffffff1673ffffffffffffffffffffffffffffffffffffffff1681525050826001836118fa9190615694565b8151811061190b5761190a6150ff565b5b60200260200101819052508080611921906150b7565b9150506117b5565b508091505090565b60006012905090565b6000611944613148565b905090565b6119516131ff565b61195b8282613286565b5050565b61197061196a612fa6565b82613308565b50565b600060096000815480929190611988906150b7565b9190505550604051806080016040528060095481526020013373ffffffffffffffffffffffffffffffffffffffff16815260200183815260200160001515815250600f600060095481526020019081526020016000206000820151816000015560208201518160010160006101000a81548173ffffffffffffffffffffffffffffffffffffffff021916908373ffffffffffffffffffffffffffffffffffffffff1602179055506040820151816002019081611a4491906154c4565b5060608201518160030160006101000a81548160ff021916908315150217905550905050611a92307f0000000000000000000000000000000000000000000000000000000000000000611949565b7f0000000000000000000000000000000000000000000000000000000000000000601560003073ffffffffffffffffffffffffffffffffffffffff1673ffffffffffffffffffffffffffffffffffffffff1681526020019081526020016000206000828254611b0191906152e4565b925050819055506009549050919050565b60126020528060005260406000206000915090508060000154908060010154908060020160009054906101000a900473ffffffffffffffffffffffffffffffffffffffff16905083565b7f000000000000000000000000000000000000000000000000000000000000000081565b60008060008373ffffffffffffffffffffffffffffffffffffffff1673ffffffffffffffffffffffffffffffffffffffff168152602001908152602001600020549050919050565b611bd06131ff565b611bda600061338a565b565b60116020528060005260406000206000915090508060000154908060010160009054906101000a900473ffffffffffffffffffffffffffffffffffffffff16905082565b611c3282611c2c612fa6565b83612fc0565b611c3c8282613308565b5050565b3373ffffffffffffffffffffffffffffffffffffffff16600f600084815260200190815260200160002060010160009054906101000a900473ffffffffffffffffffffffffffffffffffffffff1673ffffffffffffffffffffffffffffffffffffffff1614611ce4576040517f08c379a0000000000000000000000000000000000000000000000000000000008152600401611cdb9061573a565b60405180910390fd5b600c6000815480929190611cf7906150b7565b919050555060405180604001604052808381526020018273ffffffffffffffffffffffffffffffffffffffff1681525060116000600c5481526020019081526020016000206000820151816000015560208201518160010160006101000a81548173ffffffffffffffffffffffffffffffffffffffff021916908373ffffffffffffffffffffffffffffffffffffffff160217905550905050611dbb30827f0000000000000000000000000000000000000000000000000000000000000000613054565b7f0000000000000000000000000000000000000000000000000000000000000000601560003073ffffffffffffffffffffffffffffffffffffffff1673ffffffffffffffffffffffffffffffffffffffff1681526020019081526020016000206000828254611e2a9190615694565b925050819055507f0000000000000000000000000000000000000000000000000000000000000000601660003073ffffffffffffffffffffffffffffffffffffffff1673ffffffffffffffffffffffffffffffffffffffff1681526020019081526020016000206000828254611ea091906152e4565b925050819055505050565b6000611eb682613450565b9050919050565b7f000000000000000000000000000000000000000000000000000000000000000081565b600060608060008060006060611ef5613499565b611efd6134d4565b46306000801b600067ffffffffffffffff811115611f1e57611f1d61448d565b5b604051908082528060200260200182016040528015611f4c5781602001602082028036833780820191505090505b507f0f00000000000000000000000000000000000000000000000000000000000000959493929190965096509650965096509650965090919293949596565b6014600084815260200190815260200160002060405180608001604052808581526020018473ffffffffffffffffffffffffffffffffffffffff168152602001838152602001600081525090806001815401808255809150506001900390600052602060002090600402016000909190919091506000820151816000015560208201518160010160006101000a81548173ffffffffffffffffffffffffffffffffffffffff021916908373ffffffffffffffffffffffffffffffffffffffff160217905550604082015181600201908161206591906154c4565b50606082015181600301555050505050565b6000600560009054906101000a900473ffffffffffffffffffffffffffffffffffffffff16905090565b60136020528060005260406000206000915090508060000154908060010154908060020160009054906101000a900473ffffffffffffffffffffffffffffffffffffffff16908060030180546120f690615057565b80601f016020809104026020016040519081016040528092919081815260200182805461212290615057565b801561216f5780601f106121445761010080835404028352916020019161216f565b820191906000526020600020905b81548152906001019060200180831161215257829003601f168201915b50505050509080600401805461218490615057565b80601f01602080910402602001604051908101604052809291908181526020018280546121b090615057565b80156121fd5780601f106121d2576101008083540402835291602001916121fd565b820191906000526020600020905b8154815290600101906020018083116121e057829003601f168201915b5050505050905085565b7f000000000000000000000000000000000000000000000000000000000000000081565b60606004805461223a90615057565b80601f016020809104026020016040519081016040528092919081815260200182805461226690615057565b80156122b35780601f10612288576101008083540402835291602001916122b3565b820191906000526020600020905b81548152906001019060200180831161229657829003601f168201915b5050505050905090565b6060600060095467ffffffffffffffff8111156122dd576122dc61448d565b5b60405190808252806020026020018201604052801561231657816020015b612303613ee0565b8152602001906001900390816122fb5790505b5090506000600190505b600954811161249157600f6000828152602001908152602001600020604051806080016040529081600082015481526020016001820160009054906101000a900473ffffffffffffffffffffffffffffffffffffffff1673ffffffffffffffffffffffffffffffffffffffff1673ffffffffffffffffffffffffffffffffffffffff1681526020016002820180546123b790615057565b80601f01602080910402602001604051908101604052809291908181526020018280546123e390615057565b80156124305780601f1061240557610100808354040283529160200191612430565b820191906000526020600020905b81548152906001019060200180831161241357829003601f168201915b505050505081526020016003820160009054906101000a900460ff161515151581525050826001836124629190615694565b81518110612473576124726150ff565b5b60200260200101819052508080612489906150b7565b915050612320565b508091505090565b600081101580156124ab575060038111155b6124ea576040517f08c379a00000000000000000000000000000000000000000000000000000000081526004016124e1906157a6565b60405180910390fd5b8060106000848152602001908152602001600020600401819055505050565b60006125158333612ab2565b612554576040517f08c379a000000000000000000000000000000000000000000000000000000000815260040161254b90615838565b60405180910390fd5b600a6000815480929190612567906150b7565b91905055506040518060c00160405280600a5481526020018481526020018381526020016000815260200160008152602001600073ffffffffffffffffffffffffffffffffffffffff1681525060106000600a548152602001908152602001600020600082015181600001556020820151816001015560408201518160020190816125f291906154c4565b50606082015181600301556080820151816004015560a08201518160050160006101000a81548173ffffffffffffffffffffffffffffffffffffffff021916908373ffffffffffffffffffffffffffffffffffffffff160217905550905050600a54905092915050565b600080612667612fa6565b9050612674818585613054565b600191505092915050565b60006010600083815260200190815260200160002060040154146126d8576040517f08c379a00000000000000000000000000000000000000000000000000000000081526004016126cf906158a4565b60405180910390fd5b60008060005b60146000858152602001908152602001600020805490508110156127e05782601460008681526020019081526020016000208281548110612722576127216150ff565b5b90600052602060002090600402016003015411156127cd5760146000858152602001908152602001600020818154811061275f5761275e6150ff565b5b906000526020600020906004020160010160009054906101000a900473ffffffffffffffffffffffffffffffffffffffff1691506014600085815260200190815260200160002081815481106127b8576127b76150ff565b5b90600052602060002090600402016003015492505b80806127d8906150b7565b9150506126de565b50600073ffffffffffffffffffffffffffffffffffffffff168173ffffffffffffffffffffffffffffffffffffffff1603612850576040517f08c379a000000000000000000000000000000000000000000000000000000000815260040161284790615936565b60405180910390fd5b60016010600085815260200190815260200160002060040181905550806010600085815260200190815260200160002060050160006101000a81548173ffffffffffffffffffffffffffffffffffffffff021916908373ffffffffffffffffffffffffffffffffffffffff160217905550816010600085815260200190815260200160002060030181905550505050565b6060600080600190505b600c548111612933578360116000838152602001908152602001600020600001540361292057818061291c906150b7565b9250505b808061292b906150b7565b9150506128eb565b5060008167ffffffffffffffff8111156129505761294f61448d565b5b60405190808252806020026020018201604052801561298957816020015b612976613f20565b81526020019060019003908161296e5790505b509050600080600190505b838111612a765785601160008381526020019081526020016000206000015403612a635760116000828152602001908152602001600020604051806040016040529081600082015481526020016001820160009054906101000a900473ffffffffffffffffffffffffffffffffffffffff1673ffffffffffffffffffffffffffffffffffffffff1673ffffffffffffffffffffffffffffffffffffffff1681525050838381518110612a4957612a486150ff565b5b60200260200101819052508180612a5f906150b7565b9250505b8080612a6e906150b7565b915050612994565b50819350505050919050565b60166020528060005260406000206000915090505481565b60176020528060005260406000206000915090505481565b600080600190505b600c548111612b6b57836011600083815260200190815260200160002060000154148015612b4957508273ffffffffffffffffffffffffffffffffffffffff166011600083815260200190815260200160002060010160009054906101000a900473ffffffffffffffffffffffffffffffffffffffff1673ffffffffffffffffffffffffffffffffffffffff16145b15612b58576001915050612b71565b8080612b63906150b7565b915050612aba565b50600090505b92915050565b60146020528160005260406000208181548110612b9357600080fd5b9060005260206000209060040201600091509150508060000154908060010160009054906101000a900473ffffffffffffffffffffffffffffffffffffffff1690806002018054612be390615057565b80601f0160208091040260200160405190810160405280929190818152602001828054612c0f90615057565b8015612c5c5780601f10612c3157610100808354040283529160200191612c5c565b820191906000526020600020905b815481529060010190602001808311612c3f57829003601f168201915b5050505050908060030154905084565b600f6020528060005260406000206000915090508060000154908060010160009054906101000a900473ffffffffffffffffffffffffffffffffffffffff1690806002018054612cbb90615057565b80601f0160208091040260200160405190810160405280929190818152602001828054612ce790615057565b8015612d345780601f10612d0957610100808354040283529160200191612d34565b820191906000526020600020905b815481529060010190602001808311612d1757829003601f168201915b5050505050908060030160009054906101000a900460ff16905084565b83421115612d9657836040517f62791302000000000000000000000000000000000000000000000000000000008152600401612d8d9190614008565b60405180910390fd5b60007f6e71edae12b1b97f4d1f60370fef10105fa2faae0126114a169c64845d6126c9888888612dc58c61350f565b89604051602001612ddb96959493929190615956565b6040516020818303038152906040528051906020012090506000612dfe82613566565b90506000612e0e82878787613580565b90508973ffffffffffffffffffffffffffffffffffffffff168173ffffffffffffffffffffffffffffffffffffffff1614612e8257808a6040517f4b800e46000000000000000000000000000000000000000000000000000000008152600401612e799291906159b7565b60405180910390fd5b612e8d8a8a8a612fae565b50505050505050505050565b6000600160008473ffffffffffffffffffffffffffffffffffffffff1673ffffffffffffffffffffffffffffffffffffffff16815260200190815260200160002060008373ffffffffffffffffffffffffffffffffffffffff1673ffffffffffffffffffffffffffffffffffffffff16815260200190815260200160002054905092915050565b612f286131ff565b600073ffffffffffffffffffffffffffffffffffffffff168173ffffffffffffffffffffffffffffffffffffffff1603612f9a5760006040517f1e4fbdf7000000000000000000000000000000000000000000000000000000008152600401612f919190614ae8565b60405180910390fd5b612fa38161338a565b50565b600033905090565b612fbb83838360016135b0565b505050565b6000612fcc8484612e99565b90507fffffffffffffffffffffffffffffffffffffffffffffffffffffffffffffffff811461304e578181101561303e578281836040517ffb8f41b2000000000000000000000000000000000000000000000000000000008152600401613035939291906159e0565b60405180910390fd5b61304d848484840360006135b0565b5b50505050565b600073ffffffffffffffffffffffffffffffffffffffff168373ffffffffffffffffffffffffffffffffffffffff16036130c65760006040517f96c6fd1e0000000000000000000000000000000000000000000000000000000081526004016130bd9190614ae8565b60405180910390fd5b600073ffffffffffffffffffffffffffffffffffffffff168273ffffffffffffffffffffffffffffffffffffffff16036131385760006040517fec442f0500000000000000000000000000000000000000000000000000000000815260040161312f9190614ae8565b60405180910390fd5b613143838383613787565b505050565b60007f000000000000000000000000000000000000000000000000000000000000000073ffffffffffffffffffffffffffffffffffffffff163073ffffffffffffffffffffffffffffffffffffffff161480156131c457507f000000000000000000000000000000000000000000000000000000000000000046145b156131f1577f000000000000000000000000000000000000000000000000000000000000000090506131fc565b6131f96139ac565b90505b90565b613207612fa6565b73ffffffffffffffffffffffffffffffffffffffff16613225612077565b73ffffffffffffffffffffffffffffffffffffffff161461328457613248612fa6565b6040517f118cdaa700000000000000000000000000000000000000000000000000000000815260040161327b9190614ae8565b60405180910390fd5b565b600073ffffffffffffffffffffffffffffffffffffffff168273ffffffffffffffffffffffffffffffffffffffff16036132f85760006040517fec442f050000000000000000000000000000000000000000000000000000000081526004016132ef9190614ae8565b60405180910390fd5b61330460008383613787565b5050565b600073ffffffffffffffffffffffffffffffffffffffff168273ffffffffffffffffffffffffffffffffffffffff160361337a5760006040517f96c6fd1e0000000000000000000000000000000000000000000000000000000081526004016133719190614ae8565b60405180910390fd5b61338682600083613787565b5050565b6000600560009054906101000a900473ffffffffffffffffffffffffffffffffffffffff16905081600560006101000a81548173ffffffffffffffffffffffffffffffffffffffff021916908373ffffffffffffffffffffffffffffffffffffffff1602179055508173ffffffffffffffffffffffffffffffffffffffff168173ffffffffffffffffffffffffffffffffffffffff167f8be0079c531659141344cd1fd0a4f28419497f9722a3daafe3b4186f6b6457e060405160405180910390a35050565b6000600860008373ffffffffffffffffffffffffffffffffffffffff1673ffffffffffffffffffffffffffffffffffffffff168152602001908152602001600020549050919050565b60606134cf60067f0000000000000000000000000000000000000000000000000000000000000000613a4290919063ffffffff16565b905090565b606061350a60077f0000000000000000000000000000000000000000000000000000000000000000613a4290919063ffffffff16565b905090565b6000600860008373ffffffffffffffffffffffffffffffffffffffff1673ffffffffffffffffffffffffffffffffffffffff1681526020019081526020016000206000815480929190600101919050559050919050565b6000613579613573613148565b83613af2565b9050919050565b60008060008061359288888888613b33565b9250925092506135a28282613c27565b829350505050949350505050565b600073ffffffffffffffffffffffffffffffffffffffff168473ffffffffffffffffffffffffffffffffffffffff16036136225760006040517fe602df050000000000000000000000000000000000000000000000000000000081526004016136199190614ae8565b60405180910390fd5b600073ffffffffffffffffffffffffffffffffffffffff168373ffffffffffffffffffffffffffffffffffffffff16036136945760006040517f94280d6200000000000000000000000000000000000000000000000000000000815260040161368b9190614ae8565b60405180910390fd5b81600160008673ffffffffffffffffffffffffffffffffffffffff1673ffffffffffffffffffffffffffffffffffffffff16815260200190815260200160002060008573ffffffffffffffffffffffffffffffffffffffff1673ffffffffffffffffffffffffffffffffffffffff168152602001908152602001600020819055508015613781578273ffffffffffffffffffffffffffffffffffffffff168473ffffffffffffffffffffffffffffffffffffffff167f8c5be1e5ebec7d5bd14f71427d1e84f3dd0314c0f7b2291e5b200ac8c7c3b925846040516137789190614008565b60405180910390a35b50505050565b600073ffffffffffffffffffffffffffffffffffffffff168373ffffffffffffffffffffffffffffffffffffffff16036137d95780600260008282546137cd91906152e4565b925050819055506138ac565b60008060008573ffffffffffffffffffffffffffffffffffffffff1673ffffffffffffffffffffffffffffffffffffffff16815260200190815260200160002054905081811015613865578381836040517fe450d38c00000000000000000000000000000000000000000000000000000000815260040161385c939291906159e0565b60405180910390fd5b8181036000808673ffffffffffffffffffffffffffffffffffffffff1673ffffffffffffffffffffffffffffffffffffffff16815260200190815260200160002081905550505b600073ffffffffffffffffffffffffffffffffffffffff168273ffffffffffffffffffffffffffffffffffffffff16036138f55780600260008282540392505081905550613942565b806000808473ffffffffffffffffffffffffffffffffffffffff1673ffffffffffffffffffffffffffffffffffffffff168152602001908152602001600020600082825401925050819055505b8173ffffffffffffffffffffffffffffffffffffffff168373ffffffffffffffffffffffffffffffffffffffff167fddf252ad1be2c89b69c2b068fc378daa952ba7f163c4a11628f55a4df523b3ef8360405161399f9190614008565b60405180910390a3505050565b60007f8b73c3c69bb8fe3d512ecc4cf759cc79239f7b179b0ffacaa9a75d522b39400f7f00000000000000000000000000000000000000000000000000000000000000007f00000000000000000000000000000000000000000000000000000000000000004630604051602001613a27959493929190615a17565b60405160208183030381529060405280519060200120905090565b606060ff60001b8314613a5f57613a5883613d8b565b9050613aec565b818054613a6b90615057565b80601f0160208091040260200160405190810160405280929190818152602001828054613a9790615057565b8015613ae45780601f10613ab957610100808354040283529160200191613ae4565b820191906000526020600020905b815481529060010190602001808311613ac757829003601f168201915b505050505090505b92915050565b60006040517f190100000000000000000000000000000000000000000000000000000000000081528360028201528260228201526042812091505092915050565b60008060007f7fffffffffffffffffffffffffffffff5d576e7357a4501ddfe92f46681b20a08460001c1115613b73576000600385925092509250613c1d565b600060018888888860405160008152602001604052604051613b989493929190615a6a565b6020604051602081039080840390855afa158015613bba573d6000803e3d6000fd5b505050602060405103519050600073ffffffffffffffffffffffffffffffffffffffff168173ffffffffffffffffffffffffffffffffffffffff1603613c0e57600060016000801b93509350935050613c1d565b8060008060001b935093509350505b9450945094915050565b60006003811115613c3b57613c3a615aaf565b5b826003811115613c4e57613c4d615aaf565b5b0315613d875760016003811115613c6857613c67615aaf565b5b826003811115613c7b57613c7a615aaf565b5b03613cb2576040517ff645eedf00000000000000000000000000000000000000000000000000000000815260040160405180910390fd5b60026003811115613cc657613cc5615aaf565b5b826003811115613cd957613cd8615aaf565b5b03613d1e578060001c6040517ffce698f7000000000000000000000000000000000000000000000000000000008152600401613d159190614008565b60405180910390fd5b600380811115613d3157613d30615aaf565b5b826003811115613d4457613d43615aaf565b5b03613d8657806040517fd78bce0c000000000000000000000000000000000000000000000000000000008152600401613d7d9190614847565b60405180910390fd5b5b5050565b60606000613d9883613dff565b90506000602067ffffffffffffffff811115613db757613db661448d565b5b6040519080825280601f01601f191660200182016040528015613de95781602001600182028036833780820191505090505b5090508181528360208201528092505050919050565b60008060ff8360001c169050601f811115613e46576040517fb3512b0c00000000000000000000000000000000000000000000000000000000815260040160405180910390fd5b80915050919050565b6040518060c001604052806000815260200160008152602001606081526020016000815260200160008152602001600073ffffffffffffffffffffffffffffffffffffffff1681525090565b6040518060a001604052806000815260200160008152602001600073ffffffffffffffffffffffffffffffffffffffff16815260200160608152602001606081525090565b604051806080016040528060008152602001600073ffffffffffffffffffffffffffffffffffffffff168152602001606081526020016000151581525090565b604051806040016040528060008152602001600073ffffffffffffffffffffffffffffffffffffffff1681525090565b6000604051905090565b600080fd5b600080fd5b600073ffffffffffffffffffffffffffffffffffffffff82169050919050565b6000613f8f82613f64565b9050919050565b613f9f81613f84565b8114613faa57600080fd5b50565b600081359050613fbc81613f96565b92915050565b600060208284031215613fd857613fd7613f5a565b5b6000613fe684828501613fad565b91505092915050565b6000819050919050565b61400281613fef565b82525050565b600060208201905061401d6000830184613ff9565b92915050565b61402c81613fef565b811461403757600080fd5b50565b60008135905061404981614023565b92915050565b60006020828403121561406557614064613f5a565b5b60006140738482850161403a565b91505092915050565b600081519050919050565b600082825260208201905092915050565b60005b838110156140b657808201518184015260208101905061409b565b60008484015250505050565b6000601f19601f8301169050919050565b60006140de8261407c565b6140e88185614087565b93506140f8818560208601614098565b614101816140c2565b840191505092915050565b61411581613f84565b82525050565b600060c0820190506141306000830189613ff9565b61413d6020830188613ff9565b818103604083015261414f81876140d3565b905061415e6060830186613ff9565b61416b6080830185613ff9565b61417860a083018461410c565b979650505050505050565b6000602082019050818103600083015261419d81846140d3565b905092915050565b600080604083850312156141bc576141bb613f5a565b5b60006141ca85828601613fad565b92505060206141db8582860161403a565b9150509250929050565b60008115159050919050565b6141fa816141e5565b82525050565b600060208201905061421560008301846141f1565b92915050565b600081519050919050565b600082825260208201905092915050565b6000819050602082019050919050565b61425081613fef565b82525050565b600082825260208201905092915050565b60006142728261407c565b61427c8185614256565b935061428c818560208601614098565b614295816140c2565b840191505092915050565b6142a981613f84565b82525050565b600060c0830160008301516142c76000860182614247565b5060208301516142da6020860182614247565b50604083015184820360408601526142f28282614267565b91505060608301516143076060860182614247565b50608083015161431a6080860182614247565b5060a083015161432d60a08601826142a0565b508091505092915050565b600061434483836142af565b905092915050565b6000602082019050919050565b60006143648261421b565b61436e8185614226565b93508360208202850161438085614237565b8060005b858110156143bc578484038952815161439d8582614338565b94506143a88361434c565b925060208a01995050600181019050614384565b50829750879550505050505092915050565b600060208201905081810360008301526143e88184614359565b905092915050565b60008060006060848603121561440957614408613f5a565b5b60006144178682870161403a565b93505060206144288682870161403a565b925050604061443986828701613fad565b9150509250925092565b6000806040838503121561445a57614459613f5a565b5b60006144688582860161403a565b925050602061447985828601613fad565b9150509250929050565b600080fd5b600080fd5b7f4e487b7100000000000000000000000000000000000000000000000000000000600052604160045260246000fd5b6144c5826140c2565b810181811067ffffffffffffffff821117156144e4576144e361448d565b5b80604052505050565b60006144f7613f50565b905061450382826144bc565b919050565b600067ffffffffffffffff8211156145235761452261448d565b5b61452c826140c2565b9050602081019050919050565b82818337600083830152505050565b600061455b61455684614508565b6144ed565b90508281526020810184848401111561457757614576614488565b5b614582848285614539565b509392505050565b600082601f83011261459f5761459e614483565b5b81356145af848260208601614548565b91505092915050565b6000806000606084860312156145d1576145d0613f5a565b5b60006145df8682870161403a565b935050602084013567ffffffffffffffff811115614600576145ff613f5f565b5b61460c8682870161458a565b925050604084013567ffffffffffffffff81111561462d5761462c613f5f565b5b6146398682870161458a565b9150509250925092565b60008060006060848603121561465c5761465b613f5a565b5b600061466a86828701613fad565b935050602061467b86828701613fad565b925050604061468c8682870161403a565b9150509250925092565b600081519050919050565b600082825260208201905092915050565b6000819050602082019050919050565b600060a0830160008301516146da6000860182614247565b5060208301516146ed6020860182614247565b50604083015161470060408601826142a0565b50606083015184820360608601526147188282614267565b915050608083015184820360808601526147328282614267565b9150508091505092915050565b600061474b83836146c2565b905092915050565b6000602082019050919050565b600061476b82614696565b61477581856146a1565b935083602082028501614787856146b2565b8060005b858110156147c357848403895281516147a4858261473f565b94506147af83614753565b925060208a0199505060018101905061478b565b50829750879550505050505092915050565b600060208201905081810360008301526147ef8184614760565b905092915050565b600060ff82169050919050565b61480d816147f7565b82525050565b60006020820190506148286000830184614804565b92915050565b6000819050919050565b6148418161482e565b82525050565b600060208201905061485c6000830184614838565b92915050565b60006020828403121561487857614877613f5a565b5b600082013567ffffffffffffffff81111561489657614895613f5f565b5b6148a28482850161458a565b91505092915050565b60006060820190506148c06000830186613ff9565b6148cd6020830185613ff9565b6148da604083018461410c565b949350505050565b60006040820190506148f76000830185613ff9565b614904602083018461410c565b9392505050565b60007fff0000000000000000000000000000000000000000000000000000000000000082169050919050565b6149408161490b565b82525050565b600081519050919050565b600082825260208201905092915050565b6000819050602082019050919050565b600061497e8383614247565b60208301905092915050565b6000602082019050919050565b60006149a282614946565b6149ac8185614951565b93506149b783614962565b8060005b838110156149e85781516149cf8882614972565b97506149da8361498a565b9250506001810190506149bb565b5085935050505092915050565b600060e082019050614a0a600083018a614937565b8181036020830152614a1c81896140d3565b90508181036040830152614a3081886140d3565b9050614a3f6060830187613ff9565b614a4c608083018661410c565b614a5960a0830185614838565b81810360c0830152614a6b8184614997565b905098975050505050505050565b600080600060608486031215614a9257614a91613f5a565b5b6000614aa08682870161403a565b9350506020614ab186828701613fad565b925050604084013567ffffffffffffffff811115614ad257614ad1613f5f565b5b614ade8682870161458a565b9150509250925092565b6000602082019050614afd600083018461410c565b92915050565b600060a082019050614b186000830188613ff9565b614b256020830187613ff9565b614b32604083018661410c565b8181036060830152614b4481856140d3565b90508181036080830152614b5881846140d3565b90509695505050505050565b600081519050919050565b600082825260208201905092915050565b6000819050602082019050919050565b614b99816141e5565b82525050565b6000608083016000830151614bb76000860182614247565b506020830151614bca60208601826142a0565b5060408301518482036040860152614be28282614267565b9150506060830151614bf76060860182614b90565b508091505092915050565b6000614c0e8383614b9f565b905092915050565b6000602082019050919050565b6000614c2e82614b64565b614c388185614b6f565b935083602082028501614c4a85614b80565b8060005b85811015614c865784840389528151614c678582614c02565b9450614c7283614c16565b925060208a01995050600181019050614c4e565b50829750879550505050505092915050565b60006020820190508181036000830152614cb28184614c23565b905092915050565b60008060408385031215614cd157614cd0613f5a565b5b6000614cdf8582860161403a565b9250506020614cf08582860161403a565b9150509250929050565b60008060408385031215614d1157614d10613f5a565b5b6000614d1f8582860161403a565b925050602083013567ffffffffffffffff811115614d4057614d3f613f5f565b5b614d4c8582860161458a565b9150509250929050565b600081519050919050565b600082825260208201905092915050565b6000819050602082019050919050565b604082016000820151614d986000850182614247565b506020820151614dab60208501826142a0565b50505050565b6000614dbd8383614d82565b60408301905092915050565b6000602082019050919050565b6000614de182614d56565b614deb8185614d61565b9350614df683614d72565b8060005b83811015614e27578151614e0e8882614db1565b9750614e1983614dc9565b925050600181019050614dfa565b5085935050505092915050565b60006020820190508181036000830152614e4e8184614dd6565b905092915050565b6000608082019050614e6b6000830187613ff9565b614e78602083018661410c565b8181036040830152614e8a81856140d3565b9050614e996060830184613ff9565b95945050505050565b6000608082019050614eb76000830187613ff9565b614ec4602083018661410c565b8181036040830152614ed681856140d3565b9050614ee560608301846141f1565b95945050505050565b614ef7816147f7565b8114614f0257600080fd5b50565b600081359050614f1481614eee565b92915050565b614f238161482e565b8114614f2e57600080fd5b50565b600081359050614f4081614f1a565b92915050565b600080600080600080600060e0888a031215614f6557614f64613f5a565b5b6000614f738a828b01613fad565b9750506020614f848a828b01613fad565b9650506040614f958a828b0161403a565b9550506060614fa68a828b0161403a565b9450506080614fb78a828b01614f05565b93505060a0614fc88a828b01614f31565b92505060c0614fd98a828b01614f31565b91505092959891949750929550565b60008060408385031215614fff57614ffe613f5a565b5b600061500d85828601613fad565b925050602061501e85828601613fad565b9150509250929050565b7f4e487b7100000000000000000000000000000000000000000000000000000000600052602260045260246000fd5b6000600282049050600182168061506f57607f821691505b60208210810361508257615081615028565b5b50919050565b7f4e487b7100000000000000000000000000000000000000000000000000000000600052601160045260246000fd5b60006150c282613fef565b91507fffffffffffffffffffffffffffffffffffffffffffffffffffffffffffffffff82036150f4576150f3615088565b5b600182019050919050565b7f4e487b7100000000000000000000000000000000000000000000000000000000600052603260045260246000fd5b7f4f6e6c79206d61696e7461696e6572732063616e20766f7465206f6e206e6f6d60008201527f696e6174696f6e73000000000000000000000000000000000000000000000000602082015250565b600061518a602883614087565b91506151958261512e565b604082019050919050565b600060208201905081810360008301526151b98161517d565b9050919050565b7f4d61696e7461696e65722068617320616c726561647920766f746564206f6e2060008201527f7468697320697373756500000000000000000000000000000000000000000000602082015250565b600061521c602a83614087565b9150615227826151c0565b604082019050919050565b6000602082019050818103600083015261524b8161520f565b9050919050565b7f4d61696e7461696e6572206d757374206861766520746f6b656e7320746f207660008201527f6f74650000000000000000000000000000000000000000000000000000000000602082015250565b60006152ae602383614087565b91506152b982615252565b604082019050919050565b600060208201905081810360008301526152dd816152a1565b9050919050565b60006152ef82613fef565b91506152fa83613fef565b925082820190508082111561531257615311615088565b5b92915050565b60008190508160005260206000209050919050565b60006020601f8301049050919050565b600082821b905092915050565b60006008830261537a7fffffffffffffffffffffffffffffffffffffffffffffffffffffffffffffffff8261533d565b615384868361533d565b95508019841693508086168417925050509392505050565b6000819050919050565b60006153c16153bc6153b784613fef565b61539c565b613fef565b9050919050565b6000819050919050565b6153db836153a6565b6153ef6153e7826153c8565b84845461534a565b825550505050565b600090565b6154046153f7565b61540f8184846153d2565b505050565b5b81811015615433576154286000826153fc565b600181019050615415565b5050565b601f8211156154785761544981615318565b6154528461532d565b81016020851015615461578190505b61547561546d8561532d565b830182615414565b50505b505050565b600082821c905092915050565b600061549b6000198460080261547d565b1980831691505092915050565b60006154b4838361548a565b9150826002028217905092915050565b6154cd8261407c565b67ffffffffffffffff8111156154e6576154e561448d565b5b6154f08254615057565b6154fb828285615437565b600060209050601f83116001811461552e576000841561551c578287015190505b61552685826154a8565b86555061558e565b601f19841661553c86615318565b60005b828110156155645784890151825560018201915060208501945060208101905061553f565b86831015615581578489015161557d601f89168261548a565b8355505b6001600288020188555050505b505050505050565b7f4e6f6d696e6565206e6f7420666f756e64000000000000000000000000000000600082015250565b60006155cc601183614087565b91506155d782615596565b602082019050919050565b600060208201905081810360008301526155fb816155bf565b9050919050565b7f4f6e6c79206d61696e7461696e6572732063616e2061646420636f6d6d656e7460008201527f7320746f20697373756573000000000000000000000000000000000000000000602082015250565b600061565e602b83614087565b915061566982615602565b604082019050919050565b6000602082019050818103600083015261568d81615651565b9050919050565b600061569f82613fef565b91506156aa83613fef565b92508282039050818111156156c2576156c1615088565b5b92915050565b7f4f6e6c79206f726761696e7a65722063616e2061646420746865206d61696e7460008201527f61696e6572000000000000000000000000000000000000000000000000000000602082015250565b6000615724602583614087565b915061572f826156c8565b604082019050919050565b6000602082019050818103600083015261575381615717565b9050919050565b7f496e76616c6964206973737565207374617475732076616c7565000000000000600082015250565b6000615790601a83614087565b915061579b8261575a565b602082019050919050565b600060208201905081810360008301526157bf81615783565b9050919050565b7f4f6e6c79206d61696e7461696e6572732063616e20637265617465206973737560008201527f6573000000000000000000000000000000000000000000000000000000000000602082015250565b6000615822602283614087565b915061582d826157c6565b604082019050919050565b6000602082019050818103600083015261585181615815565b9050919050565b7f4973737565206973206e6f74206f70656e000000000000000000000000000000600082015250565b600061588e601183614087565b915061589982615858565b602082019050919050565b600060208201905081810360008301526158bd81615881565b9050919050565b7f4e6f2077696e6e657220666f756e6420666f722069737375652061737369676e60008201527f6d656e7400000000000000000000000000000000000000000000000000000000602082015250565b6000615920602483614087565b915061592b826158c4565b604082019050919050565b6000602082019050818103600083015261594f81615913565b9050919050565b600060c08201905061596b6000830189614838565b615978602083018861410c565b615985604083018761410c565b6159926060830186613ff9565b61599f6080830185613ff9565b6159ac60a0830184613ff9565b979650505050505050565b60006040820190506159cc600083018561410c565b6159d9602083018461410c565b9392505050565b60006060820190506159f5600083018661410c565b615a026020830185613ff9565b615a0f6040830184613ff9565b949350505050565b600060a082019050615a2c6000830188614838565b615a396020830187614838565b615a466040830186614838565b615a536060830185613ff9565b615a60608083018461410c565b9695505050505050565b6000608082019050615a7f6000830187614838565b615a8c6020830186614804565b615a996040830185614838565b615aa66060830184614838565b95945050505050565b7f4e487b7100000000000000000000000000000000000000000000000000000000600052602160045260246000fdfea2646970667358221220f3cc598c5741c5caa888bef42a19e4c2bfd0d8e7809840dae4a55a9f86087e5264736f6c63430008140033",
  "linkReferences": {},
  "deployedLinkReferences": {}
}