{
  "_format": "hh-sol-artifact-1",
  "contractName": "DAO",
  "sourceName": "contracts/DAO.sol",
  "abi": [
    {
      "inputs": [],
      "stateMutability": "nonpayable",
      "type": "constructor"
    },
    {
      "inputs": [],
      "name": "ECDSAInvalidSignature",
      "type": "error"
    },
    {
      "inputs": [
        {
          "internalType": "uint256",
          "name": "length",
          "type": "uint256"
        }
      ],
      "name": "ECDSAInvalidSignatureLength",
      "type": "error"
    },
    {
      "inputs": [
        {
          "internalType": "bytes32",
          "name": "s",
          "type": "bytes32"
        }
      ],
      "name": "ECDSAInvalidSignatureS",
      "type": "error"
    },
    {
      "inputs": [
        {
          "internalType": "address",
          "name": "spender",
          "type": "address"
        },
        {
          "internalType": "uint256",
          "name": "allowance",
          "type": "uint256"
        },
        {
          "internalType": "uint256",
          "name": "needed",
          "type": "uint256"
        }
      ],
      "name": "ERC20InsufficientAllowance",
      "type": "error"
    },
    {
      "inputs": [
        {
          "internalType": "address",
          "name": "sender",
          "type": "address"
        },
        {
          "internalType": "uint256",
          "name": "balance",
          "type": "uint256"
        },
        {
          "internalType": "uint256",
          "name": "needed",
          "type": "uint256"
        }
      ],
      "name": "ERC20InsufficientBalance",
      "type": "error"
    },
    {
      "inputs": [
        {
          "internalType": "address",
          "name": "approver",
          "type": "address"
        }
      ],
      "name": "ERC20InvalidApprover",
      "type": "error"
    },
    {
      "inputs": [
        {
          "internalType": "address",
          "name": "receiver",
          "type": "address"
        }
      ],
      "name": "ERC20InvalidReceiver",
      "type": "error"
    },
    {
      "inputs": [
        {
          "internalType": "address",
          "name": "sender",
          "type": "address"
        }
      ],
      "name": "ERC20InvalidSender",
      "type": "error"
    },
    {
      "inputs": [
        {
          "internalType": "address",
          "name": "spender",
          "type": "address"
        }
      ],
      "name": "ERC20InvalidSpender",
      "type": "error"
    },
    {
      "inputs": [
        {
          "internalType": "uint256",
          "name": "deadline",
          "type": "uint256"
        }
      ],
      "name": "ERC2612ExpiredSignature",
      "type": "error"
    },
    {
      "inputs": [
        {
          "internalType": "address",
          "name": "signer",
          "type": "address"
        },
        {
          "internalType": "address",
          "name": "owner",
          "type": "address"
        }
      ],
      "name": "ERC2612InvalidSigner",
      "type": "error"
    },
    {
      "inputs": [
        {
          "internalType": "address",
          "name": "account",
          "type": "address"
        },
        {
          "internalType": "uint256",
          "name": "currentNonce",
          "type": "uint256"
        }
      ],
      "name": "InvalidAccountNonce",
      "type": "error"
    },
    {
      "inputs": [],
      "name": "InvalidShortString",
      "type": "error"
    },
    {
      "inputs": [
        {
          "internalType": "string",
          "name": "str",
          "type": "string"
        }
      ],
      "name": "StringTooLong",
      "type": "error"
    },
    {
      "anonymous": false,
      "inputs": [
        {
          "indexed": true,
          "internalType": "address",
          "name": "owner",
          "type": "address"
        },
        {
          "indexed": true,
          "internalType": "address",
          "name": "spender",
          "type": "address"
        },
        {
          "indexed": false,
          "internalType": "uint256",
          "name": "value",
          "type": "uint256"
        }
      ],
      "name": "Approval",
      "type": "event"
    },
    {
      "anonymous": false,
      "inputs": [],
      "name": "EIP712DomainChanged",
      "type": "event"
    },
    {
      "anonymous": false,
      "inputs": [
        {
          "indexed": true,
          "internalType": "address",
          "name": "from",
          "type": "address"
        },
        {
          "indexed": true,
          "internalType": "address",
          "name": "to",
          "type": "address"
        },
        {
          "indexed": false,
          "internalType": "uint256",
          "name": "value",
          "type": "uint256"
        }
      ],
      "name": "Transfer",
      "type": "event"
    },
    {
      "inputs": [],
      "name": "DOMAIN_SEPARATOR",
      "outputs": [
        {
          "internalType": "bytes32",
          "name": "",
          "type": "bytes32"
        }
      ],
      "stateMutability": "view",
      "type": "function"
    },
    {
      "inputs": [
        {
          "internalType": "address",
          "name": "owner",
          "type": "address"
        },
        {
          "internalType": "address",
          "name": "spender",
          "type": "address"
        }
      ],
      "name": "allowance",
      "outputs": [
        {
          "internalType": "uint256",
          "name": "",
          "type": "uint256"
        }
      ],
      "stateMutability": "view",
      "type": "function"
    },
    {
      "inputs": [
        {
          "internalType": "address",
          "name": "spender",
          "type": "address"
        },
        {
          "internalType": "uint256",
          "name": "value",
          "type": "uint256"
        }
      ],
      "name": "approve",
      "outputs": [
        {
          "internalType": "bool",
          "name": "",
          "type": "bool"
        }
      ],
      "stateMutability": "nonpayable",
      "type": "function"
    },
    {
      "inputs": [
        {
          "internalType": "uint256",
          "name": "issueID",
          "type": "uint256"
        }
      ],
      "name": "assignIssue",
      "outputs": [],
      "stateMutability": "nonpayable",
      "type": "function"
    },
    {
      "inputs": [
        {
          "internalType": "address",
          "name": "account",
          "type": "address"
        }
      ],
      "name": "balanceOf",
      "outputs": [
        {
          "internalType": "uint256",
          "name": "",
          "type": "uint256"
        }
      ],
      "stateMutability": "view",
      "type": "function"
    },
    {
      "inputs": [
        {
          "internalType": "uint256",
          "name": "value",
          "type": "uint256"
        }
      ],
      "name": "burn",
      "outputs": [],
      "stateMutability": "nonpayable",
      "type": "function"
    },
    {
      "inputs": [
        {
          "internalType": "address",
          "name": "account",
          "type": "address"
        },
        {
          "internalType": "uint256",
          "name": "value",
          "type": "uint256"
        }
      ],
      "name": "burnFrom",
      "outputs": [],
      "stateMutability": "nonpayable",
      "type": "function"
    },
    {
      "inputs": [
        {
          "internalType": "uint256",
          "name": "",
          "type": "uint256"
        }
      ],
      "name": "comments",
      "outputs": [
        {
          "internalType": "uint256",
          "name": "id",
          "type": "uint256"
        },
        {
          "internalType": "uint256",
          "name": "issueID",
          "type": "uint256"
        },
        {
          "internalType": "address",
          "name": "maintainer",
          "type": "address"
        },
        {
          "internalType": "string",
          "name": "comment",
          "type": "string"
        },
        {
          "internalType": "string",
          "name": "details",
          "type": "string"
        }
      ],
      "stateMutability": "view",
      "type": "function"
    },
    {
      "inputs": [
        {
          "internalType": "string",
          "name": "githubUserName",
          "type": "string"
        },
        {
          "internalType": "uint256",
          "name": "totalSupply",
          "type": "uint256"
        }
      ],
      "name": "createDAO",
      "outputs": [
        {
          "internalType": "uint256",
          "name": "",
          "type": "uint256"
        }
      ],
      "stateMutability": "nonpayable",
      "type": "function"
    },
    {
      "inputs": [
        {
          "internalType": "uint256",
          "name": "daoID",
          "type": "uint256"
        },
        {
          "internalType": "string",
          "name": "name",
          "type": "string"
        },
        {
          "internalType": "string",
          "name": "description",
          "type": "string"
        },
        {
          "internalType": "uint256",
          "name": "weight",
          "type": "uint256"
        }
      ],
      "name": "createIssue",
      "outputs": [
        {
          "internalType": "uint256",
          "name": "",
          "type": "uint256"
        }
      ],
      "stateMutability": "nonpayable",
      "type": "function"
    },
    {
      "inputs": [
        {
          "internalType": "address",
          "name": "",
          "type": "address"
        },
        {
          "internalType": "uint256",
          "name": "",
          "type": "uint256"
        }
      ],
      "name": "daoMaintainers",
      "outputs": [
        {
          "internalType": "uint256",
          "name": "",
          "type": "uint256"
        }
      ],
      "stateMutability": "view",
      "type": "function"
    },
    {
      "inputs": [
        {
          "internalType": "uint256",
          "name": "",
          "type": "uint256"
        }
      ],
      "name": "daoSupplies",
      "outputs": [
        {
          "internalType": "uint256",
          "name": "totalSupply",
          "type": "uint256"
        },
        {
          "internalType": "uint256",
          "name": "initialAllocation",
          "type": "uint256"
        },
        {
          "internalType": "uint256",
          "name": "maintainerAllocation",
          "type": "uint256"
        },
        {
          "internalType": "uint256",
          "name": "tokenReward",
          "type": "uint256"
        },
        {
          "internalType": "uint256",
          "name": "remainingSupply",
          "type": "uint256"
        }
      ],
      "stateMutability": "view",
      "type": "function"
    },
    {
      "inputs": [
        {
          "internalType": "uint256",
          "name": "",
          "type": "uint256"
        }
      ],
      "name": "daos",
      "outputs": [
        {
          "internalType": "uint256",
          "name": "id",
          "type": "uint256"
        },
        {
          "internalType": "address",
          "name": "Organizer",
          "type": "address"
        },
        {
          "internalType": "string",
          "name": "name",
          "type": "string"
        },
        {
          "internalType": "bool",
          "name": "closed",
          "type": "bool"
        }
      ],
      "stateMutability": "view",
      "type": "function"
    },
    {
      "inputs": [],
      "name": "decimals",
      "outputs": [
        {
          "internalType": "uint8",
          "name": "",
          "type": "uint8"
        }
      ],
      "stateMutability": "view",
      "type": "function"
    },
    {
      "inputs": [],
      "name": "eip712Domain",
      "outputs": [
        {
          "internalType": "bytes1",
          "name": "fields",
          "type": "bytes1"
        },
        {
          "internalType": "string",
          "name": "name",
          "type": "string"
        },
        {
          "internalType": "string",
          "name": "version",
          "type": "string"
        },
        {
          "internalType": "uint256",
          "name": "chainId",
          "type": "uint256"
        },
        {
          "internalType": "address",
          "name": "verifyingContract",
          "type": "address"
        },
        {
          "internalType": "bytes32",
          "name": "salt",
          "type": "bytes32"
        },
        {
          "internalType": "uint256[]",
          "name": "extensions",
          "type": "uint256[]"
        }
      ],
      "stateMutability": "view",
      "type": "function"
    },
    {
      "inputs": [],
      "name": "getDAO",
      "outputs": [
        {
          "components": [
            {
              "internalType": "uint256",
              "name": "id",
              "type": "uint256"
            },
            {
              "internalType": "address",
              "name": "Organizer",
              "type": "address"
            },
            {
              "internalType": "string",
              "name": "name",
              "type": "string"
            },
            {
              "internalType": "bool",
              "name": "closed",
              "type": "bool"
            }
          ],
          "internalType": "struct DAO.daoStruct[]",
          "name": "",
          "type": "tuple[]"
        }
      ],
      "stateMutability": "view",
      "type": "function"
    },
    {
      "inputs": [
        {
          "internalType": "address",
          "name": "maintainer",
          "type": "address"
        }
      ],
      "name": "getDAObyMaintainer",
      "outputs": [
        {
          "components": [
            {
              "internalType": "uint256",
              "name": "id",
              "type": "uint256"
            },
            {
              "internalType": "address",
              "name": "Organizer",
              "type": "address"
            },
            {
              "internalType": "string",
              "name": "name",
              "type": "string"
            },
            {
              "internalType": "bool",
              "name": "closed",
              "type": "bool"
            }
          ],
          "internalType": "struct DAO.daoStruct[]",
          "name": "",
          "type": "tuple[]"
        }
      ],
      "stateMutability": "view",
      "type": "function"
    },
    {
      "inputs": [],
      "name": "getIssue",
      "outputs": [
        {
          "components": [
            {
              "internalType": "uint256",
              "name": "id",
              "type": "uint256"
            },
            {
              "internalType": "uint256",
              "name": "daoID",
              "type": "uint256"
            },
            {
              "internalType": "string",
              "name": "name",
              "type": "string"
            },
            {
              "internalType": "string",
              "name": "description",
              "type": "string"
            },
            {
              "internalType": "uint256",
              "name": "votes",
              "type": "uint256"
            },
            {
              "internalType": "uint256",
              "name": "status",
              "type": "uint256"
            },
            {
              "internalType": "address",
              "name": "contributor",
              "type": "address"
            },
            {
              "internalType": "uint256",
              "name": "weight",
              "type": "uint256"
            }
          ],
          "internalType": "struct DAO.issueStruct[]",
          "name": "",
          "type": "tuple[]"
        }
      ],
      "stateMutability": "view",
      "type": "function"
    },
    {
      "inputs": [
        {
          "internalType": "uint256",
          "name": "daoID",
          "type": "uint256"
        }
      ],
      "name": "getIssueByDAO",
      "outputs": [
        {
          "components": [
            {
              "internalType": "uint256",
              "name": "id",
              "type": "uint256"
            },
            {
              "internalType": "uint256",
              "name": "daoID",
              "type": "uint256"
            },
            {
              "internalType": "string",
              "name": "name",
              "type": "string"
            },
            {
              "internalType": "string",
              "name": "description",
              "type": "string"
            },
            {
              "internalType": "uint256",
              "name": "votes",
              "type": "uint256"
            },
            {
              "internalType": "uint256",
              "name": "status",
              "type": "uint256"
            },
            {
              "internalType": "address",
              "name": "contributor",
              "type": "address"
            },
            {
              "internalType": "uint256",
              "name": "weight",
              "type": "uint256"
            }
          ],
          "internalType": "struct DAO.issueStruct[]",
          "name": "",
          "type": "tuple[]"
        }
      ],
      "stateMutability": "view",
      "type": "function"
    },
    {
      "inputs": [
        {
          "internalType": "uint256",
          "name": "daoID",
          "type": "uint256"
        }
      ],
      "name": "getMaintainersByDAO",
      "outputs": [
        {
          "components": [
            {
              "internalType": "uint256",
              "name": "daoID",
              "type": "uint256"
            },
            {
              "internalType": "address",
              "name": "maintainer",
              "type": "address"
            }
          ],
          "internalType": "struct DAO.maintainerStruct[]",
          "name": "",
          "type": "tuple[]"
        }
      ],
      "stateMutability": "view",
      "type": "function"
    },
    {
      "inputs": [
        {
          "internalType": "uint256",
          "name": "daoID",
          "type": "uint256"
        }
      ],
      "name": "getsupply",
      "outputs": [
        {
          "internalType": "uint256",
          "name": "",
          "type": "uint256"
        }
      ],
      "stateMutability": "view",
      "type": "function"
    },
    {
      "inputs": [
        {
          "internalType": "uint256",
          "name": "daoID",
          "type": "uint256"
        },
        {
          "internalType": "uint256",
          "name": "issueID",
          "type": "uint256"
        },
        {
          "internalType": "address",
          "name": "maintainer",
          "type": "address"
        }
      ],
      "name": "hasVoted",
      "outputs": [
        {
          "internalType": "bool",
          "name": "",
          "type": "bool"
        }
      ],
      "stateMutability": "view",
      "type": "function"
    },
    {
      "inputs": [
        {
          "internalType": "uint256",
          "name": "daoID",
          "type": "uint256"
        },
        {
          "internalType": "address",
          "name": "maintainer",
          "type": "address"
        }
      ],
      "name": "isMaintainer",
      "outputs": [
        {
          "internalType": "bool",
          "name": "",
          "type": "bool"
        }
      ],
      "stateMutability": "view",
      "type": "function"
    },
    {
      "inputs": [
        {
          "internalType": "uint256",
          "name": "",
          "type": "uint256"
        }
      ],
      "name": "issues",
      "outputs": [
        {
          "internalType": "uint256",
          "name": "id",
          "type": "uint256"
        },
        {
          "internalType": "uint256",
          "name": "daoID",
          "type": "uint256"
        },
        {
          "internalType": "string",
          "name": "name",
          "type": "string"
        },
        {
          "internalType": "string",
          "name": "description",
          "type": "string"
        },
        {
          "internalType": "uint256",
          "name": "votes",
          "type": "uint256"
        },
        {
          "internalType": "uint256",
          "name": "status",
          "type": "uint256"
        },
        {
          "internalType": "address",
          "name": "contributor",
          "type": "address"
        },
        {
          "internalType": "uint256",
          "name": "weight",
          "type": "uint256"
        }
      ],
      "stateMutability": "view",
      "type": "function"
    },
    {
      "inputs": [
        {
          "internalType": "uint256",
          "name": "daoID",
          "type": "uint256"
        },
        {
          "internalType": "address",
          "name": "maintainer",
          "type": "address"
        }
      ],
      "name": "joinDAO",
      "outputs": [],
      "stateMutability": "nonpayable",
      "type": "function"
    },
    {
      "inputs": [
        {
          "internalType": "uint256",
          "name": "",
          "type": "uint256"
        }
      ],
      "name": "maintainers",
      "outputs": [
        {
          "internalType": "uint256",
          "name": "daoID",
          "type": "uint256"
        },
        {
          "internalType": "address",
          "name": "maintainer",
          "type": "address"
        }
      ],
      "stateMutability": "view",
      "type": "function"
    },
    {
      "inputs": [
        {
          "internalType": "address",
          "name": "to",
          "type": "address"
        },
        {
          "internalType": "uint256",
          "name": "amount",
          "type": "uint256"
        }
      ],
      "name": "mint",
      "outputs": [],
      "stateMutability": "nonpayable",
      "type": "function"
    },
    {
      "inputs": [],
      "name": "name",
      "outputs": [
        {
          "internalType": "string",
          "name": "",
          "type": "string"
        }
      ],
      "stateMutability": "view",
      "type": "function"
    },
    {
      "inputs": [
        {
          "internalType": "uint256",
          "name": "issueID",
          "type": "uint256"
        },
        {
          "internalType": "string",
          "name": "solution",
          "type": "string"
        }
      ],
      "name": "nominateContributor",
      "outputs": [],
      "stateMutability": "nonpayable",
      "type": "function"
    },
    {
      "inputs": [
        {
          "internalType": "uint256",
          "name": "",
          "type": "uint256"
        },
        {
          "internalType": "uint256",
          "name": "",
          "type": "uint256"
        }
      ],
      "name": "nominations",
      "outputs": [
        {
          "internalType": "uint256",
          "name": "issueID",
          "type": "uint256"
        },
        {
          "internalType": "address",
          "name": "nominee",
          "type": "address"
        },
        {
          "internalType": "string",
          "name": "solution",
          "type": "string"
        },
        {
          "internalType": "uint256",
          "name": "votes",
          "type": "uint256"
        }
      ],
      "stateMutability": "view",
      "type": "function"
    },
    {
      "inputs": [
        {
          "internalType": "address",
          "name": "owner",
          "type": "address"
        }
      ],
      "name": "nonces",
      "outputs": [
        {
          "internalType": "uint256",
          "name": "",
          "type": "uint256"
        }
      ],
      "stateMutability": "view",
      "type": "function"
    },
    {
      "inputs": [
        {
          "internalType": "address",
          "name": "owner",
          "type": "address"
        },
        {
          "internalType": "address",
          "name": "spender",
          "type": "address"
        },
        {
          "internalType": "uint256",
          "name": "value",
          "type": "uint256"
        },
        {
          "internalType": "uint256",
          "name": "deadline",
          "type": "uint256"
        },
        {
          "internalType": "uint8",
          "name": "v",
          "type": "uint8"
        },
        {
          "internalType": "bytes32",
          "name": "r",
          "type": "bytes32"
        },
        {
          "internalType": "bytes32",
          "name": "s",
          "type": "bytes32"
        }
      ],
      "name": "permit",
      "outputs": [],
      "stateMutability": "nonpayable",
      "type": "function"
    },
    {
      "inputs": [
        {
          "internalType": "uint256",
          "name": "issueID",
          "type": "uint256"
        }
      ],
      "name": "rewardContributor",
      "outputs": [],
      "stateMutability": "nonpayable",
      "type": "function"
    },
    {
      "inputs": [],
      "name": "symbol",
      "outputs": [
        {
          "internalType": "string",
          "name": "",
          "type": "string"
        }
      ],
      "stateMutability": "view",
      "type": "function"
    },
    {
      "inputs": [
        {
          "internalType": "address",
          "name": "",
          "type": "address"
        }
      ],
      "name": "tokensAssignedToDAO",
      "outputs": [
        {
          "internalType": "uint256",
          "name": "",
          "type": "uint256"
        }
      ],
      "stateMutability": "view",
      "type": "function"
    },
    {
      "inputs": [
        {
          "internalType": "address",
          "name": "",
          "type": "address"
        }
      ],
      "name": "tokensAssignedToMaintainer",
      "outputs": [
        {
          "internalType": "uint256",
          "name": "",
          "type": "uint256"
        }
      ],
      "stateMutability": "view",
      "type": "function"
    },
    {
      "inputs": [],
      "name": "totalSupply",
      "outputs": [
        {
          "internalType": "uint256",
          "name": "",
          "type": "uint256"
        }
      ],
      "stateMutability": "view",
      "type": "function"
    },
    {
      "inputs": [
        {
          "internalType": "address",
          "name": "to",
          "type": "address"
        },
        {
          "internalType": "uint256",
          "name": "value",
          "type": "uint256"
        }
      ],
      "name": "transfer",
      "outputs": [
        {
          "internalType": "bool",
          "name": "",
          "type": "bool"
        }
      ],
      "stateMutability": "nonpayable",
      "type": "function"
    },
    {
      "inputs": [
        {
          "internalType": "address",
          "name": "from",
          "type": "address"
        },
        {
          "internalType": "address",
          "name": "to",
          "type": "address"
        },
        {
          "internalType": "uint256",
          "name": "value",
          "type": "uint256"
        }
      ],
      "name": "transferFrom",
      "outputs": [
        {
          "internalType": "bool",
          "name": "",
          "type": "bool"
        }
      ],
      "stateMutability": "nonpayable",
      "type": "function"
    },
    {
      "inputs": [
        {
          "internalType": "uint256",
          "name": "issueID",
          "type": "uint256"
        },
        {
          "internalType": "uint256",
          "name": "newStatus",
          "type": "uint256"
        }
      ],
      "name": "updateIssueStatus",
      "outputs": [],
      "stateMutability": "nonpayable",
      "type": "function"
    },
    {
      "inputs": [
        {
          "internalType": "uint256",
          "name": "issueID",
          "type": "uint256"
        },
        {
          "internalType": "address",
          "name": "nominee",
          "type": "address"
        }
      ],
      "name": "voteOnNomination",
      "outputs": [],
      "stateMutability": "nonpayable",
      "type": "function"
    },
    {
      "inputs": [
        {
          "internalType": "uint256",
          "name": "",
          "type": "uint256"
        }
      ],
      "name": "votes",
      "outputs": [
        {
          "internalType": "uint256",
          "name": "daoID",
          "type": "uint256"
        },
        {
          "internalType": "uint256",
          "name": "issueID",
          "type": "uint256"
        },
        {
          "internalType": "address",
          "name": "maintainer",
          "type": "address"
        }
      ],
      "stateMutability": "view",
      "type": "function"
    }
  ],
  "bytecode": "0x6101606040523480156200001257600080fd5b506040518060400160405280600781526020017f4b726973686e6100000000000000000000000000000000000000000000000000815250806040518060400160405280600181526020017f31000000000000000000000000000000000000000000000000000000000000008152506040518060400160405280600781526020017f4b726973686e61000000000000000000000000000000000000000000000000008152506040518060400160405280600381526020017f4a534b00000000000000000000000000000000000000000000000000000000008152508160039081620000fd91906200056f565b5080600490816200010f91906200056f565b50505062000128600583620001c960201b90919060201c565b610120818152505062000146600682620001c960201b90919060201c565b6101408181525050818051906020012060e08181525050808051906020012061010081815250504660a08181525050620001856200022160201b60201c565b608081815250503073ffffffffffffffffffffffffffffffffffffffff1660c08173ffffffffffffffffffffffffffffffffffffffff168152505050505062000879565b6000602083511015620001ef57620001e7836200027e60201b60201c565b90506200021b565b826200020183620002eb60201b60201c565b60000190816200021291906200056f565b5060ff60001b90505b92915050565b60007f8b73c3c69bb8fe3d512ecc4cf759cc79239f7b179b0ffacaa9a75d522b39400f60e05161010051463060405160200162000263959493929190620006c7565b60405160208183030381529060405280519060200120905090565b600080829050601f81511115620002ce57826040517f305a27a9000000000000000000000000000000000000000000000000000000008152600401620002c59190620007b3565b60405180910390fd5b805181620002dc9062000809565b60001c1760001b915050919050565b6000819050919050565b600081519050919050565b7f4e487b7100000000000000000000000000000000000000000000000000000000600052604160045260246000fd5b7f4e487b7100000000000000000000000000000000000000000000000000000000600052602260045260246000fd5b600060028204905060018216806200037757607f821691505b6020821081036200038d576200038c6200032f565b5b50919050565b60008190508160005260206000209050919050565b60006020601f8301049050919050565b600082821b905092915050565b600060088302620003f77fffffffffffffffffffffffffffffffffffffffffffffffffffffffffffffffff82620003b8565b620004038683620003b8565b95508019841693508086168417925050509392505050565b6000819050919050565b6000819050919050565b6000620004506200044a62000444846200041b565b62000425565b6200041b565b9050919050565b6000819050919050565b6200046c836200042f565b620004846200047b8262000457565b848454620003c5565b825550505050565b600090565b6200049b6200048c565b620004a881848462000461565b505050565b5b81811015620004d057620004c460008262000491565b600181019050620004ae565b5050565b601f8211156200051f57620004e98162000393565b620004f484620003a8565b8101602085101562000504578190505b6200051c6200051385620003a8565b830182620004ad565b50505b505050565b600082821c905092915050565b6000620005446000198460080262000524565b1980831691505092915050565b60006200055f838362000531565b9150826002028217905092915050565b6200057a82620002f5565b67ffffffffffffffff81111562000596576200059562000300565b5b620005a282546200035e565b620005af828285620004d4565b600060209050601f831160018114620005e75760008415620005d2578287015190505b620005de858262000551565b8655506200064e565b601f198416620005f78662000393565b60005b828110156200062157848901518255600182019150602085019450602081019050620005fa565b868310156200064157848901516200063d601f89168262000531565b8355505b6001600288020188555050505b505050505050565b6000819050919050565b6200066b8162000656565b82525050565b6200067c816200041b565b82525050565b600073ffffffffffffffffffffffffffffffffffffffff82169050919050565b6000620006af8262000682565b9050919050565b620006c181620006a2565b82525050565b600060a082019050620006de600083018862000660565b620006ed602083018762000660565b620006fc604083018662000660565b6200070b606083018562000671565b6200071a6080830184620006b6565b9695505050505050565b600082825260208201905092915050565b60005b838110156200075557808201518184015260208101905062000738565b60008484015250505050565b6000601f19601f8301169050919050565b60006200077f82620002f5565b6200078b818562000724565b93506200079d81856020860162000735565b620007a88162000761565b840191505092915050565b60006020820190508181036000830152620007cf818462000772565b905092915050565b600081519050919050565b6000819050602082019050919050565b600062000800825162000656565b80915050919050565b60006200081682620007d7565b826200082284620007e2565b90506200082f81620007f2565b9250602082101562000872576200086d7fffffffffffffffffffffffffffffffffffffffffffffffffffffffffffffffff83602003600802620003b8565b831692505b5050919050565b60805160a05160c05160e051610100516101205161014051615cca620008d4600039600061352f015260006134f401526000613a4401526000613a23015260006132eb015260006133410152600061336a0152615cca6000f3fe608060405234801561001057600080fd5b506004361061025e5760003560e01c806379cc679011610146578063b26af8d4116100c3578063cac5dfd811610087578063cac5dfd81461080b578063ccbbd2601461083e578063cf35d12214610871578063d505accf1461088d578063dd62ed3e146108a9578063f181e047146108d95761025e565b8063b26af8d414610717578063b4320d0614610747578063b6d8023114610777578063c06a2c7d146107ab578063c4063184146107db5761025e565b806395d89b411161010a57806395d89b4114610673578063985da726146106915780639c414da0146106af578063a9059cbb146106cb578063b11b34e0146106fb5761025e565b806379cc6790146105b35780637e6f0a12146105cf5780637ecebe00146105eb57806384b0196e1461061b5780638ebb4c151461063f5761025e565b806328ddef50116101df57806340c10f19116101a357806340c10f19146104b857806342966c68146104d45780634ac3da57146104f05780635df813301461052057806370a082311461055257806372d66e30146105825761025e565b806328ddef50146104125780632b9c63c414610430578063313ce567146104605780633644e5151461047e5780633a976a211461049c5761025e565b80630d39a1d3116102265780630d39a1d31461034857806315c277b01461037857806318160ddd146103a85780631c23b653146103c657806323b872dd146103e25761025e565b8063011800871461026357806304e15de51461029357806306fdde03146102ca578063095ea7b3146102e85780630d35bbf214610318575b600080fd5b61027d60048036038101906102789190613fde565b610909565b60405161028a9190614024565b60405180910390f35b6102ad60048036038101906102a8919061406b565b610921565b6040516102c1989796959493929190614137565b60405180910390f35b6102d2610a99565b6040516102df91906141c3565b60405180910390f35b61030260048036038101906102fd91906141e5565b610b2b565b60405161030f9190614240565b60405180910390f35b610332600480360381019061032d919061406b565b610b4e565b60405161033f919061443c565b60405180910390f35b610362600480360381019061035d919061445e565b610dec565b60405161036f9190614240565b60405180910390f35b610392600480360381019061038d919061406b565b610ed4565b60405161039f9190614024565b60405180910390f35b6103b0610ef4565b6040516103bd9190614024565b60405180910390f35b6103e060048036038101906103db91906144b1565b610efe565b005b6103fc60048036038101906103f791906144f1565b6113c8565b6040516104099190614240565b60405180910390f35b61041a6113f7565b604051610427919061443c565b60405180910390f35b61044a60048036038101906104459190614679565b61166f565b6040516104579190614024565b60405180910390f35b6104686117f1565b6040516104759190614734565b60405180910390f35b6104866117fa565b6040516104939190614768565b60405180910390f35b6104b660048036038101906104b1919061406b565b611809565b005b6104d260048036038101906104cd91906141e5565b611a0f565b005b6104ee60048036038101906104e9919061406b565b611a1d565b005b61050a60048036038101906105059190614783565b611a31565b6040516105179190614024565b60405180910390f35b61053a6004803603810190610535919061406b565b611c2f565b604051610549939291906147df565b60405180910390f35b61056c60048036038101906105679190613fde565b611c79565b6040516105799190614024565b60405180910390f35b61059c6004803603810190610597919061406b565b611cc1565b6040516105aa929190614816565b60405180910390f35b6105cd60048036038101906105c891906141e5565b611d05565b005b6105e960048036038101906105e491906144b1565b611d25565b005b61060560048036038101906106009190613fde565b611f6d565b6040516106129190614024565b60405180910390f35b610623611f7f565b6040516106369796959493929190614929565b60405180910390f35b6106596004803603810190610654919061406b565b612029565b60405161066a9594939291906149ad565b60405180910390f35b61067b61218f565b60405161068891906141c3565b60405180910390f35b610699612221565b6040516106a69190614b42565b60405180910390f35b6106c960048036038101906106c49190614b64565b6123fd565b005b6106e560048036038101906106e091906141e5565b61246d565b6040516106f29190614240565b60405180910390f35b6107156004803603810190610710919061406b565b612490565b005b610731600480360381019061072c919061406b565b61274c565b60405161073e9190614c82565b60405180910390f35b610761600480360381019061075c9190613fde565b6128ed565b60405161076e9190614b42565b60405180910390f35b610791600480360381019061078c919061406b565b612b6d565b6040516107a2959493929190614ca4565b60405180910390f35b6107c560048036038101906107c09190613fde565b612ba3565b6040516107d29190614024565b60405180910390f35b6107f560048036038101906107f091906144b1565b612bbb565b6040516108029190614240565b60405180910390f35b61082560048036038101906108209190614b64565b612c80565b6040516108359493929190614cf7565b60405180910390f35b6108586004803603810190610853919061406b565b612d75565b6040516108689493929190614d43565b60405180910390f35b61088b60048036038101906108869190614d8f565b612e5a565b005b6108a760048036038101906108a29190614e43565b612f45565b005b6108c360048036038101906108be9190614ee5565b61308d565b6040516108d09190614024565b60405180910390f35b6108f360048036038101906108ee91906141e5565b613114565b6040516109009190614024565b60405180910390f35b60136020528060005260406000206000915090505481565b600e60205280600052604060002060009150905080600001549080600101549080600201805461095090614f54565b80601f016020809104026020016040519081016040528092919081815260200182805461097c90614f54565b80156109c95780601f1061099e576101008083540402835291602001916109c9565b820191906000526020600020905b8154815290600101906020018083116109ac57829003601f168201915b5050505050908060030180546109de90614f54565b80601f0160208091040260200160405190810160405280929190818152602001828054610a0a90614f54565b8015610a575780601f10610a2c57610100808354040283529160200191610a57565b820191906000526020600020905b815481529060010190602001808311610a3a57829003601f168201915b5050505050908060040154908060050154908060060160009054906101000a900473ffffffffffffffffffffffffffffffffffffffff16908060070154905088565b606060038054610aa890614f54565b80601f0160208091040260200160405190810160405280929190818152602001828054610ad490614f54565b8015610b215780601f10610af657610100808354040283529160200191610b21565b820191906000526020600020905b815481529060010190602001808311610b0457829003601f168201915b5050505050905090565b600080610b36613145565b9050610b4381858561314d565b600191505092915050565b6060600060095467ffffffffffffffff811115610b6e57610b6d61454e565b5b604051908082528060200260200182016040528015610ba757816020015b610b94613ea1565b815260200190600190039081610b8c5790505b509050600080600190505b6008548111610de15784600e60008381526020019081526020016000206001015403610dce57600e6000828152602001908152602001600020604051806101000160405290816000820154815260200160018201548152602001600282018054610c1b90614f54565b80601f0160208091040260200160405190810160405280929190818152602001828054610c4790614f54565b8015610c945780601f10610c6957610100808354040283529160200191610c94565b820191906000526020600020905b815481529060010190602001808311610c7757829003601f168201915b50505050508152602001600382018054610cad90614f54565b80601f0160208091040260200160405190810160405280929190818152602001828054610cd990614f54565b8015610d265780601f10610cfb57610100808354040283529160200191610d26565b820191906000526020600020905b815481529060010190602001808311610d0957829003601f168201915b5050505050815260200160048201548152602001600582015481526020016006820160009054906101000a900473ffffffffffffffffffffffffffffffffffffffff1673ffffffffffffffffffffffffffffffffffffffff1673ffffffffffffffffffffffffffffffffffffffff168152602001600782015481525050838380610daf90614fb4565b945081518110610dc257610dc1614ffc565b5b60200260200101819052505b8080610dd990614fb4565b915050610bb2565b508192505050919050565b600080600090505b600a54811015610ec757846010600083815260200190815260200160002060000154148015610e385750836010600083815260200190815260200160002060010154145b8015610ea557508273ffffffffffffffffffffffffffffffffffffffff166010600083815260200190815260200160002060020160009054906101000a900473ffffffffffffffffffffffffffffffffffffffff1673ffffffffffffffffffffffffffffffffffffffff16145b15610eb4576001915050610ecd565b8080610ebf90614fb4565b915050610df4565b50600090505b9392505050565b600060156000838152602001908152602001600020600401549050919050565b6000600254905090565b6000600e6000848152602001908152602001600020600101549050610f238133612bbb565b610f62576040517f08c379a0000000000000000000000000000000000000000000000000000000008152600401610f599061509d565b60405180910390fd5b610f6d818433610dec565b15610fad576040517f08c379a0000000000000000000000000000000000000000000000000000000008152600401610fa49061512f565b60405180910390fd5b6000610fb833611c79565b905060008111610ffd576040517f08c379a0000000000000000000000000000000000000000000000000000000008152600401610ff4906151c1565b60405180910390fd5b6000805b60126000878152602001908152602001600020805490508110156112c4578473ffffffffffffffffffffffffffffffffffffffff1660126000888152602001908152602001600020828154811061105b5761105a614ffc565b5b906000526020600020906004020160010160009054906101000a900473ffffffffffffffffffffffffffffffffffffffff1673ffffffffffffffffffffffffffffffffffffffff16036112b15760006012600088815260200190815260200160002082815481106110cf576110ce614ffc565b5b9060005260206000209060040201604051806080016040529081600082015481526020016001820160009054906101000a900473ffffffffffffffffffffffffffffffffffffffff1673ffffffffffffffffffffffffffffffffffffffff1673ffffffffffffffffffffffffffffffffffffffff16815260200160028201805461115890614f54565b80601f016020809104026020016040519081016040528092919081815260200182805461118490614f54565b80156111d15780601f106111a6576101008083540402835291602001916111d1565b820191906000526020600020905b8154815290600101906020018083116111b457829003601f168201915b5050505050815260200160038201548152505090508381606001516111f691906151e1565b8160600181815250508060126000898152602001908152602001600020838154811061122557611224614ffc565b5b90600052602060002090600402016000820151816000015560208201518160010160006101000a81548173ffffffffffffffffffffffffffffffffffffffff021916908373ffffffffffffffffffffffffffffffffffffffff160217905550604082015181600201908161129991906153c1565b506060820151816003015590505060019250506112c4565b80806112bc90614fb4565b915050611001565b5080611305576040517f08c379a00000000000000000000000000000000000000000000000000000000081526004016112fc906154df565b60405180910390fd5b600a600081548092919061131890614fb4565b919050555060405180606001604052808481526020018681526020013373ffffffffffffffffffffffffffffffffffffffff1681525060106000600a548152602001908152602001600020600082015181600001556020820151816001015560408201518160020160006101000a81548173ffffffffffffffffffffffffffffffffffffffff021916908373ffffffffffffffffffffffffffffffffffffffff1602179055509050505050505050565b6000806113d3613145565b90506113e085828561315f565b6113eb8585856131f3565b60019150509392505050565b6060600060095467ffffffffffffffff8111156114175761141661454e565b5b60405190808252806020026020018201604052801561145057816020015b61143d613ea1565b8152602001906001900390816114355790505b50905060005b600954811161166757600e600060018361147091906151e1565b81526020019081526020016000206040518061010001604052908160008201548152602001600182015481526020016002820180546114ae90614f54565b80601f01602080910402602001604051908101604052809291908181526020018280546114da90614f54565b80156115275780601f106114fc57610100808354040283529160200191611527565b820191906000526020600020905b81548152906001019060200180831161150a57829003601f168201915b5050505050815260200160038201805461154090614f54565b80601f016020809104026020016040519081016040528092919081815260200182805461156c90614f54565b80156115b95780601f1061158e576101008083540402835291602001916115b9565b820191906000526020600020905b81548152906001019060200180831161159c57829003601f168201915b5050505050815260200160048201548152602001600582015481526020016006820160009054906101000a900473ffffffffffffffffffffffffffffffffffffffff1673ffffffffffffffffffffffffffffffffffffffff1673ffffffffffffffffffffffffffffffffffffffff16815260200160078201548152505082828151811061164957611648614ffc565b5b6020026020010181905250808061165f90614fb4565b915050611456565b508091505090565b600061167b8533612bbb565b6116ba576040517f08c379a00000000000000000000000000000000000000000000000000000000081526004016116b190615571565b60405180910390fd5b600960008154809291906116cd90614fb4565b919050555060405180610100016040528060095481526020018681526020018581526020018481526020016000815260200160008152602001600073ffffffffffffffffffffffffffffffffffffffff16815260200183815250600e600060095481526020019081526020016000206000820151816000015560208201518160010155604082015181600201908161176591906153c1565b50606082015181600301908161177b91906153c1565b506080820151816004015560a0820151816005015560c08201518160060160006101000a81548173ffffffffffffffffffffffffffffffffffffffff021916908373ffffffffffffffffffffffffffffffffffffffff16021790555060e082015181600701559050506009549050949350505050565b60006012905090565b60006118046132e7565b905090565b6002600e60008381526020019081526020016000206005015414611862576040517f08c379a000000000000000000000000000000000000000000000000000000000815260040161185990615603565b60405180910390fd5b6000600e6000838152602001908152602001600020600101549050600060156000838152602001908152602001600020600301546001600e6000868152602001908152602001600020600701546118b991906151e1565b6118c39190615623565b90506000600e600085815260200190815260200160002060060160009054906101000a900473ffffffffffffffffffffffffffffffffffffffff169050600073ffffffffffffffffffffffffffffffffffffffff168173ffffffffffffffffffffffffffffffffffffffff160361196f576040517f08c379a0000000000000000000000000000000000000000000000000000000008152600401611966906156d7565b60405180910390fd5b81601560008581526020019081526020016000206004015410156119c8576040517f08c379a00000000000000000000000000000000000000000000000000000000081526004016119bf90615743565b60405180910390fd5b611a09600d600085815260200190815260200160002060010160009054906101000a900473ffffffffffffffffffffffffffffffffffffffff1682846131f3565b50505050565b611a19828261339e565b5050565b611a2e611a28613145565b82613420565b50565b6000808211611a75576040517f08c379a0000000000000000000000000000000000000000000000000000000008152600401611a6c906157d5565b60405180910390fd5b60086000815480929190611a8890614fb4565b9190505550604051806080016040528060085481526020013373ffffffffffffffffffffffffffffffffffffffff16815260200184815260200160001515815250600d600060085481526020019081526020016000206000820151816000015560208201518160010160006101000a81548173ffffffffffffffffffffffffffffffffffffffff021916908373ffffffffffffffffffffffffffffffffffffffff1602179055506040820151816002019081611b4491906153c1565b5060608201518160030160006101000a81548160ff0219169083151502179055509050506000600283611b779190615824565b90506000600a84611b889190615824565b90506000601985611b999190615824565b90506040518060a001604052808681526020018481526020018381526020018281526020018487611bca9190615855565b8152506015600060085481526020019081526020016000206000820151816000015560208201518160010155604082015181600201556060820151816003015560808201518160040155905050611c21338461339e565b600854935050505092915050565b60106020528060005260406000206000915090508060000154908060010154908060020160009054906101000a900473ffffffffffffffffffffffffffffffffffffffff16905083565b60008060008373ffffffffffffffffffffffffffffffffffffffff1673ffffffffffffffffffffffffffffffffffffffff168152602001908152602001600020549050919050565b600f6020528060005260406000206000915090508060000154908060010160009054906101000a900473ffffffffffffffffffffffffffffffffffffffff16905082565b611d1782611d11613145565b8361315f565b611d218282613420565b5050565b3373ffffffffffffffffffffffffffffffffffffffff16600d600084815260200190815260200160002060010160009054906101000a900473ffffffffffffffffffffffffffffffffffffffff1673ffffffffffffffffffffffffffffffffffffffff1614611dc9576040517f08c379a0000000000000000000000000000000000000000000000000000000008152600401611dc0906158fb565b60405180910390fd5b6000601560008481526020019081526020016000209050806002015481600401541015611e2b576040517f08c379a0000000000000000000000000000000000000000000000000000000008152600401611e2290615967565b60405180910390fd5b600b6000815480929190611e3e90614fb4565b919050555060405180604001604052808481526020018373ffffffffffffffffffffffffffffffffffffffff16815250600f6000600b5481526020019081526020016000206000820151816000015560208201518160010160006101000a81548173ffffffffffffffffffffffffffffffffffffffff021916908373ffffffffffffffffffffffffffffffffffffffff160217905550905050611ee6338383600201546131f3565b601660008373ffffffffffffffffffffffffffffffffffffffff1673ffffffffffffffffffffffffffffffffffffffff16815260200190815260200160002083908060018154018082558091505060019003906000526020600020016000909190919091505580600201548160040154611f609190615855565b8160040181905550505050565b6000611f78826134a2565b9050919050565b600060608060008060006060611f936134eb565b611f9b613526565b46306000801b600067ffffffffffffffff811115611fbc57611fbb61454e565b5b604051908082528060200260200182016040528015611fea5781602001602082028036833780820191505090505b507f0f00000000000000000000000000000000000000000000000000000000000000959493929190965096509650965096509650965090919293949596565b60116020528060005260406000206000915090508060000154908060010154908060020160009054906101000a900473ffffffffffffffffffffffffffffffffffffffff169080600301805461207e90614f54565b80601f01602080910402602001604051908101604052809291908181526020018280546120aa90614f54565b80156120f75780601f106120cc576101008083540402835291602001916120f7565b820191906000526020600020905b8154815290600101906020018083116120da57829003601f168201915b50505050509080600401805461210c90614f54565b80601f016020809104026020016040519081016040528092919081815260200182805461213890614f54565b80156121855780601f1061215a57610100808354040283529160200191612185565b820191906000526020600020905b81548152906001019060200180831161216857829003601f168201915b5050505050905085565b60606004805461219e90614f54565b80601f01602080910402602001604051908101604052809291908181526020018280546121ca90614f54565b80156122175780601f106121ec57610100808354040283529160200191612217565b820191906000526020600020905b8154815290600101906020018083116121fa57829003601f168201915b5050505050905090565b6060600060085467ffffffffffffffff8111156122415761224061454e565b5b60405190808252806020026020018201604052801561227a57816020015b612267613efc565b81526020019060019003908161225f5790505b5090506000600190505b60085481116123f557600d6000828152602001908152602001600020604051806080016040529081600082015481526020016001820160009054906101000a900473ffffffffffffffffffffffffffffffffffffffff1673ffffffffffffffffffffffffffffffffffffffff1673ffffffffffffffffffffffffffffffffffffffff16815260200160028201805461231b90614f54565b80601f016020809104026020016040519081016040528092919081815260200182805461234790614f54565b80156123945780601f1061236957610100808354040283529160200191612394565b820191906000526020600020905b81548152906001019060200180831161237757829003601f168201915b505050505081526020016003820160009054906101000a900460ff161515151581525050826001836123c69190615855565b815181106123d7576123d6614ffc565b5b602002602001018190525080806123ed90614fb4565b915050612284565b508091505090565b6000811015801561240f575060038111155b61244e576040517f08c379a0000000000000000000000000000000000000000000000000000000008152600401612445906159d3565b60405180910390fd5b80600e6000848152602001908152602001600020600501819055505050565b600080612478613145565b90506124858185856131f3565b600191505092915050565b6000600e600083815260200190815260200160002060050154146124e9576040517f08c379a00000000000000000000000000000000000000000000000000000000081526004016124e090615a3f565b60405180910390fd5b6000806012600084815260200190815260200160002060008154811061251257612511614ffc565b5b906000526020600020906004020160010160009054906101000a900473ffffffffffffffffffffffffffffffffffffffff16905060005b601260008581526020019081526020016000208054905081101561264b578260126000868152602001908152602001600020828154811061258d5761258c614ffc565b5b9060005260206000209060040201600301541115612638576012600085815260200190815260200160002081815481106125ca576125c9614ffc565b5b906000526020600020906004020160010160009054906101000a900473ffffffffffffffffffffffffffffffffffffffff16915060126000858152602001908152602001600020818154811061262357612622614ffc565b5b90600052602060002090600402016003015492505b808061264390614fb4565b915050612549565b50600073ffffffffffffffffffffffffffffffffffffffff168173ffffffffffffffffffffffffffffffffffffffff16036126bb576040517f08c379a00000000000000000000000000000000000000000000000000000000081526004016126b290615ad1565b60405180910390fd5b6001600e60008581526020019081526020016000206005018190555080600e600085815260200190815260200160002060060160006101000a81548173ffffffffffffffffffffffffffffffffffffffff021916908373ffffffffffffffffffffffffffffffffffffffff16021790555081600e600085815260200190815260200160002060040181905550505050565b6060600080600190505b600b54811161279e5783600f6000838152602001908152602001600020600001540361278b57818061278790614fb4565b9250505b808061279690614fb4565b915050612756565b5060008167ffffffffffffffff8111156127bb576127ba61454e565b5b6040519080825280602002602001820160405280156127f457816020015b6127e1613f3c565b8152602001906001900390816127d95790505b509050600080600190505b8381116128e15785600f600083815260200190815260200160002060000154036128ce57600f6000828152602001908152602001600020604051806040016040529081600082015481526020016001820160009054906101000a900473ffffffffffffffffffffffffffffffffffffffff1673ffffffffffffffffffffffffffffffffffffffff1673ffffffffffffffffffffffffffffffffffffffff16815250508383815181106128b4576128b3614ffc565b5b602002602001018190525081806128ca90614fb4565b9250505b80806128d990614fb4565b9150506127ff565b50819350505050919050565b60606000601660008473ffffffffffffffffffffffffffffffffffffffff1673ffffffffffffffffffffffffffffffffffffffff16815260200190815260200160002080548060200260200160405190810160405280929190818152602001828054801561297a57602002820191906000526020600020905b815481526020019060010190808311612966575b505050505090506000815167ffffffffffffffff81111561299e5761299d61454e565b5b6040519080825280602002602001820160405280156129d757816020015b6129c4613efc565b8152602001906001900390816129bc5790505b50905060005b8251811015612b625760008382815181106129fb576129fa614ffc565b5b60200260200101519050600d6000828152602001908152602001600020604051806080016040529081600082015481526020016001820160009054906101000a900473ffffffffffffffffffffffffffffffffffffffff1673ffffffffffffffffffffffffffffffffffffffff1673ffffffffffffffffffffffffffffffffffffffff168152602001600282018054612a9390614f54565b80601f0160208091040260200160405190810160405280929190818152602001828054612abf90614f54565b8015612b0c5780601f10612ae157610100808354040283529160200191612b0c565b820191906000526020600020905b815481529060010190602001808311612aef57829003601f168201915b505050505081526020016003820160009054906101000a900460ff161515151581525050838381518110612b4357612b42614ffc565b5b6020026020010181905250508080612b5a90614fb4565b9150506129dd565b508092505050919050565b60156020528060005260406000206000915090508060000154908060010154908060020154908060030154908060040154905085565b60146020528060005260406000206000915090505481565b600080600190505b600b548111612c745783600f600083815260200190815260200160002060000154148015612c5257508273ffffffffffffffffffffffffffffffffffffffff16600f600083815260200190815260200160002060010160009054906101000a900473ffffffffffffffffffffffffffffffffffffffff1673ffffffffffffffffffffffffffffffffffffffff16145b15612c61576001915050612c7a565b8080612c6c90614fb4565b915050612bc3565b50600090505b92915050565b60126020528160005260406000208181548110612c9c57600080fd5b9060005260206000209060040201600091509150508060000154908060010160009054906101000a900473ffffffffffffffffffffffffffffffffffffffff1690806002018054612cec90614f54565b80601f0160208091040260200160405190810160405280929190818152602001828054612d1890614f54565b8015612d655780601f10612d3a57610100808354040283529160200191612d65565b820191906000526020600020905b815481529060010190602001808311612d4857829003601f168201915b5050505050908060030154905084565b600d6020528060005260406000206000915090508060000154908060010160009054906101000a900473ffffffffffffffffffffffffffffffffffffffff1690806002018054612dc490614f54565b80601f0160208091040260200160405190810160405280929190818152602001828054612df090614f54565b8015612e3d5780601f10612e1257610100808354040283529160200191612e3d565b820191906000526020600020905b815481529060010190602001808311612e2057829003601f168201915b5050505050908060030160009054906101000a900460ff16905084565b6012600083815260200190815260200160002060405180608001604052808481526020013373ffffffffffffffffffffffffffffffffffffffff168152602001838152602001600081525090806001815401808255809150506001900390600052602060002090600402016000909190919091506000820151816000015560208201518160010160006101000a81548173ffffffffffffffffffffffffffffffffffffffff021916908373ffffffffffffffffffffffffffffffffffffffff1602179055506040820151816002019081612f3491906153c1565b506060820151816003015550505050565b83421115612f8a57836040517f62791302000000000000000000000000000000000000000000000000000000008152600401612f819190614024565b60405180910390fd5b60007f6e71edae12b1b97f4d1f60370fef10105fa2faae0126114a169c64845d6126c9888888612fb98c613561565b89604051602001612fcf96959493929190615af1565b6040516020818303038152906040528051906020012090506000612ff2826135b8565b90506000613002828787876135d2565b90508973ffffffffffffffffffffffffffffffffffffffff168173ffffffffffffffffffffffffffffffffffffffff161461307657808a6040517f4b800e4600000000000000000000000000000000000000000000000000000000815260040161306d929190615b52565b60405180910390fd5b6130818a8a8a61314d565b50505050505050505050565b6000600160008473ffffffffffffffffffffffffffffffffffffffff1673ffffffffffffffffffffffffffffffffffffffff16815260200190815260200160002060008373ffffffffffffffffffffffffffffffffffffffff1673ffffffffffffffffffffffffffffffffffffffff16815260200190815260200160002054905092915050565b6016602052816000526040600020818154811061313057600080fd5b90600052602060002001600091509150505481565b600033905090565b61315a8383836001613602565b505050565b600061316b848461308d565b90507fffffffffffffffffffffffffffffffffffffffffffffffffffffffffffffffff81146131ed57818110156131dd578281836040517ffb8f41b20000000000000000000000000000000000000000000000000000000081526004016131d493929190615b7b565b60405180910390fd5b6131ec84848484036000613602565b5b50505050565b600073ffffffffffffffffffffffffffffffffffffffff168373ffffffffffffffffffffffffffffffffffffffff16036132655760006040517f96c6fd1e00000000000000000000000000000000000000000000000000000000815260040161325c9190615bb2565b60405180910390fd5b600073ffffffffffffffffffffffffffffffffffffffff168273ffffffffffffffffffffffffffffffffffffffff16036132d75760006040517fec442f050000000000000000000000000000000000000000000000000000000081526004016132ce9190615bb2565b60405180910390fd5b6132e28383836137d9565b505050565b60007f000000000000000000000000000000000000000000000000000000000000000073ffffffffffffffffffffffffffffffffffffffff163073ffffffffffffffffffffffffffffffffffffffff1614801561336357507f000000000000000000000000000000000000000000000000000000000000000046145b15613390577f0000000000000000000000000000000000000000000000000000000000000000905061339b565b6133986139fe565b90505b90565b600073ffffffffffffffffffffffffffffffffffffffff168273ffffffffffffffffffffffffffffffffffffffff16036134105760006040517fec442f050000000000000000000000000000000000000000000000000000000081526004016134079190615bb2565b60405180910390fd5b61341c600083836137d9565b5050565b600073ffffffffffffffffffffffffffffffffffffffff168273ffffffffffffffffffffffffffffffffffffffff16036134925760006040517f96c6fd1e0000000000000000000000000000000000000000000000000000000081526004016134899190615bb2565b60405180910390fd5b61349e826000836137d9565b5050565b6000600760008373ffffffffffffffffffffffffffffffffffffffff1673ffffffffffffffffffffffffffffffffffffffff168152602001908152602001600020549050919050565b606061352160057f0000000000000000000000000000000000000000000000000000000000000000613a9490919063ffffffff16565b905090565b606061355c60067f0000000000000000000000000000000000000000000000000000000000000000613a9490919063ffffffff16565b905090565b6000600760008373ffffffffffffffffffffffffffffffffffffffff1673ffffffffffffffffffffffffffffffffffffffff1681526020019081526020016000206000815480929190600101919050559050919050565b60006135cb6135c56132e7565b83613b44565b9050919050565b6000806000806135e488888888613b85565b9250925092506135f48282613c79565b829350505050949350505050565b600073ffffffffffffffffffffffffffffffffffffffff168473ffffffffffffffffffffffffffffffffffffffff16036136745760006040517fe602df0500000000000000000000000000000000000000000000000000000000815260040161366b9190615bb2565b60405180910390fd5b600073ffffffffffffffffffffffffffffffffffffffff168373ffffffffffffffffffffffffffffffffffffffff16036136e65760006040517f94280d620000000000000000000000000000000000000000000000000000000081526004016136dd9190615bb2565b60405180910390fd5b81600160008673ffffffffffffffffffffffffffffffffffffffff1673ffffffffffffffffffffffffffffffffffffffff16815260200190815260200160002060008573ffffffffffffffffffffffffffffffffffffffff1673ffffffffffffffffffffffffffffffffffffffff1681526020019081526020016000208190555080156137d3578273ffffffffffffffffffffffffffffffffffffffff168473ffffffffffffffffffffffffffffffffffffffff167f8c5be1e5ebec7d5bd14f71427d1e84f3dd0314c0f7b2291e5b200ac8c7c3b925846040516137ca9190614024565b60405180910390a35b50505050565b600073ffffffffffffffffffffffffffffffffffffffff168373ffffffffffffffffffffffffffffffffffffffff160361382b57806002600082825461381f91906151e1565b925050819055506138fe565b60008060008573ffffffffffffffffffffffffffffffffffffffff1673ffffffffffffffffffffffffffffffffffffffff168152602001908152602001600020549050818110156138b7578381836040517fe450d38c0000000000000000000000000000000000000000000000000000000081526004016138ae93929190615b7b565b60405180910390fd5b8181036000808673ffffffffffffffffffffffffffffffffffffffff1673ffffffffffffffffffffffffffffffffffffffff16815260200190815260200160002081905550505b600073ffffffffffffffffffffffffffffffffffffffff168273ffffffffffffffffffffffffffffffffffffffff16036139475780600260008282540392505081905550613994565b806000808473ffffffffffffffffffffffffffffffffffffffff1673ffffffffffffffffffffffffffffffffffffffff168152602001908152602001600020600082825401925050819055505b8173ffffffffffffffffffffffffffffffffffffffff168373ffffffffffffffffffffffffffffffffffffffff167fddf252ad1be2c89b69c2b068fc378daa952ba7f163c4a11628f55a4df523b3ef836040516139f19190614024565b60405180910390a3505050565b60007f8b73c3c69bb8fe3d512ecc4cf759cc79239f7b179b0ffacaa9a75d522b39400f7f00000000000000000000000000000000000000000000000000000000000000007f00000000000000000000000000000000000000000000000000000000000000004630604051602001613a79959493929190615bcd565b60405160208183030381529060405280519060200120905090565b606060ff60001b8314613ab157613aaa83613ddd565b9050613b3e565b818054613abd90614f54565b80601f0160208091040260200160405190810160405280929190818152602001828054613ae990614f54565b8015613b365780601f10613b0b57610100808354040283529160200191613b36565b820191906000526020600020905b815481529060010190602001808311613b1957829003601f168201915b505050505090505b92915050565b60006040517f190100000000000000000000000000000000000000000000000000000000000081528360028201528260228201526042812091505092915050565b60008060007f7fffffffffffffffffffffffffffffff5d576e7357a4501ddfe92f46681b20a08460001c1115613bc5576000600385925092509250613c6f565b600060018888888860405160008152602001604052604051613bea9493929190615c20565b6020604051602081039080840390855afa158015613c0c573d6000803e3d6000fd5b505050602060405103519050600073ffffffffffffffffffffffffffffffffffffffff168173ffffffffffffffffffffffffffffffffffffffff1603613c6057600060016000801b93509350935050613c6f565b8060008060001b935093509350505b9450945094915050565b60006003811115613c8d57613c8c615c65565b5b826003811115613ca057613c9f615c65565b5b0315613dd95760016003811115613cba57613cb9615c65565b5b826003811115613ccd57613ccc615c65565b5b03613d04576040517ff645eedf00000000000000000000000000000000000000000000000000000000815260040160405180910390fd5b60026003811115613d1857613d17615c65565b5b826003811115613d2b57613d2a615c65565b5b03613d70578060001c6040517ffce698f7000000000000000000000000000000000000000000000000000000008152600401613d679190614024565b60405180910390fd5b600380811115613d8357613d82615c65565b5b826003811115613d9657613d95615c65565b5b03613dd857806040517fd78bce0c000000000000000000000000000000000000000000000000000000008152600401613dcf9190614768565b60405180910390fd5b5b5050565b60606000613dea83613e51565b90506000602067ffffffffffffffff811115613e0957613e0861454e565b5b6040519080825280601f01601f191660200182016040528015613e3b5781602001600182028036833780820191505090505b5090508181528360208201528092505050919050565b60008060ff8360001c169050601f811115613e98576040517fb3512b0c00000000000000000000000000000000000000000000000000000000815260040160405180910390fd5b80915050919050565b604051806101000160405280600081526020016000815260200160608152602001606081526020016000815260200160008152602001600073ffffffffffffffffffffffffffffffffffffffff168152602001600081525090565b604051806080016040528060008152602001600073ffffffffffffffffffffffffffffffffffffffff168152602001606081526020016000151581525090565b604051806040016040528060008152602001600073ffffffffffffffffffffffffffffffffffffffff1681525090565b6000604051905090565b600080fd5b600080fd5b600073ffffffffffffffffffffffffffffffffffffffff82169050919050565b6000613fab82613f80565b9050919050565b613fbb81613fa0565b8114613fc657600080fd5b50565b600081359050613fd881613fb2565b92915050565b600060208284031215613ff457613ff3613f76565b5b600061400284828501613fc9565b91505092915050565b6000819050919050565b61401e8161400b565b82525050565b60006020820190506140396000830184614015565b92915050565b6140488161400b565b811461405357600080fd5b50565b6000813590506140658161403f565b92915050565b60006020828403121561408157614080613f76565b5b600061408f84828501614056565b91505092915050565b600081519050919050565b600082825260208201905092915050565b60005b838110156140d25780820151818401526020810190506140b7565b60008484015250505050565b6000601f19601f8301169050919050565b60006140fa82614098565b61410481856140a3565b93506141148185602086016140b4565b61411d816140de565b840191505092915050565b61413181613fa0565b82525050565b60006101008201905061414d600083018b614015565b61415a602083018a614015565b818103604083015261416c81896140ef565b9050818103606083015261418081886140ef565b905061418f6080830187614015565b61419c60a0830186614015565b6141a960c0830185614128565b6141b660e0830184614015565b9998505050505050505050565b600060208201905081810360008301526141dd81846140ef565b905092915050565b600080604083850312156141fc576141fb613f76565b5b600061420a85828601613fc9565b925050602061421b85828601614056565b9150509250929050565b60008115159050919050565b61423a81614225565b82525050565b60006020820190506142556000830184614231565b92915050565b600081519050919050565b600082825260208201905092915050565b6000819050602082019050919050565b6142908161400b565b82525050565b600082825260208201905092915050565b60006142b282614098565b6142bc8185614296565b93506142cc8185602086016140b4565b6142d5816140de565b840191505092915050565b6142e981613fa0565b82525050565b6000610100830160008301516143086000860182614287565b50602083015161431b6020860182614287565b506040830151848203604086015261433382826142a7565b9150506060830151848203606086015261434d82826142a7565b91505060808301516143626080860182614287565b5060a083015161437560a0860182614287565b5060c083015161438860c08601826142e0565b5060e083015161439b60e0860182614287565b508091505092915050565b60006143b283836142ef565b905092915050565b6000602082019050919050565b60006143d28261425b565b6143dc8185614266565b9350836020820285016143ee85614277565b8060005b8581101561442a578484038952815161440b85826143a6565b9450614416836143ba565b925060208a019950506001810190506143f2565b50829750879550505050505092915050565b6000602082019050818103600083015261445681846143c7565b905092915050565b60008060006060848603121561447757614476613f76565b5b600061448586828701614056565b935050602061449686828701614056565b92505060406144a786828701613fc9565b9150509250925092565b600080604083850312156144c8576144c7613f76565b5b60006144d685828601614056565b92505060206144e785828601613fc9565b9150509250929050565b60008060006060848603121561450a57614509613f76565b5b600061451886828701613fc9565b935050602061452986828701613fc9565b925050604061453a86828701614056565b9150509250925092565b600080fd5b600080fd5b7f4e487b7100000000000000000000000000000000000000000000000000000000600052604160045260246000fd5b614586826140de565b810181811067ffffffffffffffff821117156145a5576145a461454e565b5b80604052505050565b60006145b8613f6c565b90506145c4828261457d565b919050565b600067ffffffffffffffff8211156145e4576145e361454e565b5b6145ed826140de565b9050602081019050919050565b82818337600083830152505050565b600061461c614617846145c9565b6145ae565b90508281526020810184848401111561463857614637614549565b5b6146438482856145fa565b509392505050565b600082601f8301126146605761465f614544565b5b8135614670848260208601614609565b91505092915050565b6000806000806080858703121561469357614692613f76565b5b60006146a187828801614056565b945050602085013567ffffffffffffffff8111156146c2576146c1613f7b565b5b6146ce8782880161464b565b935050604085013567ffffffffffffffff8111156146ef576146ee613f7b565b5b6146fb8782880161464b565b925050606061470c87828801614056565b91505092959194509250565b600060ff82169050919050565b61472e81614718565b82525050565b60006020820190506147496000830184614725565b92915050565b6000819050919050565b6147628161474f565b82525050565b600060208201905061477d6000830184614759565b92915050565b6000806040838503121561479a57614799613f76565b5b600083013567ffffffffffffffff8111156147b8576147b7613f7b565b5b6147c48582860161464b565b92505060206147d585828601614056565b9150509250929050565b60006060820190506147f46000830186614015565b6148016020830185614015565b61480e6040830184614128565b949350505050565b600060408201905061482b6000830185614015565b6148386020830184614128565b9392505050565b60007fff0000000000000000000000000000000000000000000000000000000000000082169050919050565b6148748161483f565b82525050565b600081519050919050565b600082825260208201905092915050565b6000819050602082019050919050565b60006148b28383614287565b60208301905092915050565b6000602082019050919050565b60006148d68261487a565b6148e08185614885565b93506148eb83614896565b8060005b8381101561491c57815161490388826148a6565b975061490e836148be565b9250506001810190506148ef565b5085935050505092915050565b600060e08201905061493e600083018a61486b565b818103602083015261495081896140ef565b9050818103604083015261496481886140ef565b90506149736060830187614015565b6149806080830186614128565b61498d60a0830185614759565b81810360c083015261499f81846148cb565b905098975050505050505050565b600060a0820190506149c26000830188614015565b6149cf6020830187614015565b6149dc6040830186614128565b81810360608301526149ee81856140ef565b90508181036080830152614a0281846140ef565b90509695505050505050565b600081519050919050565b600082825260208201905092915050565b6000819050602082019050919050565b614a4381614225565b82525050565b6000608083016000830151614a616000860182614287565b506020830151614a7460208601826142e0565b5060408301518482036040860152614a8c82826142a7565b9150506060830151614aa16060860182614a3a565b508091505092915050565b6000614ab88383614a49565b905092915050565b6000602082019050919050565b6000614ad882614a0e565b614ae28185614a19565b935083602082028501614af485614a2a565b8060005b85811015614b305784840389528151614b118582614aac565b9450614b1c83614ac0565b925060208a01995050600181019050614af8565b50829750879550505050505092915050565b60006020820190508181036000830152614b5c8184614acd565b905092915050565b60008060408385031215614b7b57614b7a613f76565b5b6000614b8985828601614056565b9250506020614b9a85828601614056565b9150509250929050565b600081519050919050565b600082825260208201905092915050565b6000819050602082019050919050565b604082016000820151614be66000850182614287565b506020820151614bf960208501826142e0565b50505050565b6000614c0b8383614bd0565b60408301905092915050565b6000602082019050919050565b6000614c2f82614ba4565b614c398185614baf565b9350614c4483614bc0565b8060005b83811015614c75578151614c5c8882614bff565b9750614c6783614c17565b925050600181019050614c48565b5085935050505092915050565b60006020820190508181036000830152614c9c8184614c24565b905092915050565b600060a082019050614cb96000830188614015565b614cc66020830187614015565b614cd36040830186614015565b614ce06060830185614015565b614ced6080830184614015565b9695505050505050565b6000608082019050614d0c6000830187614015565b614d196020830186614128565b8181036040830152614d2b81856140ef565b9050614d3a6060830184614015565b95945050505050565b6000608082019050614d586000830187614015565b614d656020830186614128565b8181036040830152614d7781856140ef565b9050614d866060830184614231565b95945050505050565b60008060408385031215614da657614da5613f76565b5b6000614db485828601614056565b925050602083013567ffffffffffffffff811115614dd557614dd4613f7b565b5b614de18582860161464b565b9150509250929050565b614df481614718565b8114614dff57600080fd5b50565b600081359050614e1181614deb565b92915050565b614e208161474f565b8114614e2b57600080fd5b50565b600081359050614e3d81614e17565b92915050565b600080600080600080600060e0888a031215614e6257614e61613f76565b5b6000614e708a828b01613fc9565b9750506020614e818a828b01613fc9565b9650506040614e928a828b01614056565b9550506060614ea38a828b01614056565b9450506080614eb48a828b01614e02565b93505060a0614ec58a828b01614e2e565b92505060c0614ed68a828b01614e2e565b91505092959891949750929550565b60008060408385031215614efc57614efb613f76565b5b6000614f0a85828601613fc9565b9250506020614f1b85828601613fc9565b9150509250929050565b7f4e487b7100000000000000000000000000000000000000000000000000000000600052602260045260246000fd5b60006002820490506001821680614f6c57607f821691505b602082108103614f7f57614f7e614f25565b5b50919050565b7f4e487b7100000000000000000000000000000000000000000000000000000000600052601160045260246000fd5b6000614fbf8261400b565b91507fffffffffffffffffffffffffffffffffffffffffffffffffffffffffffffffff8203614ff157614ff0614f85565b5b600182019050919050565b7f4e487b7100000000000000000000000000000000000000000000000000000000600052603260045260246000fd5b7f4f6e6c79206d61696e7461696e6572732063616e20766f7465206f6e206e6f6d60008201527f696e6174696f6e73000000000000000000000000000000000000000000000000602082015250565b60006150876028836140a3565b91506150928261502b565b604082019050919050565b600060208201905081810360008301526150b68161507a565b9050919050565b7f4d61696e7461696e65722068617320616c726561647920766f746564206f6e2060008201527f7468697320697373756500000000000000000000000000000000000000000000602082015250565b6000615119602a836140a3565b9150615124826150bd565b604082019050919050565b600060208201905081810360008301526151488161510c565b9050919050565b7f4d61696e7461696e6572206d757374206861766520746f6b656e7320746f207660008201527f6f74650000000000000000000000000000000000000000000000000000000000602082015250565b60006151ab6023836140a3565b91506151b68261514f565b604082019050919050565b600060208201905081810360008301526151da8161519e565b9050919050565b60006151ec8261400b565b91506151f78361400b565b925082820190508082111561520f5761520e614f85565b5b92915050565b60008190508160005260206000209050919050565b60006020601f8301049050919050565b600082821b905092915050565b6000600883026152777fffffffffffffffffffffffffffffffffffffffffffffffffffffffffffffffff8261523a565b615281868361523a565b95508019841693508086168417925050509392505050565b6000819050919050565b60006152be6152b96152b48461400b565b615299565b61400b565b9050919050565b6000819050919050565b6152d8836152a3565b6152ec6152e4826152c5565b848454615247565b825550505050565b600090565b6153016152f4565b61530c8184846152cf565b505050565b5b81811015615330576153256000826152f9565b600181019050615312565b5050565b601f8211156153755761534681615215565b61534f8461522a565b8101602085101561535e578190505b61537261536a8561522a565b830182615311565b50505b505050565b600082821c905092915050565b60006153986000198460080261537a565b1980831691505092915050565b60006153b18383615387565b9150826002028217905092915050565b6153ca82614098565b67ffffffffffffffff8111156153e3576153e261454e565b5b6153ed8254614f54565b6153f8828285615334565b600060209050601f83116001811461542b5760008415615419578287015190505b61542385826153a5565b86555061548b565b601f19841661543986615215565b60005b828110156154615784890151825560018201915060208501945060208101905061543c565b8683101561547e578489015161547a601f891682615387565b8355505b6001600288020188555050505b505050505050565b7f4e6f6d696e6565206e6f7420666f756e64000000000000000000000000000000600082015250565b60006154c96011836140a3565b91506154d482615493565b602082019050919050565b600060208201905081810360008301526154f8816154bc565b9050919050565b7f4f6e6c79206d61696e7461696e6572732063616e20637265617465206973737560008201527f6573000000000000000000000000000000000000000000000000000000000000602082015250565b600061555b6022836140a3565b9150615566826154ff565b604082019050919050565b6000602082019050818103600083015261558a8161554e565b9050919050565b7f4973737565206d757374206265206d61726b6564206173207265736f6c76656460008201527f206265666f726520726577617264696e672e0000000000000000000000000000602082015250565b60006155ed6032836140a3565b91506155f882615591565b604082019050919050565b6000602082019050818103600083015261561c816155e0565b9050919050565b600061562e8261400b565b91506156398361400b565b92508282026156478161400b565b9150828204841483151761565e5761565d614f85565b5b5092915050565b7f4e6f20636f6e7472696275746f722061737369676e656420746f20746865206960008201527f737375652e000000000000000000000000000000000000000000000000000000602082015250565b60006156c16025836140a3565b91506156cc82615665565b604082019050919050565b600060208201905081810360008301526156f0816156b4565b9050919050565b7f496e73756666696369656e7420746f6b656e7320746f207265776172642e0000600082015250565b600061572d601e836140a3565b9150615738826156f7565b602082019050919050565b6000602082019050818103600083015261575c81615720565b9050919050565b7f546f74616c20737570706c79206d75737420626520677265617465722074686160008201527f6e207a65726f0000000000000000000000000000000000000000000000000000602082015250565b60006157bf6026836140a3565b91506157ca82615763565b604082019050919050565b600060208201905081810360008301526157ee816157b2565b9050919050565b7f4e487b7100000000000000000000000000000000000000000000000000000000600052601260045260246000fd5b600061582f8261400b565b915061583a8361400b565b92508261584a576158496157f5565b5b828204905092915050565b60006158608261400b565b915061586b8361400b565b925082820390508181111561588357615882614f85565b5b92915050565b7f4f6e6c79206f7267616e697a65722063616e2061646420746865206d61696e7460008201527f61696e6572000000000000000000000000000000000000000000000000000000602082015250565b60006158e56025836140a3565b91506158f082615889565b604082019050919050565b60006020820190508181036000830152615914816158d8565b9050919050565b7f4e6f7420656e6f75676820746f6b656e7320696e2044414f20737570706c7900600082015250565b6000615951601f836140a3565b915061595c8261591b565b602082019050919050565b6000602082019050818103600083015261598081615944565b9050919050565b7f496e76616c6964206973737565207374617475732076616c7565000000000000600082015250565b60006159bd601a836140a3565b91506159c882615987565b602082019050919050565b600060208201905081810360008301526159ec816159b0565b9050919050565b7f4973737565206973206e6f74206f70656e000000000000000000000000000000600082015250565b6000615a296011836140a3565b9150615a34826159f3565b602082019050919050565b60006020820190508181036000830152615a5881615a1c565b9050919050565b7f4e6f2077696e6e657220666f756e6420666f722069737375652061737369676e60008201527f6d656e7400000000000000000000000000000000000000000000000000000000602082015250565b6000615abb6024836140a3565b9150615ac682615a5f565b604082019050919050565b60006020820190508181036000830152615aea81615aae565b9050919050565b600060c082019050615b066000830189614759565b615b136020830188614128565b615b206040830187614128565b615b2d6060830186614015565b615b3a6080830185614015565b615b4760a0830184614015565b979650505050505050565b6000604082019050615b676000830185614128565b615b746020830184614128565b9392505050565b6000606082019050615b906000830186614128565b615b9d6020830185614015565b615baa6040830184614015565b949350505050565b6000602082019050615bc76000830184614128565b92915050565b600060a082019050615be26000830188614759565b615bef6020830187614759565b615bfc6040830186614759565b615c096060830185614015565b615c166080830184614128565b9695505050505050565b6000608082019050615c356000830187614759565b615c426020830186614725565b615c4f6040830185614759565b615c5c6060830184614759565b95945050505050565b7f4e487b7100000000000000000000000000000000000000000000000000000000600052602160045260246000fdfea2646970667358221220e5b2ae7ffccd733b3b8878e9cbca75c7cac2960985dbb609be46b462e2a7575a64736f6c63430008140033",
  "linkReferences": {},
  "deployedLinkReferences": {}
}