{
  "_format": "hh-sol-artifact-1",
  "contractName": "DAO",
  "sourceName": "contracts/DAO.sol",
  "abi": [
    {
      "inputs": [],
      "stateMutability": "nonpayable",
      "type": "constructor"
    },
    {
      "inputs": [],
      "name": "ECDSAInvalidSignature",
      "type": "error"
    },
    {
      "inputs": [
        {
          "internalType": "uint256",
          "name": "length",
          "type": "uint256"
        }
      ],
      "name": "ECDSAInvalidSignatureLength",
      "type": "error"
    },
    {
      "inputs": [
        {
          "internalType": "bytes32",
          "name": "s",
          "type": "bytes32"
        }
      ],
      "name": "ECDSAInvalidSignatureS",
      "type": "error"
    },
    {
      "inputs": [
        {
          "internalType": "address",
          "name": "spender",
          "type": "address"
        },
        {
          "internalType": "uint256",
          "name": "allowance",
          "type": "uint256"
        },
        {
          "internalType": "uint256",
          "name": "needed",
          "type": "uint256"
        }
      ],
      "name": "ERC20InsufficientAllowance",
      "type": "error"
    },
    {
      "inputs": [
        {
          "internalType": "address",
          "name": "sender",
          "type": "address"
        },
        {
          "internalType": "uint256",
          "name": "balance",
          "type": "uint256"
        },
        {
          "internalType": "uint256",
          "name": "needed",
          "type": "uint256"
        }
      ],
      "name": "ERC20InsufficientBalance",
      "type": "error"
    },
    {
      "inputs": [
        {
          "internalType": "address",
          "name": "approver",
          "type": "address"
        }
      ],
      "name": "ERC20InvalidApprover",
      "type": "error"
    },
    {
      "inputs": [
        {
          "internalType": "address",
          "name": "receiver",
          "type": "address"
        }
      ],
      "name": "ERC20InvalidReceiver",
      "type": "error"
    },
    {
      "inputs": [
        {
          "internalType": "address",
          "name": "sender",
          "type": "address"
        }
      ],
      "name": "ERC20InvalidSender",
      "type": "error"
    },
    {
      "inputs": [
        {
          "internalType": "address",
          "name": "spender",
          "type": "address"
        }
      ],
      "name": "ERC20InvalidSpender",
      "type": "error"
    },
    {
      "inputs": [
        {
          "internalType": "uint256",
          "name": "deadline",
          "type": "uint256"
        }
      ],
      "name": "ERC2612ExpiredSignature",
      "type": "error"
    },
    {
      "inputs": [
        {
          "internalType": "address",
          "name": "signer",
          "type": "address"
        },
        {
          "internalType": "address",
          "name": "owner",
          "type": "address"
        }
      ],
      "name": "ERC2612InvalidSigner",
      "type": "error"
    },
    {
      "inputs": [
        {
          "internalType": "address",
          "name": "account",
          "type": "address"
        },
        {
          "internalType": "uint256",
          "name": "currentNonce",
          "type": "uint256"
        }
      ],
      "name": "InvalidAccountNonce",
      "type": "error"
    },
    {
      "inputs": [],
      "name": "InvalidShortString",
      "type": "error"
    },
    {
      "inputs": [
        {
          "internalType": "string",
          "name": "str",
          "type": "string"
        }
      ],
      "name": "StringTooLong",
      "type": "error"
    },
    {
      "anonymous": false,
      "inputs": [
        {
          "indexed": true,
          "internalType": "address",
          "name": "owner",
          "type": "address"
        },
        {
          "indexed": true,
          "internalType": "address",
          "name": "spender",
          "type": "address"
        },
        {
          "indexed": false,
          "internalType": "uint256",
          "name": "value",
          "type": "uint256"
        }
      ],
      "name": "Approval",
      "type": "event"
    },
    {
      "anonymous": false,
      "inputs": [],
      "name": "EIP712DomainChanged",
      "type": "event"
    },
    {
      "anonymous": false,
      "inputs": [
        {
          "indexed": true,
          "internalType": "address",
          "name": "from",
          "type": "address"
        },
        {
          "indexed": true,
          "internalType": "address",
          "name": "to",
          "type": "address"
        },
        {
          "indexed": false,
          "internalType": "uint256",
          "name": "value",
          "type": "uint256"
        }
      ],
      "name": "Transfer",
      "type": "event"
    },
    {
      "inputs": [],
      "name": "DOMAIN_SEPARATOR",
      "outputs": [
        {
          "internalType": "bytes32",
          "name": "",
          "type": "bytes32"
        }
      ],
      "stateMutability": "view",
      "type": "function"
    },
    {
      "inputs": [
        {
          "internalType": "address",
          "name": "owner",
          "type": "address"
        },
        {
          "internalType": "address",
          "name": "spender",
          "type": "address"
        }
      ],
      "name": "allowance",
      "outputs": [
        {
          "internalType": "uint256",
          "name": "",
          "type": "uint256"
        }
      ],
      "stateMutability": "view",
      "type": "function"
    },
    {
      "inputs": [
        {
          "internalType": "address",
          "name": "spender",
          "type": "address"
        },
        {
          "internalType": "uint256",
          "name": "value",
          "type": "uint256"
        }
      ],
      "name": "approve",
      "outputs": [
        {
          "internalType": "bool",
          "name": "",
          "type": "bool"
        }
      ],
      "stateMutability": "nonpayable",
      "type": "function"
    },
    {
      "inputs": [
        {
          "internalType": "uint256",
          "name": "issueID",
          "type": "uint256"
        }
      ],
      "name": "assignIssue",
      "outputs": [],
      "stateMutability": "nonpayable",
      "type": "function"
    },
    {
      "inputs": [
        {
          "internalType": "address",
          "name": "account",
          "type": "address"
        }
      ],
      "name": "balanceOf",
      "outputs": [
        {
          "internalType": "uint256",
          "name": "",
          "type": "uint256"
        }
      ],
      "stateMutability": "view",
      "type": "function"
    },
    {
      "inputs": [
        {
          "internalType": "uint256",
          "name": "value",
          "type": "uint256"
        }
      ],
      "name": "burn",
      "outputs": [],
      "stateMutability": "nonpayable",
      "type": "function"
    },
    {
      "inputs": [
        {
          "internalType": "address",
          "name": "account",
          "type": "address"
        },
        {
          "internalType": "uint256",
          "name": "value",
          "type": "uint256"
        }
      ],
      "name": "burnFrom",
      "outputs": [],
      "stateMutability": "nonpayable",
      "type": "function"
    },
    {
      "inputs": [
        {
          "internalType": "uint256",
          "name": "",
          "type": "uint256"
        }
      ],
      "name": "comments",
      "outputs": [
        {
          "internalType": "uint256",
          "name": "id",
          "type": "uint256"
        },
        {
          "internalType": "uint256",
          "name": "issueID",
          "type": "uint256"
        },
        {
          "internalType": "address",
          "name": "maintainer",
          "type": "address"
        },
        {
          "internalType": "string",
          "name": "comment",
          "type": "string"
        },
        {
          "internalType": "string",
          "name": "details",
          "type": "string"
        }
      ],
      "stateMutability": "view",
      "type": "function"
    },
    {
      "inputs": [
        {
          "internalType": "string",
          "name": "githubUserName",
          "type": "string"
        },
        {
          "internalType": "uint256",
          "name": "totalSupply",
          "type": "uint256"
        }
      ],
      "name": "createDAO",
      "outputs": [
        {
          "internalType": "uint256",
          "name": "",
          "type": "uint256"
        }
      ],
      "stateMutability": "nonpayable",
      "type": "function"
    },
    {
      "inputs": [
        {
          "internalType": "uint256",
          "name": "daoID",
          "type": "uint256"
        },
        {
          "internalType": "string",
          "name": "name",
          "type": "string"
        },
        {
          "internalType": "string",
          "name": "description",
          "type": "string"
        },
        {
          "internalType": "uint256",
          "name": "weight",
          "type": "uint256"
        }
      ],
      "name": "createIssue",
      "outputs": [
        {
          "internalType": "uint256",
          "name": "",
          "type": "uint256"
        }
      ],
      "stateMutability": "nonpayable",
      "type": "function"
    },
    {
      "inputs": [
        {
          "internalType": "address",
          "name": "",
          "type": "address"
        },
        {
          "internalType": "uint256",
          "name": "",
          "type": "uint256"
        }
      ],
      "name": "daoMaintainers",
      "outputs": [
        {
          "internalType": "uint256",
          "name": "",
          "type": "uint256"
        }
      ],
      "stateMutability": "view",
      "type": "function"
    },
    {
      "inputs": [
        {
          "internalType": "uint256",
          "name": "",
          "type": "uint256"
        }
      ],
      "name": "daoSupplies",
      "outputs": [
        {
          "internalType": "uint256",
          "name": "totalSupply",
          "type": "uint256"
        },
        {
          "internalType": "uint256",
          "name": "initialAllocation",
          "type": "uint256"
        },
        {
          "internalType": "uint256",
          "name": "maintainerAllocation",
          "type": "uint256"
        },
        {
          "internalType": "uint256",
          "name": "tokenReward",
          "type": "uint256"
        },
        {
          "internalType": "uint256",
          "name": "remainingSupply",
          "type": "uint256"
        }
      ],
      "stateMutability": "view",
      "type": "function"
    },
    {
      "inputs": [
        {
          "internalType": "uint256",
          "name": "",
          "type": "uint256"
        }
      ],
      "name": "daos",
      "outputs": [
        {
          "internalType": "uint256",
          "name": "id",
          "type": "uint256"
        },
        {
          "internalType": "address",
          "name": "Organizer",
          "type": "address"
        },
        {
          "internalType": "string",
          "name": "name",
          "type": "string"
        },
        {
          "internalType": "bool",
          "name": "closed",
          "type": "bool"
        }
      ],
      "stateMutability": "view",
      "type": "function"
    },
    {
      "inputs": [],
      "name": "decimals",
      "outputs": [
        {
          "internalType": "uint8",
          "name": "",
          "type": "uint8"
        }
      ],
      "stateMutability": "view",
      "type": "function"
    },
    {
      "inputs": [],
      "name": "eip712Domain",
      "outputs": [
        {
          "internalType": "bytes1",
          "name": "fields",
          "type": "bytes1"
        },
        {
          "internalType": "string",
          "name": "name",
          "type": "string"
        },
        {
          "internalType": "string",
          "name": "version",
          "type": "string"
        },
        {
          "internalType": "uint256",
          "name": "chainId",
          "type": "uint256"
        },
        {
          "internalType": "address",
          "name": "verifyingContract",
          "type": "address"
        },
        {
          "internalType": "bytes32",
          "name": "salt",
          "type": "bytes32"
        },
        {
          "internalType": "uint256[]",
          "name": "extensions",
          "type": "uint256[]"
        }
      ],
      "stateMutability": "view",
      "type": "function"
    },
    {
      "inputs": [],
      "name": "getDAO",
      "outputs": [
        {
          "components": [
            {
              "internalType": "uint256",
              "name": "id",
              "type": "uint256"
            },
            {
              "internalType": "address",
              "name": "Organizer",
              "type": "address"
            },
            {
              "internalType": "string",
              "name": "name",
              "type": "string"
            },
            {
              "internalType": "bool",
              "name": "closed",
              "type": "bool"
            }
          ],
          "internalType": "struct DAO.daoStruct[]",
          "name": "",
          "type": "tuple[]"
        }
      ],
      "stateMutability": "view",
      "type": "function"
    },
    {
      "inputs": [
        {
          "internalType": "address",
          "name": "maintainer",
          "type": "address"
        }
      ],
      "name": "getDAObyMaintainer",
      "outputs": [
        {
          "components": [
            {
              "internalType": "uint256",
              "name": "id",
              "type": "uint256"
            },
            {
              "internalType": "address",
              "name": "Organizer",
              "type": "address"
            },
            {
              "internalType": "string",
              "name": "name",
              "type": "string"
            },
            {
              "internalType": "bool",
              "name": "closed",
              "type": "bool"
            }
          ],
          "internalType": "struct DAO.daoStruct[]",
          "name": "",
          "type": "tuple[]"
        }
      ],
      "stateMutability": "view",
      "type": "function"
    },
    {
      "inputs": [],
      "name": "getIssue",
      "outputs": [
        {
          "components": [
            {
              "internalType": "uint256",
              "name": "id",
              "type": "uint256"
            },
            {
              "internalType": "uint256",
              "name": "daoID",
              "type": "uint256"
            },
            {
              "internalType": "string",
              "name": "name",
              "type": "string"
            },
            {
              "internalType": "string",
              "name": "description",
              "type": "string"
            },
            {
              "internalType": "uint256",
              "name": "votes",
              "type": "uint256"
            },
            {
              "internalType": "uint256",
              "name": "status",
              "type": "uint256"
            },
            {
              "internalType": "address",
              "name": "contributor",
              "type": "address"
            },
            {
              "internalType": "uint256",
              "name": "weight",
              "type": "uint256"
            }
          ],
          "internalType": "struct DAO.issueStruct[]",
          "name": "",
          "type": "tuple[]"
        }
      ],
      "stateMutability": "view",
      "type": "function"
    },
    {
      "inputs": [
        {
          "internalType": "uint256",
          "name": "daoID",
          "type": "uint256"
        }
      ],
      "name": "getIssueByDAO",
      "outputs": [
        {
          "components": [
            {
              "internalType": "uint256",
              "name": "id",
              "type": "uint256"
            },
            {
              "internalType": "uint256",
              "name": "daoID",
              "type": "uint256"
            },
            {
              "internalType": "string",
              "name": "name",
              "type": "string"
            },
            {
              "internalType": "string",
              "name": "description",
              "type": "string"
            },
            {
              "internalType": "uint256",
              "name": "votes",
              "type": "uint256"
            },
            {
              "internalType": "uint256",
              "name": "status",
              "type": "uint256"
            },
            {
              "internalType": "address",
              "name": "contributor",
              "type": "address"
            },
            {
              "internalType": "uint256",
              "name": "weight",
              "type": "uint256"
            }
          ],
          "internalType": "struct DAO.issueStruct[]",
          "name": "",
          "type": "tuple[]"
        }
      ],
      "stateMutability": "view",
      "type": "function"
    },
    {
      "inputs": [
        {
          "internalType": "uint256",
          "name": "daoID",
          "type": "uint256"
        }
      ],
      "name": "getMaintainersByDAO",
      "outputs": [
        {
          "components": [
            {
              "internalType": "uint256",
              "name": "daoID",
              "type": "uint256"
            },
            {
              "internalType": "address",
              "name": "maintainer",
              "type": "address"
            }
          ],
          "internalType": "struct DAO.maintainerStruct[]",
          "name": "",
          "type": "tuple[]"
        }
      ],
      "stateMutability": "view",
      "type": "function"
    },
    {
      "inputs": [
        {
          "internalType": "uint256",
          "name": "daoID",
          "type": "uint256"
        }
      ],
      "name": "getsupply",
      "outputs": [
        {
          "internalType": "uint256",
          "name": "",
          "type": "uint256"
        }
      ],
      "stateMutability": "view",
      "type": "function"
    },
    {
      "inputs": [
        {
          "internalType": "uint256",
          "name": "daoID",
          "type": "uint256"
        },
        {
          "internalType": "uint256",
          "name": "issueID",
          "type": "uint256"
        },
        {
          "internalType": "address",
          "name": "maintainer",
          "type": "address"
        }
      ],
      "name": "hasVoted",
      "outputs": [
        {
          "internalType": "bool",
          "name": "",
          "type": "bool"
        }
      ],
      "stateMutability": "view",
      "type": "function"
    },
    {
      "inputs": [
        {
          "internalType": "uint256",
          "name": "daoID",
          "type": "uint256"
        },
        {
          "internalType": "address",
          "name": "maintainer",
          "type": "address"
        }
      ],
      "name": "isMaintainer",
      "outputs": [
        {
          "internalType": "bool",
          "name": "",
          "type": "bool"
        }
      ],
      "stateMutability": "view",
      "type": "function"
    },
    {
      "inputs": [
        {
          "internalType": "uint256",
          "name": "",
          "type": "uint256"
        }
      ],
      "name": "issues",
      "outputs": [
        {
          "internalType": "uint256",
          "name": "id",
          "type": "uint256"
        },
        {
          "internalType": "uint256",
          "name": "daoID",
          "type": "uint256"
        },
        {
          "internalType": "string",
          "name": "name",
          "type": "string"
        },
        {
          "internalType": "string",
          "name": "description",
          "type": "string"
        },
        {
          "internalType": "uint256",
          "name": "votes",
          "type": "uint256"
        },
        {
          "internalType": "uint256",
          "name": "status",
          "type": "uint256"
        },
        {
          "internalType": "address",
          "name": "contributor",
          "type": "address"
        },
        {
          "internalType": "uint256",
          "name": "weight",
          "type": "uint256"
        }
      ],
      "stateMutability": "view",
      "type": "function"
    },
    {
      "inputs": [
        {
          "internalType": "uint256",
          "name": "daoID",
          "type": "uint256"
        },
        {
          "internalType": "address",
          "name": "maintainer",
          "type": "address"
        }
      ],
      "name": "joinDAO",
      "outputs": [],
      "stateMutability": "nonpayable",
      "type": "function"
    },
    {
      "inputs": [
        {
          "internalType": "uint256",
          "name": "",
          "type": "uint256"
        }
      ],
      "name": "maintainers",
      "outputs": [
        {
          "internalType": "uint256",
          "name": "daoID",
          "type": "uint256"
        },
        {
          "internalType": "address",
          "name": "maintainer",
          "type": "address"
        }
      ],
      "stateMutability": "view",
      "type": "function"
    },
    {
      "inputs": [
        {
          "internalType": "address",
          "name": "to",
          "type": "address"
        },
        {
          "internalType": "uint256",
          "name": "amount",
          "type": "uint256"
        }
      ],
      "name": "mint",
      "outputs": [],
      "stateMutability": "nonpayable",
      "type": "function"
    },
    {
      "inputs": [],
      "name": "name",
      "outputs": [
        {
          "internalType": "string",
          "name": "",
          "type": "string"
        }
      ],
      "stateMutability": "view",
      "type": "function"
    },
    {
      "inputs": [
        {
          "internalType": "uint256",
          "name": "issueID",
          "type": "uint256"
        },
        {
          "internalType": "string",
          "name": "solution",
          "type": "string"
        }
      ],
      "name": "nominateContributor",
      "outputs": [],
      "stateMutability": "nonpayable",
      "type": "function"
    },
    {
      "inputs": [
        {
          "internalType": "uint256",
          "name": "",
          "type": "uint256"
        },
        {
          "internalType": "uint256",
          "name": "",
          "type": "uint256"
        }
      ],
      "name": "nominations",
      "outputs": [
        {
          "internalType": "uint256",
          "name": "issueID",
          "type": "uint256"
        },
        {
          "internalType": "address",
          "name": "nominee",
          "type": "address"
        },
        {
          "internalType": "string",
          "name": "solution",
          "type": "string"
        },
        {
          "internalType": "uint256",
          "name": "votes",
          "type": "uint256"
        }
      ],
      "stateMutability": "view",
      "type": "function"
    },
    {
      "inputs": [
        {
          "internalType": "address",
          "name": "owner",
          "type": "address"
        }
      ],
      "name": "nonces",
      "outputs": [
        {
          "internalType": "uint256",
          "name": "",
          "type": "uint256"
        }
      ],
      "stateMutability": "view",
      "type": "function"
    },
    {
      "inputs": [
        {
          "internalType": "address",
          "name": "owner",
          "type": "address"
        },
        {
          "internalType": "address",
          "name": "spender",
          "type": "address"
        },
        {
          "internalType": "uint256",
          "name": "value",
          "type": "uint256"
        },
        {
          "internalType": "uint256",
          "name": "deadline",
          "type": "uint256"
        },
        {
          "internalType": "uint8",
          "name": "v",
          "type": "uint8"
        },
        {
          "internalType": "bytes32",
          "name": "r",
          "type": "bytes32"
        },
        {
          "internalType": "bytes32",
          "name": "s",
          "type": "bytes32"
        }
      ],
      "name": "permit",
      "outputs": [],
      "stateMutability": "nonpayable",
      "type": "function"
    },
    {
      "inputs": [
        {
          "internalType": "uint256",
          "name": "issueID",
          "type": "uint256"
        }
      ],
      "name": "rewardContributor",
      "outputs": [],
      "stateMutability": "nonpayable",
      "type": "function"
    },
    {
      "inputs": [],
      "name": "symbol",
      "outputs": [
        {
          "internalType": "string",
          "name": "",
          "type": "string"
        }
      ],
      "stateMutability": "view",
      "type": "function"
    },
    {
      "inputs": [
        {
          "internalType": "address",
          "name": "",
          "type": "address"
        }
      ],
      "name": "tokensAssignedToDAO",
      "outputs": [
        {
          "internalType": "uint256",
          "name": "",
          "type": "uint256"
        }
      ],
      "stateMutability": "view",
      "type": "function"
    },
    {
      "inputs": [
        {
          "internalType": "address",
          "name": "",
          "type": "address"
        }
      ],
      "name": "tokensAssignedToMaintainer",
      "outputs": [
        {
          "internalType": "uint256",
          "name": "",
          "type": "uint256"
        }
      ],
      "stateMutability": "view",
      "type": "function"
    },
    {
      "inputs": [],
      "name": "totalSupply",
      "outputs": [
        {
          "internalType": "uint256",
          "name": "",
          "type": "uint256"
        }
      ],
      "stateMutability": "view",
      "type": "function"
    },
    {
      "inputs": [
        {
          "internalType": "address",
          "name": "to",
          "type": "address"
        },
        {
          "internalType": "uint256",
          "name": "value",
          "type": "uint256"
        }
      ],
      "name": "transfer",
      "outputs": [
        {
          "internalType": "bool",
          "name": "",
          "type": "bool"
        }
      ],
      "stateMutability": "nonpayable",
      "type": "function"
    },
    {
      "inputs": [
        {
          "internalType": "address",
          "name": "from",
          "type": "address"
        },
        {
          "internalType": "address",
          "name": "to",
          "type": "address"
        },
        {
          "internalType": "uint256",
          "name": "value",
          "type": "uint256"
        }
      ],
      "name": "transferFrom",
      "outputs": [
        {
          "internalType": "bool",
          "name": "",
          "type": "bool"
        }
      ],
      "stateMutability": "nonpayable",
      "type": "function"
    },
    {
      "inputs": [
        {
          "internalType": "uint256",
          "name": "issueID",
          "type": "uint256"
        },
        {
          "internalType": "uint256",
          "name": "newStatus",
          "type": "uint256"
        }
      ],
      "name": "updateIssueStatus",
      "outputs": [],
      "stateMutability": "nonpayable",
      "type": "function"
    },
    {
      "inputs": [
        {
          "internalType": "uint256",
          "name": "issueID",
          "type": "uint256"
        },
        {
          "internalType": "address",
          "name": "nominee",
          "type": "address"
        }
      ],
      "name": "voteOnNomination",
      "outputs": [],
      "stateMutability": "nonpayable",
      "type": "function"
    },
    {
      "inputs": [
        {
          "internalType": "uint256",
          "name": "",
          "type": "uint256"
        }
      ],
      "name": "votes",
      "outputs": [
        {
          "internalType": "uint256",
          "name": "daoID",
          "type": "uint256"
        },
        {
          "internalType": "uint256",
          "name": "issueID",
          "type": "uint256"
        },
        {
          "internalType": "address",
          "name": "maintainer",
          "type": "address"
        }
      ],
      "stateMutability": "view",
      "type": "function"
    }
  ],
  "bytecode": "0x6101606040523480156200001257600080fd5b506040518060400160405280600781526020017f4b726973686e6100000000000000000000000000000000000000000000000000815250806040518060400160405280600181526020017f31000000000000000000000000000000000000000000000000000000000000008152506040518060400160405280600781526020017f4b726973686e61000000000000000000000000000000000000000000000000008152506040518060400160405280600381526020017f4a534b00000000000000000000000000000000000000000000000000000000008152508160039081620000fd91906200056f565b5080600490816200010f91906200056f565b50505062000128600583620001c960201b90919060201c565b610120818152505062000146600682620001c960201b90919060201c565b6101408181525050818051906020012060e08181525050808051906020012061010081815250504660a08181525050620001856200022160201b60201c565b608081815250503073ffffffffffffffffffffffffffffffffffffffff1660c08173ffffffffffffffffffffffffffffffffffffffff168152505050505062000879565b6000602083511015620001ef57620001e7836200027e60201b60201c565b90506200021b565b826200020183620002eb60201b60201c565b60000190816200021291906200056f565b5060ff60001b90505b92915050565b60007f8b73c3c69bb8fe3d512ecc4cf759cc79239f7b179b0ffacaa9a75d522b39400f60e05161010051463060405160200162000263959493929190620006c7565b60405160208183030381529060405280519060200120905090565b600080829050601f81511115620002ce57826040517f305a27a9000000000000000000000000000000000000000000000000000000008152600401620002c59190620007b3565b60405180910390fd5b805181620002dc9062000809565b60001c1760001b915050919050565b6000819050919050565b600081519050919050565b7f4e487b7100000000000000000000000000000000000000000000000000000000600052604160045260246000fd5b7f4e487b7100000000000000000000000000000000000000000000000000000000600052602260045260246000fd5b600060028204905060018216806200037757607f821691505b6020821081036200038d576200038c6200032f565b5b50919050565b60008190508160005260206000209050919050565b60006020601f8301049050919050565b600082821b905092915050565b600060088302620003f77fffffffffffffffffffffffffffffffffffffffffffffffffffffffffffffffff82620003b8565b620004038683620003b8565b95508019841693508086168417925050509392505050565b6000819050919050565b6000819050919050565b6000620004506200044a62000444846200041b565b62000425565b6200041b565b9050919050565b6000819050919050565b6200046c836200042f565b620004846200047b8262000457565b848454620003c5565b825550505050565b600090565b6200049b6200048c565b620004a881848462000461565b505050565b5b81811015620004d057620004c460008262000491565b600181019050620004ae565b5050565b601f8211156200051f57620004e98162000393565b620004f484620003a8565b8101602085101562000504578190505b6200051c6200051385620003a8565b830182620004ad565b50505b505050565b600082821c905092915050565b6000620005446000198460080262000524565b1980831691505092915050565b60006200055f838362000531565b9150826002028217905092915050565b6200057a82620002f5565b67ffffffffffffffff81111562000596576200059562000300565b5b620005a282546200035e565b620005af828285620004d4565b600060209050601f831160018114620005e75760008415620005d2578287015190505b620005de858262000551565b8655506200064e565b601f198416620005f78662000393565b60005b828110156200062157848901518255600182019150602085019450602081019050620005fa565b868310156200064157848901516200063d601f89168262000531565b8355505b6001600288020188555050505b505050505050565b6000819050919050565b6200066b8162000656565b82525050565b6200067c816200041b565b82525050565b600073ffffffffffffffffffffffffffffffffffffffff82169050919050565b6000620006af8262000682565b9050919050565b620006c181620006a2565b82525050565b600060a082019050620006de600083018862000660565b620006ed602083018762000660565b620006fc604083018662000660565b6200070b606083018562000671565b6200071a6080830184620006b6565b9695505050505050565b600082825260208201905092915050565b60005b838110156200075557808201518184015260208101905062000738565b60008484015250505050565b6000601f19601f8301169050919050565b60006200077f82620002f5565b6200078b818562000724565b93506200079d81856020860162000735565b620007a88162000761565b840191505092915050565b60006020820190508181036000830152620007cf818462000772565b905092915050565b600081519050919050565b6000819050602082019050919050565b600062000800825162000656565b80915050919050565b60006200081682620007d7565b826200082284620007e2565b90506200082f81620007f2565b9250602082101562000872576200086d7fffffffffffffffffffffffffffffffffffffffffffffffffffffffffffffffff83602003600802620003b8565b831692505b5050919050565b60805160a05160c05160e051610100516101205161014051615cce620008d46000396000613533015260006134f801526000613a4801526000613a27015260006132ef015260006133450152600061336e0152615cce6000f3fe608060405234801561001057600080fd5b506004361061025e5760003560e01c806379cc679011610146578063b26af8d4116100c3578063cac5dfd811610087578063cac5dfd81461080b578063ccbbd2601461083e578063cf35d12214610871578063d505accf1461088d578063dd62ed3e146108a9578063f181e047146108d95761025e565b8063b26af8d414610717578063b4320d0614610747578063b6d8023114610777578063c06a2c7d146107ab578063c4063184146107db5761025e565b806395d89b411161010a57806395d89b4114610673578063985da726146106915780639c414da0146106af578063a9059cbb146106cb578063b11b34e0146106fb5761025e565b806379cc6790146105b35780637e6f0a12146105cf5780637ecebe00146105eb57806384b0196e1461061b5780638ebb4c151461063f5761025e565b806328ddef50116101df57806340c10f19116101a357806340c10f19146104b857806342966c68146104d45780634ac3da57146104f05780635df813301461052057806370a082311461055257806372d66e30146105825761025e565b806328ddef50146104125780632b9c63c414610430578063313ce567146104605780633644e5151461047e5780633a976a211461049c5761025e565b80630d39a1d3116102265780630d39a1d31461034857806315c277b01461037857806318160ddd146103a85780631c23b653146103c657806323b872dd146103e25761025e565b8063011800871461026357806304e15de51461029357806306fdde03146102ca578063095ea7b3146102e85780630d35bbf214610318575b600080fd5b61027d60048036038101906102789190613fe2565b610909565b60405161028a9190614028565b60405180910390f35b6102ad60048036038101906102a8919061406f565b610921565b6040516102c198979695949392919061413b565b60405180910390f35b6102d2610a99565b6040516102df91906141c7565b60405180910390f35b61030260048036038101906102fd91906141e9565b610b2b565b60405161030f9190614244565b60405180910390f35b610332600480360381019061032d919061406f565b610b4e565b60405161033f9190614440565b60405180910390f35b610362600480360381019061035d9190614462565b610dec565b60405161036f9190614244565b60405180910390f35b610392600480360381019061038d919061406f565b610ed4565b60405161039f9190614028565b60405180910390f35b6103b0610ef4565b6040516103bd9190614028565b60405180910390f35b6103e060048036038101906103db91906144b5565b610efe565b005b6103fc60048036038101906103f791906144f5565b6113c8565b6040516104099190614244565b60405180910390f35b61041a6113f7565b6040516104279190614440565b60405180910390f35b61044a6004803603810190610445919061467d565b611673565b6040516104579190614028565b60405180910390f35b6104686117f5565b6040516104759190614738565b60405180910390f35b6104866117fe565b604051610493919061476c565b60405180910390f35b6104b660048036038101906104b1919061406f565b61180d565b005b6104d260048036038101906104cd91906141e9565b611a13565b005b6104ee60048036038101906104e9919061406f565b611a21565b005b61050a60048036038101906105059190614787565b611a35565b6040516105179190614028565b60405180910390f35b61053a6004803603810190610535919061406f565b611c33565b604051610549939291906147e3565b60405180910390f35b61056c60048036038101906105679190613fe2565b611c7d565b6040516105799190614028565b60405180910390f35b61059c6004803603810190610597919061406f565b611cc5565b6040516105aa92919061481a565b60405180910390f35b6105cd60048036038101906105c891906141e9565b611d09565b005b6105e960048036038101906105e491906144b5565b611d29565b005b61060560048036038101906106009190613fe2565b611f71565b6040516106129190614028565b60405180910390f35b610623611f83565b604051610636979695949392919061492d565b60405180910390f35b6106596004803603810190610654919061406f565b61202d565b60405161066a9594939291906149b1565b60405180910390f35b61067b612193565b60405161068891906141c7565b60405180910390f35b610699612225565b6040516106a69190614b46565b60405180910390f35b6106c960048036038101906106c49190614b68565b612401565b005b6106e560048036038101906106e091906141e9565b612471565b6040516106f29190614244565b60405180910390f35b6107156004803603810190610710919061406f565b612494565b005b610731600480360381019061072c919061406f565b612750565b60405161073e9190614c86565b60405180910390f35b610761600480360381019061075c9190613fe2565b6128f1565b60405161076e9190614b46565b60405180910390f35b610791600480360381019061078c919061406f565b612b71565b6040516107a2959493929190614ca8565b60405180910390f35b6107c560048036038101906107c09190613fe2565b612ba7565b6040516107d29190614028565b60405180910390f35b6107f560048036038101906107f091906144b5565b612bbf565b6040516108029190614244565b60405180910390f35b61082560048036038101906108209190614b68565b612c84565b6040516108359493929190614cfb565b60405180910390f35b6108586004803603810190610853919061406f565b612d79565b6040516108689493929190614d47565b60405180910390f35b61088b60048036038101906108869190614d93565b612e5e565b005b6108a760048036038101906108a29190614e47565b612f49565b005b6108c360048036038101906108be9190614ee9565b613091565b6040516108d09190614028565b60405180910390f35b6108f360048036038101906108ee91906141e9565b613118565b6040516109009190614028565b60405180910390f35b60136020528060005260406000206000915090505481565b600e60205280600052604060002060009150905080600001549080600101549080600201805461095090614f58565b80601f016020809104026020016040519081016040528092919081815260200182805461097c90614f58565b80156109c95780601f1061099e576101008083540402835291602001916109c9565b820191906000526020600020905b8154815290600101906020018083116109ac57829003601f168201915b5050505050908060030180546109de90614f58565b80601f0160208091040260200160405190810160405280929190818152602001828054610a0a90614f58565b8015610a575780601f10610a2c57610100808354040283529160200191610a57565b820191906000526020600020905b815481529060010190602001808311610a3a57829003601f168201915b5050505050908060040154908060050154908060060160009054906101000a900473ffffffffffffffffffffffffffffffffffffffff16908060070154905088565b606060038054610aa890614f58565b80601f0160208091040260200160405190810160405280929190818152602001828054610ad490614f58565b8015610b215780601f10610af657610100808354040283529160200191610b21565b820191906000526020600020905b815481529060010190602001808311610b0457829003601f168201915b5050505050905090565b600080610b36613149565b9050610b43818585613151565b600191505092915050565b6060600060095467ffffffffffffffff811115610b6e57610b6d614552565b5b604051908082528060200260200182016040528015610ba757816020015b610b94613ea5565b815260200190600190039081610b8c5790505b509050600080600190505b6008548111610de15784600e60008381526020019081526020016000206001015403610dce57600e6000828152602001908152602001600020604051806101000160405290816000820154815260200160018201548152602001600282018054610c1b90614f58565b80601f0160208091040260200160405190810160405280929190818152602001828054610c4790614f58565b8015610c945780601f10610c6957610100808354040283529160200191610c94565b820191906000526020600020905b815481529060010190602001808311610c7757829003601f168201915b50505050508152602001600382018054610cad90614f58565b80601f0160208091040260200160405190810160405280929190818152602001828054610cd990614f58565b8015610d265780601f10610cfb57610100808354040283529160200191610d26565b820191906000526020600020905b815481529060010190602001808311610d0957829003601f168201915b5050505050815260200160048201548152602001600582015481526020016006820160009054906101000a900473ffffffffffffffffffffffffffffffffffffffff1673ffffffffffffffffffffffffffffffffffffffff1673ffffffffffffffffffffffffffffffffffffffff168152602001600782015481525050838380610daf90614fb8565b945081518110610dc257610dc1615000565b5b60200260200101819052505b8080610dd990614fb8565b915050610bb2565b508192505050919050565b600080600090505b600a54811015610ec757846010600083815260200190815260200160002060000154148015610e385750836010600083815260200190815260200160002060010154145b8015610ea557508273ffffffffffffffffffffffffffffffffffffffff166010600083815260200190815260200160002060020160009054906101000a900473ffffffffffffffffffffffffffffffffffffffff1673ffffffffffffffffffffffffffffffffffffffff16145b15610eb4576001915050610ecd565b8080610ebf90614fb8565b915050610df4565b50600090505b9392505050565b600060156000838152602001908152602001600020600401549050919050565b6000600254905090565b6000600e6000848152602001908152602001600020600101549050610f238133612bbf565b610f62576040517f08c379a0000000000000000000000000000000000000000000000000000000008152600401610f59906150a1565b60405180910390fd5b610f6d818433610dec565b15610fad576040517f08c379a0000000000000000000000000000000000000000000000000000000008152600401610fa490615133565b60405180910390fd5b6000610fb833611c7d565b905060008111610ffd576040517f08c379a0000000000000000000000000000000000000000000000000000000008152600401610ff4906151c5565b60405180910390fd5b6000805b60126000878152602001908152602001600020805490508110156112c4578473ffffffffffffffffffffffffffffffffffffffff1660126000888152602001908152602001600020828154811061105b5761105a615000565b5b906000526020600020906004020160010160009054906101000a900473ffffffffffffffffffffffffffffffffffffffff1673ffffffffffffffffffffffffffffffffffffffff16036112b15760006012600088815260200190815260200160002082815481106110cf576110ce615000565b5b9060005260206000209060040201604051806080016040529081600082015481526020016001820160009054906101000a900473ffffffffffffffffffffffffffffffffffffffff1673ffffffffffffffffffffffffffffffffffffffff1673ffffffffffffffffffffffffffffffffffffffff16815260200160028201805461115890614f58565b80601f016020809104026020016040519081016040528092919081815260200182805461118490614f58565b80156111d15780601f106111a6576101008083540402835291602001916111d1565b820191906000526020600020905b8154815290600101906020018083116111b457829003601f168201915b5050505050815260200160038201548152505090508381606001516111f691906151e5565b8160600181815250508060126000898152602001908152602001600020838154811061122557611224615000565b5b90600052602060002090600402016000820151816000015560208201518160010160006101000a81548173ffffffffffffffffffffffffffffffffffffffff021916908373ffffffffffffffffffffffffffffffffffffffff160217905550604082015181600201908161129991906153c5565b506060820151816003015590505060019250506112c4565b80806112bc90614fb8565b915050611001565b5080611305576040517f08c379a00000000000000000000000000000000000000000000000000000000081526004016112fc906154e3565b60405180910390fd5b600a600081548092919061131890614fb8565b919050555060405180606001604052808481526020018681526020013373ffffffffffffffffffffffffffffffffffffffff1681525060106000600a548152602001908152602001600020600082015181600001556020820151816001015560408201518160020160006101000a81548173ffffffffffffffffffffffffffffffffffffffff021916908373ffffffffffffffffffffffffffffffffffffffff1602179055509050505050505050565b6000806113d3613149565b90506113e0858285613163565b6113eb8585856131f7565b60019150509392505050565b6060600060095467ffffffffffffffff81111561141757611416614552565b5b60405190808252806020026020018201604052801561145057816020015b61143d613ea5565b8152602001906001900390816114355790505b5090506000600190505b600854811161166b57600e60008281526020019081526020016000206040518061010001604052908160008201548152602001600182015481526020016002820180546114a690614f58565b80601f01602080910402602001604051908101604052809291908181526020018280546114d290614f58565b801561151f5780601f106114f45761010080835404028352916020019161151f565b820191906000526020600020905b81548152906001019060200180831161150257829003601f168201915b5050505050815260200160038201805461153890614f58565b80601f016020809104026020016040519081016040528092919081815260200182805461156490614f58565b80156115b15780601f10611586576101008083540402835291602001916115b1565b820191906000526020600020905b81548152906001019060200180831161159457829003601f168201915b5050505050815260200160048201548152602001600582015481526020016006820160009054906101000a900473ffffffffffffffffffffffffffffffffffffffff1673ffffffffffffffffffffffffffffffffffffffff1673ffffffffffffffffffffffffffffffffffffffff1681526020016007820154815250508260018361163c9190615503565b8151811061164d5761164c615000565b5b6020026020010181905250808061166390614fb8565b91505061145a565b508091505090565b600061167f8533612bbf565b6116be576040517f08c379a00000000000000000000000000000000000000000000000000000000081526004016116b5906155a9565b60405180910390fd5b600960008154809291906116d190614fb8565b919050555060405180610100016040528060095481526020018681526020018581526020018481526020016000815260200160008152602001600073ffffffffffffffffffffffffffffffffffffffff16815260200183815250600e600060095481526020019081526020016000206000820151816000015560208201518160010155604082015181600201908161176991906153c5565b50606082015181600301908161177f91906153c5565b506080820151816004015560a0820151816005015560c08201518160060160006101000a81548173ffffffffffffffffffffffffffffffffffffffff021916908373ffffffffffffffffffffffffffffffffffffffff16021790555060e082015181600701559050506009549050949350505050565b60006012905090565b60006118086132eb565b905090565b6002600e60008381526020019081526020016000206005015414611866576040517f08c379a000000000000000000000000000000000000000000000000000000000815260040161185d9061563b565b60405180910390fd5b6000600e6000838152602001908152602001600020600101549050600060156000838152602001908152602001600020600301546001600e6000868152602001908152602001600020600701546118bd91906151e5565b6118c7919061565b565b90506000600e600085815260200190815260200160002060060160009054906101000a900473ffffffffffffffffffffffffffffffffffffffff169050600073ffffffffffffffffffffffffffffffffffffffff168173ffffffffffffffffffffffffffffffffffffffff1603611973576040517f08c379a000000000000000000000000000000000000000000000000000000000815260040161196a9061570f565b60405180910390fd5b81601560008581526020019081526020016000206004015410156119cc576040517f08c379a00000000000000000000000000000000000000000000000000000000081526004016119c39061577b565b60405180910390fd5b611a0d600d600085815260200190815260200160002060010160009054906101000a900473ffffffffffffffffffffffffffffffffffffffff1682846131f7565b50505050565b611a1d82826133a2565b5050565b611a32611a2c613149565b82613424565b50565b6000808211611a79576040517f08c379a0000000000000000000000000000000000000000000000000000000008152600401611a709061580d565b60405180910390fd5b60086000815480929190611a8c90614fb8565b9190505550604051806080016040528060085481526020013373ffffffffffffffffffffffffffffffffffffffff16815260200184815260200160001515815250600d600060085481526020019081526020016000206000820151816000015560208201518160010160006101000a81548173ffffffffffffffffffffffffffffffffffffffff021916908373ffffffffffffffffffffffffffffffffffffffff1602179055506040820151816002019081611b4891906153c5565b5060608201518160030160006101000a81548160ff0219169083151502179055509050506000600283611b7b919061585c565b90506000600a84611b8c919061585c565b90506000601985611b9d919061585c565b90506040518060a001604052808681526020018481526020018381526020018281526020018487611bce9190615503565b8152506015600060085481526020019081526020016000206000820151816000015560208201518160010155604082015181600201556060820151816003015560808201518160040155905050611c2533846133a2565b600854935050505092915050565b60106020528060005260406000206000915090508060000154908060010154908060020160009054906101000a900473ffffffffffffffffffffffffffffffffffffffff16905083565b60008060008373ffffffffffffffffffffffffffffffffffffffff1673ffffffffffffffffffffffffffffffffffffffff168152602001908152602001600020549050919050565b600f6020528060005260406000206000915090508060000154908060010160009054906101000a900473ffffffffffffffffffffffffffffffffffffffff16905082565b611d1b82611d15613149565b83613163565b611d258282613424565b5050565b3373ffffffffffffffffffffffffffffffffffffffff16600d600084815260200190815260200160002060010160009054906101000a900473ffffffffffffffffffffffffffffffffffffffff1673ffffffffffffffffffffffffffffffffffffffff1614611dcd576040517f08c379a0000000000000000000000000000000000000000000000000000000008152600401611dc4906158ff565b60405180910390fd5b6000601560008481526020019081526020016000209050806002015481600401541015611e2f576040517f08c379a0000000000000000000000000000000000000000000000000000000008152600401611e269061596b565b60405180910390fd5b600b6000815480929190611e4290614fb8565b919050555060405180604001604052808481526020018373ffffffffffffffffffffffffffffffffffffffff16815250600f6000600b5481526020019081526020016000206000820151816000015560208201518160010160006101000a81548173ffffffffffffffffffffffffffffffffffffffff021916908373ffffffffffffffffffffffffffffffffffffffff160217905550905050611eea338383600201546131f7565b601660008373ffffffffffffffffffffffffffffffffffffffff1673ffffffffffffffffffffffffffffffffffffffff16815260200190815260200160002083908060018154018082558091505060019003906000526020600020016000909190919091505580600201548160040154611f649190615503565b8160040181905550505050565b6000611f7c826134a6565b9050919050565b600060608060008060006060611f976134ef565b611f9f61352a565b46306000801b600067ffffffffffffffff811115611fc057611fbf614552565b5b604051908082528060200260200182016040528015611fee5781602001602082028036833780820191505090505b507f0f00000000000000000000000000000000000000000000000000000000000000959493929190965096509650965096509650965090919293949596565b60116020528060005260406000206000915090508060000154908060010154908060020160009054906101000a900473ffffffffffffffffffffffffffffffffffffffff169080600301805461208290614f58565b80601f01602080910402602001604051908101604052809291908181526020018280546120ae90614f58565b80156120fb5780601f106120d0576101008083540402835291602001916120fb565b820191906000526020600020905b8154815290600101906020018083116120de57829003601f168201915b50505050509080600401805461211090614f58565b80601f016020809104026020016040519081016040528092919081815260200182805461213c90614f58565b80156121895780601f1061215e57610100808354040283529160200191612189565b820191906000526020600020905b81548152906001019060200180831161216c57829003601f168201915b5050505050905085565b6060600480546121a290614f58565b80601f01602080910402602001604051908101604052809291908181526020018280546121ce90614f58565b801561221b5780601f106121f05761010080835404028352916020019161221b565b820191906000526020600020905b8154815290600101906020018083116121fe57829003601f168201915b5050505050905090565b6060600060085467ffffffffffffffff81111561224557612244614552565b5b60405190808252806020026020018201604052801561227e57816020015b61226b613f00565b8152602001906001900390816122635790505b5090506000600190505b60085481116123f957600d6000828152602001908152602001600020604051806080016040529081600082015481526020016001820160009054906101000a900473ffffffffffffffffffffffffffffffffffffffff1673ffffffffffffffffffffffffffffffffffffffff1673ffffffffffffffffffffffffffffffffffffffff16815260200160028201805461231f90614f58565b80601f016020809104026020016040519081016040528092919081815260200182805461234b90614f58565b80156123985780601f1061236d57610100808354040283529160200191612398565b820191906000526020600020905b81548152906001019060200180831161237b57829003601f168201915b505050505081526020016003820160009054906101000a900460ff161515151581525050826001836123ca9190615503565b815181106123db576123da615000565b5b602002602001018190525080806123f190614fb8565b915050612288565b508091505090565b60008110158015612413575060038111155b612452576040517f08c379a0000000000000000000000000000000000000000000000000000000008152600401612449906159d7565b60405180910390fd5b80600e6000848152602001908152602001600020600501819055505050565b60008061247c613149565b90506124898185856131f7565b600191505092915050565b6000600e600083815260200190815260200160002060050154146124ed576040517f08c379a00000000000000000000000000000000000000000000000000000000081526004016124e490615a43565b60405180910390fd5b6000806012600084815260200190815260200160002060008154811061251657612515615000565b5b906000526020600020906004020160010160009054906101000a900473ffffffffffffffffffffffffffffffffffffffff16905060005b601260008581526020019081526020016000208054905081101561264f578260126000868152602001908152602001600020828154811061259157612590615000565b5b906000526020600020906004020160030154111561263c576012600085815260200190815260200160002081815481106125ce576125cd615000565b5b906000526020600020906004020160010160009054906101000a900473ffffffffffffffffffffffffffffffffffffffff16915060126000858152602001908152602001600020818154811061262757612626615000565b5b90600052602060002090600402016003015492505b808061264790614fb8565b91505061254d565b50600073ffffffffffffffffffffffffffffffffffffffff168173ffffffffffffffffffffffffffffffffffffffff16036126bf576040517f08c379a00000000000000000000000000000000000000000000000000000000081526004016126b690615ad5565b60405180910390fd5b6001600e60008581526020019081526020016000206005018190555080600e600085815260200190815260200160002060060160006101000a81548173ffffffffffffffffffffffffffffffffffffffff021916908373ffffffffffffffffffffffffffffffffffffffff16021790555081600e600085815260200190815260200160002060040181905550505050565b6060600080600190505b600b5481116127a25783600f6000838152602001908152602001600020600001540361278f57818061278b90614fb8565b9250505b808061279a90614fb8565b91505061275a565b5060008167ffffffffffffffff8111156127bf576127be614552565b5b6040519080825280602002602001820160405280156127f857816020015b6127e5613f40565b8152602001906001900390816127dd5790505b509050600080600190505b8381116128e55785600f600083815260200190815260200160002060000154036128d257600f6000828152602001908152602001600020604051806040016040529081600082015481526020016001820160009054906101000a900473ffffffffffffffffffffffffffffffffffffffff1673ffffffffffffffffffffffffffffffffffffffff1673ffffffffffffffffffffffffffffffffffffffff16815250508383815181106128b8576128b7615000565b5b602002602001018190525081806128ce90614fb8565b9250505b80806128dd90614fb8565b915050612803565b50819350505050919050565b60606000601660008473ffffffffffffffffffffffffffffffffffffffff1673ffffffffffffffffffffffffffffffffffffffff16815260200190815260200160002080548060200260200160405190810160405280929190818152602001828054801561297e57602002820191906000526020600020905b81548152602001906001019080831161296a575b505050505090506000815167ffffffffffffffff8111156129a2576129a1614552565b5b6040519080825280602002602001820160405280156129db57816020015b6129c8613f00565b8152602001906001900390816129c05790505b50905060005b8251811015612b665760008382815181106129ff576129fe615000565b5b60200260200101519050600d6000828152602001908152602001600020604051806080016040529081600082015481526020016001820160009054906101000a900473ffffffffffffffffffffffffffffffffffffffff1673ffffffffffffffffffffffffffffffffffffffff1673ffffffffffffffffffffffffffffffffffffffff168152602001600282018054612a9790614f58565b80601f0160208091040260200160405190810160405280929190818152602001828054612ac390614f58565b8015612b105780601f10612ae557610100808354040283529160200191612b10565b820191906000526020600020905b815481529060010190602001808311612af357829003601f168201915b505050505081526020016003820160009054906101000a900460ff161515151581525050838381518110612b4757612b46615000565b5b6020026020010181905250508080612b5e90614fb8565b9150506129e1565b508092505050919050565b60156020528060005260406000206000915090508060000154908060010154908060020154908060030154908060040154905085565b60146020528060005260406000206000915090505481565b600080600190505b600b548111612c785783600f600083815260200190815260200160002060000154148015612c5657508273ffffffffffffffffffffffffffffffffffffffff16600f600083815260200190815260200160002060010160009054906101000a900473ffffffffffffffffffffffffffffffffffffffff1673ffffffffffffffffffffffffffffffffffffffff16145b15612c65576001915050612c7e565b8080612c7090614fb8565b915050612bc7565b50600090505b92915050565b60126020528160005260406000208181548110612ca057600080fd5b9060005260206000209060040201600091509150508060000154908060010160009054906101000a900473ffffffffffffffffffffffffffffffffffffffff1690806002018054612cf090614f58565b80601f0160208091040260200160405190810160405280929190818152602001828054612d1c90614f58565b8015612d695780601f10612d3e57610100808354040283529160200191612d69565b820191906000526020600020905b815481529060010190602001808311612d4c57829003601f168201915b5050505050908060030154905084565b600d6020528060005260406000206000915090508060000154908060010160009054906101000a900473ffffffffffffffffffffffffffffffffffffffff1690806002018054612dc890614f58565b80601f0160208091040260200160405190810160405280929190818152602001828054612df490614f58565b8015612e415780601f10612e1657610100808354040283529160200191612e41565b820191906000526020600020905b815481529060010190602001808311612e2457829003601f168201915b5050505050908060030160009054906101000a900460ff16905084565b6012600083815260200190815260200160002060405180608001604052808481526020013373ffffffffffffffffffffffffffffffffffffffff168152602001838152602001600081525090806001815401808255809150506001900390600052602060002090600402016000909190919091506000820151816000015560208201518160010160006101000a81548173ffffffffffffffffffffffffffffffffffffffff021916908373ffffffffffffffffffffffffffffffffffffffff1602179055506040820151816002019081612f3891906153c5565b506060820151816003015550505050565b83421115612f8e57836040517f62791302000000000000000000000000000000000000000000000000000000008152600401612f859190614028565b60405180910390fd5b60007f6e71edae12b1b97f4d1f60370fef10105fa2faae0126114a169c64845d6126c9888888612fbd8c613565565b89604051602001612fd396959493929190615af5565b6040516020818303038152906040528051906020012090506000612ff6826135bc565b90506000613006828787876135d6565b90508973ffffffffffffffffffffffffffffffffffffffff168173ffffffffffffffffffffffffffffffffffffffff161461307a57808a6040517f4b800e46000000000000000000000000000000000000000000000000000000008152600401613071929190615b56565b60405180910390fd5b6130858a8a8a613151565b50505050505050505050565b6000600160008473ffffffffffffffffffffffffffffffffffffffff1673ffffffffffffffffffffffffffffffffffffffff16815260200190815260200160002060008373ffffffffffffffffffffffffffffffffffffffff1673ffffffffffffffffffffffffffffffffffffffff16815260200190815260200160002054905092915050565b6016602052816000526040600020818154811061313457600080fd5b90600052602060002001600091509150505481565b600033905090565b61315e8383836001613606565b505050565b600061316f8484613091565b90507fffffffffffffffffffffffffffffffffffffffffffffffffffffffffffffffff81146131f157818110156131e1578281836040517ffb8f41b20000000000000000000000000000000000000000000000000000000081526004016131d893929190615b7f565b60405180910390fd5b6131f084848484036000613606565b5b50505050565b600073ffffffffffffffffffffffffffffffffffffffff168373ffffffffffffffffffffffffffffffffffffffff16036132695760006040517f96c6fd1e0000000000000000000000000000000000000000000000000000000081526004016132609190615bb6565b60405180910390fd5b600073ffffffffffffffffffffffffffffffffffffffff168273ffffffffffffffffffffffffffffffffffffffff16036132db5760006040517fec442f050000000000000000000000000000000000000000000000000000000081526004016132d29190615bb6565b60405180910390fd5b6132e68383836137dd565b505050565b60007f000000000000000000000000000000000000000000000000000000000000000073ffffffffffffffffffffffffffffffffffffffff163073ffffffffffffffffffffffffffffffffffffffff1614801561336757507f000000000000000000000000000000000000000000000000000000000000000046145b15613394577f0000000000000000000000000000000000000000000000000000000000000000905061339f565b61339c613a02565b90505b90565b600073ffffffffffffffffffffffffffffffffffffffff168273ffffffffffffffffffffffffffffffffffffffff16036134145760006040517fec442f0500000000000000000000000000000000000000000000000000000000815260040161340b9190615bb6565b60405180910390fd5b613420600083836137dd565b5050565b600073ffffffffffffffffffffffffffffffffffffffff168273ffffffffffffffffffffffffffffffffffffffff16036134965760006040517f96c6fd1e00000000000000000000000000000000000000000000000000000000815260040161348d9190615bb6565b60405180910390fd5b6134a2826000836137dd565b5050565b6000600760008373ffffffffffffffffffffffffffffffffffffffff1673ffffffffffffffffffffffffffffffffffffffff168152602001908152602001600020549050919050565b606061352560057f0000000000000000000000000000000000000000000000000000000000000000613a9890919063ffffffff16565b905090565b606061356060067f0000000000000000000000000000000000000000000000000000000000000000613a9890919063ffffffff16565b905090565b6000600760008373ffffffffffffffffffffffffffffffffffffffff1673ffffffffffffffffffffffffffffffffffffffff1681526020019081526020016000206000815480929190600101919050559050919050565b60006135cf6135c96132eb565b83613b48565b9050919050565b6000806000806135e888888888613b89565b9250925092506135f88282613c7d565b829350505050949350505050565b600073ffffffffffffffffffffffffffffffffffffffff168473ffffffffffffffffffffffffffffffffffffffff16036136785760006040517fe602df0500000000000000000000000000000000000000000000000000000000815260040161366f9190615bb6565b60405180910390fd5b600073ffffffffffffffffffffffffffffffffffffffff168373ffffffffffffffffffffffffffffffffffffffff16036136ea5760006040517f94280d620000000000000000000000000000000000000000000000000000000081526004016136e19190615bb6565b60405180910390fd5b81600160008673ffffffffffffffffffffffffffffffffffffffff1673ffffffffffffffffffffffffffffffffffffffff16815260200190815260200160002060008573ffffffffffffffffffffffffffffffffffffffff1673ffffffffffffffffffffffffffffffffffffffff1681526020019081526020016000208190555080156137d7578273ffffffffffffffffffffffffffffffffffffffff168473ffffffffffffffffffffffffffffffffffffffff167f8c5be1e5ebec7d5bd14f71427d1e84f3dd0314c0f7b2291e5b200ac8c7c3b925846040516137ce9190614028565b60405180910390a35b50505050565b600073ffffffffffffffffffffffffffffffffffffffff168373ffffffffffffffffffffffffffffffffffffffff160361382f57806002600082825461382391906151e5565b92505081905550613902565b60008060008573ffffffffffffffffffffffffffffffffffffffff1673ffffffffffffffffffffffffffffffffffffffff168152602001908152602001600020549050818110156138bb578381836040517fe450d38c0000000000000000000000000000000000000000000000000000000081526004016138b293929190615b7f565b60405180910390fd5b8181036000808673ffffffffffffffffffffffffffffffffffffffff1673ffffffffffffffffffffffffffffffffffffffff16815260200190815260200160002081905550505b600073ffffffffffffffffffffffffffffffffffffffff168273ffffffffffffffffffffffffffffffffffffffff160361394b5780600260008282540392505081905550613998565b806000808473ffffffffffffffffffffffffffffffffffffffff1673ffffffffffffffffffffffffffffffffffffffff168152602001908152602001600020600082825401925050819055505b8173ffffffffffffffffffffffffffffffffffffffff168373ffffffffffffffffffffffffffffffffffffffff167fddf252ad1be2c89b69c2b068fc378daa952ba7f163c4a11628f55a4df523b3ef836040516139f59190614028565b60405180910390a3505050565b60007f8b73c3c69bb8fe3d512ecc4cf759cc79239f7b179b0ffacaa9a75d522b39400f7f00000000000000000000000000000000000000000000000000000000000000007f00000000000000000000000000000000000000000000000000000000000000004630604051602001613a7d959493929190615bd1565b60405160208183030381529060405280519060200120905090565b606060ff60001b8314613ab557613aae83613de1565b9050613b42565b818054613ac190614f58565b80601f0160208091040260200160405190810160405280929190818152602001828054613aed90614f58565b8015613b3a5780601f10613b0f57610100808354040283529160200191613b3a565b820191906000526020600020905b815481529060010190602001808311613b1d57829003601f168201915b505050505090505b92915050565b60006040517f190100000000000000000000000000000000000000000000000000000000000081528360028201528260228201526042812091505092915050565b60008060007f7fffffffffffffffffffffffffffffff5d576e7357a4501ddfe92f46681b20a08460001c1115613bc9576000600385925092509250613c73565b600060018888888860405160008152602001604052604051613bee9493929190615c24565b6020604051602081039080840390855afa158015613c10573d6000803e3d6000fd5b505050602060405103519050600073ffffffffffffffffffffffffffffffffffffffff168173ffffffffffffffffffffffffffffffffffffffff1603613c6457600060016000801b93509350935050613c73565b8060008060001b935093509350505b9450945094915050565b60006003811115613c9157613c90615c69565b5b826003811115613ca457613ca3615c69565b5b0315613ddd5760016003811115613cbe57613cbd615c69565b5b826003811115613cd157613cd0615c69565b5b03613d08576040517ff645eedf00000000000000000000000000000000000000000000000000000000815260040160405180910390fd5b60026003811115613d1c57613d1b615c69565b5b826003811115613d2f57613d2e615c69565b5b03613d74578060001c6040517ffce698f7000000000000000000000000000000000000000000000000000000008152600401613d6b9190614028565b60405180910390fd5b600380811115613d8757613d86615c69565b5b826003811115613d9a57613d99615c69565b5b03613ddc57806040517fd78bce0c000000000000000000000000000000000000000000000000000000008152600401613dd3919061476c565b60405180910390fd5b5b5050565b60606000613dee83613e55565b90506000602067ffffffffffffffff811115613e0d57613e0c614552565b5b6040519080825280601f01601f191660200182016040528015613e3f5781602001600182028036833780820191505090505b5090508181528360208201528092505050919050565b60008060ff8360001c169050601f811115613e9c576040517fb3512b0c00000000000000000000000000000000000000000000000000000000815260040160405180910390fd5b80915050919050565b604051806101000160405280600081526020016000815260200160608152602001606081526020016000815260200160008152602001600073ffffffffffffffffffffffffffffffffffffffff168152602001600081525090565b604051806080016040528060008152602001600073ffffffffffffffffffffffffffffffffffffffff168152602001606081526020016000151581525090565b604051806040016040528060008152602001600073ffffffffffffffffffffffffffffffffffffffff1681525090565b6000604051905090565b600080fd5b600080fd5b600073ffffffffffffffffffffffffffffffffffffffff82169050919050565b6000613faf82613f84565b9050919050565b613fbf81613fa4565b8114613fca57600080fd5b50565b600081359050613fdc81613fb6565b92915050565b600060208284031215613ff857613ff7613f7a565b5b600061400684828501613fcd565b91505092915050565b6000819050919050565b6140228161400f565b82525050565b600060208201905061403d6000830184614019565b92915050565b61404c8161400f565b811461405757600080fd5b50565b60008135905061406981614043565b92915050565b60006020828403121561408557614084613f7a565b5b60006140938482850161405a565b91505092915050565b600081519050919050565b600082825260208201905092915050565b60005b838110156140d65780820151818401526020810190506140bb565b60008484015250505050565b6000601f19601f8301169050919050565b60006140fe8261409c565b61410881856140a7565b93506141188185602086016140b8565b614121816140e2565b840191505092915050565b61413581613fa4565b82525050565b600061010082019050614151600083018b614019565b61415e602083018a614019565b818103604083015261417081896140f3565b9050818103606083015261418481886140f3565b90506141936080830187614019565b6141a060a0830186614019565b6141ad60c083018561412c565b6141ba60e0830184614019565b9998505050505050505050565b600060208201905081810360008301526141e181846140f3565b905092915050565b60008060408385031215614200576141ff613f7a565b5b600061420e85828601613fcd565b925050602061421f8582860161405a565b9150509250929050565b60008115159050919050565b61423e81614229565b82525050565b60006020820190506142596000830184614235565b92915050565b600081519050919050565b600082825260208201905092915050565b6000819050602082019050919050565b6142948161400f565b82525050565b600082825260208201905092915050565b60006142b68261409c565b6142c0818561429a565b93506142d08185602086016140b8565b6142d9816140e2565b840191505092915050565b6142ed81613fa4565b82525050565b60006101008301600083015161430c600086018261428b565b50602083015161431f602086018261428b565b506040830151848203604086015261433782826142ab565b9150506060830151848203606086015261435182826142ab565b9150506080830151614366608086018261428b565b5060a083015161437960a086018261428b565b5060c083015161438c60c08601826142e4565b5060e083015161439f60e086018261428b565b508091505092915050565b60006143b683836142f3565b905092915050565b6000602082019050919050565b60006143d68261425f565b6143e0818561426a565b9350836020820285016143f28561427b565b8060005b8581101561442e578484038952815161440f85826143aa565b945061441a836143be565b925060208a019950506001810190506143f6565b50829750879550505050505092915050565b6000602082019050818103600083015261445a81846143cb565b905092915050565b60008060006060848603121561447b5761447a613f7a565b5b60006144898682870161405a565b935050602061449a8682870161405a565b92505060406144ab86828701613fcd565b9150509250925092565b600080604083850312156144cc576144cb613f7a565b5b60006144da8582860161405a565b92505060206144eb85828601613fcd565b9150509250929050565b60008060006060848603121561450e5761450d613f7a565b5b600061451c86828701613fcd565b935050602061452d86828701613fcd565b925050604061453e8682870161405a565b9150509250925092565b600080fd5b600080fd5b7f4e487b7100000000000000000000000000000000000000000000000000000000600052604160045260246000fd5b61458a826140e2565b810181811067ffffffffffffffff821117156145a9576145a8614552565b5b80604052505050565b60006145bc613f70565b90506145c88282614581565b919050565b600067ffffffffffffffff8211156145e8576145e7614552565b5b6145f1826140e2565b9050602081019050919050565b82818337600083830152505050565b600061462061461b846145cd565b6145b2565b90508281526020810184848401111561463c5761463b61454d565b5b6146478482856145fe565b509392505050565b600082601f83011261466457614663614548565b5b813561467484826020860161460d565b91505092915050565b6000806000806080858703121561469757614696613f7a565b5b60006146a58782880161405a565b945050602085013567ffffffffffffffff8111156146c6576146c5613f7f565b5b6146d28782880161464f565b935050604085013567ffffffffffffffff8111156146f3576146f2613f7f565b5b6146ff8782880161464f565b92505060606147108782880161405a565b91505092959194509250565b600060ff82169050919050565b6147328161471c565b82525050565b600060208201905061474d6000830184614729565b92915050565b6000819050919050565b61476681614753565b82525050565b6000602082019050614781600083018461475d565b92915050565b6000806040838503121561479e5761479d613f7a565b5b600083013567ffffffffffffffff8111156147bc576147bb613f7f565b5b6147c88582860161464f565b92505060206147d98582860161405a565b9150509250929050565b60006060820190506147f86000830186614019565b6148056020830185614019565b614812604083018461412c565b949350505050565b600060408201905061482f6000830185614019565b61483c602083018461412c565b9392505050565b60007fff0000000000000000000000000000000000000000000000000000000000000082169050919050565b61487881614843565b82525050565b600081519050919050565b600082825260208201905092915050565b6000819050602082019050919050565b60006148b6838361428b565b60208301905092915050565b6000602082019050919050565b60006148da8261487e565b6148e48185614889565b93506148ef8361489a565b8060005b8381101561492057815161490788826148aa565b9750614912836148c2565b9250506001810190506148f3565b5085935050505092915050565b600060e082019050614942600083018a61486f565b818103602083015261495481896140f3565b9050818103604083015261496881886140f3565b90506149776060830187614019565b614984608083018661412c565b61499160a083018561475d565b81810360c08301526149a381846148cf565b905098975050505050505050565b600060a0820190506149c66000830188614019565b6149d36020830187614019565b6149e0604083018661412c565b81810360608301526149f281856140f3565b90508181036080830152614a0681846140f3565b90509695505050505050565b600081519050919050565b600082825260208201905092915050565b6000819050602082019050919050565b614a4781614229565b82525050565b6000608083016000830151614a65600086018261428b565b506020830151614a7860208601826142e4565b5060408301518482036040860152614a9082826142ab565b9150506060830151614aa56060860182614a3e565b508091505092915050565b6000614abc8383614a4d565b905092915050565b6000602082019050919050565b6000614adc82614a12565b614ae68185614a1d565b935083602082028501614af885614a2e565b8060005b85811015614b345784840389528151614b158582614ab0565b9450614b2083614ac4565b925060208a01995050600181019050614afc565b50829750879550505050505092915050565b60006020820190508181036000830152614b608184614ad1565b905092915050565b60008060408385031215614b7f57614b7e613f7a565b5b6000614b8d8582860161405a565b9250506020614b9e8582860161405a565b9150509250929050565b600081519050919050565b600082825260208201905092915050565b6000819050602082019050919050565b604082016000820151614bea600085018261428b565b506020820151614bfd60208501826142e4565b50505050565b6000614c0f8383614bd4565b60408301905092915050565b6000602082019050919050565b6000614c3382614ba8565b614c3d8185614bb3565b9350614c4883614bc4565b8060005b83811015614c79578151614c608882614c03565b9750614c6b83614c1b565b925050600181019050614c4c565b5085935050505092915050565b60006020820190508181036000830152614ca08184614c28565b905092915050565b600060a082019050614cbd6000830188614019565b614cca6020830187614019565b614cd76040830186614019565b614ce46060830185614019565b614cf16080830184614019565b9695505050505050565b6000608082019050614d106000830187614019565b614d1d602083018661412c565b8181036040830152614d2f81856140f3565b9050614d3e6060830184614019565b95945050505050565b6000608082019050614d5c6000830187614019565b614d69602083018661412c565b8181036040830152614d7b81856140f3565b9050614d8a6060830184614235565b95945050505050565b60008060408385031215614daa57614da9613f7a565b5b6000614db88582860161405a565b925050602083013567ffffffffffffffff811115614dd957614dd8613f7f565b5b614de58582860161464f565b9150509250929050565b614df88161471c565b8114614e0357600080fd5b50565b600081359050614e1581614def565b92915050565b614e2481614753565b8114614e2f57600080fd5b50565b600081359050614e4181614e1b565b92915050565b600080600080600080600060e0888a031215614e6657614e65613f7a565b5b6000614e748a828b01613fcd565b9750506020614e858a828b01613fcd565b9650506040614e968a828b0161405a565b9550506060614ea78a828b0161405a565b9450506080614eb88a828b01614e06565b93505060a0614ec98a828b01614e32565b92505060c0614eda8a828b01614e32565b91505092959891949750929550565b60008060408385031215614f0057614eff613f7a565b5b6000614f0e85828601613fcd565b9250506020614f1f85828601613fcd565b9150509250929050565b7f4e487b7100000000000000000000000000000000000000000000000000000000600052602260045260246000fd5b60006002820490506001821680614f7057607f821691505b602082108103614f8357614f82614f29565b5b50919050565b7f4e487b7100000000000000000000000000000000000000000000000000000000600052601160045260246000fd5b6000614fc38261400f565b91507fffffffffffffffffffffffffffffffffffffffffffffffffffffffffffffffff8203614ff557614ff4614f89565b5b600182019050919050565b7f4e487b7100000000000000000000000000000000000000000000000000000000600052603260045260246000fd5b7f4f6e6c79206d61696e7461696e6572732063616e20766f7465206f6e206e6f6d60008201527f696e6174696f6e73000000000000000000000000000000000000000000000000602082015250565b600061508b6028836140a7565b91506150968261502f565b604082019050919050565b600060208201905081810360008301526150ba8161507e565b9050919050565b7f4d61696e7461696e65722068617320616c726561647920766f746564206f6e2060008201527f7468697320697373756500000000000000000000000000000000000000000000602082015250565b600061511d602a836140a7565b9150615128826150c1565b604082019050919050565b6000602082019050818103600083015261514c81615110565b9050919050565b7f4d61696e7461696e6572206d757374206861766520746f6b656e7320746f207660008201527f6f74650000000000000000000000000000000000000000000000000000000000602082015250565b60006151af6023836140a7565b91506151ba82615153565b604082019050919050565b600060208201905081810360008301526151de816151a2565b9050919050565b60006151f08261400f565b91506151fb8361400f565b925082820190508082111561521357615212614f89565b5b92915050565b60008190508160005260206000209050919050565b60006020601f8301049050919050565b600082821b905092915050565b60006008830261527b7fffffffffffffffffffffffffffffffffffffffffffffffffffffffffffffffff8261523e565b615285868361523e565b95508019841693508086168417925050509392505050565b6000819050919050565b60006152c26152bd6152b88461400f565b61529d565b61400f565b9050919050565b6000819050919050565b6152dc836152a7565b6152f06152e8826152c9565b84845461524b565b825550505050565b600090565b6153056152f8565b6153108184846152d3565b505050565b5b81811015615334576153296000826152fd565b600181019050615316565b5050565b601f8211156153795761534a81615219565b6153538461522e565b81016020851015615362578190505b61537661536e8561522e565b830182615315565b50505b505050565b600082821c905092915050565b600061539c6000198460080261537e565b1980831691505092915050565b60006153b5838361538b565b9150826002028217905092915050565b6153ce8261409c565b67ffffffffffffffff8111156153e7576153e6614552565b5b6153f18254614f58565b6153fc828285615338565b600060209050601f83116001811461542f576000841561541d578287015190505b61542785826153a9565b86555061548f565b601f19841661543d86615219565b60005b8281101561546557848901518255600182019150602085019450602081019050615440565b86831015615482578489015161547e601f89168261538b565b8355505b6001600288020188555050505b505050505050565b7f4e6f6d696e6565206e6f7420666f756e64000000000000000000000000000000600082015250565b60006154cd6011836140a7565b91506154d882615497565b602082019050919050565b600060208201905081810360008301526154fc816154c0565b9050919050565b600061550e8261400f565b91506155198361400f565b925082820390508181111561553157615530614f89565b5b92915050565b7f4f6e6c79206d61696e7461696e6572732063616e20637265617465206973737560008201527f6573000000000000000000000000000000000000000000000000000000000000602082015250565b60006155936022836140a7565b915061559e82615537565b604082019050919050565b600060208201905081810360008301526155c281615586565b9050919050565b7f4973737565206d757374206265206d61726b6564206173207265736f6c76656460008201527f206265666f726520726577617264696e672e0000000000000000000000000000602082015250565b60006156256032836140a7565b9150615630826155c9565b604082019050919050565b6000602082019050818103600083015261565481615618565b9050919050565b60006156668261400f565b91506156718361400f565b925082820261567f8161400f565b9150828204841483151761569657615695614f89565b5b5092915050565b7f4e6f20636f6e7472696275746f722061737369676e656420746f20746865206960008201527f737375652e000000000000000000000000000000000000000000000000000000602082015250565b60006156f96025836140a7565b91506157048261569d565b604082019050919050565b60006020820190508181036000830152615728816156ec565b9050919050565b7f496e73756666696369656e7420746f6b656e7320746f207265776172642e0000600082015250565b6000615765601e836140a7565b91506157708261572f565b602082019050919050565b6000602082019050818103600083015261579481615758565b9050919050565b7f546f74616c20737570706c79206d75737420626520677265617465722074686160008201527f6e207a65726f0000000000000000000000000000000000000000000000000000602082015250565b60006157f76026836140a7565b91506158028261579b565b604082019050919050565b60006020820190508181036000830152615826816157ea565b9050919050565b7f4e487b7100000000000000000000000000000000000000000000000000000000600052601260045260246000fd5b60006158678261400f565b91506158728361400f565b9250826158825761588161582d565b5b828204905092915050565b7f4f6e6c79206f7267616e697a65722063616e2061646420746865206d61696e7460008201527f61696e6572000000000000000000000000000000000000000000000000000000602082015250565b60006158e96025836140a7565b91506158f48261588d565b604082019050919050565b60006020820190508181036000830152615918816158dc565b9050919050565b7f4e6f7420656e6f75676820746f6b656e7320696e2044414f20737570706c7900600082015250565b6000615955601f836140a7565b91506159608261591f565b602082019050919050565b6000602082019050818103600083015261598481615948565b9050919050565b7f496e76616c6964206973737565207374617475732076616c7565000000000000600082015250565b60006159c1601a836140a7565b91506159cc8261598b565b602082019050919050565b600060208201905081810360008301526159f0816159b4565b9050919050565b7f4973737565206973206e6f74206f70656e000000000000000000000000000000600082015250565b6000615a2d6011836140a7565b9150615a38826159f7565b602082019050919050565b60006020820190508181036000830152615a5c81615a20565b9050919050565b7f4e6f2077696e6e657220666f756e6420666f722069737375652061737369676e60008201527f6d656e7400000000000000000000000000000000000000000000000000000000602082015250565b6000615abf6024836140a7565b9150615aca82615a63565b604082019050919050565b60006020820190508181036000830152615aee81615ab2565b9050919050565b600060c082019050615b0a600083018961475d565b615b17602083018861412c565b615b24604083018761412c565b615b316060830186614019565b615b3e6080830185614019565b615b4b60a0830184614019565b979650505050505050565b6000604082019050615b6b600083018561412c565b615b78602083018461412c565b9392505050565b6000606082019050615b94600083018661412c565b615ba16020830185614019565b615bae6040830184614019565b949350505050565b6000602082019050615bcb600083018461412c565b92915050565b600060a082019050615be6600083018861475d565b615bf3602083018761475d565b615c00604083018661475d565b615c0d6060830185614019565b615c1a608083018461412c565b9695505050505050565b6000608082019050615c39600083018761475d565b615c466020830186614729565b615c53604083018561475d565b615c60606083018461475d565b95945050505050565b7f4e487b7100000000000000000000000000000000000000000000000000000000600052602160045260246000fdfea264697066735822122050ee73893041612cb9e60591ae30f1a762861d55fb06a101c05072cca559050064736f6c63430008140033",
  "linkReferences": {},
  "deployedLinkReferences": {}
}