{
  "_format": "hh-sol-artifact-1",
  "contractName": "DAO",
  "sourceName": "contracts/DAO.sol",
  "abi": [
    {
      "inputs": [],
      "stateMutability": "nonpayable",
      "type": "constructor"
    },
    {
      "inputs": [],
      "name": "ECDSAInvalidSignature",
      "type": "error"
    },
    {
      "inputs": [
        {
          "internalType": "uint256",
          "name": "length",
          "type": "uint256"
        }
      ],
      "name": "ECDSAInvalidSignatureLength",
      "type": "error"
    },
    {
      "inputs": [
        {
          "internalType": "bytes32",
          "name": "s",
          "type": "bytes32"
        }
      ],
      "name": "ECDSAInvalidSignatureS",
      "type": "error"
    },
    {
      "inputs": [
        {
          "internalType": "address",
          "name": "spender",
          "type": "address"
        },
        {
          "internalType": "uint256",
          "name": "allowance",
          "type": "uint256"
        },
        {
          "internalType": "uint256",
          "name": "needed",
          "type": "uint256"
        }
      ],
      "name": "ERC20InsufficientAllowance",
      "type": "error"
    },
    {
      "inputs": [
        {
          "internalType": "address",
          "name": "sender",
          "type": "address"
        },
        {
          "internalType": "uint256",
          "name": "balance",
          "type": "uint256"
        },
        {
          "internalType": "uint256",
          "name": "needed",
          "type": "uint256"
        }
      ],
      "name": "ERC20InsufficientBalance",
      "type": "error"
    },
    {
      "inputs": [
        {
          "internalType": "address",
          "name": "approver",
          "type": "address"
        }
      ],
      "name": "ERC20InvalidApprover",
      "type": "error"
    },
    {
      "inputs": [
        {
          "internalType": "address",
          "name": "receiver",
          "type": "address"
        }
      ],
      "name": "ERC20InvalidReceiver",
      "type": "error"
    },
    {
      "inputs": [
        {
          "internalType": "address",
          "name": "sender",
          "type": "address"
        }
      ],
      "name": "ERC20InvalidSender",
      "type": "error"
    },
    {
      "inputs": [
        {
          "internalType": "address",
          "name": "spender",
          "type": "address"
        }
      ],
      "name": "ERC20InvalidSpender",
      "type": "error"
    },
    {
      "inputs": [
        {
          "internalType": "uint256",
          "name": "deadline",
          "type": "uint256"
        }
      ],
      "name": "ERC2612ExpiredSignature",
      "type": "error"
    },
    {
      "inputs": [
        {
          "internalType": "address",
          "name": "signer",
          "type": "address"
        },
        {
          "internalType": "address",
          "name": "owner",
          "type": "address"
        }
      ],
      "name": "ERC2612InvalidSigner",
      "type": "error"
    },
    {
      "inputs": [
        {
          "internalType": "address",
          "name": "account",
          "type": "address"
        },
        {
          "internalType": "uint256",
          "name": "currentNonce",
          "type": "uint256"
        }
      ],
      "name": "InvalidAccountNonce",
      "type": "error"
    },
    {
      "inputs": [],
      "name": "InvalidShortString",
      "type": "error"
    },
    {
      "inputs": [
        {
          "internalType": "string",
          "name": "str",
          "type": "string"
        }
      ],
      "name": "StringTooLong",
      "type": "error"
    },
    {
      "anonymous": false,
      "inputs": [
        {
          "indexed": true,
          "internalType": "address",
          "name": "owner",
          "type": "address"
        },
        {
          "indexed": true,
          "internalType": "address",
          "name": "spender",
          "type": "address"
        },
        {
          "indexed": false,
          "internalType": "uint256",
          "name": "value",
          "type": "uint256"
        }
      ],
      "name": "Approval",
      "type": "event"
    },
    {
      "anonymous": false,
      "inputs": [],
      "name": "EIP712DomainChanged",
      "type": "event"
    },
    {
      "anonymous": false,
      "inputs": [
        {
          "indexed": true,
          "internalType": "address",
          "name": "from",
          "type": "address"
        },
        {
          "indexed": true,
          "internalType": "address",
          "name": "to",
          "type": "address"
        },
        {
          "indexed": false,
          "internalType": "uint256",
          "name": "value",
          "type": "uint256"
        }
      ],
      "name": "Transfer",
      "type": "event"
    },
    {
      "inputs": [],
      "name": "DOMAIN_SEPARATOR",
      "outputs": [
        {
          "internalType": "bytes32",
          "name": "",
          "type": "bytes32"
        }
      ],
      "stateMutability": "view",
      "type": "function"
    },
    {
      "inputs": [
        {
          "internalType": "address",
          "name": "owner",
          "type": "address"
        },
        {
          "internalType": "address",
          "name": "spender",
          "type": "address"
        }
      ],
      "name": "allowance",
      "outputs": [
        {
          "internalType": "uint256",
          "name": "",
          "type": "uint256"
        }
      ],
      "stateMutability": "view",
      "type": "function"
    },
    {
      "inputs": [
        {
          "internalType": "address",
          "name": "spender",
          "type": "address"
        },
        {
          "internalType": "uint256",
          "name": "value",
          "type": "uint256"
        }
      ],
      "name": "approve",
      "outputs": [
        {
          "internalType": "bool",
          "name": "",
          "type": "bool"
        }
      ],
      "stateMutability": "nonpayable",
      "type": "function"
    },
    {
      "inputs": [
        {
          "internalType": "uint256",
          "name": "issueID",
          "type": "uint256"
        }
      ],
      "name": "assignIssue",
      "outputs": [],
      "stateMutability": "nonpayable",
      "type": "function"
    },
    {
      "inputs": [
        {
          "internalType": "address",
          "name": "account",
          "type": "address"
        }
      ],
      "name": "balanceOf",
      "outputs": [
        {
          "internalType": "uint256",
          "name": "",
          "type": "uint256"
        }
      ],
      "stateMutability": "view",
      "type": "function"
    },
    {
      "inputs": [
        {
          "internalType": "uint256",
          "name": "value",
          "type": "uint256"
        }
      ],
      "name": "burn",
      "outputs": [],
      "stateMutability": "nonpayable",
      "type": "function"
    },
    {
      "inputs": [
        {
          "internalType": "address",
          "name": "account",
          "type": "address"
        },
        {
          "internalType": "uint256",
          "name": "value",
          "type": "uint256"
        }
      ],
      "name": "burnFrom",
      "outputs": [],
      "stateMutability": "nonpayable",
      "type": "function"
    },
    {
      "inputs": [
        {
          "internalType": "uint256",
          "name": "",
          "type": "uint256"
        }
      ],
      "name": "comments",
      "outputs": [
        {
          "internalType": "uint256",
          "name": "id",
          "type": "uint256"
        },
        {
          "internalType": "uint256",
          "name": "issueID",
          "type": "uint256"
        },
        {
          "internalType": "address",
          "name": "maintainer",
          "type": "address"
        },
        {
          "internalType": "string",
          "name": "comment",
          "type": "string"
        },
        {
          "internalType": "string",
          "name": "details",
          "type": "string"
        }
      ],
      "stateMutability": "view",
      "type": "function"
    },
    {
      "inputs": [
        {
          "internalType": "string",
          "name": "githubUserName",
          "type": "string"
        },
        {
          "internalType": "uint256",
          "name": "totalSupply",
          "type": "uint256"
        }
      ],
      "name": "createDAO",
      "outputs": [
        {
          "internalType": "uint256",
          "name": "",
          "type": "uint256"
        }
      ],
      "stateMutability": "nonpayable",
      "type": "function"
    },
    {
      "inputs": [
        {
          "internalType": "uint256",
          "name": "daoID",
          "type": "uint256"
        },
        {
          "internalType": "string",
          "name": "name",
          "type": "string"
        },
        {
          "internalType": "string",
          "name": "description",
          "type": "string"
        },
        {
          "internalType": "uint256",
          "name": "weight",
          "type": "uint256"
        }
      ],
      "name": "createIssue",
      "outputs": [
        {
          "internalType": "uint256",
          "name": "",
          "type": "uint256"
        }
      ],
      "stateMutability": "nonpayable",
      "type": "function"
    },
    {
      "inputs": [
        {
          "internalType": "uint256",
          "name": "",
          "type": "uint256"
        }
      ],
      "name": "daoSupplies",
      "outputs": [
        {
          "internalType": "uint256",
          "name": "totalSupply",
          "type": "uint256"
        },
        {
          "internalType": "uint256",
          "name": "initialAllocation",
          "type": "uint256"
        },
        {
          "internalType": "uint256",
          "name": "maintainerAllocation",
          "type": "uint256"
        },
        {
          "internalType": "uint256",
          "name": "tokenReward",
          "type": "uint256"
        },
        {
          "internalType": "uint256",
          "name": "remainingSupply",
          "type": "uint256"
        }
      ],
      "stateMutability": "view",
      "type": "function"
    },
    {
      "inputs": [
        {
          "internalType": "uint256",
          "name": "",
          "type": "uint256"
        }
      ],
      "name": "daos",
      "outputs": [
        {
          "internalType": "uint256",
          "name": "id",
          "type": "uint256"
        },
        {
          "internalType": "address",
          "name": "Organizer",
          "type": "address"
        },
        {
          "internalType": "string",
          "name": "name",
          "type": "string"
        },
        {
          "internalType": "bool",
          "name": "closed",
          "type": "bool"
        }
      ],
      "stateMutability": "view",
      "type": "function"
    },
    {
      "inputs": [],
      "name": "decimals",
      "outputs": [
        {
          "internalType": "uint8",
          "name": "",
          "type": "uint8"
        }
      ],
      "stateMutability": "view",
      "type": "function"
    },
    {
      "inputs": [],
      "name": "eip712Domain",
      "outputs": [
        {
          "internalType": "bytes1",
          "name": "fields",
          "type": "bytes1"
        },
        {
          "internalType": "string",
          "name": "name",
          "type": "string"
        },
        {
          "internalType": "string",
          "name": "version",
          "type": "string"
        },
        {
          "internalType": "uint256",
          "name": "chainId",
          "type": "uint256"
        },
        {
          "internalType": "address",
          "name": "verifyingContract",
          "type": "address"
        },
        {
          "internalType": "bytes32",
          "name": "salt",
          "type": "bytes32"
        },
        {
          "internalType": "uint256[]",
          "name": "extensions",
          "type": "uint256[]"
        }
      ],
      "stateMutability": "view",
      "type": "function"
    },
    {
      "inputs": [],
      "name": "getDAO",
      "outputs": [
        {
          "components": [
            {
              "internalType": "uint256",
              "name": "id",
              "type": "uint256"
            },
            {
              "internalType": "address",
              "name": "Organizer",
              "type": "address"
            },
            {
              "internalType": "string",
              "name": "name",
              "type": "string"
            },
            {
              "internalType": "bool",
              "name": "closed",
              "type": "bool"
            }
          ],
          "internalType": "struct DAO.daoStruct[]",
          "name": "",
          "type": "tuple[]"
        }
      ],
      "stateMutability": "view",
      "type": "function"
    },
    {
      "inputs": [],
      "name": "getIssue",
      "outputs": [
        {
          "components": [
            {
              "internalType": "uint256",
              "name": "id",
              "type": "uint256"
            },
            {
              "internalType": "uint256",
              "name": "daoID",
              "type": "uint256"
            },
            {
              "internalType": "string",
              "name": "name",
              "type": "string"
            },
            {
              "internalType": "string",
              "name": "description",
              "type": "string"
            },
            {
              "internalType": "uint256",
              "name": "votes",
              "type": "uint256"
            },
            {
              "internalType": "uint256",
              "name": "status",
              "type": "uint256"
            },
            {
              "internalType": "address",
              "name": "contributor",
              "type": "address"
            },
            {
              "internalType": "uint256",
              "name": "weight",
              "type": "uint256"
            }
          ],
          "internalType": "struct DAO.issueStruct[]",
          "name": "",
          "type": "tuple[]"
        }
      ],
      "stateMutability": "view",
      "type": "function"
    },
    {
      "inputs": [
        {
          "internalType": "uint256",
          "name": "daoID",
          "type": "uint256"
        }
      ],
      "name": "getIssueByDAO",
      "outputs": [
        {
          "components": [
            {
              "internalType": "uint256",
              "name": "id",
              "type": "uint256"
            },
            {
              "internalType": "uint256",
              "name": "daoID",
              "type": "uint256"
            },
            {
              "internalType": "string",
              "name": "name",
              "type": "string"
            },
            {
              "internalType": "string",
              "name": "description",
              "type": "string"
            },
            {
              "internalType": "uint256",
              "name": "votes",
              "type": "uint256"
            },
            {
              "internalType": "uint256",
              "name": "status",
              "type": "uint256"
            },
            {
              "internalType": "address",
              "name": "contributor",
              "type": "address"
            },
            {
              "internalType": "uint256",
              "name": "weight",
              "type": "uint256"
            }
          ],
          "internalType": "struct DAO.issueStruct[]",
          "name": "",
          "type": "tuple[]"
        }
      ],
      "stateMutability": "view",
      "type": "function"
    },
    {
      "inputs": [
        {
          "internalType": "uint256",
          "name": "daoID",
          "type": "uint256"
        }
      ],
      "name": "getMaintainersByDAO",
      "outputs": [
        {
          "components": [
            {
              "internalType": "uint256",
              "name": "daoID",
              "type": "uint256"
            },
            {
              "internalType": "address",
              "name": "maintainer",
              "type": "address"
            }
          ],
          "internalType": "struct DAO.maintainerStruct[]",
          "name": "",
          "type": "tuple[]"
        }
      ],
      "stateMutability": "view",
      "type": "function"
    },
    {
      "inputs": [
        {
          "internalType": "uint256",
          "name": "daoID",
          "type": "uint256"
        }
      ],
      "name": "getsupply",
      "outputs": [
        {
          "internalType": "uint256",
          "name": "",
          "type": "uint256"
        }
      ],
      "stateMutability": "view",
      "type": "function"
    },
    {
      "inputs": [
        {
          "internalType": "uint256",
          "name": "daoID",
          "type": "uint256"
        },
        {
          "internalType": "uint256",
          "name": "issueID",
          "type": "uint256"
        },
        {
          "internalType": "address",
          "name": "maintainer",
          "type": "address"
        }
      ],
      "name": "hasVoted",
      "outputs": [
        {
          "internalType": "bool",
          "name": "",
          "type": "bool"
        }
      ],
      "stateMutability": "view",
      "type": "function"
    },
    {
      "inputs": [
        {
          "internalType": "uint256",
          "name": "daoID",
          "type": "uint256"
        },
        {
          "internalType": "address",
          "name": "maintainer",
          "type": "address"
        }
      ],
      "name": "isMaintainer",
      "outputs": [
        {
          "internalType": "bool",
          "name": "",
          "type": "bool"
        }
      ],
      "stateMutability": "view",
      "type": "function"
    },
    {
      "inputs": [
        {
          "internalType": "uint256",
          "name": "",
          "type": "uint256"
        }
      ],
      "name": "issues",
      "outputs": [
        {
          "internalType": "uint256",
          "name": "id",
          "type": "uint256"
        },
        {
          "internalType": "uint256",
          "name": "daoID",
          "type": "uint256"
        },
        {
          "internalType": "string",
          "name": "name",
          "type": "string"
        },
        {
          "internalType": "string",
          "name": "description",
          "type": "string"
        },
        {
          "internalType": "uint256",
          "name": "votes",
          "type": "uint256"
        },
        {
          "internalType": "uint256",
          "name": "status",
          "type": "uint256"
        },
        {
          "internalType": "address",
          "name": "contributor",
          "type": "address"
        },
        {
          "internalType": "uint256",
          "name": "weight",
          "type": "uint256"
        }
      ],
      "stateMutability": "view",
      "type": "function"
    },
    {
      "inputs": [
        {
          "internalType": "uint256",
          "name": "daoID",
          "type": "uint256"
        },
        {
          "internalType": "address",
          "name": "maintainer",
          "type": "address"
        }
      ],
      "name": "joinDAO",
      "outputs": [],
      "stateMutability": "nonpayable",
      "type": "function"
    },
    {
      "inputs": [
        {
          "internalType": "uint256",
          "name": "",
          "type": "uint256"
        }
      ],
      "name": "maintainers",
      "outputs": [
        {
          "internalType": "uint256",
          "name": "daoID",
          "type": "uint256"
        },
        {
          "internalType": "address",
          "name": "maintainer",
          "type": "address"
        }
      ],
      "stateMutability": "view",
      "type": "function"
    },
    {
      "inputs": [
        {
          "internalType": "address",
          "name": "to",
          "type": "address"
        },
        {
          "internalType": "uint256",
          "name": "amount",
          "type": "uint256"
        }
      ],
      "name": "mint",
      "outputs": [],
      "stateMutability": "nonpayable",
      "type": "function"
    },
    {
      "inputs": [],
      "name": "name",
      "outputs": [
        {
          "internalType": "string",
          "name": "",
          "type": "string"
        }
      ],
      "stateMutability": "view",
      "type": "function"
    },
    {
      "inputs": [
        {
          "internalType": "uint256",
          "name": "issueID",
          "type": "uint256"
        },
        {
          "internalType": "string",
          "name": "solution",
          "type": "string"
        }
      ],
      "name": "nominateContributor",
      "outputs": [],
      "stateMutability": "nonpayable",
      "type": "function"
    },
    {
      "inputs": [
        {
          "internalType": "uint256",
          "name": "",
          "type": "uint256"
        },
        {
          "internalType": "uint256",
          "name": "",
          "type": "uint256"
        }
      ],
      "name": "nominations",
      "outputs": [
        {
          "internalType": "uint256",
          "name": "issueID",
          "type": "uint256"
        },
        {
          "internalType": "address",
          "name": "nominee",
          "type": "address"
        },
        {
          "internalType": "string",
          "name": "solution",
          "type": "string"
        },
        {
          "internalType": "uint256",
          "name": "votes",
          "type": "uint256"
        }
      ],
      "stateMutability": "view",
      "type": "function"
    },
    {
      "inputs": [
        {
          "internalType": "address",
          "name": "owner",
          "type": "address"
        }
      ],
      "name": "nonces",
      "outputs": [
        {
          "internalType": "uint256",
          "name": "",
          "type": "uint256"
        }
      ],
      "stateMutability": "view",
      "type": "function"
    },
    {
      "inputs": [
        {
          "internalType": "address",
          "name": "owner",
          "type": "address"
        },
        {
          "internalType": "address",
          "name": "spender",
          "type": "address"
        },
        {
          "internalType": "uint256",
          "name": "value",
          "type": "uint256"
        },
        {
          "internalType": "uint256",
          "name": "deadline",
          "type": "uint256"
        },
        {
          "internalType": "uint8",
          "name": "v",
          "type": "uint8"
        },
        {
          "internalType": "bytes32",
          "name": "r",
          "type": "bytes32"
        },
        {
          "internalType": "bytes32",
          "name": "s",
          "type": "bytes32"
        }
      ],
      "name": "permit",
      "outputs": [],
      "stateMutability": "nonpayable",
      "type": "function"
    },
    {
      "inputs": [
        {
          "internalType": "uint256",
          "name": "issueID",
          "type": "uint256"
        }
      ],
      "name": "rewardContributor",
      "outputs": [],
      "stateMutability": "nonpayable",
      "type": "function"
    },
    {
      "inputs": [],
      "name": "symbol",
      "outputs": [
        {
          "internalType": "string",
          "name": "",
          "type": "string"
        }
      ],
      "stateMutability": "view",
      "type": "function"
    },
    {
      "inputs": [
        {
          "internalType": "address",
          "name": "",
          "type": "address"
        }
      ],
      "name": "tokensAssignedToDAO",
      "outputs": [
        {
          "internalType": "uint256",
          "name": "",
          "type": "uint256"
        }
      ],
      "stateMutability": "view",
      "type": "function"
    },
    {
      "inputs": [
        {
          "internalType": "address",
          "name": "",
          "type": "address"
        }
      ],
      "name": "tokensAssignedToMaintainer",
      "outputs": [
        {
          "internalType": "uint256",
          "name": "",
          "type": "uint256"
        }
      ],
      "stateMutability": "view",
      "type": "function"
    },
    {
      "inputs": [],
      "name": "totalSupply",
      "outputs": [
        {
          "internalType": "uint256",
          "name": "",
          "type": "uint256"
        }
      ],
      "stateMutability": "view",
      "type": "function"
    },
    {
      "inputs": [
        {
          "internalType": "address",
          "name": "to",
          "type": "address"
        },
        {
          "internalType": "uint256",
          "name": "value",
          "type": "uint256"
        }
      ],
      "name": "transfer",
      "outputs": [
        {
          "internalType": "bool",
          "name": "",
          "type": "bool"
        }
      ],
      "stateMutability": "nonpayable",
      "type": "function"
    },
    {
      "inputs": [
        {
          "internalType": "address",
          "name": "from",
          "type": "address"
        },
        {
          "internalType": "address",
          "name": "to",
          "type": "address"
        },
        {
          "internalType": "uint256",
          "name": "value",
          "type": "uint256"
        }
      ],
      "name": "transferFrom",
      "outputs": [
        {
          "internalType": "bool",
          "name": "",
          "type": "bool"
        }
      ],
      "stateMutability": "nonpayable",
      "type": "function"
    },
    {
      "inputs": [
        {
          "internalType": "uint256",
          "name": "issueID",
          "type": "uint256"
        },
        {
          "internalType": "uint256",
          "name": "newStatus",
          "type": "uint256"
        }
      ],
      "name": "updateIssueStatus",
      "outputs": [],
      "stateMutability": "nonpayable",
      "type": "function"
    },
    {
      "inputs": [
        {
          "internalType": "uint256",
          "name": "issueID",
          "type": "uint256"
        },
        {
          "internalType": "address",
          "name": "nominee",
          "type": "address"
        }
      ],
      "name": "voteOnNomination",
      "outputs": [],
      "stateMutability": "nonpayable",
      "type": "function"
    },
    {
      "inputs": [
        {
          "internalType": "uint256",
          "name": "",
          "type": "uint256"
        }
      ],
      "name": "votes",
      "outputs": [
        {
          "internalType": "uint256",
          "name": "daoID",
          "type": "uint256"
        },
        {
          "internalType": "uint256",
          "name": "issueID",
          "type": "uint256"
        },
        {
          "internalType": "address",
          "name": "maintainer",
          "type": "address"
        }
      ],
      "stateMutability": "view",
      "type": "function"
    }
  ],
  "bytecode": "0x6101606040523480156200001257600080fd5b506040518060400160405280600781526020017f4b726973686e6100000000000000000000000000000000000000000000000000815250806040518060400160405280600181526020017f31000000000000000000000000000000000000000000000000000000000000008152506040518060400160405280600781526020017f4b726973686e61000000000000000000000000000000000000000000000000008152506040518060400160405280600381526020017f4a534b00000000000000000000000000000000000000000000000000000000008152508160039081620000fd91906200056f565b5080600490816200010f91906200056f565b50505062000128600583620001c960201b90919060201c565b610120818152505062000146600682620001c960201b90919060201c565b6101408181525050818051906020012060e08181525050808051906020012061010081815250504660a08181525050620001856200022160201b60201c565b608081815250503073ffffffffffffffffffffffffffffffffffffffff1660c08173ffffffffffffffffffffffffffffffffffffffff168152505050505062000879565b6000602083511015620001ef57620001e7836200027e60201b60201c565b90506200021b565b826200020183620002eb60201b60201c565b60000190816200021291906200056f565b5060ff60001b90505b92915050565b60007f8b73c3c69bb8fe3d512ecc4cf759cc79239f7b179b0ffacaa9a75d522b39400f60e05161010051463060405160200162000263959493929190620006c7565b60405160208183030381529060405280519060200120905090565b600080829050601f81511115620002ce57826040517f305a27a9000000000000000000000000000000000000000000000000000000008152600401620002c59190620007b3565b60405180910390fd5b805181620002dc9062000809565b60001c1760001b915050919050565b6000819050919050565b600081519050919050565b7f4e487b7100000000000000000000000000000000000000000000000000000000600052604160045260246000fd5b7f4e487b7100000000000000000000000000000000000000000000000000000000600052602260045260246000fd5b600060028204905060018216806200037757607f821691505b6020821081036200038d576200038c6200032f565b5b50919050565b60008190508160005260206000209050919050565b60006020601f8301049050919050565b600082821b905092915050565b600060088302620003f77fffffffffffffffffffffffffffffffffffffffffffffffffffffffffffffffff82620003b8565b620004038683620003b8565b95508019841693508086168417925050509392505050565b6000819050919050565b6000819050919050565b6000620004506200044a62000444846200041b565b62000425565b6200041b565b9050919050565b6000819050919050565b6200046c836200042f565b620004846200047b8262000457565b848454620003c5565b825550505050565b600090565b6200049b6200048c565b620004a881848462000461565b505050565b5b81811015620004d057620004c460008262000491565b600181019050620004ae565b5050565b601f8211156200051f57620004e98162000393565b620004f484620003a8565b8101602085101562000504578190505b6200051c6200051385620003a8565b830182620004ad565b50505b505050565b600082821c905092915050565b6000620005446000198460080262000524565b1980831691505092915050565b60006200055f838362000531565b9150826002028217905092915050565b6200057a82620002f5565b67ffffffffffffffff81111562000596576200059562000300565b5b620005a282546200035e565b620005af828285620004d4565b600060209050601f831160018114620005e75760008415620005d2578287015190505b620005de858262000551565b8655506200064e565b601f198416620005f78662000393565b60005b828110156200062157848901518255600182019150602085019450602081019050620005fa565b868310156200064157848901516200063d601f89168262000531565b8355505b6001600288020188555050505b505050505050565b6000819050919050565b6200066b8162000656565b82525050565b6200067c816200041b565b82525050565b600073ffffffffffffffffffffffffffffffffffffffff82169050919050565b6000620006af8262000682565b9050919050565b620006c181620006a2565b82525050565b600060a082019050620006de600083018862000660565b620006ed602083018762000660565b620006fc604083018662000660565b6200070b606083018562000671565b6200071a6080830184620006b6565b9695505050505050565b600082825260208201905092915050565b60005b838110156200075557808201518184015260208101905062000738565b60008484015250505050565b6000601f19601f8301169050919050565b60006200077f82620002f5565b6200078b818562000724565b93506200079d81856020860162000735565b620007a88162000761565b840191505092915050565b60006020820190508181036000830152620007cf818462000772565b905092915050565b600081519050919050565b6000819050602082019050919050565b600062000800825162000656565b80915050919050565b60006200081682620007d7565b826200082284620007e2565b90506200082f81620007f2565b9250602082101562000872576200086d7fffffffffffffffffffffffffffffffffffffffffffffffffffffffffffffffff83602003600802620003b8565b831692505b5050919050565b60805160a05160c05160e051610100516101205161014051615941620008d460003960006131a60152600061316b015260006136bb0152600061369a01526000612f6201526000612fb801526000612fe101526159416000f3fe608060405234801561001057600080fd5b50600436106102485760003560e01c806372d66e301161013b578063b11b34e0116100b8578063cac5dfd81161007c578063cac5dfd8146107c5578063ccbbd260146107f8578063cf35d1221461082b578063d505accf14610847578063dd62ed3e1461086357610248565b8063b11b34e0146106e5578063b26af8d414610701578063b6d8023114610731578063c06a2c7d14610765578063c40631841461079557610248565b80638ebb4c15116100ff5780638ebb4c151461062957806395d89b411461065d578063985da7261461067b5780639c414da014610699578063a9059cbb146106b557610248565b806372d66e301461056c57806379cc67901461059d5780637e6f0a12146105b95780637ecebe00146105d557806384b0196e1461060557610248565b806328ddef50116101c957806340c10f191161018d57806340c10f19146104a257806342966c68146104be5780634ac3da57146104da5780635df813301461050a57806370a082311461053c57610248565b806328ddef50146103fc5780632b9c63c41461041a578063313ce5671461044a5780633644e515146104685780633a976a211461048657610248565b80630d39a1d3116102105780630d39a1d31461033257806315c277b01461036257806318160ddd146103925780631c23b653146103b057806323b872dd146103cc57610248565b8063011800871461024d57806304e15de51461027d57806306fdde03146102b4578063095ea7b3146102d25780630d35bbf214610302575b600080fd5b61026760048036038101906102629190613c55565b610893565b6040516102749190613c9b565b60405180910390f35b61029760048036038101906102929190613ce2565b6108ab565b6040516102ab989796959493929190613dae565b60405180910390f35b6102bc610a23565b6040516102c99190613e3a565b60405180910390f35b6102ec60048036038101906102e79190613e5c565b610ab5565b6040516102f99190613eb7565b60405180910390f35b61031c60048036038101906103179190613ce2565b610ad8565b60405161032991906140b3565b60405180910390f35b61034c600480360381019061034791906140d5565b610d76565b6040516103599190613eb7565b60405180910390f35b61037c60048036038101906103779190613ce2565b610e5e565b6040516103899190613c9b565b60405180910390f35b61039a610e7e565b6040516103a79190613c9b565b60405180910390f35b6103ca60048036038101906103c59190614128565b610e88565b005b6103e660048036038101906103e19190614168565b611352565b6040516103f39190613eb7565b60405180910390f35b610404611381565b60405161041191906140b3565b60405180910390f35b610434600480360381019061042f91906142f0565b6115fd565b6040516104419190613c9b565b60405180910390f35b61045261177f565b60405161045f91906143ab565b60405180910390f35b610470611788565b60405161047d91906143df565b60405180910390f35b6104a0600480360381019061049b9190613ce2565b611797565b005b6104bc60048036038101906104b79190613e5c565b61199d565b005b6104d860048036038101906104d39190613ce2565b6119ab565b005b6104f460048036038101906104ef91906143fa565b6119bf565b6040516105019190613c9b565b60405180910390f35b610524600480360381019061051f9190613ce2565b611bbd565b60405161053393929190614456565b60405180910390f35b61055660048036038101906105519190613c55565b611c07565b6040516105639190613c9b565b60405180910390f35b61058660048036038101906105819190613ce2565b611c4f565b60405161059492919061448d565b60405180910390f35b6105b760048036038101906105b29190613e5c565b611c93565b005b6105d360048036038101906105ce9190614128565b611cb3565b005b6105ef60048036038101906105ea9190613c55565b611e95565b6040516105fc9190613c9b565b60405180910390f35b61060d611ea7565b60405161062097969594939291906145a0565b60405180910390f35b610643600480360381019061063e9190613ce2565b611f51565b604051610654959493929190614624565b60405180910390f35b6106656120b7565b6040516106729190613e3a565b60405180910390f35b610683612149565b60405161069091906147b9565b60405180910390f35b6106b360048036038101906106ae91906147db565b612325565b005b6106cf60048036038101906106ca9190613e5c565b612395565b6040516106dc9190613eb7565b60405180910390f35b6106ff60048036038101906106fa9190613ce2565b6123b8565b005b61071b60048036038101906107169190613ce2565b612674565b60405161072891906148f9565b60405180910390f35b61074b60048036038101906107469190613ce2565b612815565b60405161075c95949392919061491b565b60405180910390f35b61077f600480360381019061077a9190613c55565b61284b565b60405161078c9190613c9b565b60405180910390f35b6107af60048036038101906107aa9190614128565b612863565b6040516107bc9190613eb7565b60405180910390f35b6107df60048036038101906107da91906147db565b612928565b6040516107ef949392919061496e565b60405180910390f35b610812600480360381019061080d9190613ce2565b612a1d565b60405161082294939291906149ba565b60405180910390f35b61084560048036038101906108409190614a06565b612b02565b005b610861600480360381019061085c9190614aba565b612bed565b005b61087d60048036038101906108789190614b5c565b612d35565b60405161088a9190613c9b565b60405180910390f35b60136020528060005260406000206000915090505481565b600e6020528060005260406000206000915090508060000154908060010154908060020180546108da90614bcb565b80601f016020809104026020016040519081016040528092919081815260200182805461090690614bcb565b80156109535780601f1061092857610100808354040283529160200191610953565b820191906000526020600020905b81548152906001019060200180831161093657829003601f168201915b50505050509080600301805461096890614bcb565b80601f016020809104026020016040519081016040528092919081815260200182805461099490614bcb565b80156109e15780601f106109b6576101008083540402835291602001916109e1565b820191906000526020600020905b8154815290600101906020018083116109c457829003601f168201915b5050505050908060040154908060050154908060060160009054906101000a900473ffffffffffffffffffffffffffffffffffffffff16908060070154905088565b606060038054610a3290614bcb565b80601f0160208091040260200160405190810160405280929190818152602001828054610a5e90614bcb565b8015610aab5780601f10610a8057610100808354040283529160200191610aab565b820191906000526020600020905b815481529060010190602001808311610a8e57829003601f168201915b5050505050905090565b600080610ac0612dbc565b9050610acd818585612dc4565b600191505092915050565b6060600060095467ffffffffffffffff811115610af857610af76141c5565b5b604051908082528060200260200182016040528015610b3157816020015b610b1e613b18565b815260200190600190039081610b165790505b509050600080600190505b6008548111610d6b5784600e60008381526020019081526020016000206001015403610d5857600e6000828152602001908152602001600020604051806101000160405290816000820154815260200160018201548152602001600282018054610ba590614bcb565b80601f0160208091040260200160405190810160405280929190818152602001828054610bd190614bcb565b8015610c1e5780601f10610bf357610100808354040283529160200191610c1e565b820191906000526020600020905b815481529060010190602001808311610c0157829003601f168201915b50505050508152602001600382018054610c3790614bcb565b80601f0160208091040260200160405190810160405280929190818152602001828054610c6390614bcb565b8015610cb05780601f10610c8557610100808354040283529160200191610cb0565b820191906000526020600020905b815481529060010190602001808311610c9357829003601f168201915b5050505050815260200160048201548152602001600582015481526020016006820160009054906101000a900473ffffffffffffffffffffffffffffffffffffffff1673ffffffffffffffffffffffffffffffffffffffff1673ffffffffffffffffffffffffffffffffffffffff168152602001600782015481525050838380610d3990614c2b565b945081518110610d4c57610d4b614c73565b5b60200260200101819052505b8080610d6390614c2b565b915050610b3c565b508192505050919050565b600080600090505b600a54811015610e5157846010600083815260200190815260200160002060000154148015610dc25750836010600083815260200190815260200160002060010154145b8015610e2f57508273ffffffffffffffffffffffffffffffffffffffff166010600083815260200190815260200160002060020160009054906101000a900473ffffffffffffffffffffffffffffffffffffffff1673ffffffffffffffffffffffffffffffffffffffff16145b15610e3e576001915050610e57565b8080610e4990614c2b565b915050610d7e565b50600090505b9392505050565b600060156000838152602001908152602001600020600401549050919050565b6000600254905090565b6000600e6000848152602001908152602001600020600101549050610ead8133612863565b610eec576040517f08c379a0000000000000000000000000000000000000000000000000000000008152600401610ee390614d14565b60405180910390fd5b610ef7818433610d76565b15610f37576040517f08c379a0000000000000000000000000000000000000000000000000000000008152600401610f2e90614da6565b60405180910390fd5b6000610f4233611c07565b905060008111610f87576040517f08c379a0000000000000000000000000000000000000000000000000000000008152600401610f7e90614e38565b60405180910390fd5b6000805b601260008781526020019081526020016000208054905081101561124e578473ffffffffffffffffffffffffffffffffffffffff16601260008881526020019081526020016000208281548110610fe557610fe4614c73565b5b906000526020600020906004020160010160009054906101000a900473ffffffffffffffffffffffffffffffffffffffff1673ffffffffffffffffffffffffffffffffffffffff160361123b57600060126000888152602001908152602001600020828154811061105957611058614c73565b5b9060005260206000209060040201604051806080016040529081600082015481526020016001820160009054906101000a900473ffffffffffffffffffffffffffffffffffffffff1673ffffffffffffffffffffffffffffffffffffffff1673ffffffffffffffffffffffffffffffffffffffff1681526020016002820180546110e290614bcb565b80601f016020809104026020016040519081016040528092919081815260200182805461110e90614bcb565b801561115b5780601f106111305761010080835404028352916020019161115b565b820191906000526020600020905b81548152906001019060200180831161113e57829003601f168201915b5050505050815260200160038201548152505090508381606001516111809190614e58565b816060018181525050806012600089815260200190815260200160002083815481106111af576111ae614c73565b5b90600052602060002090600402016000820151816000015560208201518160010160006101000a81548173ffffffffffffffffffffffffffffffffffffffff021916908373ffffffffffffffffffffffffffffffffffffffff16021790555060408201518160020190816112239190615038565b5060608201518160030155905050600192505061124e565b808061124690614c2b565b915050610f8b565b508061128f576040517f08c379a000000000000000000000000000000000000000000000000000000000815260040161128690615156565b60405180910390fd5b600a60008154809291906112a290614c2b565b919050555060405180606001604052808481526020018681526020013373ffffffffffffffffffffffffffffffffffffffff1681525060106000600a548152602001908152602001600020600082015181600001556020820151816001015560408201518160020160006101000a81548173ffffffffffffffffffffffffffffffffffffffff021916908373ffffffffffffffffffffffffffffffffffffffff1602179055509050505050505050565b60008061135d612dbc565b905061136a858285612dd6565b611375858585612e6a565b60019150509392505050565b6060600060095467ffffffffffffffff8111156113a1576113a06141c5565b5b6040519080825280602002602001820160405280156113da57816020015b6113c7613b18565b8152602001906001900390816113bf5790505b5090506000600190505b60085481116115f557600e600082815260200190815260200160002060405180610100016040529081600082015481526020016001820154815260200160028201805461143090614bcb565b80601f016020809104026020016040519081016040528092919081815260200182805461145c90614bcb565b80156114a95780601f1061147e576101008083540402835291602001916114a9565b820191906000526020600020905b81548152906001019060200180831161148c57829003601f168201915b505050505081526020016003820180546114c290614bcb565b80601f01602080910402602001604051908101604052809291908181526020018280546114ee90614bcb565b801561153b5780601f106115105761010080835404028352916020019161153b565b820191906000526020600020905b81548152906001019060200180831161151e57829003601f168201915b5050505050815260200160048201548152602001600582015481526020016006820160009054906101000a900473ffffffffffffffffffffffffffffffffffffffff1673ffffffffffffffffffffffffffffffffffffffff1673ffffffffffffffffffffffffffffffffffffffff168152602001600782015481525050826001836115c69190615176565b815181106115d7576115d6614c73565b5b602002602001018190525080806115ed90614c2b565b9150506113e4565b508091505090565b60006116098533612863565b611648576040517f08c379a000000000000000000000000000000000000000000000000000000000815260040161163f9061521c565b60405180910390fd5b6009600081548092919061165b90614c2b565b919050555060405180610100016040528060095481526020018681526020018581526020018481526020016000815260200160008152602001600073ffffffffffffffffffffffffffffffffffffffff16815260200183815250600e60006009548152602001908152602001600020600082015181600001556020820151816001015560408201518160020190816116f39190615038565b5060608201518160030190816117099190615038565b506080820151816004015560a0820151816005015560c08201518160060160006101000a81548173ffffffffffffffffffffffffffffffffffffffff021916908373ffffffffffffffffffffffffffffffffffffffff16021790555060e082015181600701559050506009549050949350505050565b60006012905090565b6000611792612f5e565b905090565b6002600e600083815260200190815260200160002060050154146117f0576040517f08c379a00000000000000000000000000000000000000000000000000000000081526004016117e7906152ae565b60405180910390fd5b6000600e6000838152602001908152602001600020600101549050600060156000838152602001908152602001600020600301546001600e6000868152602001908152602001600020600701546118479190614e58565b61185191906152ce565b90506000600e600085815260200190815260200160002060060160009054906101000a900473ffffffffffffffffffffffffffffffffffffffff169050600073ffffffffffffffffffffffffffffffffffffffff168173ffffffffffffffffffffffffffffffffffffffff16036118fd576040517f08c379a00000000000000000000000000000000000000000000000000000000081526004016118f490615382565b60405180910390fd5b8160156000858152602001908152602001600020600401541015611956576040517f08c379a000000000000000000000000000000000000000000000000000000000815260040161194d906153ee565b60405180910390fd5b611997600d600085815260200190815260200160002060010160009054906101000a900473ffffffffffffffffffffffffffffffffffffffff168284612e6a565b50505050565b6119a78282613015565b5050565b6119bc6119b6612dbc565b82613097565b50565b6000808211611a03576040517f08c379a00000000000000000000000000000000000000000000000000000000081526004016119fa90615480565b60405180910390fd5b60086000815480929190611a1690614c2b565b9190505550604051806080016040528060085481526020013373ffffffffffffffffffffffffffffffffffffffff16815260200184815260200160001515815250600d600060085481526020019081526020016000206000820151816000015560208201518160010160006101000a81548173ffffffffffffffffffffffffffffffffffffffff021916908373ffffffffffffffffffffffffffffffffffffffff1602179055506040820151816002019081611ad29190615038565b5060608201518160030160006101000a81548160ff0219169083151502179055509050506000600283611b0591906154cf565b90506000600a84611b1691906154cf565b90506000601985611b2791906154cf565b90506040518060a001604052808681526020018481526020018381526020018281526020018487611b589190615176565b8152506015600060085481526020019081526020016000206000820151816000015560208201518160010155604082015181600201556060820151816003015560808201518160040155905050611baf3384613015565b600854935050505092915050565b60106020528060005260406000206000915090508060000154908060010154908060020160009054906101000a900473ffffffffffffffffffffffffffffffffffffffff16905083565b60008060008373ffffffffffffffffffffffffffffffffffffffff1673ffffffffffffffffffffffffffffffffffffffff168152602001908152602001600020549050919050565b600f6020528060005260406000206000915090508060000154908060010160009054906101000a900473ffffffffffffffffffffffffffffffffffffffff16905082565b611ca582611c9f612dbc565b83612dd6565b611caf8282613097565b5050565b3373ffffffffffffffffffffffffffffffffffffffff16600d600084815260200190815260200160002060010160009054906101000a900473ffffffffffffffffffffffffffffffffffffffff1673ffffffffffffffffffffffffffffffffffffffff1614611d57576040517f08c379a0000000000000000000000000000000000000000000000000000000008152600401611d4e90615572565b60405180910390fd5b6000601560008481526020019081526020016000209050806002015481600401541015611db9576040517f08c379a0000000000000000000000000000000000000000000000000000000008152600401611db0906155de565b60405180910390fd5b600b6000815480929190611dcc90614c2b565b919050555060405180604001604052808481526020018373ffffffffffffffffffffffffffffffffffffffff16815250600f6000600b5481526020019081526020016000206000820151816000015560208201518160010160006101000a81548173ffffffffffffffffffffffffffffffffffffffff021916908373ffffffffffffffffffffffffffffffffffffffff160217905550905050611e7433838360020154612e6a565b80600201548160040154611e889190615176565b8160040181905550505050565b6000611ea082613119565b9050919050565b600060608060008060006060611ebb613162565b611ec361319d565b46306000801b600067ffffffffffffffff811115611ee457611ee36141c5565b5b604051908082528060200260200182016040528015611f125781602001602082028036833780820191505090505b507f0f00000000000000000000000000000000000000000000000000000000000000959493929190965096509650965096509650965090919293949596565b60116020528060005260406000206000915090508060000154908060010154908060020160009054906101000a900473ffffffffffffffffffffffffffffffffffffffff1690806003018054611fa690614bcb565b80601f0160208091040260200160405190810160405280929190818152602001828054611fd290614bcb565b801561201f5780601f10611ff45761010080835404028352916020019161201f565b820191906000526020600020905b81548152906001019060200180831161200257829003601f168201915b50505050509080600401805461203490614bcb565b80601f016020809104026020016040519081016040528092919081815260200182805461206090614bcb565b80156120ad5780601f10612082576101008083540402835291602001916120ad565b820191906000526020600020905b81548152906001019060200180831161209057829003601f168201915b5050505050905085565b6060600480546120c690614bcb565b80601f01602080910402602001604051908101604052809291908181526020018280546120f290614bcb565b801561213f5780601f106121145761010080835404028352916020019161213f565b820191906000526020600020905b81548152906001019060200180831161212257829003601f168201915b5050505050905090565b6060600060085467ffffffffffffffff811115612169576121686141c5565b5b6040519080825280602002602001820160405280156121a257816020015b61218f613b73565b8152602001906001900390816121875790505b5090506000600190505b600854811161231d57600d6000828152602001908152602001600020604051806080016040529081600082015481526020016001820160009054906101000a900473ffffffffffffffffffffffffffffffffffffffff1673ffffffffffffffffffffffffffffffffffffffff1673ffffffffffffffffffffffffffffffffffffffff16815260200160028201805461224390614bcb565b80601f016020809104026020016040519081016040528092919081815260200182805461226f90614bcb565b80156122bc5780601f10612291576101008083540402835291602001916122bc565b820191906000526020600020905b81548152906001019060200180831161229f57829003601f168201915b505050505081526020016003820160009054906101000a900460ff161515151581525050826001836122ee9190615176565b815181106122ff576122fe614c73565b5b6020026020010181905250808061231590614c2b565b9150506121ac565b508091505090565b60008110158015612337575060038111155b612376576040517f08c379a000000000000000000000000000000000000000000000000000000000815260040161236d9061564a565b60405180910390fd5b80600e6000848152602001908152602001600020600501819055505050565b6000806123a0612dbc565b90506123ad818585612e6a565b600191505092915050565b6000600e60008381526020019081526020016000206005015414612411576040517f08c379a0000000000000000000000000000000000000000000000000000000008152600401612408906156b6565b60405180910390fd5b6000806012600084815260200190815260200160002060008154811061243a57612439614c73565b5b906000526020600020906004020160010160009054906101000a900473ffffffffffffffffffffffffffffffffffffffff16905060005b601260008581526020019081526020016000208054905081101561257357826012600086815260200190815260200160002082815481106124b5576124b4614c73565b5b9060005260206000209060040201600301541115612560576012600085815260200190815260200160002081815481106124f2576124f1614c73565b5b906000526020600020906004020160010160009054906101000a900473ffffffffffffffffffffffffffffffffffffffff16915060126000858152602001908152602001600020818154811061254b5761254a614c73565b5b90600052602060002090600402016003015492505b808061256b90614c2b565b915050612471565b50600073ffffffffffffffffffffffffffffffffffffffff168173ffffffffffffffffffffffffffffffffffffffff16036125e3576040517f08c379a00000000000000000000000000000000000000000000000000000000081526004016125da90615748565b60405180910390fd5b6001600e60008581526020019081526020016000206005018190555080600e600085815260200190815260200160002060060160006101000a81548173ffffffffffffffffffffffffffffffffffffffff021916908373ffffffffffffffffffffffffffffffffffffffff16021790555081600e600085815260200190815260200160002060040181905550505050565b6060600080600190505b600b5481116126c65783600f600083815260200190815260200160002060000154036126b35781806126af90614c2b565b9250505b80806126be90614c2b565b91505061267e565b5060008167ffffffffffffffff8111156126e3576126e26141c5565b5b60405190808252806020026020018201604052801561271c57816020015b612709613bb3565b8152602001906001900390816127015790505b509050600080600190505b8381116128095785600f600083815260200190815260200160002060000154036127f657600f6000828152602001908152602001600020604051806040016040529081600082015481526020016001820160009054906101000a900473ffffffffffffffffffffffffffffffffffffffff1673ffffffffffffffffffffffffffffffffffffffff1673ffffffffffffffffffffffffffffffffffffffff16815250508383815181106127dc576127db614c73565b5b602002602001018190525081806127f290614c2b565b9250505b808061280190614c2b565b915050612727565b50819350505050919050565b60156020528060005260406000206000915090508060000154908060010154908060020154908060030154908060040154905085565b60146020528060005260406000206000915090505481565b600080600190505b600b54811161291c5783600f6000838152602001908152602001600020600001541480156128fa57508273ffffffffffffffffffffffffffffffffffffffff16600f600083815260200190815260200160002060010160009054906101000a900473ffffffffffffffffffffffffffffffffffffffff1673ffffffffffffffffffffffffffffffffffffffff16145b15612909576001915050612922565b808061291490614c2b565b91505061286b565b50600090505b92915050565b6012602052816000526040600020818154811061294457600080fd5b9060005260206000209060040201600091509150508060000154908060010160009054906101000a900473ffffffffffffffffffffffffffffffffffffffff169080600201805461299490614bcb565b80601f01602080910402602001604051908101604052809291908181526020018280546129c090614bcb565b8015612a0d5780601f106129e257610100808354040283529160200191612a0d565b820191906000526020600020905b8154815290600101906020018083116129f057829003601f168201915b5050505050908060030154905084565b600d6020528060005260406000206000915090508060000154908060010160009054906101000a900473ffffffffffffffffffffffffffffffffffffffff1690806002018054612a6c90614bcb565b80601f0160208091040260200160405190810160405280929190818152602001828054612a9890614bcb565b8015612ae55780601f10612aba57610100808354040283529160200191612ae5565b820191906000526020600020905b815481529060010190602001808311612ac857829003601f168201915b5050505050908060030160009054906101000a900460ff16905084565b6012600083815260200190815260200160002060405180608001604052808481526020013373ffffffffffffffffffffffffffffffffffffffff168152602001838152602001600081525090806001815401808255809150506001900390600052602060002090600402016000909190919091506000820151816000015560208201518160010160006101000a81548173ffffffffffffffffffffffffffffffffffffffff021916908373ffffffffffffffffffffffffffffffffffffffff1602179055506040820151816002019081612bdc9190615038565b506060820151816003015550505050565b83421115612c3257836040517f62791302000000000000000000000000000000000000000000000000000000008152600401612c299190613c9b565b60405180910390fd5b60007f6e71edae12b1b97f4d1f60370fef10105fa2faae0126114a169c64845d6126c9888888612c618c6131d8565b89604051602001612c7796959493929190615768565b6040516020818303038152906040528051906020012090506000612c9a8261322f565b90506000612caa82878787613249565b90508973ffffffffffffffffffffffffffffffffffffffff168173ffffffffffffffffffffffffffffffffffffffff1614612d1e57808a6040517f4b800e46000000000000000000000000000000000000000000000000000000008152600401612d159291906157c9565b60405180910390fd5b612d298a8a8a612dc4565b50505050505050505050565b6000600160008473ffffffffffffffffffffffffffffffffffffffff1673ffffffffffffffffffffffffffffffffffffffff16815260200190815260200160002060008373ffffffffffffffffffffffffffffffffffffffff1673ffffffffffffffffffffffffffffffffffffffff16815260200190815260200160002054905092915050565b600033905090565b612dd18383836001613279565b505050565b6000612de28484612d35565b90507fffffffffffffffffffffffffffffffffffffffffffffffffffffffffffffffff8114612e645781811015612e54578281836040517ffb8f41b2000000000000000000000000000000000000000000000000000000008152600401612e4b939291906157f2565b60405180910390fd5b612e6384848484036000613279565b5b50505050565b600073ffffffffffffffffffffffffffffffffffffffff168373ffffffffffffffffffffffffffffffffffffffff1603612edc5760006040517f96c6fd1e000000000000000000000000000000000000000000000000000000008152600401612ed39190615829565b60405180910390fd5b600073ffffffffffffffffffffffffffffffffffffffff168273ffffffffffffffffffffffffffffffffffffffff1603612f4e5760006040517fec442f05000000000000000000000000000000000000000000000000000000008152600401612f459190615829565b60405180910390fd5b612f59838383613450565b505050565b60007f000000000000000000000000000000000000000000000000000000000000000073ffffffffffffffffffffffffffffffffffffffff163073ffffffffffffffffffffffffffffffffffffffff16148015612fda57507f000000000000000000000000000000000000000000000000000000000000000046145b15613007577f00000000000000000000000000000000000000000000000000000000000000009050613012565b61300f613675565b90505b90565b600073ffffffffffffffffffffffffffffffffffffffff168273ffffffffffffffffffffffffffffffffffffffff16036130875760006040517fec442f0500000000000000000000000000000000000000000000000000000000815260040161307e9190615829565b60405180910390fd5b61309360008383613450565b5050565b600073ffffffffffffffffffffffffffffffffffffffff168273ffffffffffffffffffffffffffffffffffffffff16036131095760006040517f96c6fd1e0000000000000000000000000000000000000000000000000000000081526004016131009190615829565b60405180910390fd5b61311582600083613450565b5050565b6000600760008373ffffffffffffffffffffffffffffffffffffffff1673ffffffffffffffffffffffffffffffffffffffff168152602001908152602001600020549050919050565b606061319860057f000000000000000000000000000000000000000000000000000000000000000061370b90919063ffffffff16565b905090565b60606131d360067f000000000000000000000000000000000000000000000000000000000000000061370b90919063ffffffff16565b905090565b6000600760008373ffffffffffffffffffffffffffffffffffffffff1673ffffffffffffffffffffffffffffffffffffffff1681526020019081526020016000206000815480929190600101919050559050919050565b600061324261323c612f5e565b836137bb565b9050919050565b60008060008061325b888888886137fc565b92509250925061326b82826138f0565b829350505050949350505050565b600073ffffffffffffffffffffffffffffffffffffffff168473ffffffffffffffffffffffffffffffffffffffff16036132eb5760006040517fe602df050000000000000000000000000000000000000000000000000000000081526004016132e29190615829565b60405180910390fd5b600073ffffffffffffffffffffffffffffffffffffffff168373ffffffffffffffffffffffffffffffffffffffff160361335d5760006040517f94280d620000000000000000000000000000000000000000000000000000000081526004016133549190615829565b60405180910390fd5b81600160008673ffffffffffffffffffffffffffffffffffffffff1673ffffffffffffffffffffffffffffffffffffffff16815260200190815260200160002060008573ffffffffffffffffffffffffffffffffffffffff1673ffffffffffffffffffffffffffffffffffffffff16815260200190815260200160002081905550801561344a578273ffffffffffffffffffffffffffffffffffffffff168473ffffffffffffffffffffffffffffffffffffffff167f8c5be1e5ebec7d5bd14f71427d1e84f3dd0314c0f7b2291e5b200ac8c7c3b925846040516134419190613c9b565b60405180910390a35b50505050565b600073ffffffffffffffffffffffffffffffffffffffff168373ffffffffffffffffffffffffffffffffffffffff16036134a25780600260008282546134969190614e58565b92505081905550613575565b60008060008573ffffffffffffffffffffffffffffffffffffffff1673ffffffffffffffffffffffffffffffffffffffff1681526020019081526020016000205490508181101561352e578381836040517fe450d38c000000000000000000000000000000000000000000000000000000008152600401613525939291906157f2565b60405180910390fd5b8181036000808673ffffffffffffffffffffffffffffffffffffffff1673ffffffffffffffffffffffffffffffffffffffff16815260200190815260200160002081905550505b600073ffffffffffffffffffffffffffffffffffffffff168273ffffffffffffffffffffffffffffffffffffffff16036135be578060026000828254039250508190555061360b565b806000808473ffffffffffffffffffffffffffffffffffffffff1673ffffffffffffffffffffffffffffffffffffffff168152602001908152602001600020600082825401925050819055505b8173ffffffffffffffffffffffffffffffffffffffff168373ffffffffffffffffffffffffffffffffffffffff167fddf252ad1be2c89b69c2b068fc378daa952ba7f163c4a11628f55a4df523b3ef836040516136689190613c9b565b60405180910390a3505050565b60007f8b73c3c69bb8fe3d512ecc4cf759cc79239f7b179b0ffacaa9a75d522b39400f7f00000000000000000000000000000000000000000000000000000000000000007f000000000000000000000000000000000000000000000000000000000000000046306040516020016136f0959493929190615844565b60405160208183030381529060405280519060200120905090565b606060ff60001b83146137285761372183613a54565b90506137b5565b81805461373490614bcb565b80601f016020809104026020016040519081016040528092919081815260200182805461376090614bcb565b80156137ad5780601f10613782576101008083540402835291602001916137ad565b820191906000526020600020905b81548152906001019060200180831161379057829003601f168201915b505050505090505b92915050565b60006040517f190100000000000000000000000000000000000000000000000000000000000081528360028201528260228201526042812091505092915050565b60008060007f7fffffffffffffffffffffffffffffff5d576e7357a4501ddfe92f46681b20a08460001c111561383c5760006003859250925092506138e6565b6000600188888888604051600081526020016040526040516138619493929190615897565b6020604051602081039080840390855afa158015613883573d6000803e3d6000fd5b505050602060405103519050600073ffffffffffffffffffffffffffffffffffffffff168173ffffffffffffffffffffffffffffffffffffffff16036138d757600060016000801b935093509350506138e6565b8060008060001b935093509350505b9450945094915050565b60006003811115613904576139036158dc565b5b826003811115613917576139166158dc565b5b0315613a505760016003811115613931576139306158dc565b5b826003811115613944576139436158dc565b5b0361397b576040517ff645eedf00000000000000000000000000000000000000000000000000000000815260040160405180910390fd5b6002600381111561398f5761398e6158dc565b5b8260038111156139a2576139a16158dc565b5b036139e7578060001c6040517ffce698f70000000000000000000000000000000000000000000000000000000081526004016139de9190613c9b565b60405180910390fd5b6003808111156139fa576139f96158dc565b5b826003811115613a0d57613a0c6158dc565b5b03613a4f57806040517fd78bce0c000000000000000000000000000000000000000000000000000000008152600401613a4691906143df565b60405180910390fd5b5b5050565b60606000613a6183613ac8565b90506000602067ffffffffffffffff811115613a8057613a7f6141c5565b5b6040519080825280601f01601f191660200182016040528015613ab25781602001600182028036833780820191505090505b5090508181528360208201528092505050919050565b60008060ff8360001c169050601f811115613b0f576040517fb3512b0c00000000000000000000000000000000000000000000000000000000815260040160405180910390fd5b80915050919050565b604051806101000160405280600081526020016000815260200160608152602001606081526020016000815260200160008152602001600073ffffffffffffffffffffffffffffffffffffffff168152602001600081525090565b604051806080016040528060008152602001600073ffffffffffffffffffffffffffffffffffffffff168152602001606081526020016000151581525090565b604051806040016040528060008152602001600073ffffffffffffffffffffffffffffffffffffffff1681525090565b6000604051905090565b600080fd5b600080fd5b600073ffffffffffffffffffffffffffffffffffffffff82169050919050565b6000613c2282613bf7565b9050919050565b613c3281613c17565b8114613c3d57600080fd5b50565b600081359050613c4f81613c29565b92915050565b600060208284031215613c6b57613c6a613bed565b5b6000613c7984828501613c40565b91505092915050565b6000819050919050565b613c9581613c82565b82525050565b6000602082019050613cb06000830184613c8c565b92915050565b613cbf81613c82565b8114613cca57600080fd5b50565b600081359050613cdc81613cb6565b92915050565b600060208284031215613cf857613cf7613bed565b5b6000613d0684828501613ccd565b91505092915050565b600081519050919050565b600082825260208201905092915050565b60005b83811015613d49578082015181840152602081019050613d2e565b60008484015250505050565b6000601f19601f8301169050919050565b6000613d7182613d0f565b613d7b8185613d1a565b9350613d8b818560208601613d2b565b613d9481613d55565b840191505092915050565b613da881613c17565b82525050565b600061010082019050613dc4600083018b613c8c565b613dd1602083018a613c8c565b8181036040830152613de38189613d66565b90508181036060830152613df78188613d66565b9050613e066080830187613c8c565b613e1360a0830186613c8c565b613e2060c0830185613d9f565b613e2d60e0830184613c8c565b9998505050505050505050565b60006020820190508181036000830152613e548184613d66565b905092915050565b60008060408385031215613e7357613e72613bed565b5b6000613e8185828601613c40565b9250506020613e9285828601613ccd565b9150509250929050565b60008115159050919050565b613eb181613e9c565b82525050565b6000602082019050613ecc6000830184613ea8565b92915050565b600081519050919050565b600082825260208201905092915050565b6000819050602082019050919050565b613f0781613c82565b82525050565b600082825260208201905092915050565b6000613f2982613d0f565b613f338185613f0d565b9350613f43818560208601613d2b565b613f4c81613d55565b840191505092915050565b613f6081613c17565b82525050565b600061010083016000830151613f7f6000860182613efe565b506020830151613f926020860182613efe565b5060408301518482036040860152613faa8282613f1e565b91505060608301518482036060860152613fc48282613f1e565b9150506080830151613fd96080860182613efe565b5060a0830151613fec60a0860182613efe565b5060c0830151613fff60c0860182613f57565b5060e083015161401260e0860182613efe565b508091505092915050565b60006140298383613f66565b905092915050565b6000602082019050919050565b600061404982613ed2565b6140538185613edd565b93508360208202850161406585613eee565b8060005b858110156140a15784840389528151614082858261401d565b945061408d83614031565b925060208a01995050600181019050614069565b50829750879550505050505092915050565b600060208201905081810360008301526140cd818461403e565b905092915050565b6000806000606084860312156140ee576140ed613bed565b5b60006140fc86828701613ccd565b935050602061410d86828701613ccd565b925050604061411e86828701613c40565b9150509250925092565b6000806040838503121561413f5761413e613bed565b5b600061414d85828601613ccd565b925050602061415e85828601613c40565b9150509250929050565b60008060006060848603121561418157614180613bed565b5b600061418f86828701613c40565b93505060206141a086828701613c40565b92505060406141b186828701613ccd565b9150509250925092565b600080fd5b600080fd5b7f4e487b7100000000000000000000000000000000000000000000000000000000600052604160045260246000fd5b6141fd82613d55565b810181811067ffffffffffffffff8211171561421c5761421b6141c5565b5b80604052505050565b600061422f613be3565b905061423b82826141f4565b919050565b600067ffffffffffffffff82111561425b5761425a6141c5565b5b61426482613d55565b9050602081019050919050565b82818337600083830152505050565b600061429361428e84614240565b614225565b9050828152602081018484840111156142af576142ae6141c0565b5b6142ba848285614271565b509392505050565b600082601f8301126142d7576142d66141bb565b5b81356142e7848260208601614280565b91505092915050565b6000806000806080858703121561430a57614309613bed565b5b600061431887828801613ccd565b945050602085013567ffffffffffffffff81111561433957614338613bf2565b5b614345878288016142c2565b935050604085013567ffffffffffffffff81111561436657614365613bf2565b5b614372878288016142c2565b925050606061438387828801613ccd565b91505092959194509250565b600060ff82169050919050565b6143a58161438f565b82525050565b60006020820190506143c0600083018461439c565b92915050565b6000819050919050565b6143d9816143c6565b82525050565b60006020820190506143f460008301846143d0565b92915050565b6000806040838503121561441157614410613bed565b5b600083013567ffffffffffffffff81111561442f5761442e613bf2565b5b61443b858286016142c2565b925050602061444c85828601613ccd565b9150509250929050565b600060608201905061446b6000830186613c8c565b6144786020830185613c8c565b6144856040830184613d9f565b949350505050565b60006040820190506144a26000830185613c8c565b6144af6020830184613d9f565b9392505050565b60007fff0000000000000000000000000000000000000000000000000000000000000082169050919050565b6144eb816144b6565b82525050565b600081519050919050565b600082825260208201905092915050565b6000819050602082019050919050565b60006145298383613efe565b60208301905092915050565b6000602082019050919050565b600061454d826144f1565b61455781856144fc565b93506145628361450d565b8060005b8381101561459357815161457a888261451d565b975061458583614535565b925050600181019050614566565b5085935050505092915050565b600060e0820190506145b5600083018a6144e2565b81810360208301526145c78189613d66565b905081810360408301526145db8188613d66565b90506145ea6060830187613c8c565b6145f76080830186613d9f565b61460460a08301856143d0565b81810360c08301526146168184614542565b905098975050505050505050565b600060a0820190506146396000830188613c8c565b6146466020830187613c8c565b6146536040830186613d9f565b81810360608301526146658185613d66565b905081810360808301526146798184613d66565b90509695505050505050565b600081519050919050565b600082825260208201905092915050565b6000819050602082019050919050565b6146ba81613e9c565b82525050565b60006080830160008301516146d86000860182613efe565b5060208301516146eb6020860182613f57565b50604083015184820360408601526147038282613f1e565b915050606083015161471860608601826146b1565b508091505092915050565b600061472f83836146c0565b905092915050565b6000602082019050919050565b600061474f82614685565b6147598185614690565b93508360208202850161476b856146a1565b8060005b858110156147a757848403895281516147888582614723565b945061479383614737565b925060208a0199505060018101905061476f565b50829750879550505050505092915050565b600060208201905081810360008301526147d38184614744565b905092915050565b600080604083850312156147f2576147f1613bed565b5b600061480085828601613ccd565b925050602061481185828601613ccd565b9150509250929050565b600081519050919050565b600082825260208201905092915050565b6000819050602082019050919050565b60408201600082015161485d6000850182613efe565b5060208201516148706020850182613f57565b50505050565b60006148828383614847565b60408301905092915050565b6000602082019050919050565b60006148a68261481b565b6148b08185614826565b93506148bb83614837565b8060005b838110156148ec5781516148d38882614876565b97506148de8361488e565b9250506001810190506148bf565b5085935050505092915050565b60006020820190508181036000830152614913818461489b565b905092915050565b600060a0820190506149306000830188613c8c565b61493d6020830187613c8c565b61494a6040830186613c8c565b6149576060830185613c8c565b6149646080830184613c8c565b9695505050505050565b60006080820190506149836000830187613c8c565b6149906020830186613d9f565b81810360408301526149a28185613d66565b90506149b16060830184613c8c565b95945050505050565b60006080820190506149cf6000830187613c8c565b6149dc6020830186613d9f565b81810360408301526149ee8185613d66565b90506149fd6060830184613ea8565b95945050505050565b60008060408385031215614a1d57614a1c613bed565b5b6000614a2b85828601613ccd565b925050602083013567ffffffffffffffff811115614a4c57614a4b613bf2565b5b614a58858286016142c2565b9150509250929050565b614a6b8161438f565b8114614a7657600080fd5b50565b600081359050614a8881614a62565b92915050565b614a97816143c6565b8114614aa257600080fd5b50565b600081359050614ab481614a8e565b92915050565b600080600080600080600060e0888a031215614ad957614ad8613bed565b5b6000614ae78a828b01613c40565b9750506020614af88a828b01613c40565b9650506040614b098a828b01613ccd565b9550506060614b1a8a828b01613ccd565b9450506080614b2b8a828b01614a79565b93505060a0614b3c8a828b01614aa5565b92505060c0614b4d8a828b01614aa5565b91505092959891949750929550565b60008060408385031215614b7357614b72613bed565b5b6000614b8185828601613c40565b9250506020614b9285828601613c40565b9150509250929050565b7f4e487b7100000000000000000000000000000000000000000000000000000000600052602260045260246000fd5b60006002820490506001821680614be357607f821691505b602082108103614bf657614bf5614b9c565b5b50919050565b7f4e487b7100000000000000000000000000000000000000000000000000000000600052601160045260246000fd5b6000614c3682613c82565b91507fffffffffffffffffffffffffffffffffffffffffffffffffffffffffffffffff8203614c6857614c67614bfc565b5b600182019050919050565b7f4e487b7100000000000000000000000000000000000000000000000000000000600052603260045260246000fd5b7f4f6e6c79206d61696e7461696e6572732063616e20766f7465206f6e206e6f6d60008201527f696e6174696f6e73000000000000000000000000000000000000000000000000602082015250565b6000614cfe602883613d1a565b9150614d0982614ca2565b604082019050919050565b60006020820190508181036000830152614d2d81614cf1565b9050919050565b7f4d61696e7461696e65722068617320616c726561647920766f746564206f6e2060008201527f7468697320697373756500000000000000000000000000000000000000000000602082015250565b6000614d90602a83613d1a565b9150614d9b82614d34565b604082019050919050565b60006020820190508181036000830152614dbf81614d83565b9050919050565b7f4d61696e7461696e6572206d757374206861766520746f6b656e7320746f207660008201527f6f74650000000000000000000000000000000000000000000000000000000000602082015250565b6000614e22602383613d1a565b9150614e2d82614dc6565b604082019050919050565b60006020820190508181036000830152614e5181614e15565b9050919050565b6000614e6382613c82565b9150614e6e83613c82565b9250828201905080821115614e8657614e85614bfc565b5b92915050565b60008190508160005260206000209050919050565b60006020601f8301049050919050565b600082821b905092915050565b600060088302614eee7fffffffffffffffffffffffffffffffffffffffffffffffffffffffffffffffff82614eb1565b614ef88683614eb1565b95508019841693508086168417925050509392505050565b6000819050919050565b6000614f35614f30614f2b84613c82565b614f10565b613c82565b9050919050565b6000819050919050565b614f4f83614f1a565b614f63614f5b82614f3c565b848454614ebe565b825550505050565b600090565b614f78614f6b565b614f83818484614f46565b505050565b5b81811015614fa757614f9c600082614f70565b600181019050614f89565b5050565b601f821115614fec57614fbd81614e8c565b614fc684614ea1565b81016020851015614fd5578190505b614fe9614fe185614ea1565b830182614f88565b50505b505050565b600082821c905092915050565b600061500f60001984600802614ff1565b1980831691505092915050565b60006150288383614ffe565b9150826002028217905092915050565b61504182613d0f565b67ffffffffffffffff81111561505a576150596141c5565b5b6150648254614bcb565b61506f828285614fab565b600060209050601f8311600181146150a25760008415615090578287015190505b61509a858261501c565b865550615102565b601f1984166150b086614e8c565b60005b828110156150d8578489015182556001820191506020850194506020810190506150b3565b868310156150f557848901516150f1601f891682614ffe565b8355505b6001600288020188555050505b505050505050565b7f4e6f6d696e6565206e6f7420666f756e64000000000000000000000000000000600082015250565b6000615140601183613d1a565b915061514b8261510a565b602082019050919050565b6000602082019050818103600083015261516f81615133565b9050919050565b600061518182613c82565b915061518c83613c82565b92508282039050818111156151a4576151a3614bfc565b5b92915050565b7f4f6e6c79206d61696e7461696e6572732063616e20637265617465206973737560008201527f6573000000000000000000000000000000000000000000000000000000000000602082015250565b6000615206602283613d1a565b9150615211826151aa565b604082019050919050565b60006020820190508181036000830152615235816151f9565b9050919050565b7f4973737565206d757374206265206d61726b6564206173207265736f6c76656460008201527f206265666f726520726577617264696e672e0000000000000000000000000000602082015250565b6000615298603283613d1a565b91506152a38261523c565b604082019050919050565b600060208201905081810360008301526152c78161528b565b9050919050565b60006152d982613c82565b91506152e483613c82565b92508282026152f281613c82565b9150828204841483151761530957615308614bfc565b5b5092915050565b7f4e6f20636f6e7472696275746f722061737369676e656420746f20746865206960008201527f737375652e000000000000000000000000000000000000000000000000000000602082015250565b600061536c602583613d1a565b915061537782615310565b604082019050919050565b6000602082019050818103600083015261539b8161535f565b9050919050565b7f496e73756666696369656e7420746f6b656e7320746f207265776172642e0000600082015250565b60006153d8601e83613d1a565b91506153e3826153a2565b602082019050919050565b60006020820190508181036000830152615407816153cb565b9050919050565b7f546f74616c20737570706c79206d75737420626520677265617465722074686160008201527f6e207a65726f0000000000000000000000000000000000000000000000000000602082015250565b600061546a602683613d1a565b91506154758261540e565b604082019050919050565b600060208201905081810360008301526154998161545d565b9050919050565b7f4e487b7100000000000000000000000000000000000000000000000000000000600052601260045260246000fd5b60006154da82613c82565b91506154e583613c82565b9250826154f5576154f46154a0565b5b828204905092915050565b7f4f6e6c79206f7267616e697a65722063616e2061646420746865206d61696e7460008201527f61696e6572000000000000000000000000000000000000000000000000000000602082015250565b600061555c602583613d1a565b915061556782615500565b604082019050919050565b6000602082019050818103600083015261558b8161554f565b9050919050565b7f4e6f7420656e6f75676820746f6b656e7320696e2044414f20737570706c7900600082015250565b60006155c8601f83613d1a565b91506155d382615592565b602082019050919050565b600060208201905081810360008301526155f7816155bb565b9050919050565b7f496e76616c6964206973737565207374617475732076616c7565000000000000600082015250565b6000615634601a83613d1a565b915061563f826155fe565b602082019050919050565b6000602082019050818103600083015261566381615627565b9050919050565b7f4973737565206973206e6f74206f70656e000000000000000000000000000000600082015250565b60006156a0601183613d1a565b91506156ab8261566a565b602082019050919050565b600060208201905081810360008301526156cf81615693565b9050919050565b7f4e6f2077696e6e657220666f756e6420666f722069737375652061737369676e60008201527f6d656e7400000000000000000000000000000000000000000000000000000000602082015250565b6000615732602483613d1a565b915061573d826156d6565b604082019050919050565b6000602082019050818103600083015261576181615725565b9050919050565b600060c08201905061577d60008301896143d0565b61578a6020830188613d9f565b6157976040830187613d9f565b6157a46060830186613c8c565b6157b16080830185613c8c565b6157be60a0830184613c8c565b979650505050505050565b60006040820190506157de6000830185613d9f565b6157eb6020830184613d9f565b9392505050565b60006060820190506158076000830186613d9f565b6158146020830185613c8c565b6158216040830184613c8c565b949350505050565b600060208201905061583e6000830184613d9f565b92915050565b600060a08201905061585960008301886143d0565b61586660208301876143d0565b61587360408301866143d0565b6158806060830185613c8c565b61588d6080830184613d9f565b9695505050505050565b60006080820190506158ac60008301876143d0565b6158b9602083018661439c565b6158c660408301856143d0565b6158d360608301846143d0565b95945050505050565b7f4e487b7100000000000000000000000000000000000000000000000000000000600052602160045260246000fdfea26469706673582212200f45766141a609984abf1547799d7865c03089b139b751fb607d16b21ce8e40e64736f6c63430008140033",
  "linkReferences": {},
  "deployedLinkReferences": {}
}