{
  "_format": "hh-sol-artifact-1",
  "contractName": "newone",
  "sourceName": "contracts/SBT_token.sol",
  "abi": [
    {
      "inputs": [
        {
          "internalType": "address",
          "name": "initialOwner",
          "type": "address"
        }
      ],
      "stateMutability": "nonpayable",
      "type": "constructor"
    },
    {
      "inputs": [
        {
          "internalType": "address",
          "name": "sender",
          "type": "address"
        },
        {
          "internalType": "uint256",
          "name": "tokenId",
          "type": "uint256"
        },
        {
          "internalType": "address",
          "name": "owner",
          "type": "address"
        }
      ],
      "name": "ERC721IncorrectOwner",
      "type": "error"
    },
    {
      "inputs": [
        {
          "internalType": "address",
          "name": "operator",
          "type": "address"
        },
        {
          "internalType": "uint256",
          "name": "tokenId",
          "type": "uint256"
        }
      ],
      "name": "ERC721InsufficientApproval",
      "type": "error"
    },
    {
      "inputs": [
        {
          "internalType": "address",
          "name": "approver",
          "type": "address"
        }
      ],
      "name": "ERC721InvalidApprover",
      "type": "error"
    },
    {
      "inputs": [
        {
          "internalType": "address",
          "name": "operator",
          "type": "address"
        }
      ],
      "name": "ERC721InvalidOperator",
      "type": "error"
    },
    {
      "inputs": [
        {
          "internalType": "address",
          "name": "owner",
          "type": "address"
        }
      ],
      "name": "ERC721InvalidOwner",
      "type": "error"
    },
    {
      "inputs": [
        {
          "internalType": "address",
          "name": "receiver",
          "type": "address"
        }
      ],
      "name": "ERC721InvalidReceiver",
      "type": "error"
    },
    {
      "inputs": [
        {
          "internalType": "address",
          "name": "sender",
          "type": "address"
        }
      ],
      "name": "ERC721InvalidSender",
      "type": "error"
    },
    {
      "inputs": [
        {
          "internalType": "uint256",
          "name": "tokenId",
          "type": "uint256"
        }
      ],
      "name": "ERC721NonexistentToken",
      "type": "error"
    },
    {
      "inputs": [
        {
          "internalType": "address",
          "name": "owner",
          "type": "address"
        }
      ],
      "name": "OwnableInvalidOwner",
      "type": "error"
    },
    {
      "inputs": [
        {
          "internalType": "address",
          "name": "account",
          "type": "address"
        }
      ],
      "name": "OwnableUnauthorizedAccount",
      "type": "error"
    },
    {
      "anonymous": false,
      "inputs": [
        {
          "indexed": true,
          "internalType": "address",
          "name": "owner",
          "type": "address"
        },
        {
          "indexed": true,
          "internalType": "address",
          "name": "approved",
          "type": "address"
        },
        {
          "indexed": true,
          "internalType": "uint256",
          "name": "tokenId",
          "type": "uint256"
        }
      ],
      "name": "Approval",
      "type": "event"
    },
    {
      "anonymous": false,
      "inputs": [
        {
          "indexed": true,
          "internalType": "address",
          "name": "owner",
          "type": "address"
        },
        {
          "indexed": true,
          "internalType": "address",
          "name": "operator",
          "type": "address"
        },
        {
          "indexed": false,
          "internalType": "bool",
          "name": "approved",
          "type": "bool"
        }
      ],
      "name": "ApprovalForAll",
      "type": "event"
    },
    {
      "anonymous": false,
      "inputs": [
        {
          "indexed": true,
          "internalType": "address",
          "name": "previousOwner",
          "type": "address"
        },
        {
          "indexed": true,
          "internalType": "address",
          "name": "newOwner",
          "type": "address"
        }
      ],
      "name": "OwnershipTransferred",
      "type": "event"
    },
    {
      "anonymous": false,
      "inputs": [
        {
          "indexed": true,
          "internalType": "address",
          "name": "from",
          "type": "address"
        },
        {
          "indexed": true,
          "internalType": "address",
          "name": "to",
          "type": "address"
        },
        {
          "indexed": true,
          "internalType": "uint256",
          "name": "tokenId",
          "type": "uint256"
        }
      ],
      "name": "Transfer",
      "type": "event"
    },
    {
      "inputs": [
        {
          "internalType": "address",
          "name": "",
          "type": "address"
        }
      ],
      "name": "_githubAccessToken",
      "outputs": [
        {
          "internalType": "string",
          "name": "",
          "type": "string"
        }
      ],
      "stateMutability": "view",
      "type": "function"
    },
    {
      "inputs": [
        {
          "internalType": "string",
          "name": "",
          "type": "string"
        }
      ],
      "name": "_githubUsernameTaken",
      "outputs": [
        {
          "internalType": "bool",
          "name": "",
          "type": "bool"
        }
      ],
      "stateMutability": "view",
      "type": "function"
    },
    {
      "inputs": [
        {
          "internalType": "address",
          "name": "",
          "type": "address"
        }
      ],
      "name": "_githubUsernames",
      "outputs": [
        {
          "internalType": "string",
          "name": "",
          "type": "string"
        }
      ],
      "stateMutability": "view",
      "type": "function"
    },
    {
      "inputs": [
        {
          "internalType": "uint256",
          "name": "",
          "type": "uint256"
        }
      ],
      "name": "_tokenRoles",
      "outputs": [
        {
          "internalType": "enum newone.Role",
          "name": "",
          "type": "uint8"
        }
      ],
      "stateMutability": "view",
      "type": "function"
    },
    {
      "inputs": [
        {
          "internalType": "address",
          "name": "",
          "type": "address"
        }
      ],
      "name": "_walletHasToken",
      "outputs": [
        {
          "internalType": "bool",
          "name": "",
          "type": "bool"
        }
      ],
      "stateMutability": "view",
      "type": "function"
    },
    {
      "inputs": [
        {
          "internalType": "address",
          "name": "to",
          "type": "address"
        },
        {
          "internalType": "uint256",
          "name": "tokenId",
          "type": "uint256"
        }
      ],
      "name": "approve",
      "outputs": [],
      "stateMutability": "nonpayable",
      "type": "function"
    },
    {
      "inputs": [
        {
          "internalType": "address",
          "name": "owner",
          "type": "address"
        }
      ],
      "name": "balanceOf",
      "outputs": [
        {
          "internalType": "uint256",
          "name": "",
          "type": "uint256"
        }
      ],
      "stateMutability": "view",
      "type": "function"
    },
    {
      "inputs": [
        {
          "internalType": "uint256",
          "name": "tokenId",
          "type": "uint256"
        }
      ],
      "name": "burn",
      "outputs": [],
      "stateMutability": "nonpayable",
      "type": "function"
    },
    {
      "inputs": [
        {
          "internalType": "uint256",
          "name": "tokenId",
          "type": "uint256"
        }
      ],
      "name": "getApproved",
      "outputs": [
        {
          "internalType": "address",
          "name": "",
          "type": "address"
        }
      ],
      "stateMutability": "view",
      "type": "function"
    },
    {
      "inputs": [
        {
          "internalType": "address",
          "name": "wallet",
          "type": "address"
        }
      ],
      "name": "getGitHubAccessToken",
      "outputs": [
        {
          "internalType": "string",
          "name": "",
          "type": "string"
        }
      ],
      "stateMutability": "view",
      "type": "function"
    },
    {
      "inputs": [
        {
          "internalType": "address",
          "name": "wallet",
          "type": "address"
        }
      ],
      "name": "getGitHubUsername",
      "outputs": [
        {
          "internalType": "string",
          "name": "",
          "type": "string"
        }
      ],
      "stateMutability": "view",
      "type": "function"
    },
    {
      "inputs": [
        {
          "internalType": "uint256",
          "name": "tokenId",
          "type": "uint256"
        }
      ],
      "name": "getRole",
      "outputs": [
        {
          "internalType": "enum newone.Role",
          "name": "",
          "type": "uint8"
        }
      ],
      "stateMutability": "view",
      "type": "function"
    },
    {
      "inputs": [
        {
          "internalType": "address",
          "name": "owner",
          "type": "address"
        },
        {
          "internalType": "address",
          "name": "operator",
          "type": "address"
        }
      ],
      "name": "isApprovedForAll",
      "outputs": [
        {
          "internalType": "bool",
          "name": "",
          "type": "bool"
        }
      ],
      "stateMutability": "view",
      "type": "function"
    },
    {
      "inputs": [],
      "name": "name",
      "outputs": [
        {
          "internalType": "string",
          "name": "",
          "type": "string"
        }
      ],
      "stateMutability": "view",
      "type": "function"
    },
    {
      "inputs": [],
      "name": "owner",
      "outputs": [
        {
          "internalType": "address",
          "name": "",
          "type": "address"
        }
      ],
      "stateMutability": "view",
      "type": "function"
    },
    {
      "inputs": [
        {
          "internalType": "uint256",
          "name": "tokenId",
          "type": "uint256"
        }
      ],
      "name": "ownerOf",
      "outputs": [
        {
          "internalType": "address",
          "name": "",
          "type": "address"
        }
      ],
      "stateMutability": "view",
      "type": "function"
    },
    {
      "inputs": [],
      "name": "renounceOwnership",
      "outputs": [],
      "stateMutability": "nonpayable",
      "type": "function"
    },
    {
      "inputs": [
        {
          "internalType": "address",
          "name": "to",
          "type": "address"
        },
        {
          "internalType": "enum newone.Role",
          "name": "role",
          "type": "uint8"
        },
        {
          "internalType": "string",
          "name": "githubUsername",
          "type": "string"
        },
        {
          "internalType": "string",
          "name": "accessToken",
          "type": "string"
        }
      ],
      "name": "safeMint",
      "outputs": [],
      "stateMutability": "nonpayable",
      "type": "function"
    },
    {
      "inputs": [
        {
          "internalType": "address",
          "name": "from",
          "type": "address"
        },
        {
          "internalType": "address",
          "name": "to",
          "type": "address"
        },
        {
          "internalType": "uint256",
          "name": "tokenId",
          "type": "uint256"
        }
      ],
      "name": "safeTransferFrom",
      "outputs": [],
      "stateMutability": "nonpayable",
      "type": "function"
    },
    {
      "inputs": [
        {
          "internalType": "address",
          "name": "from",
          "type": "address"
        },
        {
          "internalType": "address",
          "name": "to",
          "type": "address"
        },
        {
          "internalType": "uint256",
          "name": "tokenId",
          "type": "uint256"
        },
        {
          "internalType": "bytes",
          "name": "data",
          "type": "bytes"
        }
      ],
      "name": "safeTransferFrom",
      "outputs": [],
      "stateMutability": "nonpayable",
      "type": "function"
    },
    {
      "inputs": [
        {
          "internalType": "address",
          "name": "operator",
          "type": "address"
        },
        {
          "internalType": "bool",
          "name": "approved",
          "type": "bool"
        }
      ],
      "name": "setApprovalForAll",
      "outputs": [],
      "stateMutability": "nonpayable",
      "type": "function"
    },
    {
      "inputs": [
        {
          "internalType": "bytes4",
          "name": "interfaceId",
          "type": "bytes4"
        }
      ],
      "name": "supportsInterface",
      "outputs": [
        {
          "internalType": "bool",
          "name": "",
          "type": "bool"
        }
      ],
      "stateMutability": "view",
      "type": "function"
    },
    {
      "inputs": [],
      "name": "symbol",
      "outputs": [
        {
          "internalType": "string",
          "name": "",
          "type": "string"
        }
      ],
      "stateMutability": "view",
      "type": "function"
    },
    {
      "inputs": [
        {
          "internalType": "uint256",
          "name": "tokenId",
          "type": "uint256"
        }
      ],
      "name": "tokenURI",
      "outputs": [
        {
          "internalType": "string",
          "name": "",
          "type": "string"
        }
      ],
      "stateMutability": "view",
      "type": "function"
    },
    {
      "inputs": [
        {
          "internalType": "address",
          "name": "from",
          "type": "address"
        },
        {
          "internalType": "address",
          "name": "to",
          "type": "address"
        },
        {
          "internalType": "uint256",
          "name": "tokenId",
          "type": "uint256"
        }
      ],
      "name": "transferFrom",
      "outputs": [],
      "stateMutability": "nonpayable",
      "type": "function"
    },
    {
      "inputs": [
        {
          "internalType": "address",
          "name": "newOwner",
          "type": "address"
        }
      ],
      "name": "transferOwnership",
      "outputs": [],
      "stateMutability": "nonpayable",
      "type": "function"
    }
  ],
  "bytecode": "0x60806040523480156200001157600080fd5b506040516200389638038062003896833981810160405281019062000037919062000288565b806040518060400160405280600e81526020017f536f756c426f756e64546f6b656e0000000000000000000000000000000000008152506040518060400160405280600381526020017f53425400000000000000000000000000000000000000000000000000000000008152508160009081620000b5919062000534565b508060019081620000c7919062000534565b505050600073ffffffffffffffffffffffffffffffffffffffff168173ffffffffffffffffffffffffffffffffffffffff16036200013f5760006040517f1e4fbdf70000000000000000000000000000000000000000000000000000000081526004016200013691906200062c565b60405180910390fd5b62000150816200015860201b60201c565b505062000649565b6000600660009054906101000a900473ffffffffffffffffffffffffffffffffffffffff16905081600660006101000a81548173ffffffffffffffffffffffffffffffffffffffff021916908373ffffffffffffffffffffffffffffffffffffffff1602179055508173ffffffffffffffffffffffffffffffffffffffff168173ffffffffffffffffffffffffffffffffffffffff167f8be0079c531659141344cd1fd0a4f28419497f9722a3daafe3b4186f6b6457e060405160405180910390a35050565b600080fd5b600073ffffffffffffffffffffffffffffffffffffffff82169050919050565b6000620002508262000223565b9050919050565b620002628162000243565b81146200026e57600080fd5b50565b600081519050620002828162000257565b92915050565b600060208284031215620002a157620002a06200021e565b5b6000620002b18482850162000271565b91505092915050565b600081519050919050565b7f4e487b7100000000000000000000000000000000000000000000000000000000600052604160045260246000fd5b7f4e487b7100000000000000000000000000000000000000000000000000000000600052602260045260246000fd5b600060028204905060018216806200033c57607f821691505b602082108103620003525762000351620002f4565b5b50919050565b60008190508160005260206000209050919050565b60006020601f8301049050919050565b600082821b905092915050565b600060088302620003bc7fffffffffffffffffffffffffffffffffffffffffffffffffffffffffffffffff826200037d565b620003c886836200037d565b95508019841693508086168417925050509392505050565b6000819050919050565b6000819050919050565b6000620004156200040f6200040984620003e0565b620003ea565b620003e0565b9050919050565b6000819050919050565b6200043183620003f4565b6200044962000440826200041c565b8484546200038a565b825550505050565b600090565b6200046062000451565b6200046d81848462000426565b505050565b5b8181101562000495576200048960008262000456565b60018101905062000473565b5050565b601f821115620004e457620004ae8162000358565b620004b9846200036d565b81016020851015620004c9578190505b620004e1620004d8856200036d565b83018262000472565b50505b505050565b600082821c905092915050565b60006200050960001984600802620004e9565b1980831691505092915050565b6000620005248383620004f6565b9150826002028217905092915050565b6200053f82620002ba565b67ffffffffffffffff8111156200055b576200055a620002c5565b5b62000567825462000323565b6200057482828562000499565b600060209050601f831160018114620005ac576000841562000597578287015190505b620005a3858262000516565b86555062000613565b601f198416620005bc8662000358565b60005b82811015620005e657848901518255600182019150602085019450602081019050620005bf565b8683101562000606578489015162000602601f891682620004f6565b8355505b6001600288020188555050505b505050505050565b620006268162000243565b82525050565b60006020820190506200064360008301846200061b565b92915050565b61323d80620006596000396000f3fe608060405234801561001057600080fd5b506004361061018e5760003560e01c8063715018a6116100de578063b88d4fde11610097578063cdfa2a5f11610071578063cdfa2a5f146104cb578063dfd90b64146104fb578063e985e9c51461052b578063f2fde38b1461055b5761018e565b8063b88d4fde1461044f578063c81fb9eb1461046b578063c87b56dd1461049b5761018e565b8063715018a61461038d5780637bcc46d414610397578063853be6d2146103c75780638da5cb5b146103f757806395d89b4114610415578063a22cb465146104335761018e565b8063319743891161014b57806352c0b5db1161012557806352c0b5db146102cd5780635312fdc2146102fd5780636352211e1461032d57806370a082311461035d5761018e565b8063319743891461027957806342842e0e1461029557806342966c68146102b15761018e565b806301ffc9a71461019357806306fdde03146101c3578063081812fc146101e1578063095ea7b31461021157806323b872dd1461022d57806330e3564714610249575b600080fd5b6101ad60048036038101906101a89190612353565b610577565b6040516101ba919061239b565b60405180910390f35b6101cb610659565b6040516101d89190612446565b60405180910390f35b6101fb60048036038101906101f6919061249e565b6106eb565b604051610208919061250c565b60405180910390f35b61022b60048036038101906102269190612553565b610707565b005b61024760048036038101906102429190612593565b61071d565b005b610263600480360381019061025e91906125e6565b61081f565b6040516102709190612446565b60405180910390f35b610293600480360381019061028e919061276d565b6108bf565b005b6102af60048036038101906102aa9190612593565b610b92565b005b6102cb60048036038101906102c6919061249e565b610bb2565b005b6102e760048036038101906102e291906125e6565b610d08565b6040516102f49190612446565b60405180910390f35b6103176004803603810190610312919061249e565b610da8565b6040516103249190612883565b60405180910390f35b6103476004803603810190610342919061249e565b610dd2565b604051610354919061250c565b60405180910390f35b610377600480360381019061037291906125e6565b610de4565b60405161038491906128ad565b60405180910390f35b610395610e9e565b005b6103b160048036038101906103ac91906125e6565b610eb2565b6040516103be9190612446565b60405180910390f35b6103e160048036038101906103dc91906128c8565b610f83565b6040516103ee919061239b565b60405180910390f35b6103ff610fb9565b60405161040c919061250c565b60405180910390f35b61041d610fe3565b60405161042a9190612446565b60405180910390f35b61044d6004803603810190610448919061293d565b611075565b005b61046960048036038101906104649190612a1e565b61108b565b005b610485600480360381019061048091906125e6565b6110a8565b604051610492919061239b565b60405180910390f35b6104b560048036038101906104b0919061249e565b6110c8565b6040516104c29190612446565b60405180910390f35b6104e560048036038101906104e091906125e6565b611131565b6040516104f29190612446565b60405180910390f35b6105156004803603810190610510919061249e565b611202565b6040516105229190612883565b60405180910390f35b61054560048036038101906105409190612aa1565b611222565b604051610552919061239b565b60405180910390f35b610575600480360381019061057091906125e6565b6112b6565b005b60007f80ac58cd000000000000000000000000000000000000000000000000000000007bffffffffffffffffffffffffffffffffffffffffffffffffffffffff1916827bffffffffffffffffffffffffffffffffffffffffffffffffffffffff1916148061064257507f5b5e139f000000000000000000000000000000000000000000000000000000007bffffffffffffffffffffffffffffffffffffffffffffffffffffffff1916827bffffffffffffffffffffffffffffffffffffffffffffffffffffffff1916145b8061065257506106518261133c565b5b9050919050565b60606000805461066890612b10565b80601f016020809104026020016040519081016040528092919081815260200182805461069490612b10565b80156106e15780601f106106b6576101008083540402835291602001916106e1565b820191906000526020600020905b8154815290600101906020018083116106c457829003601f168201915b5050505050905090565b60006106f6826113a6565b506107008261142e565b9050919050565b610719828261071461146b565b611473565b5050565b600073ffffffffffffffffffffffffffffffffffffffff168273ffffffffffffffffffffffffffffffffffffffff160361078f5760006040517f64a0ae92000000000000000000000000000000000000000000000000000000008152600401610786919061250c565b60405180910390fd5b60006107a3838361079e61146b565b611485565b90508373ffffffffffffffffffffffffffffffffffffffff168173ffffffffffffffffffffffffffffffffffffffff1614610819578382826040517f64283d7b00000000000000000000000000000000000000000000000000000000815260040161081093929190612b41565b60405180910390fd5b50505050565b6008602052806000526040600020600091509050805461083e90612b10565b80601f016020809104026020016040519081016040528092919081815260200182805461086a90612b10565b80156108b75780601f1061088c576101008083540402835291602001916108b7565b820191906000526020600020905b81548152906001019060200180831161089a57829003601f168201915b505050505081565b6000825111610903576040517f08c379a00000000000000000000000000000000000000000000000000000000081526004016108fa90612bc4565b60405180910390fd5b600b60008573ffffffffffffffffffffffffffffffffffffffff1673ffffffffffffffffffffffffffffffffffffffff16815260200190815260200160002060009054906101000a900460ff1615610990576040517f08c379a000000000000000000000000000000000000000000000000000000000815260040161098790612c56565b60405180910390fd5b600a826040516109a09190612cb2565b908152602001604051809103902060009054906101000a900460ff16156109fc576040517f08c379a00000000000000000000000000000000000000000000000000000000081526004016109f390612d15565b60405180910390fd5b60006007549050610a0d858261169f565b600160076000828254610a209190612d64565b9250508190555083600c600083815260200190815260200160002060006101000a81548160ff02191690836003811115610a5d57610a5c61280c565b5b021790555082600860008773ffffffffffffffffffffffffffffffffffffffff1673ffffffffffffffffffffffffffffffffffffffff1681526020019081526020016000209081610aae9190612f44565b5081600960008773ffffffffffffffffffffffffffffffffffffffff1673ffffffffffffffffffffffffffffffffffffffff1681526020019081526020016000209081610afb9190612f44565b506001600b60008773ffffffffffffffffffffffffffffffffffffffff1673ffffffffffffffffffffffffffffffffffffffff16815260200190815260200160002060006101000a81548160ff0219169083151502179055506001600a84604051610b669190612cb2565b908152602001604051809103902060006101000a81548160ff0219169083151502179055505050505050565b610bad8383836040518060200160405280600081525061108b565b505050565b610bba6116bd565b6000610bc582610dd2565b90503373ffffffffffffffffffffffffffffffffffffffff168173ffffffffffffffffffffffffffffffffffffffff1614610c35576040517f08c379a0000000000000000000000000000000000000000000000000000000008152600401610c2c90613088565b60405180910390fd5b610c3e82611744565b600c600083815260200190815260200160002060006101000a81549060ff0219169055600860008273ffffffffffffffffffffffffffffffffffffffff1673ffffffffffffffffffffffffffffffffffffffff1681526020019081526020016000206000610cac919061228a565b6000600b60008373ffffffffffffffffffffffffffffffffffffffff1673ffffffffffffffffffffffffffffffffffffffff16815260200190815260200160002060006101000a81548160ff0219169083151502179055505050565b60096020528060005260406000206000915090508054610d2790612b10565b80601f0160208091040260200160405190810160405280929190818152602001828054610d5390612b10565b8015610da05780601f10610d7557610100808354040283529160200191610da0565b820191906000526020600020905b815481529060010190602001808311610d8357829003601f168201915b505050505081565b6000600c600083815260200190815260200160002060009054906101000a900460ff169050919050565b6000610ddd826113a6565b9050919050565b60008073ffffffffffffffffffffffffffffffffffffffff168273ffffffffffffffffffffffffffffffffffffffff1603610e575760006040517f89c62b64000000000000000000000000000000000000000000000000000000008152600401610e4e919061250c565b60405180910390fd5b600360008373ffffffffffffffffffffffffffffffffffffffff1673ffffffffffffffffffffffffffffffffffffffff168152602001908152602001600020549050919050565b610ea66116bd565b610eb060006117ca565b565b6060600860008373ffffffffffffffffffffffffffffffffffffffff1673ffffffffffffffffffffffffffffffffffffffff1681526020019081526020016000208054610efe90612b10565b80601f0160208091040260200160405190810160405280929190818152602001828054610f2a90612b10565b8015610f775780601f10610f4c57610100808354040283529160200191610f77565b820191906000526020600020905b815481529060010190602001808311610f5a57829003601f168201915b50505050509050919050565b600a818051602081018201805184825260208301602085012081835280955050505050506000915054906101000a900460ff1681565b6000600660009054906101000a900473ffffffffffffffffffffffffffffffffffffffff16905090565b606060018054610ff290612b10565b80601f016020809104026020016040519081016040528092919081815260200182805461101e90612b10565b801561106b5780601f106110405761010080835404028352916020019161106b565b820191906000526020600020905b81548152906001019060200180831161104e57829003601f168201915b5050505050905090565b61108761108061146b565b8383611890565b5050565b61109684848461071d565b6110a2848484846119ff565b50505050565b600b6020528060005260406000206000915054906101000a900460ff1681565b60606110d3826113a6565b5060006110de611bb6565b905060008151116110fe5760405180602001604052806000815250611129565b8061110884611bcd565b6040516020016111199291906130a8565b6040516020818303038152906040525b915050919050565b6060600960008373ffffffffffffffffffffffffffffffffffffffff1673ffffffffffffffffffffffffffffffffffffffff168152602001908152602001600020805461117d90612b10565b80601f01602080910402602001604051908101604052809291908181526020018280546111a990612b10565b80156111f65780601f106111cb576101008083540402835291602001916111f6565b820191906000526020600020905b8154815290600101906020018083116111d957829003601f168201915b50505050509050919050565b600c6020528060005260406000206000915054906101000a900460ff1681565b6000600560008473ffffffffffffffffffffffffffffffffffffffff1673ffffffffffffffffffffffffffffffffffffffff16815260200190815260200160002060008373ffffffffffffffffffffffffffffffffffffffff1673ffffffffffffffffffffffffffffffffffffffff16815260200190815260200160002060009054906101000a900460ff16905092915050565b6112be6116bd565b600073ffffffffffffffffffffffffffffffffffffffff168173ffffffffffffffffffffffffffffffffffffffff16036113305760006040517f1e4fbdf7000000000000000000000000000000000000000000000000000000008152600401611327919061250c565b60405180910390fd5b611339816117ca565b50565b60007f01ffc9a7000000000000000000000000000000000000000000000000000000007bffffffffffffffffffffffffffffffffffffffffffffffffffffffff1916827bffffffffffffffffffffffffffffffffffffffffffffffffffffffff1916149050919050565b6000806113b283611c9b565b9050600073ffffffffffffffffffffffffffffffffffffffff168173ffffffffffffffffffffffffffffffffffffffff160361142557826040517f7e27328900000000000000000000000000000000000000000000000000000000815260040161141c91906128ad565b60405180910390fd5b80915050919050565b60006004600083815260200190815260200160002060009054906101000a900473ffffffffffffffffffffffffffffffffffffffff169050919050565b600033905090565b6114808383836001611cd8565b505050565b60008061149184611c9b565b9050600073ffffffffffffffffffffffffffffffffffffffff168373ffffffffffffffffffffffffffffffffffffffff16146114d3576114d2818486611e9d565b5b600073ffffffffffffffffffffffffffffffffffffffff168173ffffffffffffffffffffffffffffffffffffffff161461156457611515600085600080611cd8565b6001600360008373ffffffffffffffffffffffffffffffffffffffff1673ffffffffffffffffffffffffffffffffffffffff168152602001908152602001600020600082825403925050819055505b600073ffffffffffffffffffffffffffffffffffffffff168573ffffffffffffffffffffffffffffffffffffffff16146115e7576001600360008773ffffffffffffffffffffffffffffffffffffffff1673ffffffffffffffffffffffffffffffffffffffff168152602001908152602001600020600082825401925050819055505b846002600086815260200190815260200160002060006101000a81548173ffffffffffffffffffffffffffffffffffffffff021916908373ffffffffffffffffffffffffffffffffffffffff160217905550838573ffffffffffffffffffffffffffffffffffffffff168273ffffffffffffffffffffffffffffffffffffffff167fddf252ad1be2c89b69c2b068fc378daa952ba7f163c4a11628f55a4df523b3ef60405160405180910390a4809150509392505050565b6116b9828260405180602001604052806000815250611f61565b5050565b6116c561146b565b73ffffffffffffffffffffffffffffffffffffffff166116e3610fb9565b73ffffffffffffffffffffffffffffffffffffffff16146117425761170661146b565b6040517f118cdaa7000000000000000000000000000000000000000000000000000000008152600401611739919061250c565b60405180910390fd5b565b60006117536000836000611485565b9050600073ffffffffffffffffffffffffffffffffffffffff168173ffffffffffffffffffffffffffffffffffffffff16036117c657816040517f7e2732890000000000000000000000000000000000000000000000000000000081526004016117bd91906128ad565b60405180910390fd5b5050565b6000600660009054906101000a900473ffffffffffffffffffffffffffffffffffffffff16905081600660006101000a81548173ffffffffffffffffffffffffffffffffffffffff021916908373ffffffffffffffffffffffffffffffffffffffff1602179055508173ffffffffffffffffffffffffffffffffffffffff168173ffffffffffffffffffffffffffffffffffffffff167f8be0079c531659141344cd1fd0a4f28419497f9722a3daafe3b4186f6b6457e060405160405180910390a35050565b600073ffffffffffffffffffffffffffffffffffffffff168273ffffffffffffffffffffffffffffffffffffffff160361190157816040517f5b08ba180000000000000000000000000000000000000000000000000000000081526004016118f8919061250c565b60405180910390fd5b80600560008573ffffffffffffffffffffffffffffffffffffffff1673ffffffffffffffffffffffffffffffffffffffff16815260200190815260200160002060008473ffffffffffffffffffffffffffffffffffffffff1673ffffffffffffffffffffffffffffffffffffffff16815260200190815260200160002060006101000a81548160ff0219169083151502179055508173ffffffffffffffffffffffffffffffffffffffff168373ffffffffffffffffffffffffffffffffffffffff167f17307eab39ab6107e8899845ad3d59bd9653f200f220920489ca2b5937696c31836040516119f2919061239b565b60405180910390a3505050565b60008373ffffffffffffffffffffffffffffffffffffffff163b1115611bb0578273ffffffffffffffffffffffffffffffffffffffff1663150b7a02611a4361146b565b8685856040518563ffffffff1660e01b8152600401611a659493929190613121565b6020604051808303816000875af1925050508015611aa157506040513d601f19601f82011682018060405250810190611a9e9190613182565b60015b611b25573d8060008114611ad1576040519150601f19603f3d011682016040523d82523d6000602084013e611ad6565b606091505b506000815103611b1d57836040517f64a0ae92000000000000000000000000000000000000000000000000000000008152600401611b14919061250c565b60405180910390fd5b805181602001fd5b63150b7a0260e01b7bffffffffffffffffffffffffffffffffffffffffffffffffffffffff1916817bffffffffffffffffffffffffffffffffffffffffffffffffffffffff191614611bae57836040517f64a0ae92000000000000000000000000000000000000000000000000000000008152600401611ba5919061250c565b60405180910390fd5b505b50505050565b606060405180602001604052806000815250905090565b606060006001611bdc84611f7d565b01905060008167ffffffffffffffff811115611bfb57611bfa612642565b5b6040519080825280601f01601f191660200182016040528015611c2d5781602001600182028036833780820191505090505b509050600082602001820190505b600115611c90578080600190039150507f3031323334353637383961626364656600000000000000000000000000000000600a86061a8153600a8581611c8457611c836131af565b5b04945060008503611c3b575b819350505050919050565b60006002600083815260200190815260200160002060009054906101000a900473ffffffffffffffffffffffffffffffffffffffff169050919050565b8080611d115750600073ffffffffffffffffffffffffffffffffffffffff168273ffffffffffffffffffffffffffffffffffffffff1614155b15611e45576000611d21846113a6565b9050600073ffffffffffffffffffffffffffffffffffffffff168373ffffffffffffffffffffffffffffffffffffffff1614158015611d8c57508273ffffffffffffffffffffffffffffffffffffffff168173ffffffffffffffffffffffffffffffffffffffff1614155b8015611d9f5750611d9d8184611222565b155b15611de157826040517fa9fbf51f000000000000000000000000000000000000000000000000000000008152600401611dd8919061250c565b60405180910390fd5b8115611e4357838573ffffffffffffffffffffffffffffffffffffffff168273ffffffffffffffffffffffffffffffffffffffff167f8c5be1e5ebec7d5bd14f71427d1e84f3dd0314c0f7b2291e5b200ac8c7c3b92560405160405180910390a45b505b836004600085815260200190815260200160002060006101000a81548173ffffffffffffffffffffffffffffffffffffffff021916908373ffffffffffffffffffffffffffffffffffffffff16021790555050505050565b611ea88383836120d0565b611f5c57600073ffffffffffffffffffffffffffffffffffffffff168373ffffffffffffffffffffffffffffffffffffffff1603611f1d57806040517f7e273289000000000000000000000000000000000000000000000000000000008152600401611f1491906128ad565b60405180910390fd5b81816040517f177e802f000000000000000000000000000000000000000000000000000000008152600401611f539291906131de565b60405180910390fd5b505050565b611f6b8383612191565b611f7860008484846119ff565b505050565b600080600090507a184f03e93ff9f4daa797ed6e38ed64bf6a1f0100000000000000008310611fdb577a184f03e93ff9f4daa797ed6e38ed64bf6a1f0100000000000000008381611fd157611fd06131af565b5b0492506040810190505b6d04ee2d6d415b85acef81000000008310612018576d04ee2d6d415b85acef8100000000838161200e5761200d6131af565b5b0492506020810190505b662386f26fc10000831061204757662386f26fc10000838161203d5761203c6131af565b5b0492506010810190505b6305f5e1008310612070576305f5e1008381612066576120656131af565b5b0492506008810190505b612710831061209557612710838161208b5761208a6131af565b5b0492506004810190505b606483106120b857606483816120ae576120ad6131af565b5b0492506002810190505b600a83106120c7576001810190505b80915050919050565b60008073ffffffffffffffffffffffffffffffffffffffff168373ffffffffffffffffffffffffffffffffffffffff161415801561218857508273ffffffffffffffffffffffffffffffffffffffff168473ffffffffffffffffffffffffffffffffffffffff16148061214957506121488484611222565b5b8061218757508273ffffffffffffffffffffffffffffffffffffffff1661216f8361142e565b73ffffffffffffffffffffffffffffffffffffffff16145b5b90509392505050565b600073ffffffffffffffffffffffffffffffffffffffff168273ffffffffffffffffffffffffffffffffffffffff16036122035760006040517f64a0ae920000000000000000000000000000000000000000000000000000000081526004016121fa919061250c565b60405180910390fd5b600061221183836000611485565b9050600073ffffffffffffffffffffffffffffffffffffffff168173ffffffffffffffffffffffffffffffffffffffff16146122855760006040517f73c6ac6e00000000000000000000000000000000000000000000000000000000815260040161227c919061250c565b60405180910390fd5b505050565b50805461229690612b10565b6000825580601f106122a857506122c7565b601f0160209004906000526020600020908101906122c691906122ca565b5b50565b5b808211156122e35760008160009055506001016122cb565b5090565b6000604051905090565b600080fd5b600080fd5b60007fffffffff0000000000000000000000000000000000000000000000000000000082169050919050565b612330816122fb565b811461233b57600080fd5b50565b60008135905061234d81612327565b92915050565b600060208284031215612369576123686122f1565b5b60006123778482850161233e565b91505092915050565b60008115159050919050565b61239581612380565b82525050565b60006020820190506123b0600083018461238c565b92915050565b600081519050919050565b600082825260208201905092915050565b60005b838110156123f05780820151818401526020810190506123d5565b60008484015250505050565b6000601f19601f8301169050919050565b6000612418826123b6565b61242281856123c1565b93506124328185602086016123d2565b61243b816123fc565b840191505092915050565b60006020820190508181036000830152612460818461240d565b905092915050565b6000819050919050565b61247b81612468565b811461248657600080fd5b50565b60008135905061249881612472565b92915050565b6000602082840312156124b4576124b36122f1565b5b60006124c284828501612489565b91505092915050565b600073ffffffffffffffffffffffffffffffffffffffff82169050919050565b60006124f6826124cb565b9050919050565b612506816124eb565b82525050565b600060208201905061252160008301846124fd565b92915050565b612530816124eb565b811461253b57600080fd5b50565b60008135905061254d81612527565b92915050565b6000806040838503121561256a576125696122f1565b5b60006125788582860161253e565b925050602061258985828601612489565b9150509250929050565b6000806000606084860312156125ac576125ab6122f1565b5b60006125ba8682870161253e565b93505060206125cb8682870161253e565b92505060406125dc86828701612489565b9150509250925092565b6000602082840312156125fc576125fb6122f1565b5b600061260a8482850161253e565b91505092915050565b6004811061262057600080fd5b50565b60008135905061263281612613565b92915050565b600080fd5b600080fd5b7f4e487b7100000000000000000000000000000000000000000000000000000000600052604160045260246000fd5b61267a826123fc565b810181811067ffffffffffffffff8211171561269957612698612642565b5b80604052505050565b60006126ac6122e7565b90506126b88282612671565b919050565b600067ffffffffffffffff8211156126d8576126d7612642565b5b6126e1826123fc565b9050602081019050919050565b82818337600083830152505050565b600061271061270b846126bd565b6126a2565b90508281526020810184848401111561272c5761272b61263d565b5b6127378482856126ee565b509392505050565b600082601f83011261275457612753612638565b5b81356127648482602086016126fd565b91505092915050565b60008060008060808587031215612787576127866122f1565b5b60006127958782880161253e565b94505060206127a687828801612623565b935050604085013567ffffffffffffffff8111156127c7576127c66122f6565b5b6127d38782880161273f565b925050606085013567ffffffffffffffff8111156127f4576127f36122f6565b5b6128008782880161273f565b91505092959194509250565b7f4e487b7100000000000000000000000000000000000000000000000000000000600052602160045260246000fd5b6004811061284c5761284b61280c565b5b50565b600081905061285d8261283b565b919050565b600061286d8261284f565b9050919050565b61287d81612862565b82525050565b60006020820190506128986000830184612874565b92915050565b6128a781612468565b82525050565b60006020820190506128c2600083018461289e565b92915050565b6000602082840312156128de576128dd6122f1565b5b600082013567ffffffffffffffff8111156128fc576128fb6122f6565b5b6129088482850161273f565b91505092915050565b61291a81612380565b811461292557600080fd5b50565b60008135905061293781612911565b92915050565b60008060408385031215612954576129536122f1565b5b60006129628582860161253e565b925050602061297385828601612928565b9150509250929050565b600067ffffffffffffffff82111561299857612997612642565b5b6129a1826123fc565b9050602081019050919050565b60006129c16129bc8461297d565b6126a2565b9050828152602081018484840111156129dd576129dc61263d565b5b6129e88482856126ee565b509392505050565b600082601f830112612a0557612a04612638565b5b8135612a158482602086016129ae565b91505092915050565b60008060008060808587031215612a3857612a376122f1565b5b6000612a468782880161253e565b9450506020612a578782880161253e565b9350506040612a6887828801612489565b925050606085013567ffffffffffffffff811115612a8957612a886122f6565b5b612a95878288016129f0565b91505092959194509250565b60008060408385031215612ab857612ab76122f1565b5b6000612ac68582860161253e565b9250506020612ad78582860161253e565b9150509250929050565b7f4e487b7100000000000000000000000000000000000000000000000000000000600052602260045260246000fd5b60006002820490506001821680612b2857607f821691505b602082108103612b3b57612b3a612ae1565b5b50919050565b6000606082019050612b5660008301866124fd565b612b63602083018561289e565b612b7060408301846124fd565b949350505050565b7f47697448756220757365726e616d652063616e6e6f7420626520656d70747900600082015250565b6000612bae601f836123c1565b9150612bb982612b78565b602082019050919050565b60006020820190508181036000830152612bdd81612ba1565b9050919050565b7f57616c6c6574206164647265737320616c726561647920686173206120746f6b60008201527f656e000000000000000000000000000000000000000000000000000000000000602082015250565b6000612c406022836123c1565b9150612c4b82612be4565b604082019050919050565b60006020820190508181036000830152612c6f81612c33565b9050919050565b600081905092915050565b6000612c8c826123b6565b612c968185612c76565b9350612ca68185602086016123d2565b80840191505092915050565b6000612cbe8284612c81565b915081905092915050565b7f47697448756220757365726e616d6520616c72656164792074616b656e000000600082015250565b6000612cff601d836123c1565b9150612d0a82612cc9565b602082019050919050565b60006020820190508181036000830152612d2e81612cf2565b9050919050565b7f4e487b7100000000000000000000000000000000000000000000000000000000600052601160045260246000fd5b6000612d6f82612468565b9150612d7a83612468565b9250828201905080821115612d9257612d91612d35565b5b92915050565b60008190508160005260206000209050919050565b60006020601f8301049050919050565b600082821b905092915050565b600060088302612dfa7fffffffffffffffffffffffffffffffffffffffffffffffffffffffffffffffff82612dbd565b612e048683612dbd565b95508019841693508086168417925050509392505050565b6000819050919050565b6000612e41612e3c612e3784612468565b612e1c565b612468565b9050919050565b6000819050919050565b612e5b83612e26565b612e6f612e6782612e48565b848454612dca565b825550505050565b600090565b612e84612e77565b612e8f818484612e52565b505050565b5b81811015612eb357612ea8600082612e7c565b600181019050612e95565b5050565b601f821115612ef857612ec981612d98565b612ed284612dad565b81016020851015612ee1578190505b612ef5612eed85612dad565b830182612e94565b50505b505050565b600082821c905092915050565b6000612f1b60001984600802612efd565b1980831691505092915050565b6000612f348383612f0a565b9150826002028217905092915050565b612f4d826123b6565b67ffffffffffffffff811115612f6657612f65612642565b5b612f708254612b10565b612f7b828285612eb7565b600060209050601f831160018114612fae5760008415612f9c578287015190505b612fa68582612f28565b86555061300e565b601f198416612fbc86612d98565b60005b82811015612fe457848901518255600182019150602085019450602081019050612fbf565b868310156130015784890151612ffd601f891682612f0a565b8355505b6001600288020188555050505b505050505050565b7f4f6e6c7920746865206f776e6572206f662074686520746f6b656e2063616e2060008201527f6275726e2069742e000000000000000000000000000000000000000000000000602082015250565b60006130726028836123c1565b915061307d82613016565b604082019050919050565b600060208201905081810360008301526130a181613065565b9050919050565b60006130b48285612c81565b91506130c08284612c81565b91508190509392505050565b600081519050919050565b600082825260208201905092915050565b60006130f3826130cc565b6130fd81856130d7565b935061310d8185602086016123d2565b613116816123fc565b840191505092915050565b600060808201905061313660008301876124fd565b61314360208301866124fd565b613150604083018561289e565b818103606083015261316281846130e8565b905095945050505050565b60008151905061317c81612327565b92915050565b600060208284031215613198576131976122f1565b5b60006131a68482850161316d565b91505092915050565b7f4e487b7100000000000000000000000000000000000000000000000000000000600052601260045260246000fd5b60006040820190506131f360008301856124fd565b613200602083018461289e565b939250505056fea26469706673582212204a6e4e3a845530736418465f0c14f0b9899980e5dde3cf82d9fb77e319934cf264736f6c63430008140033",
  "linkReferences": {},
  "deployedLinkReferences": {}
}