{
  "_format": "hh-sol-artifact-1",
  "contractName": "newone",
  "sourceName": "contracts/SBT_token.sol",
  "abi": [
    {
      "inputs": [
        {
          "internalType": "address",
          "name": "initialOwner",
          "type": "address"
        }
      ],
      "stateMutability": "nonpayable",
      "type": "constructor"
    },
    {
      "inputs": [
        {
          "internalType": "address",
          "name": "sender",
          "type": "address"
        },
        {
          "internalType": "uint256",
          "name": "tokenId",
          "type": "uint256"
        },
        {
          "internalType": "address",
          "name": "owner",
          "type": "address"
        }
      ],
      "name": "ERC721IncorrectOwner",
      "type": "error"
    },
    {
      "inputs": [
        {
          "internalType": "address",
          "name": "operator",
          "type": "address"
        },
        {
          "internalType": "uint256",
          "name": "tokenId",
          "type": "uint256"
        }
      ],
      "name": "ERC721InsufficientApproval",
      "type": "error"
    },
    {
      "inputs": [
        {
          "internalType": "address",
          "name": "approver",
          "type": "address"
        }
      ],
      "name": "ERC721InvalidApprover",
      "type": "error"
    },
    {
      "inputs": [
        {
          "internalType": "address",
          "name": "operator",
          "type": "address"
        }
      ],
      "name": "ERC721InvalidOperator",
      "type": "error"
    },
    {
      "inputs": [
        {
          "internalType": "address",
          "name": "owner",
          "type": "address"
        }
      ],
      "name": "ERC721InvalidOwner",
      "type": "error"
    },
    {
      "inputs": [
        {
          "internalType": "address",
          "name": "receiver",
          "type": "address"
        }
      ],
      "name": "ERC721InvalidReceiver",
      "type": "error"
    },
    {
      "inputs": [
        {
          "internalType": "address",
          "name": "sender",
          "type": "address"
        }
      ],
      "name": "ERC721InvalidSender",
      "type": "error"
    },
    {
      "inputs": [
        {
          "internalType": "uint256",
          "name": "tokenId",
          "type": "uint256"
        }
      ],
      "name": "ERC721NonexistentToken",
      "type": "error"
    },
    {
      "inputs": [
        {
          "internalType": "address",
          "name": "owner",
          "type": "address"
        }
      ],
      "name": "OwnableInvalidOwner",
      "type": "error"
    },
    {
      "inputs": [
        {
          "internalType": "address",
          "name": "account",
          "type": "address"
        }
      ],
      "name": "OwnableUnauthorizedAccount",
      "type": "error"
    },
    {
      "anonymous": false,
      "inputs": [
        {
          "indexed": true,
          "internalType": "address",
          "name": "owner",
          "type": "address"
        },
        {
          "indexed": true,
          "internalType": "address",
          "name": "approved",
          "type": "address"
        },
        {
          "indexed": true,
          "internalType": "uint256",
          "name": "tokenId",
          "type": "uint256"
        }
      ],
      "name": "Approval",
      "type": "event"
    },
    {
      "anonymous": false,
      "inputs": [
        {
          "indexed": true,
          "internalType": "address",
          "name": "owner",
          "type": "address"
        },
        {
          "indexed": true,
          "internalType": "address",
          "name": "operator",
          "type": "address"
        },
        {
          "indexed": false,
          "internalType": "bool",
          "name": "approved",
          "type": "bool"
        }
      ],
      "name": "ApprovalForAll",
      "type": "event"
    },
    {
      "anonymous": false,
      "inputs": [
        {
          "indexed": true,
          "internalType": "address",
          "name": "previousOwner",
          "type": "address"
        },
        {
          "indexed": true,
          "internalType": "address",
          "name": "newOwner",
          "type": "address"
        }
      ],
      "name": "OwnershipTransferred",
      "type": "event"
    },
    {
      "anonymous": false,
      "inputs": [
        {
          "indexed": true,
          "internalType": "address",
          "name": "from",
          "type": "address"
        },
        {
          "indexed": true,
          "internalType": "address",
          "name": "to",
          "type": "address"
        },
        {
          "indexed": true,
          "internalType": "uint256",
          "name": "tokenId",
          "type": "uint256"
        }
      ],
      "name": "Transfer",
      "type": "event"
    },
    {
      "inputs": [
        {
          "internalType": "address",
          "name": "",
          "type": "address"
        }
      ],
      "name": "_githubAccessToken",
      "outputs": [
        {
          "internalType": "string",
          "name": "",
          "type": "string"
        }
      ],
      "stateMutability": "view",
      "type": "function"
    },
    {
      "inputs": [
        {
          "internalType": "string",
          "name": "",
          "type": "string"
        }
      ],
      "name": "_githubUsernameTaken",
      "outputs": [
        {
          "internalType": "bool",
          "name": "",
          "type": "bool"
        }
      ],
      "stateMutability": "view",
      "type": "function"
    },
    {
      "inputs": [
        {
          "internalType": "address",
          "name": "",
          "type": "address"
        }
      ],
      "name": "_githubUsernames",
      "outputs": [
        {
          "internalType": "string",
          "name": "",
          "type": "string"
        }
      ],
      "stateMutability": "view",
      "type": "function"
    },
    {
      "inputs": [
        {
          "internalType": "address",
          "name": "",
          "type": "address"
        }
      ],
      "name": "_tokenRoles",
      "outputs": [
        {
          "internalType": "enum newone.Role",
          "name": "",
          "type": "uint8"
        }
      ],
      "stateMutability": "view",
      "type": "function"
    },
    {
      "inputs": [
        {
          "internalType": "address",
          "name": "",
          "type": "address"
        }
      ],
      "name": "_walletHasToken",
      "outputs": [
        {
          "internalType": "bool",
          "name": "",
          "type": "bool"
        }
      ],
      "stateMutability": "view",
      "type": "function"
    },
    {
      "inputs": [
        {
          "internalType": "address",
          "name": "to",
          "type": "address"
        },
        {
          "internalType": "uint256",
          "name": "tokenId",
          "type": "uint256"
        }
      ],
      "name": "approve",
      "outputs": [],
      "stateMutability": "nonpayable",
      "type": "function"
    },
    {
      "inputs": [
        {
          "internalType": "address",
          "name": "owner",
          "type": "address"
        }
      ],
      "name": "balanceOf",
      "outputs": [
        {
          "internalType": "uint256",
          "name": "",
          "type": "uint256"
        }
      ],
      "stateMutability": "view",
      "type": "function"
    },
    {
      "inputs": [
        {
          "internalType": "uint256",
          "name": "tokenId",
          "type": "uint256"
        }
      ],
      "name": "getApproved",
      "outputs": [
        {
          "internalType": "address",
          "name": "",
          "type": "address"
        }
      ],
      "stateMutability": "view",
      "type": "function"
    },
    {
      "inputs": [
        {
          "internalType": "address",
          "name": "wallet",
          "type": "address"
        }
      ],
      "name": "getGitHubAccessToken",
      "outputs": [
        {
          "internalType": "string",
          "name": "",
          "type": "string"
        }
      ],
      "stateMutability": "view",
      "type": "function"
    },
    {
      "inputs": [
        {
          "internalType": "address",
          "name": "wallet",
          "type": "address"
        }
      ],
      "name": "getGitHubUsername",
      "outputs": [
        {
          "internalType": "string",
          "name": "",
          "type": "string"
        }
      ],
      "stateMutability": "view",
      "type": "function"
    },
    {
      "inputs": [
        {
          "internalType": "address",
          "name": "to",
          "type": "address"
        }
      ],
      "name": "getRole",
      "outputs": [
        {
          "internalType": "enum newone.Role",
          "name": "",
          "type": "uint8"
        }
      ],
      "stateMutability": "view",
      "type": "function"
    },
    {
      "inputs": [
        {
          "internalType": "address",
          "name": "owner",
          "type": "address"
        },
        {
          "internalType": "address",
          "name": "operator",
          "type": "address"
        }
      ],
      "name": "isApprovedForAll",
      "outputs": [
        {
          "internalType": "bool",
          "name": "",
          "type": "bool"
        }
      ],
      "stateMutability": "view",
      "type": "function"
    },
    {
      "inputs": [],
      "name": "name",
      "outputs": [
        {
          "internalType": "string",
          "name": "",
          "type": "string"
        }
      ],
      "stateMutability": "view",
      "type": "function"
    },
    {
      "inputs": [],
      "name": "owner",
      "outputs": [
        {
          "internalType": "address",
          "name": "",
          "type": "address"
        }
      ],
      "stateMutability": "view",
      "type": "function"
    },
    {
      "inputs": [
        {
          "internalType": "uint256",
          "name": "tokenId",
          "type": "uint256"
        }
      ],
      "name": "ownerOf",
      "outputs": [
        {
          "internalType": "address",
          "name": "",
          "type": "address"
        }
      ],
      "stateMutability": "view",
      "type": "function"
    },
    {
      "inputs": [],
      "name": "renounceOwnership",
      "outputs": [],
      "stateMutability": "nonpayable",
      "type": "function"
    },
    {
      "inputs": [
        {
          "internalType": "address",
          "name": "to",
          "type": "address"
        },
        {
          "internalType": "enum newone.Role",
          "name": "role",
          "type": "uint8"
        },
        {
          "internalType": "string",
          "name": "githubUsername",
          "type": "string"
        },
        {
          "internalType": "string",
          "name": "accessToken",
          "type": "string"
        }
      ],
      "name": "safeMint",
      "outputs": [],
      "stateMutability": "nonpayable",
      "type": "function"
    },
    {
      "inputs": [
        {
          "internalType": "address",
          "name": "from",
          "type": "address"
        },
        {
          "internalType": "address",
          "name": "to",
          "type": "address"
        },
        {
          "internalType": "uint256",
          "name": "tokenId",
          "type": "uint256"
        }
      ],
      "name": "safeTransferFrom",
      "outputs": [],
      "stateMutability": "nonpayable",
      "type": "function"
    },
    {
      "inputs": [
        {
          "internalType": "address",
          "name": "from",
          "type": "address"
        },
        {
          "internalType": "address",
          "name": "to",
          "type": "address"
        },
        {
          "internalType": "uint256",
          "name": "tokenId",
          "type": "uint256"
        },
        {
          "internalType": "bytes",
          "name": "data",
          "type": "bytes"
        }
      ],
      "name": "safeTransferFrom",
      "outputs": [],
      "stateMutability": "nonpayable",
      "type": "function"
    },
    {
      "inputs": [
        {
          "internalType": "address",
          "name": "operator",
          "type": "address"
        },
        {
          "internalType": "bool",
          "name": "approved",
          "type": "bool"
        }
      ],
      "name": "setApprovalForAll",
      "outputs": [],
      "stateMutability": "nonpayable",
      "type": "function"
    },
    {
      "inputs": [
        {
          "internalType": "bytes4",
          "name": "interfaceId",
          "type": "bytes4"
        }
      ],
      "name": "supportsInterface",
      "outputs": [
        {
          "internalType": "bool",
          "name": "",
          "type": "bool"
        }
      ],
      "stateMutability": "view",
      "type": "function"
    },
    {
      "inputs": [],
      "name": "symbol",
      "outputs": [
        {
          "internalType": "string",
          "name": "",
          "type": "string"
        }
      ],
      "stateMutability": "view",
      "type": "function"
    },
    {
      "inputs": [
        {
          "internalType": "uint256",
          "name": "tokenId",
          "type": "uint256"
        }
      ],
      "name": "tokenURI",
      "outputs": [
        {
          "internalType": "string",
          "name": "",
          "type": "string"
        }
      ],
      "stateMutability": "view",
      "type": "function"
    },
    {
      "inputs": [
        {
          "internalType": "address",
          "name": "from",
          "type": "address"
        },
        {
          "internalType": "address",
          "name": "to",
          "type": "address"
        },
        {
          "internalType": "uint256",
          "name": "tokenId",
          "type": "uint256"
        }
      ],
      "name": "transferFrom",
      "outputs": [],
      "stateMutability": "nonpayable",
      "type": "function"
    },
    {
      "inputs": [
        {
          "internalType": "address",
          "name": "newOwner",
          "type": "address"
        }
      ],
      "name": "transferOwnership",
      "outputs": [],
      "stateMutability": "nonpayable",
      "type": "function"
    }
  ],
  "bytecode": "0x60806040523480156200001157600080fd5b50604051620035ec380380620035ec833981810160405281019062000037919062000288565b806040518060400160405280600e81526020017f536f756c426f756e64546f6b656e0000000000000000000000000000000000008152506040518060400160405280600381526020017f53425400000000000000000000000000000000000000000000000000000000008152508160009081620000b5919062000534565b508060019081620000c7919062000534565b505050600073ffffffffffffffffffffffffffffffffffffffff168173ffffffffffffffffffffffffffffffffffffffff16036200013f5760006040517f1e4fbdf70000000000000000000000000000000000000000000000000000000081526004016200013691906200062c565b60405180910390fd5b62000150816200015860201b60201c565b505062000649565b6000600660009054906101000a900473ffffffffffffffffffffffffffffffffffffffff16905081600660006101000a81548173ffffffffffffffffffffffffffffffffffffffff021916908373ffffffffffffffffffffffffffffffffffffffff1602179055508173ffffffffffffffffffffffffffffffffffffffff168173ffffffffffffffffffffffffffffffffffffffff167f8be0079c531659141344cd1fd0a4f28419497f9722a3daafe3b4186f6b6457e060405160405180910390a35050565b600080fd5b600073ffffffffffffffffffffffffffffffffffffffff82169050919050565b6000620002508262000223565b9050919050565b620002628162000243565b81146200026e57600080fd5b50565b600081519050620002828162000257565b92915050565b600060208284031215620002a157620002a06200021e565b5b6000620002b18482850162000271565b91505092915050565b600081519050919050565b7f4e487b7100000000000000000000000000000000000000000000000000000000600052604160045260246000fd5b7f4e487b7100000000000000000000000000000000000000000000000000000000600052602260045260246000fd5b600060028204905060018216806200033c57607f821691505b602082108103620003525762000351620002f4565b5b50919050565b60008190508160005260206000209050919050565b60006020601f8301049050919050565b600082821b905092915050565b600060088302620003bc7fffffffffffffffffffffffffffffffffffffffffffffffffffffffffffffffff826200037d565b620003c886836200037d565b95508019841693508086168417925050509392505050565b6000819050919050565b6000819050919050565b6000620004156200040f6200040984620003e0565b620003ea565b620003e0565b9050919050565b6000819050919050565b6200043183620003f4565b6200044962000440826200041c565b8484546200038a565b825550505050565b600090565b6200046062000451565b6200046d81848462000426565b505050565b5b8181101562000495576200048960008262000456565b60018101905062000473565b5050565b601f821115620004e457620004ae8162000358565b620004b9846200036d565b81016020851015620004c9578190505b620004e1620004d8856200036d565b83018262000472565b50505b505050565b600082821c905092915050565b60006200050960001984600802620004e9565b1980831691505092915050565b6000620005248383620004f6565b9150826002028217905092915050565b6200053f82620002ba565b67ffffffffffffffff8111156200055b576200055a620002c5565b5b62000567825462000323565b6200057482828562000499565b600060209050601f831160018114620005ac576000841562000597578287015190505b620005a3858262000516565b86555062000613565b601f198416620005bc8662000358565b60005b82811015620005e657848901518255600182019150602085019450602081019050620005bf565b8683101562000606578489015162000602601f891682620004f6565b8355505b6001600288020188555050505b505050505050565b620006268162000243565b82525050565b60006020820190506200064360008301846200061b565b92915050565b612f9380620006596000396000f3fe608060405234801561001057600080fd5b50600436106101735760003560e01c8063715018a6116100de578063b88d4fde11610097578063cdfa2a5f11610071578063cdfa2a5f14610494578063e985e9c5146104c4578063f113689d146104f4578063f2fde38b1461052457610173565b8063b88d4fde14610418578063c81fb9eb14610434578063c87b56dd1461046457610173565b8063715018a6146103565780637bcc46d414610360578063853be6d2146103905780638da5cb5b146103c057806395d89b41146103de578063a22cb465146103fc57610173565b80633197438911610130578063319743891461025e57806342842e0e1461027a578063442767331461029657806352c0b5db146102c65780636352211e146102f657806370a082311461032657610173565b806301ffc9a71461017857806306fdde03146101a8578063081812fc146101c6578063095ea7b3146101f657806323b872dd1461021257806330e356471461022e575b600080fd5b610192600480360381019061018d919061213b565b610540565b60405161019f9190612183565b60405180910390f35b6101b0610622565b6040516101bd919061222e565b60405180910390f35b6101e060048036038101906101db9190612286565b6106b4565b6040516101ed91906122f4565b60405180910390f35b610210600480360381019061020b919061233b565b6106d0565b005b61022c6004803603810190610227919061237b565b6106e6565b005b610248600480360381019061024391906123ce565b6107e8565b604051610255919061222e565b60405180910390f35b61027860048036038101906102739190612555565b610888565b005b610294600480360381019061028f919061237b565b610b87565b005b6102b060048036038101906102ab91906123ce565b610ba7565b6040516102bd919061266b565b60405180910390f35b6102e060048036038101906102db91906123ce565b610bfd565b6040516102ed919061222e565b60405180910390f35b610310600480360381019061030b9190612286565b610c9d565b60405161031d91906122f4565b60405180910390f35b610340600480360381019061033b91906123ce565b610caf565b60405161034d9190612695565b60405180910390f35b61035e610d69565b005b61037a600480360381019061037591906123ce565b610d7d565b604051610387919061222e565b60405180910390f35b6103aa60048036038101906103a591906126b0565b610e4e565b6040516103b79190612183565b60405180910390f35b6103c8610e84565b6040516103d591906122f4565b60405180910390f35b6103e6610eae565b6040516103f3919061222e565b60405180910390f35b61041660048036038101906104119190612725565b610f40565b005b610432600480360381019061042d9190612806565b610f56565b005b61044e600480360381019061044991906123ce565b610f73565b60405161045b9190612183565b60405180910390f35b61047e60048036038101906104799190612286565b610f93565b60405161048b919061222e565b60405180910390f35b6104ae60048036038101906104a991906123ce565b610ffc565b6040516104bb919061222e565b60405180910390f35b6104de60048036038101906104d99190612889565b6110cd565b6040516104eb9190612183565b60405180910390f35b61050e600480360381019061050991906123ce565b611161565b60405161051b919061266b565b60405180910390f35b61053e600480360381019061053991906123ce565b611181565b005b60007f80ac58cd000000000000000000000000000000000000000000000000000000007bffffffffffffffffffffffffffffffffffffffffffffffffffffffff1916827bffffffffffffffffffffffffffffffffffffffffffffffffffffffff1916148061060b57507f5b5e139f000000000000000000000000000000000000000000000000000000007bffffffffffffffffffffffffffffffffffffffffffffffffffffffff1916827bffffffffffffffffffffffffffffffffffffffffffffffffffffffff1916145b8061061b575061061a82611207565b5b9050919050565b606060008054610631906128f8565b80601f016020809104026020016040519081016040528092919081815260200182805461065d906128f8565b80156106aa5780601f1061067f576101008083540402835291602001916106aa565b820191906000526020600020905b81548152906001019060200180831161068d57829003601f168201915b5050505050905090565b60006106bf82611271565b506106c9826112f9565b9050919050565b6106e282826106dd611336565b61133e565b5050565b600073ffffffffffffffffffffffffffffffffffffffff168273ffffffffffffffffffffffffffffffffffffffff16036107585760006040517f64a0ae9200000000000000000000000000000000000000000000000000000000815260040161074f91906122f4565b60405180910390fd5b600061076c8383610767611336565b611350565b90508373ffffffffffffffffffffffffffffffffffffffff168173ffffffffffffffffffffffffffffffffffffffff16146107e2578382826040517f64283d7b0000000000000000000000000000000000000000000000000000000081526004016107d993929190612929565b60405180910390fd5b50505050565b60086020528060005260406000206000915090508054610807906128f8565b80601f0160208091040260200160405190810160405280929190818152602001828054610833906128f8565b80156108805780601f1061085557610100808354040283529160200191610880565b820191906000526020600020905b81548152906001019060200180831161086357829003601f168201915b505050505081565b60008251116108cc576040517f08c379a00000000000000000000000000000000000000000000000000000000081526004016108c3906129ac565b60405180910390fd5b600b60008573ffffffffffffffffffffffffffffffffffffffff1673ffffffffffffffffffffffffffffffffffffffff16815260200190815260200160002060009054906101000a900460ff1615610959576040517f08c379a000000000000000000000000000000000000000000000000000000000815260040161095090612a3e565b60405180910390fd5b600a826040516109699190612a9a565b908152602001604051809103902060009054906101000a900460ff16156109c5576040517f08c379a00000000000000000000000000000000000000000000000000000000081526004016109bc90612afd565b60405180910390fd5b600060075490506109d6858261156a565b6001600760008282546109e99190612b4c565b9250508190555083600c60008773ffffffffffffffffffffffffffffffffffffffff1673ffffffffffffffffffffffffffffffffffffffff16815260200190815260200160002060006101000a81548160ff02191690836003811115610a5257610a516125f4565b5b021790555082600860008773ffffffffffffffffffffffffffffffffffffffff1673ffffffffffffffffffffffffffffffffffffffff1681526020019081526020016000209081610aa39190612d2c565b5081600960008773ffffffffffffffffffffffffffffffffffffffff1673ffffffffffffffffffffffffffffffffffffffff1681526020019081526020016000209081610af09190612d2c565b506001600b60008773ffffffffffffffffffffffffffffffffffffffff1673ffffffffffffffffffffffffffffffffffffffff16815260200190815260200160002060006101000a81548160ff0219169083151502179055506001600a84604051610b5b9190612a9a565b908152602001604051809103902060006101000a81548160ff0219169083151502179055505050505050565b610ba283838360405180602001604052806000815250610f56565b505050565b6000600c60008373ffffffffffffffffffffffffffffffffffffffff1673ffffffffffffffffffffffffffffffffffffffff16815260200190815260200160002060009054906101000a900460ff169050919050565b60096020528060005260406000206000915090508054610c1c906128f8565b80601f0160208091040260200160405190810160405280929190818152602001828054610c48906128f8565b8015610c955780601f10610c6a57610100808354040283529160200191610c95565b820191906000526020600020905b815481529060010190602001808311610c7857829003601f168201915b505050505081565b6000610ca882611271565b9050919050565b60008073ffffffffffffffffffffffffffffffffffffffff168273ffffffffffffffffffffffffffffffffffffffff1603610d225760006040517f89c62b64000000000000000000000000000000000000000000000000000000008152600401610d1991906122f4565b60405180910390fd5b600360008373ffffffffffffffffffffffffffffffffffffffff1673ffffffffffffffffffffffffffffffffffffffff168152602001908152602001600020549050919050565b610d71611588565b610d7b600061160f565b565b6060600860008373ffffffffffffffffffffffffffffffffffffffff1673ffffffffffffffffffffffffffffffffffffffff1681526020019081526020016000208054610dc9906128f8565b80601f0160208091040260200160405190810160405280929190818152602001828054610df5906128f8565b8015610e425780601f10610e1757610100808354040283529160200191610e42565b820191906000526020600020905b815481529060010190602001808311610e2557829003601f168201915b50505050509050919050565b600a818051602081018201805184825260208301602085012081835280955050505050506000915054906101000a900460ff1681565b6000600660009054906101000a900473ffffffffffffffffffffffffffffffffffffffff16905090565b606060018054610ebd906128f8565b80601f0160208091040260200160405190810160405280929190818152602001828054610ee9906128f8565b8015610f365780601f10610f0b57610100808354040283529160200191610f36565b820191906000526020600020905b815481529060010190602001808311610f1957829003601f168201915b5050505050905090565b610f52610f4b611336565b83836116d5565b5050565b610f618484846106e6565b610f6d84848484611844565b50505050565b600b6020528060005260406000206000915054906101000a900460ff1681565b6060610f9e82611271565b506000610fa96119fb565b90506000815111610fc95760405180602001604052806000815250610ff4565b80610fd384611a12565b604051602001610fe4929190612dfe565b6040516020818303038152906040525b915050919050565b6060600960008373ffffffffffffffffffffffffffffffffffffffff1673ffffffffffffffffffffffffffffffffffffffff1681526020019081526020016000208054611048906128f8565b80601f0160208091040260200160405190810160405280929190818152602001828054611074906128f8565b80156110c15780601f10611096576101008083540402835291602001916110c1565b820191906000526020600020905b8154815290600101906020018083116110a457829003601f168201915b50505050509050919050565b6000600560008473ffffffffffffffffffffffffffffffffffffffff1673ffffffffffffffffffffffffffffffffffffffff16815260200190815260200160002060008373ffffffffffffffffffffffffffffffffffffffff1673ffffffffffffffffffffffffffffffffffffffff16815260200190815260200160002060009054906101000a900460ff16905092915050565b600c6020528060005260406000206000915054906101000a900460ff1681565b611189611588565b600073ffffffffffffffffffffffffffffffffffffffff168173ffffffffffffffffffffffffffffffffffffffff16036111fb5760006040517f1e4fbdf70000000000000000000000000000000000000000000000000000000081526004016111f291906122f4565b60405180910390fd5b6112048161160f565b50565b60007f01ffc9a7000000000000000000000000000000000000000000000000000000007bffffffffffffffffffffffffffffffffffffffffffffffffffffffff1916827bffffffffffffffffffffffffffffffffffffffffffffffffffffffff1916149050919050565b60008061127d83611ae0565b9050600073ffffffffffffffffffffffffffffffffffffffff168173ffffffffffffffffffffffffffffffffffffffff16036112f057826040517f7e2732890000000000000000000000000000000000000000000000000000000081526004016112e79190612695565b60405180910390fd5b80915050919050565b60006004600083815260200190815260200160002060009054906101000a900473ffffffffffffffffffffffffffffffffffffffff169050919050565b600033905090565b61134b8383836001611b1d565b505050565b60008061135c84611ae0565b9050600073ffffffffffffffffffffffffffffffffffffffff168373ffffffffffffffffffffffffffffffffffffffff161461139e5761139d818486611ce2565b5b600073ffffffffffffffffffffffffffffffffffffffff168173ffffffffffffffffffffffffffffffffffffffff161461142f576113e0600085600080611b1d565b6001600360008373ffffffffffffffffffffffffffffffffffffffff1673ffffffffffffffffffffffffffffffffffffffff168152602001908152602001600020600082825403925050819055505b600073ffffffffffffffffffffffffffffffffffffffff168573ffffffffffffffffffffffffffffffffffffffff16146114b2576001600360008773ffffffffffffffffffffffffffffffffffffffff1673ffffffffffffffffffffffffffffffffffffffff168152602001908152602001600020600082825401925050819055505b846002600086815260200190815260200160002060006101000a81548173ffffffffffffffffffffffffffffffffffffffff021916908373ffffffffffffffffffffffffffffffffffffffff160217905550838573ffffffffffffffffffffffffffffffffffffffff168273ffffffffffffffffffffffffffffffffffffffff167fddf252ad1be2c89b69c2b068fc378daa952ba7f163c4a11628f55a4df523b3ef60405160405180910390a4809150509392505050565b611584828260405180602001604052806000815250611da6565b5050565b611590611336565b73ffffffffffffffffffffffffffffffffffffffff166115ae610e84565b73ffffffffffffffffffffffffffffffffffffffff161461160d576115d1611336565b6040517f118cdaa700000000000000000000000000000000000000000000000000000000815260040161160491906122f4565b60405180910390fd5b565b6000600660009054906101000a900473ffffffffffffffffffffffffffffffffffffffff16905081600660006101000a81548173ffffffffffffffffffffffffffffffffffffffff021916908373ffffffffffffffffffffffffffffffffffffffff1602179055508173ffffffffffffffffffffffffffffffffffffffff168173ffffffffffffffffffffffffffffffffffffffff167f8be0079c531659141344cd1fd0a4f28419497f9722a3daafe3b4186f6b6457e060405160405180910390a35050565b600073ffffffffffffffffffffffffffffffffffffffff168273ffffffffffffffffffffffffffffffffffffffff160361174657816040517f5b08ba1800000000000000000000000000000000000000000000000000000000815260040161173d91906122f4565b60405180910390fd5b80600560008573ffffffffffffffffffffffffffffffffffffffff1673ffffffffffffffffffffffffffffffffffffffff16815260200190815260200160002060008473ffffffffffffffffffffffffffffffffffffffff1673ffffffffffffffffffffffffffffffffffffffff16815260200190815260200160002060006101000a81548160ff0219169083151502179055508173ffffffffffffffffffffffffffffffffffffffff168373ffffffffffffffffffffffffffffffffffffffff167f17307eab39ab6107e8899845ad3d59bd9653f200f220920489ca2b5937696c31836040516118379190612183565b60405180910390a3505050565b60008373ffffffffffffffffffffffffffffffffffffffff163b11156119f5578273ffffffffffffffffffffffffffffffffffffffff1663150b7a02611888611336565b8685856040518563ffffffff1660e01b81526004016118aa9493929190612e77565b6020604051808303816000875af19250505080156118e657506040513d601f19601f820116820180604052508101906118e39190612ed8565b60015b61196a573d8060008114611916576040519150601f19603f3d011682016040523d82523d6000602084013e61191b565b606091505b50600081510361196257836040517f64a0ae9200000000000000000000000000000000000000000000000000000000815260040161195991906122f4565b60405180910390fd5b805181602001fd5b63150b7a0260e01b7bffffffffffffffffffffffffffffffffffffffffffffffffffffffff1916817bffffffffffffffffffffffffffffffffffffffffffffffffffffffff1916146119f357836040517f64a0ae920000000000000000000000000000000000000000000000000000000081526004016119ea91906122f4565b60405180910390fd5b505b50505050565b606060405180602001604052806000815250905090565b606060006001611a2184611dc2565b01905060008167ffffffffffffffff811115611a4057611a3f61242a565b5b6040519080825280601f01601f191660200182016040528015611a725781602001600182028036833780820191505090505b509050600082602001820190505b600115611ad5578080600190039150507f3031323334353637383961626364656600000000000000000000000000000000600a86061a8153600a8581611ac957611ac8612f05565b5b04945060008503611a80575b819350505050919050565b60006002600083815260200190815260200160002060009054906101000a900473ffffffffffffffffffffffffffffffffffffffff169050919050565b8080611b565750600073ffffffffffffffffffffffffffffffffffffffff168273ffffffffffffffffffffffffffffffffffffffff1614155b15611c8a576000611b6684611271565b9050600073ffffffffffffffffffffffffffffffffffffffff168373ffffffffffffffffffffffffffffffffffffffff1614158015611bd157508273ffffffffffffffffffffffffffffffffffffffff168173ffffffffffffffffffffffffffffffffffffffff1614155b8015611be45750611be281846110cd565b155b15611c2657826040517fa9fbf51f000000000000000000000000000000000000000000000000000000008152600401611c1d91906122f4565b60405180910390fd5b8115611c8857838573ffffffffffffffffffffffffffffffffffffffff168273ffffffffffffffffffffffffffffffffffffffff167f8c5be1e5ebec7d5bd14f71427d1e84f3dd0314c0f7b2291e5b200ac8c7c3b92560405160405180910390a45b505b836004600085815260200190815260200160002060006101000a81548173ffffffffffffffffffffffffffffffffffffffff021916908373ffffffffffffffffffffffffffffffffffffffff16021790555050505050565b611ced838383611f15565b611da157600073ffffffffffffffffffffffffffffffffffffffff168373ffffffffffffffffffffffffffffffffffffffff1603611d6257806040517f7e273289000000000000000000000000000000000000000000000000000000008152600401611d599190612695565b60405180910390fd5b81816040517f177e802f000000000000000000000000000000000000000000000000000000008152600401611d98929190612f34565b60405180910390fd5b505050565b611db08383611fd6565b611dbd6000848484611844565b505050565b600080600090507a184f03e93ff9f4daa797ed6e38ed64bf6a1f0100000000000000008310611e20577a184f03e93ff9f4daa797ed6e38ed64bf6a1f0100000000000000008381611e1657611e15612f05565b5b0492506040810190505b6d04ee2d6d415b85acef81000000008310611e5d576d04ee2d6d415b85acef81000000008381611e5357611e52612f05565b5b0492506020810190505b662386f26fc100008310611e8c57662386f26fc100008381611e8257611e81612f05565b5b0492506010810190505b6305f5e1008310611eb5576305f5e1008381611eab57611eaa612f05565b5b0492506008810190505b6127108310611eda576127108381611ed057611ecf612f05565b5b0492506004810190505b60648310611efd5760648381611ef357611ef2612f05565b5b0492506002810190505b600a8310611f0c576001810190505b80915050919050565b60008073ffffffffffffffffffffffffffffffffffffffff168373ffffffffffffffffffffffffffffffffffffffff1614158015611fcd57508273ffffffffffffffffffffffffffffffffffffffff168473ffffffffffffffffffffffffffffffffffffffff161480611f8e5750611f8d84846110cd565b5b80611fcc57508273ffffffffffffffffffffffffffffffffffffffff16611fb4836112f9565b73ffffffffffffffffffffffffffffffffffffffff16145b5b90509392505050565b600073ffffffffffffffffffffffffffffffffffffffff168273ffffffffffffffffffffffffffffffffffffffff16036120485760006040517f64a0ae9200000000000000000000000000000000000000000000000000000000815260040161203f91906122f4565b60405180910390fd5b600061205683836000611350565b9050600073ffffffffffffffffffffffffffffffffffffffff168173ffffffffffffffffffffffffffffffffffffffff16146120ca5760006040517f73c6ac6e0000000000000000000000000000000000000000000000000000000081526004016120c191906122f4565b60405180910390fd5b505050565b6000604051905090565b600080fd5b600080fd5b60007fffffffff0000000000000000000000000000000000000000000000000000000082169050919050565b612118816120e3565b811461212357600080fd5b50565b6000813590506121358161210f565b92915050565b600060208284031215612151576121506120d9565b5b600061215f84828501612126565b91505092915050565b60008115159050919050565b61217d81612168565b82525050565b60006020820190506121986000830184612174565b92915050565b600081519050919050565b600082825260208201905092915050565b60005b838110156121d85780820151818401526020810190506121bd565b60008484015250505050565b6000601f19601f8301169050919050565b60006122008261219e565b61220a81856121a9565b935061221a8185602086016121ba565b612223816121e4565b840191505092915050565b6000602082019050818103600083015261224881846121f5565b905092915050565b6000819050919050565b61226381612250565b811461226e57600080fd5b50565b6000813590506122808161225a565b92915050565b60006020828403121561229c5761229b6120d9565b5b60006122aa84828501612271565b91505092915050565b600073ffffffffffffffffffffffffffffffffffffffff82169050919050565b60006122de826122b3565b9050919050565b6122ee816122d3565b82525050565b600060208201905061230960008301846122e5565b92915050565b612318816122d3565b811461232357600080fd5b50565b6000813590506123358161230f565b92915050565b60008060408385031215612352576123516120d9565b5b600061236085828601612326565b925050602061237185828601612271565b9150509250929050565b600080600060608486031215612394576123936120d9565b5b60006123a286828701612326565b93505060206123b386828701612326565b92505060406123c486828701612271565b9150509250925092565b6000602082840312156123e4576123e36120d9565b5b60006123f284828501612326565b91505092915050565b6004811061240857600080fd5b50565b60008135905061241a816123fb565b92915050565b600080fd5b600080fd5b7f4e487b7100000000000000000000000000000000000000000000000000000000600052604160045260246000fd5b612462826121e4565b810181811067ffffffffffffffff821117156124815761248061242a565b5b80604052505050565b60006124946120cf565b90506124a08282612459565b919050565b600067ffffffffffffffff8211156124c0576124bf61242a565b5b6124c9826121e4565b9050602081019050919050565b82818337600083830152505050565b60006124f86124f3846124a5565b61248a565b90508281526020810184848401111561251457612513612425565b5b61251f8482856124d6565b509392505050565b600082601f83011261253c5761253b612420565b5b813561254c8482602086016124e5565b91505092915050565b6000806000806080858703121561256f5761256e6120d9565b5b600061257d87828801612326565b945050602061258e8782880161240b565b935050604085013567ffffffffffffffff8111156125af576125ae6120de565b5b6125bb87828801612527565b925050606085013567ffffffffffffffff8111156125dc576125db6120de565b5b6125e887828801612527565b91505092959194509250565b7f4e487b7100000000000000000000000000000000000000000000000000000000600052602160045260246000fd5b60048110612634576126336125f4565b5b50565b600081905061264582612623565b919050565b600061265582612637565b9050919050565b6126658161264a565b82525050565b6000602082019050612680600083018461265c565b92915050565b61268f81612250565b82525050565b60006020820190506126aa6000830184612686565b92915050565b6000602082840312156126c6576126c56120d9565b5b600082013567ffffffffffffffff8111156126e4576126e36120de565b5b6126f084828501612527565b91505092915050565b61270281612168565b811461270d57600080fd5b50565b60008135905061271f816126f9565b92915050565b6000806040838503121561273c5761273b6120d9565b5b600061274a85828601612326565b925050602061275b85828601612710565b9150509250929050565b600067ffffffffffffffff8211156127805761277f61242a565b5b612789826121e4565b9050602081019050919050565b60006127a96127a484612765565b61248a565b9050828152602081018484840111156127c5576127c4612425565b5b6127d08482856124d6565b509392505050565b600082601f8301126127ed576127ec612420565b5b81356127fd848260208601612796565b91505092915050565b600080600080608085870312156128205761281f6120d9565b5b600061282e87828801612326565b945050602061283f87828801612326565b935050604061285087828801612271565b925050606085013567ffffffffffffffff811115612871576128706120de565b5b61287d878288016127d8565b91505092959194509250565b600080604083850312156128a05761289f6120d9565b5b60006128ae85828601612326565b92505060206128bf85828601612326565b9150509250929050565b7f4e487b7100000000000000000000000000000000000000000000000000000000600052602260045260246000fd5b6000600282049050600182168061291057607f821691505b602082108103612923576129226128c9565b5b50919050565b600060608201905061293e60008301866122e5565b61294b6020830185612686565b61295860408301846122e5565b949350505050565b7f47697448756220757365726e616d652063616e6e6f7420626520656d70747900600082015250565b6000612996601f836121a9565b91506129a182612960565b602082019050919050565b600060208201905081810360008301526129c581612989565b9050919050565b7f57616c6c6574206164647265737320616c726561647920686173206120746f6b60008201527f656e000000000000000000000000000000000000000000000000000000000000602082015250565b6000612a286022836121a9565b9150612a33826129cc565b604082019050919050565b60006020820190508181036000830152612a5781612a1b565b9050919050565b600081905092915050565b6000612a748261219e565b612a7e8185612a5e565b9350612a8e8185602086016121ba565b80840191505092915050565b6000612aa68284612a69565b915081905092915050565b7f47697448756220757365726e616d6520616c72656164792074616b656e000000600082015250565b6000612ae7601d836121a9565b9150612af282612ab1565b602082019050919050565b60006020820190508181036000830152612b1681612ada565b9050919050565b7f4e487b7100000000000000000000000000000000000000000000000000000000600052601160045260246000fd5b6000612b5782612250565b9150612b6283612250565b9250828201905080821115612b7a57612b79612b1d565b5b92915050565b60008190508160005260206000209050919050565b60006020601f8301049050919050565b600082821b905092915050565b600060088302612be27fffffffffffffffffffffffffffffffffffffffffffffffffffffffffffffffff82612ba5565b612bec8683612ba5565b95508019841693508086168417925050509392505050565b6000819050919050565b6000612c29612c24612c1f84612250565b612c04565b612250565b9050919050565b6000819050919050565b612c4383612c0e565b612c57612c4f82612c30565b848454612bb2565b825550505050565b600090565b612c6c612c5f565b612c77818484612c3a565b505050565b5b81811015612c9b57612c90600082612c64565b600181019050612c7d565b5050565b601f821115612ce057612cb181612b80565b612cba84612b95565b81016020851015612cc9578190505b612cdd612cd585612b95565b830182612c7c565b50505b505050565b600082821c905092915050565b6000612d0360001984600802612ce5565b1980831691505092915050565b6000612d1c8383612cf2565b9150826002028217905092915050565b612d358261219e565b67ffffffffffffffff811115612d4e57612d4d61242a565b5b612d5882546128f8565b612d63828285612c9f565b600060209050601f831160018114612d965760008415612d84578287015190505b612d8e8582612d10565b865550612df6565b601f198416612da486612b80565b60005b82811015612dcc57848901518255600182019150602085019450602081019050612da7565b86831015612de95784890151612de5601f891682612cf2565b8355505b6001600288020188555050505b505050505050565b6000612e0a8285612a69565b9150612e168284612a69565b91508190509392505050565b600081519050919050565b600082825260208201905092915050565b6000612e4982612e22565b612e538185612e2d565b9350612e638185602086016121ba565b612e6c816121e4565b840191505092915050565b6000608082019050612e8c60008301876122e5565b612e9960208301866122e5565b612ea66040830185612686565b8181036060830152612eb88184612e3e565b905095945050505050565b600081519050612ed28161210f565b92915050565b600060208284031215612eee57612eed6120d9565b5b6000612efc84828501612ec3565b91505092915050565b7f4e487b7100000000000000000000000000000000000000000000000000000000600052601260045260246000fd5b6000604082019050612f4960008301856122e5565b612f566020830184612686565b939250505056fea2646970667358221220a3fca0b7cfe290aaa6bf88ecbe60b63cd09b405db52300d15a7de297180d629164736f6c63430008140033",
  "linkReferences": {},
  "deployedLinkReferences": {}
}